:106000000000011089610000056200000D620000BF
:106010001D620000256200002D62000000000000EB
:10602000000000000000000000000000DDC20000D1
:106030003D62000000000000B5C30000F5C3000091
:106040005562000055620000556200005562000074
:106050005562000055620000556200005562000064
:106060005562000055620000556200005562000054
:106070005562000055620000556200005562000044
:106080005562000019600100556200005562000071
:106090005562000055620000556200005562000024
:1060A000E5B300001D3B0100B9CF000055620000C0
:1060B000A1800000B58C0000556200005562000010
:1060C00055620000556200005562000055620000F4
:1060D00055620000556200005562000055620000E4
:1060E000556200005CA8050000000010AC0F000025
:1060F0005CA805000000002000000000B00F0010A8
:1061000034E20000000000200000000080B489B0EC
:1061100000AFF860B9607A60BB68FB61FB68BB6187
:1061200000237B610AE0FB691A1DFA61BA69111D3F
:10613000B96112681A607B6904337B617A697B6894
:106140009A42F0D300BF2437BD4680BC704700BFE1
:1061500080B485B000AF786039607B68FB60002355
:10616000BB6007E0FB681A1DFA6000221A60BB687A
:106170000433BB60BA683B689A42F3D300BF14375C
:10618000BD4680BC704700BF80B584B000AF1A4BDD
:10619000FB6013E0FB681A1DFA601B68BB60FB68BC
:1061A0001A1DFA601B687B60FB681A1DFA601B6889
:1061B0003B603A687968B868FFF7A8FFFB680F4A48
:1061C0009342E7D30DE0FB681A1DFA601B687B6001
:1061D000FB681A1DFA601B683B6039687868FFF736
:1061E000B7FFFB68064A9342EDD30DF031F90BF08F
:1061F00003FD41F0DBFDFEE7E4600000FC60000011
:106200000C61000080B400AFFEE700BF80B500AFB6
:1062100001480DF0CDFEFEE778AE040080B400AF7B
:10622000FEE700BF80B400AFFEE700BF80B400AF60
:10623000FEE700BF80B400AFFEE700BF80B400AF50
:10624000FEE700BF80B400AFFEE700BF80B400AF40
:10625000FEE700BF80B400AFFEE700BF80B586B0A8
:1062600000AFF860B9607A6000F036F85023FB7533
:106270000AE000F091F838613B69002B08D000F08B
:1062800041F8FB7D013BFB75FB7D002BF1D100E06C
:1062900000BF3B69002B07D03B694B220B490C48E0
:1062A00000F040FB3B690DE0F968B86800F0B0F819
:1062B0003861FB681B68074A1360786800F00AF9C8
:1062C00038613B6918461837BD4680BD9CA804005C
:1062D00078A80400B00F001080B584B002AF084B5E
:1062E0001B6801930123009300230022FE21A120BB
:1062F00005F062FB78607B6818460837BD4680BDB4
:106300008C98001080B584B002AF0623019303235C
:106310000093802300220021002000F0F9F91B4B9C
:1063200018681B4B1A681F234FF4002105F0B2FABE
:1063300078607B68002B23D1164B1868144B1A68C1
:1063400012234FF4801105F0A5FA78607B68002BCA
:1063500016D1104B18680E4B1A680D234FF480119C
:1063600005F098FA78607B68002B09D1084B1B6810
:106370000C331B78DBB2002B02D06FF009037B607B
:106380007B6818460837BD4680BD00BF8498001062
:106390008C9800109498001080B584B002AF06234A
:1063A000019300230093012300220021002000F02C
:1063B000AFF9144B1868144B1A681F234FF40021CF
:1063C00005F068FA78607B68002B16D10F4B1868CF
:1063D0000D4B1A680D234FF4801105F05BFA7860BD
:1063E0007B68002B09D1084B1B680C331B78DBB290
:1063F000002B02D06FF009037B607B6818460837DA
:10640000BD4680BD849800108C98001094980010B0
:1064100080B586B002AF786039600A2301932523E6
:106420000093802300220021002000F071F9264B08
:106430001868264B1A681F234FF4002105F02AFA2A
:10644000F860FB68002B3AD1214B18681F4B1A6883
:1064500008234FF4801105F01DFAF860FB68002B4B
:106460002DD17B68002B07D0184B1B68184605F010
:1064700017FC02467B681A603B68002B08D0134B60
:106480001B680433184605F00BFC02463B681A6093
:106490000F4B18680D4B1A680D234FF4801105F04F
:1064A000F9F9F860FB68002B09D1084B1B680C3325
:1064B0001B78DBB2002B02D06FF00903FB60FB6896
:1064C00018461037BD4680BD849800108C98001087
:1064D0009498001080B586B002AF786006230193CF
:1064E00012230093802300220021002000F010F9E5
:1064F000264B1868264B1A681F234FF4002105F01D
:10650000C9F9F860FB68002B3AD1224B1868204B80
:106510001A6824234FF4801105F0BCF9F860FB6879
:10652000002B2DD17B68002B13D00023BB600DE026
:106530007B685A1C7A60164A1268511C1448016024
:106540001278D2B21A70BB680133BB60BB68232BD0
:10655000EED9104B18680E4B1A680D234FF48011BA
:1065600005F098F9F860FB68002B09D1084B1B680F
:106570000C331B78DBB2002B02D06FF00903FB60F9
:10658000FB6818461037BD4680BD00BF84980010D8
:106590008C9800109498001080B58AB002AFF86013
:1065A0000B467A607B817B687B610023BB6107E0DF
:1065B0007B695A1C7A6100221A70BB690133BB6186
:1065C0007B89254A126802FB03F2BB699A42EFD825
:1065D000214B19687A890A23019328230093802389
:1065E000F86800F095F81D4B18681D4B1A681F23BA
:1065F0004FF4002105F04EF9F861FB69002B26D11C
:10660000184B18687B89144A126802FB03F37A68F6
:106610004FF4801105F03EF9F861FB69002B16D1AB
:10662000104B18680E4B1A680D234FF4801105F0BB
:1066300031F9F861FB69002B09D1094B1B680C3358
:106640001B78DBB2002B02D06FF00903FB61FB6902
:1066500018462037BD4680BDB00F0010849800104A
:106660008C9800109498001080B588B002AFF86044
:106670000B467A607B81224B19687A890A23019341
:106680002A2300930023F86800F042F81D4B186895
:106690001D4B1A681F234FF4002105F0FBF87861A9
:1066A0007B69002B26D1174B18687B89144A126826
:1066B00002FB03F37A684FF4002105F0EBF87861F0
:1066C0007B69002B16D1114B18680F4B1A680D23EC
:1066D0004FF4801105F0DEF878617B69002B09D159
:1066E000094B1B680C331B78DBB2002B02D06FF018
:1066F00009037B617B6918461837BD4680BD00BF22
:10670000B00F0010849800108C980010949800101E
:1067100080B586B000AFF860B96011461A460B46E6
:10672000FB8013467B7100233B6108E05F4B1A68D6
:106730003B69134400221A703B6901333B613B699A
:106740001E2BF3D997F82030252B5BD801A252F8E5
:1067500023F000BFED670000056800000568000039
:10676000F967000005680000056800000568000082
:106770000568000005680000056800000568000065
:106780000568000005680000056800000568000055
:10679000056800000568000005680000FF6700004C
:1067A0000568000005680000056800000568000035
:1067B0000568000005680000056800000568000025
:1067C0000568000005680000056800000568000015
:1067D0000568000005680000056800000568000005
:1067E0000568000005680000F367000000237B6176
:1067F0000EE008237B610BE012237B6108E0242379
:106800007B6105E0FB88BA6802FB03F37B6100BF94
:10681000264B1B682649184605F0FCF9234B1B68DC
:106820001A1D244B1B681946104605F0F3F91F4B3F
:106830001B6808337969184605F0ECF91B4B1B6897
:106840000C337A79012A01D07A7900E000221A709B
:10685000164B1B680E3397F824201A70134B1B68D5
:106860000F3397F820201A7097F82030032B03D0AD
:1068700097F82030122B06D10C4B1B6813337A6922
:10688000D2B21A7006E0094B1B681133F96818463A
:1068900005F02CFA054B1B681633FA88114618468A
:1068A00005F03EFA00BF1837BD4680BD8C98001039
:1068B00055534243B40F001080B582B000AF034679
:1068C000FB71054B1B68FA7911460020984700BF01
:1068D0000837BD4680BD00BF3C98001080B582B02F
:1068E00000AF786015E07B681B780A2B0AD17B68C3
:1068F0005A1C7A601B781846FFF7DEFF0D20FFF761
:10690000DBFF06E07B685A1C7A601B781846FFF7AD
:10691000D3FF7B681B78002BE5D100BF0837BD464D
:1069200080BD00BF0FB480B582B000AF07F1140383
:106930007B607A683969064841F0ECFF0448FFF74C
:10694000CDFF00BF0837BD46BDE8804004B07047AA
:10695000B80F001080B400AF284B00225A70274BAC
:1069600000229A70254B0022DA70244B00221A7103
:10697000224B00225A71214B00229A711F4B002298
:10698000DA711E4B00221A721C4B00225A721B4BEA
:1069900000229A72194B4FF6FF729A81174B4FF6ED
:1069A000FF72DA81154B4FF6FF721A82134B4FF6C6
:1069B000FF725A82114B4FF6FF729A820F4B4FF6BD
:1069C000FF72DA820D4B4FF6FF721A830B4B4FF6B4
:1069D000FF725A83094B4FF6FF729A83074B4FF6AB
:1069E000FF72DA83054B002283F82120034B00223B
:1069F00083F8202000BFBD4680BC7047DC970010A4
:106A000080B582B000AF05F095FA702005F016FB56
:106A1000002005F013FB05F0C9FA05F08BFA712090
:106A200005F00CFB012005F0ADFB0346FB710020D7
:106A300005F0A8FB05F0BAFAFB791B11DBB203F0F5
:106A40000703DAB2034B83F8222000BF0837BD46A4
:106A500080BD00BFDC97001080B582B000AF05F0AC
:106A600069FA702005F0EAFA012005F0E7FA05F06E
:106A70009DFA05F05FFA712005F0E0FA012005F0BB
:106A800081FB0346FB71002005F07CFB05F08EFACC
:106A9000034AFB7982F8203000BF0837BD4680BD2D
:106AA000DC97001080B582B000AF05F043FA70208B
:106AB00005F0C4FA022005F0C1FA05F077FA05F0F6
:106AC00039FA712005F0BAFA012005F05BFB0346A4
:106AD000FB71002005F056FB05F068FAFB7903F026
:106AE0000F03DAB2034B83F8212000BF0837BD46FD
:106AF00080BD00BFDC97001080B582B000AF05F00C
:106B000019FA702005F09AFA0346012B59D1032097
:106B100005F094FA0346012B55D105F047FA05F02C
:106B200009FA712005F08AFA0346012B4DD10120A4
:106B300005F028FB03463B71012005F023FB0346CB
:106B40007B71012005F01EFB0346BB71012005F09F
:106B500019FB0346FB71002005F014FB05F026FA33
:106B60003B799B09DAB21B4B5A70BB799B09DAB2AD
:106B7000184B9A713B791B0203F470637A791343C3
:106B8000154A128892B202FB03F3144A128892B299
:106B900093FBF2F39AB20F4B9A81BB791B0203F479
:106BA0007063FA7913430E4A128892B202FB03F320
:106BB0000C4A128892B293FBF2F39AB2054BDA8236
:106BC00004E000BF02E000BF00E000BF0837BD46A0
:106BD00080BD00BFDC970010000000100400001012
:106BE000020000100600001080B582B000AF05F072
:106BF000A1F9702005F022FA0346012B59D1092092
:106C000005F01CFA0346012B55D105F0CFF905F02C
:106C100091F9712005F012FA0346012B4DD10120A4
:106C200005F0B0FA03463B71012005F0ABFA0346CC
:106C30007B71012005F0A6FA0346BB71012005F027
:106C4000A1FA0346FB71002005F09CFA05F0AEF9AD
:106C50003B799B09DAB21B4B9A70BB799B09DAB27C
:106C6000184BDA713B791B0203F470637A79134392
:106C7000154A128892B202FB03F3144A128892B2A8
:106C800093FBF2F39AB20F4BDA81BB791B0203F448
:106C90007063FA7913430E4A128892B202FB03F32F
:106CA0000C4A128892B293FBF2F39AB2054B1A8304
:106CB00004E000BF02E000BF00E000BF0837BD46AF
:106CC00080BD00BFDC970010000000100400001021
:106CD000020000100600001080B582B000AF05F081
:106CE00029F9702005F0AAF90346012B59D10F208C
:106CF00005F0A4F90346012B55D105F057F905F02D
:106D000019F9712005F09AF90346012B4DD10120A4
:106D100005F038FA03463B71012005F033FA0346CB
:106D20007B71012005F02EFA0346BB71012005F0AE
:106D300029FA0346FB71002005F024FA05F036F924
:106D40003B799B09DAB21B4BDA70BB799B09DAB24B
:106D5000184B1A723B791B0203F470637A79134360
:106D6000154A128892B202FB03F3144A128892B2B7
:106D700093FBF2F39AB20F4B1A82BB791B0203F416
:106D80007063FA7913430E4A128892B202FB03F33E
:106D90000C4A128892B293FBF2F39AB2054B5A83D3
:106DA00004E000BF02E000BF00E000BF0837BD46BE
:106DB00080BD00BFDC970010000000100400001030
:106DC000020000100600001080B582B000AF05F090
:106DD000B1F8702005F032F90346012B59D1152086
:106DE00005F02CF90346012B55D105F0DFF805F02D
:106DF000A1F8712005F022F90346012B4DD10120A5
:106E000005F0C0F903463B71012005F0BBF90346CC
:106E10007B71012005F0B6F90346BB71012005F036
:106E2000B1F90346FB71002005F0ACF905F0BEF89E
:106E30003B799B09DAB21B4B1A71BB799B09DAB219
:106E4000184B5A723B791B0203F470637A7913432F
:106E5000154A128892B202FB03F3144A128892B2C6
:106E600093FBF2F39AB20F4B5A82BB791B0203F4E5
:106E70007063FA7913430E4A128892B202FB03F34D
:106E80000C4A128892B293FBF2F39AB2054B9A83A2
:106E900004E000BF02E000BF00E000BF0837BD46CD
:106EA00080BD00BFDC97001000000010040000103F
:106EB000020000100600001080B582B000AF05F09F
:106EC00039F8702005F0BAF80346012B59D11B2080
:106ED00005F0B4F80346012B55D105F067F805F02D
:106EE00029F8712005F0AAF80346012B4DD10120A5
:106EF00005F048F903463B71012005F043F90346CC
:106F00007B71012005F03EF90346BB71012005F0BD
:106F100039F90346FB71002005F034F905F046F815
:106F20003B799B09DAB21B4B5A71BB799B09DAB2E8
:106F3000184B9A723B791B0203F470637A791343FE
:106F4000154A128892B202FB03F3144A128892B2D5
:106F500093FBF2F39AB20F4B9A82BB791B0203F4B4
:106F60007063FA7913430E4A128892B202FB03F35C
:106F70000C4A128892B293FBF2F39AB2054BDA8371
:106F800004E000BF02E000BF00E000BF0837BD46DC
:106F900080BD00BFDC97001000000010040000104E
:106FA000020000100600001080B500AF1F4B5B69A7
:106FB00003F08073002B32D11D4B00221A70FFF7B3
:106FC0004BFDFFF76FFD1B4B93F82130DBB2002B1D
:106FD00004D0184B01221A70FFF78EFD154B93F861
:106FE0002130DBB2012B01D9FFF7FEFD114B93F8E5
:106FF0002130DBB2022B01D9FFF76EFE0D4B93F867
:107000002130DBB2032B01D9FFF7DEFE094B93F8E9
:107010002130DBB2042B07D9FFF74EFF04E0054B0C
:1070200000221A70FFF796FC00BF80BD0080092087
:10703000E10F0010DC97001080B483B000AF03466E
:107040000A46FB801346BB80054AFB881380054A2D
:10705000BB88138000BF0C37BD4680BC704700BFA3
:10706000040000100600001080B582B000AF034697
:107070000A46FB801346BB80074AFB881380074AF9
:10708000BB881380BA88FB8811461846FFF7D4FFE7
:1070900000BF0837BD4680BD000000100200001090
:1070A00080B500AF164B00221A65164A154B1B68B7
:1070B00043F480131360134A124B9B6943F480130B
:1070C00093610F4B9022DA650E4A0E4B1B6843F416
:1070D000000313600B4A0B4BDB6943F40003D361DD
:1070E000074B90221A66074A064B1B6823F08073F1
:1070F0001360FFF72FFC04F0FFFE00BF80BD00BF50
:1071000000C002400080092080B582B000AF034675
:107110000A46FB711346BB71B91DF87901230122A0
:1071200003F074FE00BF0837BD4680BD80B584B053
:1071300000AF0346FB710023FB7307F10F01F879E1
:107140000123012203F00AFFFB7B18461037BD46DE
:1071500080BD00BF80B582B000AF03463960FB71CF
:107160003B68002B01D100230BE0F87900230122BA
:10717000396803F0F3FE0346002B01D0012300E041
:10718000002318460837BD4680BD00BF80B588B0D3
:1071900000AF3B600346FB710B46BB7113467B712E
:1071A0000023FB7200237B777B79002B04D13B68A3
:1071B00000221A600023EFE000233B61BB79012B22
:1071C00006D0BB79002B01D10A2302E0002300E0A6
:1071D0001023BB77BB7F002B04D13B6800221A60D1
:1071E0000023D9E000237B61CEE001237B7707F108
:1071F0000B01F8790123012203F0B0FEFB7A2F2B5B
:1072000006D9FB7A392B03D8FB7A303BBB616FE0A0
:10721000BB79012B6AD11023BB77FB7A413B252B2D
:1072200060D801A252F823F0C1720000C7720000BA
:10723000CD720000D3720000D9720000DF7200002E
:10724000E5720000E5720000E5720000E5720000E2
:10725000E5720000E5720000E5720000E5720000D2
:10726000E5720000E5720000E5720000E5720000C2
:10727000E5720000E5720000E5720000E5720000B2
:10728000E5720000E5720000E5720000E5720000A2
:10729000E5720000E5720000E5720000E572000092
:1072A000E5720000E5720000C1720000C7720000C4
:1072B000CD720000D3720000D9720000DF720000AE
:1072C0000A23BB6114E00B23BB6111E00C23BB61FB
:1072D0000EE00D23BB610BE00E23BB6108E00F2322
:1072E000BB6105E000237B7700BF01E000237B77D3
:1072F0000123FB607B7F002B1DD1BB79002B05D1C7
:10730000FB792749184600F051F807E0BB79012BBB
:1073100004D1FB792349184600F048F83B69013352
:107320003B613B69092B2FD9FB791F49184600F0B7
:107330003DF8002330E0FA7AFB7911461846FFF752
:10734000E3FE7B79012B04D10123BB770123FB6092
:107350000EE00123FB7707E0BA7FFB6802FB03F333
:10736000FB60FB7F0133FB77FA7F7B799A42F3D393
:10737000BB69FA6802FB03F3BB617A69BB6913441A
:107380007B617B79013B7B717B79002B7FF42DAF97
:107390003B687A691A60012318462037BD4680BDD4
:1073A000A4A80400D0A804002CA9040080B584B0CF
:1073B00000AF03463960FB713B68FB6008E0FB6887
:1073C0005A1CFA601A78FB7911461846FFF79CFEA2
:1073D000FB681B78002BF2D100BF1037BD4680BD83
:1073E00080B582B000AF03463960FB71FB79396824
:1073F0001846FFF7DBFFFB7903491846FFF7D6FF76
:1074000000BF0837BD4680BD5CA9040080B584B0CC
:1074100000AF03460A46FB711346BB71BA79234B92
:10742000A3FB0213D9080B469B000B445B00D31A45
:10743000FB73BB791D4AA2FB0323DB08DAB21B4BAB
:10744000A3FB0213D9080B469B000B445B00D31A25
:10745000BB73BB79164AA2FB03235B09DAB2134B59
:10746000A3FB0213D9080B469B000B445B00D31A05
:107470007B737B7B3033DAB2FB7911461846FFF71A
:1074800043FEBB7B3033DAB2FB7911461846FFF777
:107490003BFEFB7B3033DAB2FB7911461846FFF72F
:1074A00033FE00BF1037BD4680BD00BFCDCCCCCC75
:1074B0001F85EB5180B584B000AF03460A46FB71CF
:1074C0001346BB80BA883D4BA3FB0213D9080B4679
:1074D0009B000B445B00D31A9BB2FB73BB88374AFB
:1074E000A2FB0323DB089AB2344BA3FB0213D90897
:1074F0000B469B000B445B00D31A9BB2BB73BB884B
:107500002F4AA2FB03235B099AB22C4BA3FB021365
:10751000D9080B469B000B445B00D31A9BB27B73CC
:10752000BB88284AA2FB03239B099AB2234BA3FBE7
:107530000213D9080B469B000B445B00D31A9BB285
:107540003B73BB88204AA2FB03235B0B9AB21B4B05
:10755000A3FB0213D9080B469B000B445B00D31A14
:107560009BB2FB72FB7A3033DAB2FB7911461846D4
:10757000FFF7CAFD3B7B3033DAB2FB791146184680
:10758000FFF7C2FD7B7B3033DAB2FB791146184638
:10759000FFF7BAFDBB7B3033DAB2FB7911461846F0
:1075A000FFF7B2FDFB7B3033DAB2FB7911461846A8
:1075B000FFF7AAFD00BF1037BD4680BDCDCCCCCCB7
:1075C0001F85EB51D34D62105917B7D180B586B0E6
:1075D00000AF03463960FB713968784BA3FB012388
:1075E000DA0813469B0013445B00CA1A1346FB7566
:1075F0003B68724AA2FB0323D908704BA3FB01230B
:10760000DA0813469B0013445B00CA1A1346BB7585
:107610003B686B4AA2FB03235909684BA3FB012378
:10762000DA0813469B0013445B00CA1A13467B75A5
:107630003B68644AA2FB03239909604BA3FB012327
:10764000DA0813469B0013445B00CA1A13463B75C5
:107650003B685D4AA2FB0323590B584BA3FB012354
:10766000DA0813469B0013445B00CA1A1346FB74E6
:107670003B685B09554AA2FB0323D9094F4BA3FB87
:107680000123DA0813469B0013445B00CA1A134611
:10769000BB743B684E4AA2FB0323990C474BA3FBE8
:1076A0000123DA0813469B0013445B00CA1A1346F1
:1076B0007B743B68474AA2FB0323990D3F4BA3FB16
:1076C0000123DA0813469B0013445B00CA1A1346D1
:1076D0003B743B68404AA2FB0323590E374BA3FB84
:1076E0000123DA0813469B0013445B00CA1A1346B1
:1076F000FB733B685B0A394AA2FB0323D9092F4B72
:10770000A3FB0123DA0813469B0013445B00CA1A4B
:107710001346BB73BB7B3033DAB2FB791146184694
:10772000FFF7F2FCFB7B3033DAB2FB7911461846E7
:10773000FFF7EAFC3B7C3033DAB2FB79114618469E
:10774000FFF7E2FC7B7C3033DAB2FB791146184656
:10775000FFF7DAFCBB7C3033DAB2FB79114618460E
:10776000FFF7D2FCFB7C3033DAB2FB7911461846C6
:10777000FFF7CAFC3B7D3033DAB2FB79114618467D
:10778000FFF7C2FC7B7D3033DAB2FB791146184635
:10779000FFF7BAFCBB7D3033DAB2FB7911461846ED
:1077A000FFF7B2FCFB7D3033DAB2FB7911461846A5
:1077B000FFF7AAFC00BF1837BD4680BDCDCCCCCCAE
:1077C0001F85EB51D34D62105917B7D1C55A7C0AAA
:1077D00083DE1B436BCA5F6B893BE655834B04001A
:1077E00080B584B000AF03460A46FB711346BB71F7
:1077F0000123FB73BA79FB7B9B0042FA03F3DBB2F4
:1078000003F00F03BB73BB7B092B03D9BB7B37335F
:10781000DBB202E0BB7B3033DBB2FA7919461046AB
:10782000FFF772FCFB7B5A1EFA73002BE2D100BFFC
:107830001037BD4680BD00BF80B584B000AF0346A1
:107840000A46FB711346BB71FB7913491846FFF7D3
:10785000ADFD0123FB73BA79FB7B9B0042FA03F376
:10786000DBB203F00F03BB73BB7B092B03D9BB7BDC
:107870003733DBB202E0BB7B3033DBB2FA79194637
:107880001046FFF741FCFB7B5A1EFA73002BE2D136
:1078900000BF1037BD4680BD60A9040080B584B02C
:1078A00000AF03460A46FB711346BB800323FB73FC
:1078B000BA88FB7B9B0042FA03F3DBB203F00F03B1
:1078C000BB73BB7B092B03D9BB7B3733DBB202E035
:1078D000BB7B3033DBB2FA7919461046FFF714FC54
:1078E000FB7B5A1EFA73002BE2D100BF1037BD4656
:1078F00080BD00BF80B584B000AF03460A46FB716F
:107900001346BB80FB7913491846FFF74FFD03234D
:10791000FB73BA88FB7B9B0042FA03F3DBB203F0F4
:107920000F03BB73BB7B092B03D9BB7B3733DBB2A4
:1079300002E0BB7B3033DBB2FA7919461046FFF721
:10794000E3FBFB7B5A1EFA73002BE2D100BF10371A
:10795000BD4680BD60A9040080B584B000AF034679
:107960003960FB710723FB73FB7B9B003A6822FAAB
:1079700003F3DBB203F00F03BB73BB7B092B03D90B
:10798000BB7B3733DBB202E0BB7B3033DBB2FA794F
:1079900019461046FFF7B8FBFB7B5A1EFA73002B03
:1079A000E2D100BF1037BD4680BD00BF80B584B0B6
:1079B00000AF03463960FB71FB7913491846FFF7A6
:1079C000F5FC0723FB73FB7B9B003A6822FA03F369
:1079D000DBB203F00F03BB73BB7B092B03D9BB7B6B
:1079E0003733DBB202E0BB7B3033DBB2FA791946C6
:1079F0001046FFF789FBFB7B5A1EFA73002BE2D17E
:107A000000BF1037BD4680BD60A9040080B582B0BC
:107A100000AF01220221002002F058FC01220321C4
:107A2000002002F053FC3B46184603F063F93B4646
:107A30001946002002F0D8FF0121002003F01AFBB4
:107A4000184B194A1A60194B194A1A60194B1A4AED
:107A50001A601A4B1A4A1A601A4B1B4A1A601B4BBF
:107A60001B4A1A601B4B1C4A1A601C4B1C4A1A60AA
:107A70001C4B1D4A1A601D4B1D4A1A601D4B1E4AA5
:107A80001A601E4B1E4A1A601E4B1F4A1A601F4B7B
:107A90001F4A1A601F4B204A1A6000BF0837BD46B4
:107AA00080BD00BF30980010AD7300003898001002
:107AB000E17300003C98001009710000409800102C
:107AC0003978000050980010F578000020980010D8
:107AD000AD7900002C980010E17700004498001068
:107AE0009D780000489800105979000018980010FF
:107AF0000D74000024980010B57400001C9800104C
:107B0000CD750000349800102D7100004C980010C5
:107B10008D710000289800105571000080B483B06A
:107B200000AF0346FB71FB79032B17D801A252F873
:107B300023F000BF457B00004B7B0000517B000021
:107B4000577B0000084B1B6809E0084B1B6806E0E8
:107B5000074B1B6803E0074B1B6800E0FEE7184675
:107B60000C37BD4680BC7047F0000010F4000010D8
:107B7000F8000010FC00001080B483B000AF786003
:107B80000B46FB70FB78012B08D10D490C4BD3F849
:107B9000C4207B681343C1F8C4300BE0FB78002B92
:107BA00008D10749064BD3F8C4207B68DB43134058
:107BB000C1F8C43000BF0C37BD4680BC704700BF61
:107BC00000C00F4080B582B000AF264B00229A6102
:107BD0000020FFF7A3FF78607B68234AA2FB032302
:107BE000DB0B013B3B601F4A3B6853617B681F4ACC
:107BF000A2FB03239A0C13461B019B1A1C4AA2FBEF
:107C000003239B0901333B607B68184AA2FB0323D3
:107C10009A0C1346DB009B1ADB009B1A144AA2FB4A
:107C200003239B0901331B023A6813433B607B68C3
:107C30000E4AA2FB03239A0C13469B001344DA005E
:107C4000D31A0B4AA2FB03239B0901331B043A6896
:107C500013433B60034A3B68136100BF0837BD46CE
:107C600080BD00BF80002000819F5E1683DE1B4325
:107C7000D34D621080B489B000AFBA601A46034693
:107C8000FB810B46BB811346FB71BB68BB61BB68C4
:107C90007B61BB683B61534B4FF0A052C3F8682F28
:107CA000FB79012B05D1FB8903F00103002B09D0DF
:107CB000FEE7FB79022B05D1FB8903F00303002BC0
:107CC00000D0FEE7474AFB8903F03F0353600023DF
:107CD000FB617DE0FB79002B0DD1424B03221A6042
:107CE000404ABB691B789360BB690133BB61FB8968
:107CF0000133FB811DE0FB79012B0DD1394B0422AF
:107D00001A60384A7B691B8893607B6902337B6108
:107D1000FB890233FB810CE0324B05221A60314AA9
:107D20003B691B6893603B6904333B61FB89043307
:107D3000FB8100BF2B4BD3F8603F9B0E03F0010388
:107D4000002BF7D0274B4FF08062C3F8682FFB89D8
:107D50003F2B8CBF01230023DAB2BB6A591EFB699B
:107D600099420CBF01230023DBB21343DBB2002B8B
:107D70001BD01C4B4FF08052C3F8682F194ABB89A7
:107D80009B0103F47C635360164B06221A6000BF0C
:107D9000144BD3F8603F1B0F03F00103002BF7D007
:107DA000104B4FF08052C3F8682FFB893F2B0CD942
:107DB0000023FB81BB890133BB810A4B00225A603F
:107DC000BB893E2B01D90023BB81FB690133FB61D9
:107DD000FA69BB6A9A42FFF47DAF00BF2437BD4603
:107DE00080BC70478000200080B489B000AFBA60CA
:107DF0001A460346FB810B46BB811346FB71BB68E9
:107E0000BB61BB687B61BB683B614C4B4FF0A052D0
:107E1000C3F8682F4949BB899B0103F47C62FB8945
:107E200003F03F0313434B60FB79002B03D1434B1B
:107E300008221A6013E0FB79012B08D13F4B09227D
:107E40001A60FB8903F00103002B08D071E03B4B63
:107E50000A221A60FB8903F00303002B68D1002378
:107E6000FB6160E0FB79002B0BD1344BDB68DAB2AD
:107E7000BB691A70BB690133BB61FB890133FB81AC
:107E800018E0FB79012B0BD12C4BDB689AB27B6994
:107E90001A807B6902337B61FB890233FB8109E035
:107EA000264BDA683B691A603B6904333B61FB8906
:107EB0000433FB8100BF214BD3F8603F9B0E03F0DE
:107EC0000103002BF7D01D4B4FF08062C3F8682FE1
:107ED000FB893F2B24D9BB6A5A1EFB699A421FD9E2
:107EE0000023FB81BB890133BB811449BB899B0102
:107EF00003F47C62FB8903F03F0313434B60FB797F
:107F0000002B03D10D4B08221A6009E0FB79012BED
:107F100003D10A4B09221A6002E0084B0A221A60B8
:107F2000FB690133FB61FA69BB6A9A429AD300E0AC
:107F300000BF2437BD4680BC704700BF80002000D2
:107F400080B487B000AF0346FB71FB79002B0DD1E5
:107F50001B4BD3F82C317B61194BD3F828313B6193
:107F6000174BD3F824310133FB600CE0144BD3F8EA
:107F700018317B61124BD3F814313B61104BD3F8AD
:107F800010310133FB607A693B699A4201D10023C9
:107F900011E07B69002B06D1FB685A1E3B699A42AF
:107FA00001D1022307E03B695A1C7B699A4201D147
:107FB000022300E0012318461C37BD4680BC7047F1
:107FC0000040082080B483B000AF074BD3F82831BD
:107FD0007B607B6803F1006316339B001B681846C7
:107FE0000C37BD4680BC70470040082080B483B089
:107FF00000AF074BD3F818317B607B6803F18063D7
:108000000433DB001B6818460C37BD4680BC704744
:108010000040082080B483B000AF094BD3F818317A
:108020007B607B6803F180630433DB001B68C3F370
:108030000A03013318460C37BD4680BC704700BFA9
:108040000040082080B483B000AF074BD3F818314C
:108050007B607B6803F18063DB001B6818460C378C
:10806000BD4680BC704700BF0040082080B483B08C
:1080700000AF0A4BD3F818317B607B6801337B601B
:108080007B68042B01D100237B60044A7B68C2F823
:10809000183100BF0C37BD4680BC70470040082037
:1080A00080B588B000AF6BE1804AFB69C2F8E83F59
:1080B000FB6903F00303002B63D0FFF797FFF86021
:1080C0000023BB60FB6803F40003002B01D01023E6
:1080D00000E00023BA681343BB60FB6803F08073C1
:1080E000002B01D0082300E00023BA681343BB60D3
:1080F000FB6803F00073002B01D0042300E0002391
:10810000BA681343BB60FB6803F00063002B01D027
:10811000012300E00023BA681343BB60FB6803F04F
:108120008053002B01D0402300E00023BA681343A2
:10813000BB60FB6803F00053002B01D0202300E05C
:108140000023BA681343BB60FB6803F48013002B61
:1081500002D04FF4805300E00023BA681343BB60A1
:10816000BB68002B04D1FB6923F00203FB6108E02C
:108170004F4B1B6A002B04D04D4B1B6ABA6810464C
:108180009847FB6903F03003002B48D0FFF71AFF34
:10819000786000233B607B6803F08063002B02D093
:1081A0004FF4007300E000233A6813433B607B68A0
:1081B00003F00063002B02D04FF4807300E0002333
:1081C0003A6813433B607B6803F08053002B01D077
:1081D000802300E000233A6813433B607B6803F090
:1081E0000053002B02D04FF4806300E000233A6874
:1081F00013433B607B6803F08043002B02D04FF4B5
:10820000006300E000233A6813433B60284B1B6A7D
:10821000002B04D0264B1B6A3A6810469847FB692E
:1082200003F00803002B00F087800120FFF788FE91
:108230000346002B00F08080FFF7ECFE0346BB6195
:10824000BB69002B78DDBB69033BBB61FFF7CEFE4A
:108250000246184B1340002B6ED1174B1B78194662
:10826000164B1A680B465B000B445B0213445B0021
:10827000134A13447B61FFF7E5FE03463B610F4B56
:108280001A68BB6913440D4A13600C4B1B68B3F5A5
:10829000C06F22D3094B00221A60054B1B6A002BCA
:1082A0004AD0034B1B6A0420984745E00040082051
:1082B000E40F00100000901B14280010102800107C
:1082C000101000107B699A1C7A613A69911C39611F
:1082D00012881A80BB69023BBB61BB69002BF1DCD1
:1082E000FFF784FE034603F08043002B22D02C4B83
:1082F0009B69002B0ED02A4B9A692A4B1B78194692
:108300000B465B000B449B0227495818274B1B6800
:1083100019469047254B00221A60224B1B780133E7
:10832000DAB2204B1A701F4B1B78012B02D91D4B60
:1083300000221A70FFF79AFEFB6903F04003002B3E
:1083400006D0174BDB69002B02D0154BDB69984731
:10835000FB6903F48053002B06D0114B9B6A002B62
:1083600002D00F4B9B6A9847FB6903F40053002B24
:1083700006D00B4B5B6A002B02D0094B5B6A984717
:108380000B4BD3F8E02F0A4BD3F8E43F1340FB61CB
:10839000FB69002B7FF488AE00BF2037BD4680BD4F
:1083A000E40F001014280010101000101028001006
:1083B0000040082080B500AF01214FF00050FFF7CA
:1083C000DBFB104B00221A610F4B00221A610F4B8E
:1083D00000221A610E4B00221A610E4B00221A6114
:1083E0000D4B00221A610D4B00221A610C4B00222A
:1083F0001A610C4BFF229A600A4BFF221A6100BFE0
:1084000080BD00BF00010820200108204001082095
:108410006001082080010820A0010820C001082078
:10842000E00108200000082080B487B000AF786029
:10843000A44BDA697B681B68012101FA03F313403E
:10844000DBB2002B01D0002389E17B681B689E4AC8
:1084500052F823307B619B4A7B681B68012101FA3B
:1084600003F3DBB29360974A7B681B68012101FA32
:1084700003F3DBB213617B690022DA607B690022BF
:108480001A617B681A6A7B699A607B685B69062B54
:1084900000F2D48001A252F823F000BFB98400009A
:1084A000F784000061850000CB8500003D86000058
:1084B000F7840000618500007B68DA687B691A60D8
:1084C0007B681A697B695A607B685B68C3F30B023F
:1084D0007B689B689B0403F4E0131A437B689B68EA
:1084E0005B0503F46003134343F00C4343F4103380
:1084F0007A69D360A4E07B68DA687B691A607B687C
:10850000DB69724A52F823301A467B695A607B68ED
:108510005B68C3F30B027B68DB696D49CB5C1B03B3
:1085200003F4E0431A437B68DB696949CB5CDB03F6
:1085300003F460331A437B68DB696649CB5C9B04B8
:1085400003F4E0131A437B68DB696249CB5C5B058B
:1085500003F46003134343F004427B69DA606FE085
:108560007B689B69594A52F823301A467B691A6026
:108570007B681A697B695A607B685B68C3F30B028E
:108580007B689B695249CB5C1B0303F4E0431A43AD
:108590007B689B694E49CB5CDB0303F460331A4371
:1085A0007B689B694B49CB5C9B0403F4E0131A4343
:1085B0007B689B694749CB5C5B0503F4600313430D
:1085C00043F008427B69DA603AE07B689B693F4A86
:1085D00052F823301A467B691A607B68DB693B4A94
:1085E00052F823301A467B695A607B685B68C3F394
:1085F0000B027B689B693649CB5C1B0303F4E043A9
:108600001A437B68DB693249CB5CDB0303F46033DC
:108610001A437B689B692F49CB5C9B0403F4E013EE
:108620001A437B68DB692B49CB5C5B0503F4600371
:10863000134343F000427B69DA6001E000238EE0DF
:108640007B689B69082B22D07B689B69092B1ED015
:108650007B689B690F2B0DD91F491F4BD3F8C43181
:108660007A689269103A012000FA02F21343C1F8C5
:10867000C4310CE01849184BD3F8C4317A689269B8
:10868000012000FA02F2D2431340C1F8C4317B68E2
:10869000DB69082B2FD07B68DB69092B2BD07B682B
:1086A000DB690F2B1AD90C490B4BD3F8C4317A680C
:1086B000D269103A012000FA02F21343C1F8C43122
:1086C00019E000BF0000082088000010080000101A
:1086D00064A9040084A9040000C00F402249224B71
:1086E000D3F8C4317A68D269012000FA02F2D24389
:1086F0001340C1F8C4311D4B01221A6300BF1B4B4C
:108700001B6B03F00103002BF9D07B689B693B6175
:108710003B690F2B02D93B69103B00E03B693B6191
:108720007B68DB69FB60FB680F2B02D9FB68103BA1
:1087300000E0FB68FB607B685B69DB0203F460526E
:108740003B695B0003F03E031A43FB689B0103F4A3
:10875000F863134343F440427B691A6101231846CE
:108760001C37BD4680BC704700C00F400000082089
:1087700080B485B000AF03460A46FB711346BB7157
:10878000FB790C4A52F82330FB60BB79012B06D1F0
:10879000FB681B6943F00102FB681A6105E0FB6896
:1087A0001B6923F00102FB681A6100BF1437BD4644
:1087B00080BC70478800001080B483B000AF0346CF
:1087C0000A46FB711346BB71FB79042B52D801A2F8
:1087D00052F823F0E9870000058800002188000096
:1087E0003D880000598800002B4B1A68BB79012195
:1087F00001FA03F31340DBB2002B01D0012346E062
:10880000002344E0244B5A68BB79012101FA03F3A9
:108810001340DBB2002B01D0012338E0002336E007
:108820001D4BDA68BB79012101FA03F31340DBB277
:10883000002B01D001232AE0002328E0164B9A697F
:10884000BB79012101FA03F31340DBB2002B01D005
:1088500001231CE000231AE00F4B5A69BB79012168
:1088600001FA03F31340DBB2002B01D001230EE029
:1088700000230CE0084BDA69BB79012101FA03F30C
:108880001340DBB2002B01D0012300E00023184687
:108890000C37BD4680BC70470000082080B483B010
:1088A00000AF03460A46FB711346BB71FB79002BF0
:1088B00007D10A4ABB79012101FA03F3DBB29360C5
:1088C00006E0064ABB79012101FA03F3DBB213612A
:1088D00000BF0C37BD4680BC704700BF00000820B9
:1088E00080B483B000AF0346FB71084997F90730A5
:1088F0005B09FA7902F01F02012000FA02F241F846
:10890000232000BF0C37BD4680BC704700E100E06B
:1089100080B58EB000AFF860B9607A604FF4007334
:10892000BB610223FB617B68BB6200237B63BB6886
:108930007B617B68052B0AD1FB683B62154BD3F842
:1089400080307B620023FB6201233B630FE07B6886
:10895000062B0AD10F4BD3F880303B62FB687B6259
:108960000123FB6200233B6301E000230EE007F1DB
:1089700014031846FFF758FDBB68DBB20121184607
:10898000FFF7F6FE1A20FFF7ABFF01231846383732
:10899000BD4680BD00000C4080B500AF0021002026
:1089A000FFF70AFF0346002B20D000210120FFF72C
:1089B00003FF0346002B08D000210020FFF76EFFC5
:1089C0001F4B1B6801331E4A136000210220FFF772
:1089D000F3FE0346002B30D000210120FFF75EFF9D
:1089E000184B1B680133174A136026E00121002051
:1089F000FFF7E2FE0346002B1FD001210120FFF705
:108A0000DBFE0346002B08D001210020FFF746FFC4
:108A10000D4B1B6801330C4A136001210220FFF744
:108A2000CBFE0346002B08D001210120FFF736FFC3
:108A3000064B1B680133054A136000BF80BD00BFB1
:108A40006898001064980010609800105498001006
:108A500080B400AF054A054BDB6B43F4E36343F09E
:108A60000203D36300BFBD4680BC704700000C40CA
:108A700080B400AF054A054BDB6B23F4E36323F0BE
:108A80000203D36300BFBD4680BC704700000C40AA
:108A900080B400AF054A054BDB6B43F4E56343F05C
:108AA0000203D36300BFBD4680BC704700000C408A
:108AB00080B400AF054A054BDB6B23F4E56323F07C
:108AC0000203D36300BFBD4680BC704700000C406A
:108AD00080B586B000AF0346FB714FF0FF337B617A
:108AE0004FF6FF733B612EE007F10803184601F0D3
:108AF0000DF80346002B2AD1BB6803F48073002BCA
:108B000003D16FF004037B6111E0BB685B1203F0DB
:108B10000F02FB799A4208D0BB685B1203F00F0387
:108B2000072B04D06FF0030313E0002311E03B692F
:108B3000013B3B610023FB6002E0FB680133FB600B
:108B4000FB681F2BF9D93B69002BCDD100E000BF9A
:108B50007B6918461837BD4680BD00BF80B483B01E
:108B600000AF194B5B6B7B607B6803F00103002B4C
:108B700002D0154B01229A637B6803F00403002B9B
:108B800002D0114B04229A637B6803F04003002B50
:108B900002D00D4B40229A637B6803F08003002BC8
:108BA00002D0094B80229A637B6803F40063002B98
:108BB00004D0054B4FF400629A6300BF00BF0C372E
:108BC000BD4680BC704700BF00000C4080B483B03D
:108BD00000AF1B4B5B6B7B607B6803F00203002BD9
:108BE00002D0174B02229A637B6803F00803002B24
:108BF00002D0134B08229A637B6803F01003002B0A
:108C000002D00F4B10229A637B6803F02003002BE5
:108C100002D00B4B20229A637B6803F40073002B75
:108C200003D0074B4FF400729A63064B00221A6080
:108C3000054A7B68136000BF0C37BD4680BC704797
:108C400000000C40182800101C28001080B582B0CD
:108C500000AF124B5B6B7B607B6803F48073002B6F
:108C60000ED00E4B4FF480729A630D4B00221A60A7
:108C70000C4B00221A60FFF7FBFEFFF719FF0AE01A
:108C80007B6803F48063002B04D0044B4FF48062B4
:108C90009A6300E000BF0837BD4680BD00000C406D
:108CA000182800101C28001080B400AF00BFBD467B
:108CB00080BC704780B582B000AF144B5B6B7B60AB
:108CC0007A6840F23A231340002B02D0FFF77EFF70
:108CD00018E07B6803F4A063002B02D0FFF7B6FF17
:108CE00010E07A680A4B1340002B02D0FFF7DCFF3C
:108CF00008E07A6840F6C5031340002B02D0FFF766
:108D00002DFF00BF0837BD4680BD00BF00000C40EE
:108D100000C40F0080B586B000AF786000237B618F
:108D20000120FEF7FBFE38617B685A003B69134463
:108D30005A1E7B685B00B2FBF3F37B617B69002BFF
:108D400002D07B69013B7B610C490C4B5B6823F4CF
:108D5000FF7323F001037A69134343F480734B607C
:108D60000023FB6002E0FB680133FB60FB680F2B14
:108D7000F9D900BF1837BD4680BD00BF00000C40C8
:108D800080B584B000AF78600023FB737B68002B54
:108D900006D11C4A1B4B5B6823F4006353600AE056
:108DA0007B68012B07D1174A164B5B6843F40063BD
:108DB00053600A23FB730023BB6002E0BB680133EE
:108DC000BB60BB680F2BF9D90F4B1B785BB2002B34
:108DD00009D00D4B1B785BB2022B04D00A4B1B78D9
:108DE0005BB2032B09D1FB7B184600F039FF034629
:108DF000002B02D04FF0FF3300E00023184610375D
:108E0000BD4680BD00000C406C98001080B584B059
:108E100000AF0346FB718F4BFF221A708E4A8E4BB8
:108E2000D3F8883023F01F03C2F888308A4A8A4B6F
:108E3000D3F88C3023F01F03C2F88C30864A864B5F
:108E4000D3F8943023F01F03C2F89430824A824B47
:108E5000D3F8983023F01F03C2F898307E4A7E4B37
:108E6000D3F89C3023F01F03C2F89C307A4A7A4B27
:108E7000D3F8AC3023F01F03C2F8AC30764A764BFF
:108E8000D3F8B03003F01F03C2F8B030734A734B0D
:108E90001B6843F4C75343F00C0313606F4B4FF44C
:108EA0008052DA616D4B4FF40062DA616B4B8022C5
:108EB000DA616A4B4022DA61684B20229A61674B83
:108EC0000822DA61654B0422DA610023FB6002E0CC
:108ED000FB680133FB60FB68B3F5801FF8D3604A81
:108EE0005F4BD3F8C43043F08053C2F8C4305D4BBD
:108EF0005B6803F48073002B0ED05A4A594B5B68B1
:108F000023F4807353600023FB6002E0FB680133AD
:108F1000FB60FB680F2BF9D9524B1B6803F002036F
:108F2000002B0BD04F4B00221A600023FB6002E0A5
:108F3000FB680133FB60FB680F2BF9D9494B00221A
:108F4000DA6302220221012001F0C0F9022203218A
:108F5000012001F0BBF902220521012001F0B6F940
:108F600002220621012001F0B1F90222072101208D
:108F700001F0ACF902220B21012001F0A7F9022235
:108F80000C21012001F0A2F9FB79002B08D1344A11
:108F9000334BD3F8A03123F00803C2F8A03107E027
:108FA0002F4A2F4BD3F8A03143F00803C2F8A03169
:108FB0002C4B6FF060425A622A4B0022DA60002389
:108FC000FB6002E0FB680133FB60FB680F2BF9D903
:108FD000244B0022DA620023FB6002E0FB680133CD
:108FE000FB60FB680F2BF9D91E4B40F2FF729A63AE
:108FF0001C4B02221A600023FB6002E0FB68013375
:10900000FB60FB680F2BF9D90023FB6002E0FB68D3
:109010000133FB60FB68B3F5002FF8D31248FFF76C
:1090200079FE104A0F4B1B6843F0010313600023C5
:10903000FB6002E0FB680133FB60FB680F2BF9D992
:109040001D20FFF74DFC00F0F5FA002318461037FD
:10905000BD4680BD6C98001000C0024020800920F1
:1090600000C00F4000000C40801A060080B485B09C
:1090700000AF78600023FB607B68012B06D10D4AAE
:109080000C4B1B6843F04003136005E0094A094B91
:109090001B6803F0830313600023FB6002E0FB689E
:1090A0000133FB60FB680F2BF9D900BF1437BD46B5
:1090B00080BC704700000C4080B48BB000AF78607B
:1090C00000237B627B681B683B627B685B68FB619B
:1090D0007B689B68BB617B68DB687B6110E0354B1C
:1090E0000022DA600023FB6002E0FB680133FB60D2
:1090F000FB680F2BF9D92F4A3B6943F40063936354
:109100002C4B5B6B3B613B6903F40063002BE6D1A6
:109110003B6A03F03F037A6A13437B62BB69002B0F
:1091200004D17B6A23F0C0037B620EE0BB69012B94
:1091300004D17B6A43F040037B6206E0BB69022BEB
:1091400003D17B6A43F0C0037B627B69012B04D1AE
:109150007B6A23F480737B6203E07B6A43F4807351
:109160007B627B6A43F480637B62124B40F2FF7246
:109170009A63104AFB6993600E4A7B6AD3600023AE
:10918000FB6002E0FB680133FB60FB680F2BF9D941
:1091900000BF084B5B6B002BFBD000BF054B5B6B2C
:1091A00003F40063002BF9D100BF2C37BD4680BC0F
:1091B000704700BF00000C4080B489B000AFF86079
:1091C000B9607A600023BB610023FB61BB68002BA0
:1091D00001D100238EE04A4B5B6BBB61BB6903F09E
:1091E0000403002B16D0464ABB6943F00403936383
:1091F000434B0022DA60424B4FF0FF329A6000236B
:10920000FB6102E0FB690133FB61FB690F2BF9D9BC
:10921000BB696FE0BB6903F00103002B25D0384A1E
:10922000BB6943F001039363354BDB6803F03F03F5
:109230007B617B69012B05D07B69292B02D07B697F
:109240000C2B10D12E4B0022DA602D4B4FF0FF3249
:109250009A600023FB6102E0FB690133FB61FB695B
:109260000F2BF9D90BE0BB6944E0BB6903F0400365
:10927000002BB0D0224ABB6943F040039363204BDC
:109280001B6903F03F02FB689A4211D0FB68012B77
:109290000ED0FB68292B0BD0FB68022B08D0FB6893
:1092A000092B05D04FF0FF33BB614FF0FF3321E0B6
:1092B0007B68002B1DD0BB68012B04D1104B5A6971
:1092C0007B681A6015E0BB68022B12D10C4B5A69FF
:1092D0007B681A607B680433094A92691A607B686C
:1092E0000833074AD2691A607B680C33044A126A51
:1092F0001A60002318462437BD4680BC704700BF63
:1093000000000C4080B586B000AF78607B681B68B9
:109310003B617B689B68FB607B681B69BB6078680E
:10932000FFF7CAFEBB68002B02D1FB68002B06D0FA
:10933000BA68F9683869FFF73FFF786102E06FF0BB
:1093400001037B617B6918461837BD4680BD00BFAD
:1093500080B586B000AF00237B600023BB60002394
:10936000FB6000233B6100237B613B1D1846FFF738
:10937000A3FE002318461837BD4680BD80B58EB0C9
:1093800000AF4FF0FF333B634FF400737B63012367
:109390007B601B4BBB600123FB6001233B6107F13A
:1093A00018037B6124E03B1D1846FFF7ABFF034623
:1093B000FB62FB6A03F00403002B03D06FF002038F
:1093C0003B6309E0BB69002B03DB6FF002033B63E7
:1093D00002E000233B630EE00023BB6202E0BB6AB5
:1093E0000133BB62BB6A1F2BF9D97B6B013B7B63EB
:1093F0007B6B002BD7D13B6B18463837BD4680BD01
:109400000080FF0080B590B000AF4FF0FF33BB632A
:10941000012387F83730AA2387F8363097F837309A
:109420001A0297F8363013433B631423FB63082377
:109430007B603B6BBB600123FB6001233B6107F159
:1094400018037B612FE03B1D1846FFF75BFF0346C7
:10945000FB62FB6A03F00403002B05D06FF00203EC
:10946000BB630023BB6218E0BB69DAB297F8363001
:109470009A4202D06FF0010319E0BB691B0A03F0A6
:109480000F0297F837309A4202D06FF001030EE0D6
:1094900000230CE0BB6A0133BB62BB6A1F2BF9D906
:1094A000FB6B013BFB63FB6B002BCCD1BB6B18460A
:1094B0004037BD4680BD00BF80B58EB000AF4FF0D5
:1094C000FF33FB62274B1B785BB2002B09D0254B87
:1094D0001B785BB2022B04D0224B1B785BB2032BB0
:1094E00003D1214B1B683B6301E000233B63142342
:1094F0007B6337233B603B6B7B600123BB600123B5
:10950000FB6007F114033B6123E03B461846FFF77D
:10951000F9FE0346BB62BB6A002B03D04FF0FF335A
:10952000FB620AE07B6903F02003002B02D00023DA
:10953000FB6211E06FF00403FB6200237B6202E038
:109540007B6A01337B627B6A1F2BF9D97B6B013B02
:109550007B637B6B002BD8D1FB6A18463837BD463E
:1095600080BD00BF6C9800105C98001080B590B072
:1095700000AF0346FB714FF0FF33BB63FB799B07E2
:1095800043F47F0343F400437B634FF40053FB63D6
:109590002923BB607B6BFB6001233B6101237B6163
:1095A00007F11C03BB610020FFF760FD38E0FFF707
:1095B00083FFB863BB6B002B24D107F10803184667
:1095C000FFF7A0FE03463B633B6B03F00403002B55
:1095D00003D06FF00203BB6316E0FB69002B03DBD3
:1095E0006FF00203BB630FE0FB6903F08043002BC5
:1095F00014BF01230023DBB21A460D4B1A7000235F
:10960000BB6310E0BB6B0FE00023FB6202E0FB6A70
:109610000133FB62FB6A1F2BF9D9FB6B013BFB6338
:10962000FB6B002BC3D1BB6B18464037BD4680BDDA
:109630005898001080B582B000AF4FF0FF337B60C8
:10964000324BFF221A70FFF783FE0346002B02D035
:109650004FF0FF3356E00020FFF708FD00233B608A
:1096600002E03B6801333B603B68B3F5405FF8D3F1
:10967000FFF7C8FE78607B6813F1020F01D17B68A9
:1096800040E07B68002B13D10120FFF76FFF78606B
:109690007B68002B0CD11D4B02221A701C4B1B78CF
:1096A000DBB2002B02D0194B03221A70002329E0F1
:1096B0007B68002B0BD00020FFF758FF78607B6899
:1096C000002B04D1114B00221A7000231AE07B6892
:1096D000002B16D00120FFF7C9FC00233B6002E0FD
:1096E0003B6801333B603B68B3F5405FF8D3FFF75D
:1096F00045FE0346002B04D1044B01221A700023BF
:1097000000E0002318460837BD4680BD6C98001065
:109710005898001080B400AF034B1B785BB218461A
:10972000BD4680BC704700BF6C98001080B58EB0FD
:1097300000AF78604FF400737B630223BB600023AB
:10974000FB6002233B6101237B6107F11C03BB61CA
:1097500058E007F108031846FFF7D4FD03463B63C2
:109760003B6B03F00403002B40D17B68002B3BD004
:10977000FB691B0EDAB27B681A70FB691B0A9AB28E
:109780007B685A80FB69DAB27B681A713A6A7B6837
:109790009A607B6A1B0EDAB27B681A737B6A1A02C4
:1097A000BB6A1B0E1A437B681A61BB6A1B0DDBB2D6
:1097B00003F01F03DAB27B681A75BB6A1B0A9BB2FF
:1097C000C3F30B039AB27B68DA82BB6A5B08DBB235
:1097D00003F07F03DAB27B681A76BB6ADBB203F070
:1097E0000103DAB27B685A76002310E00023FB62A3
:1097F00002E0FB6A0133FB62FB6A1F2BF9D97B6B2A
:10980000013B7B637B6B002BA3D16FF002031846F7
:109810003837BD4680BD00BF80B58CB000AF4FF07B
:10982000FF337B62334B1B785BB2002B09D0314B8B
:109830001B785BB2022B04D02E4B1B785BB2032B40
:1098400002D10023BB6202E04FF48033BB622023CD
:10985000FB6203237B60BB6ABB600123FB600123C7
:109860003B6107F118037B613BE03B1D1846FFF7A6
:1098700049FD03463B623B6A03F00403002B03D01F
:109880006FF002037B6220E0BB6903F48073002B5E
:1098900003D16FF004037B6217E0BB695B0A03F03E
:1098A0000F03022B03D06FF003037B620DE0BB6953
:1098B0001B0C114A1360104B1B681B040E4A1360EB
:1098C0000020FFF7D3FB00230FE00023FB6102E041
:1098D000FB690133FB61FB691F2BF9D9FB6A013B73
:1098E000FB62FB6A002BC0D17B6A18463037BD464D
:1098F00080BD00BF6C9800105C98001080B400AF71
:10990000024B1B681846BD4680BC70475C9800102F
:1099100080B590B000AF78602F4B1B785BB2002B06
:1099200009D02D4B1B785BB2022B04D02A4B1B783D
:109930005BB2032B03D1294B1B68BB6302E04FF4DE
:109940008033BB632023FB630923FB60BB6B3B615C
:1099500002237B610123BB6107F12003FB6132E03D
:109960000320FFF7B5F80346002B02D06FF0030386
:109970002EE007F10C031846FFF7C4FC03467B6397
:109980007B6B002B13D17B68002B0ED03A6A7B686F
:109990001A607B6804337A6A1A607B680833BA6A93
:1099A0001A607B680C33FA6A1A60002310E0002307
:1099B0003B6302E03B6B01333B633B6B1F2BF9D9ED
:1099C000FB6B013BFB63FB6B002BC9D14FF0FF33FB
:1099D00018464037BD4680BD6C9800105C9800105A
:1099E00080B58EB000AF4FF0FF33FB62444B1B7865
:1099F0005BB2002B09D0424B1B785BB2022B04D028
:109A00003F4B1B785BB2032B03D13E4B1B683B6380
:109A100002E04FF480333B6320237B6307233B60EA
:109A20003B6B7B600123BB600123FB6007F11403E8
:109A30003B615DE00320FFF74BF80346002B1AD093
:109A40000420FFF745F80346002B14D00520FFF74C
:109A50003FF80346002B0ED00720FFF739F80346E6
:109A6000002B08D00820FFF733F80346002B02D064
:109A70006FF0030340E03B461846FFF743FC034604
:109A8000BB62BB6A002B05D04FF0FF33FB620023A3
:109A90007B6227E07A691C4B1340002B02D06FF0E9
:109AA000010329E00320FFF713F80346002B14D02D
:109AB0000420FFF70DF80346002B0ED00720FFF718
:109AC00007F80346002B08D00820FFF701F80346EB
:109AD000002B02D06FF003030EE000230CE07B6A42
:109AE00001337B627B6A1F2BF9D97B6B013B7B6364
:109AF0007B6B002B9ED1FB6A18463837BD4680BD74
:109B00006C9800105C9800100880F8FD80B590B04B
:109B100000AF78604FF0FF337B637B68002B01D18F
:109B2000002346E0254B1B785BB2002B09D0234B6A
:109B30001B785BB2022B04D0204B1B785BB2032B4B
:109B400003D11F4B1B68BB6302E04FF48033BB6340
:109B50002023FB630D23BB60BB6BFB6001233B61D8
:109B600001237B6107F11C03BB611EE007F10803C1
:109B70001846FFF7C7FB03463B633B6B002B08D03F
:109B80004FF0FF337B63FB6B013BFB630023FB6206
:109B900008E0FB691A467B681A60002309E0FB6A4B
:109BA0000133FB62FB6A0F2BF9D9FB6B002BDDD174
:109BB0007B6B18464037BD4680BD00BF6C980010D7
:109BC0005C98001080B590B000AF78604FF0FF3324
:109BD000BB632023FB631023FB607B683B61012395
:109BE0007B610123BB6107F12003FB612EE00420B0
:109BF000FEF76EFF0346002B02D06FF0030329E04F
:109C000007F10C031846FFF77DFB03467B637B6B74
:109C1000002B05D04FF0FF33BB6300233B630FE005
:109C20003A6A0E4B1340002B02D06FF0010311E093
:109C30000420FEF74DFF03460CE03B6B01333B6312
:109C40003B6B1F2BF9D9FB6B013BFB63FB6B002BC1
:109C5000CDD1BB6B18464037BD4680BD0880F8FDAE
:109C600080B590B000AF78604FF0FF33BB63202326
:109C7000FB630623FB607B683B6101237B6101235F
:109C8000BB6107F12003FB6134E00420FEF720FFF5
:109C9000B863BB6B002B01D0BB6B2FE0FFF70CFC54
:109CA0000346002B1AD107F10C031846FFF72AFBD5
:109CB00003467B637B6B002B03D04FF0FF33BB630A
:109CC0000CE03A6A0F4B1340002B02D06FF00103F7
:109CD00014E00420FEF7FCFE03460FE000233B6384
:109CE00002E03B6B01333B633B6B1F2BF9D9FB6BF2
:109CF000013BFB63FB6B002BC7D1BB6B18464037A6
:109D0000BD4680BD0880F8FD80B400AF024B1B68E3
:109D10001846BD4680BC70471828001080B58EB02C
:109D200000AF4FF0FF333B630420FEF7D1FE034644
:109D3000002B01D1002351E020237B630C237B60A7
:109D40000023BB600123FB6001233B6107F1180383
:109D50007B613FE00520FEF7BBFE0346002B08D0E9
:109D60000620FEF7B5FE0346002B02D06FF003037A
:109D700034E03B1D1846FFF7C5FA0346FB62FB6A59
:109D8000002B05D04FF0FF333B630023BB621BE089
:109D9000BA69144B1340002B02D06FF001031DE091
:109DA0000720FEF795FE0346002B08D00420FEF79F
:109DB0008FFE0346002B02D06FF003030EE000235A
:109DC0000CE0BB6A0133BB62BB6A1F2BF9D97B6B0A
:109DD000013B7B637B6B002BBCD13B6B1846383758
:109DE000BD4680BD0880F8FD80B590B000AF7860BA
:109DF00039604FF0FF337B633B68012B02D9192395
:109E0000BB6301E01823BB632023FB63BB6BBB6018
:109E10002A4B1B785BB2032B02D17B68FB6002E00C
:109E20007B685B02FB6001233B6101237B6107F1DF
:109E30001C03BB613AE00420FEF74AFE0346002BF8
:109E400002D06FF0030335E007F108031846FFF76F
:109E500059FA03463B633B6B002B05D04FF0FF33B1
:109E60007B630023FB621BE0FA69154B1340002B58
:109E700002D06FF001031DE00620FEF729FE034625
:109E8000002B08D00420FEF723FE0346002B02D04F
:109E90006FF003030EE000230CE0FB6A0133FB626A
:109EA000FB6A1F2BF9D9FB6B013BFB63FB6B002BA0
:109EB000C1D17B6B18464037BD4680BD6C98001001
:109EC0000880F8FD80B590B000AF786039604FF041
:109ED000FF337B633B68012B02D91223BB6301E094
:109EE0001123BB632023FB63BB6BBB602A4B1B7836
:109EF0005BB2032B02D17B68FB6002E07B685B02F4
:109F0000FB6001233B6101237B6107F11C03BB6103
:109F10003AE00420FEF7DCFD0346002B02D06FF090
:109F2000030335E007F108031846FFF7EBF9034692
:109F30003B633B6B002B05D04FF0FF337B6300236B
:109F4000FB621BE0FA69154B1340002B02D06FF047
:109F500001031DE00520FEF7BBFD0346002B08D0E2
:109F60000420FEF7B5FD0346002B02D06FF003037B
:109F70000EE000230CE0FB6A0133FB62FB6A1F2B3F
:109F8000F9D9FB6B013BFB63FB6B002BC1D17B6BF6
:109F900018464037BD4680BD6C9800100880F8FD1B
:109FA00080B586B000AFF860B9607A6000237B614D
:109FB0007B685B02B3F5803F02D36FF0010352E090
:109FC0002B4AFB6813602B4B40F2FF729A63294BBC
:109FD0000022DA6200233B6102E03B6901333B610E
:109FE0003B690F2BF9D90420FEF772FD0346002BC5
:109FF00002D06FF0030336E01E4B1F4A5A621D4A1F
:10A000007B685B0293621D4B01221A601C4B00228D
:10A010001A601C4B00221A701B4B00221A60FEF7BC
:10A0200017FD7968B868FFF7DFFE0346002B02D002
:10A030004FF0FF3317E00E4B1B6805220021184636
:10A04000FEF766FC7B6943F099037B61094A7B69F3
:10A05000D36200233B6102E03B6901333B613B6912
:10A060000F2BF9D9002318461837BD4680BD00BF15
:10A07000A800001000000C40002D3101182800102D
:10A080001C280010202800102428001080B586B05D
:10A0900000AFF860B9607A6000237B617B685B0287
:10A0A000B3F5803F02D36FF0010352E02B4AFB6807
:10A0B00013602B4B40F2FF729A63294B0022DA6245
:10A0C00000233B6102E03B6901333B613B690F2B9D
:10A0D000F9D90420FEF7FCFC0346002B02D06FF0F8
:10A0E000030336E0FEF7D4FC1D4B1E4A5A621C4A9D
:10A0F0007B685B0293621C4B01221A601B4B00229F
:10A100001A601B4B00221A601A4B00221A70134B64
:10A110001B68062201211846FEF7FAFB7B6943F013
:10A120009B037B610E4A7B69D36200233B6102E0A3
:10A130003B6901333B613B690F2BF9D97968B868FA
:10A14000FFF7C0FE0346002B02D04FF0FF3300E0C4
:10A15000002318461837BD4680BD00BFAC00001074
:10A1600000000C40404B4C00182800101C28001028
:10A17000282800102028001080B485B000AF0346C6
:10A180000A46FB711346BB710023FB60FB795A0141
:10A19000BB79134403F1805303F530439B00FB600C
:10A1A000FB6818461437BD4680BC704780B485B044
:10A1B00000AF03460A46FB711346BB710523FB73D0
:10A1C000FB79052B75D801A252F823F0E5A1000018
:10A1D0006BA2000089A2000089A2000089A20000F1
:10A1E0008FA20000BB79062B0BD9BB79092B02D9B2
:10A1F000BB790B2B05D9BB790D2B05D9BB79162B58
:10A2000002D80023FB732FE0BB790C2B08D0BB795D
:10A210000D2B05D0BB79162B05D9BB791A2B02D88B
:10A220000123FB7320E0BB791D2B05D0BB791E2BCE
:10A2300002D0BB791F2B02D10223FB7314E0BB7940
:10A240001B2B02D0BB791C2B02D10323FB730BE029
:10A25000BB79072B05D0BB79082B02D0BB79092B22
:10A2600029D10423FB7326E025E0BB791D2B02D8FE
:10A270000023FB7321E0BB791E2B02D0BB791F2B7F
:10A280001BD10123FB7318E00023FB7318E0BB799B
:10A29000012B02D9BB79042B02D10023FB730EE002
:10A2A000BB79022B02D0BB79032B08D10323FB73AC
:10A2B00005E000BF04E000BF02E000BF00E000BF17
:10A2C000FB7B18461437BD4680BC704780B584B010
:10A2D00000AF0346FB710B46BB7113467B71002335
:10A2E000FB60BA79FB7911461846FFF75FFF03461A
:10A2F000FB72FB7A052B01D10D4B15E0BA79FB7986
:10A3000011461846FFF738FFF860FB681B6823F01A
:10A310000702FB681A60FB681A687B7903F0070381
:10A320001A43FB681A60002318461037BD4680BDEB
:10A330000100001080B582B000AF786001214FF4B9
:10A340000070FDF719FC7B6800221A707B68002200
:10A350001A727B6800221A737B68FF221A747B686A
:10A3600000221A6400BF0837BD4680BD80B483B0A8
:10A3700000AF78600B46FB70FB78012B08D17B683F
:10A380001B7ADBB243F00103DAB27B681A7207E092
:10A390007B681B7ADBB203F01203DAB27B681A72B5
:10A3A00000BF0C37BD4680BC704700BF80B485B08D
:10A3B00000AFF860B9601346FB71FB79012B60D1E7
:10A3C000BB68072B00F2BC8001A252F823F000BF4B
:10A3D000F1A3000003A4000015A4000027A40000BE
:10A3E00039A400004BA400005DA400006FA400008D
:10A3F000FB681B7BDBB243F00103DAB2FB681A7324
:10A400009EE0FB681B7BDBB243F00203DAB2FB6821
:10A410001A7395E0FB681B7BDBB243F00403DAB2EE
:10A42000FB681A738CE0FB681B7BDBB243F0100304
:10A43000DAB2FB681A7383E0FB681B7BDBB243F084
:10A440000803DAB2FB681A737AE0FB681B7BDBB2A5
:10A4500043F02003DAB2FB681A7371E0FB681B7BE0
:10A46000DBB243F04003DAB2FB681A7368E0FB68C2
:10A470001B7BDBB263F07F03DAB2FB681A7300BFA9
:10A480005EE0BB68072B5BD801A252F823F000BF47
:10A49000B1A40000C3A40000D5A40000E7A40000FC
:10A4A000F9A400000BA500001DA500002FA50000C9
:10A4B000FB681B7BDBB223F00103DAB2FB681A7383
:10A4C0003EE0FB681B7BDBB223F00203DAB2FB68E1
:10A4D0001A7335E0FB681B7BDBB223F00403DAB2AE
:10A4E000FB681A732CE0FB681B7BDBB223F01003C4
:10A4F000DAB2FB681A7323E0FB681B7BDBB223F044
:10A500000803DAB2FB681A731AE0FB681B7BDBB244
:10A5100023F02003DAB2FB681A7311E0FB681B7B9F
:10A52000DBB223F04003DAB2FB681A7308E0FB6881
:10A530001B7BDBB203F07F03DAB2FB681A7300BF48
:10A5400000BF1437BD4680BC704700BF80B483B0E5
:10A5500000AF786039603B68072B49D801A252F8F8
:10A5600023F000BF85A5000093A50000A1A5000071
:10A57000AFA50000BDA50000CBA50000D7A5000039
:10A58000E5A500007B6893F82030DBB203F03F03C1
:10A590002FE07B6893F82430DBB203F03F0328E020
:10A5A0007B6893F82830DBB203F01F0321E07B685F
:10A5B00093F83030DBB203F007031AE07B6893F8BE
:10A5C0002C30DBB203F01F0313E07B689B8E9BB241
:10A5D000C3F308030DE07B6893F83830DBB203F077
:10A5E0000F0306E07B689B8F9BB2C3F30B0300E075
:10A5F000002318460C37BD4680BC704780B483B03A
:10A6000000AF786039607B6893F82C30DBB203F0E0
:10A610001F023B68DA607B6893F83030DBB203F0EE
:10A6200007023B681A617B689B8E9BB2C3F30802EA
:10A630003B685A617B6893F82830DBB203F01F0255
:10A640003B689A607B6893F82430DBB203F03F02EA
:10A650003B685A607B6893F82030DBB203F03F021E
:10A660003B681A607B6893F83830DBB203F00F0266
:10A670003B689A617B689B8F9BB2C3F30B023B687C
:10A68000DA6100BF0C37BD4680BC704780B483B030
:10A6900000AF786039607B681B78DBB21A463B6894
:10A6A0001340002B14BF01230023DBB218460C37E4
:10A6B000BD4680BC704700BF80B483B000AF7860F7
:10A6C00039607B681B78DAB23B68DBB21343DAB2DD
:10A6D0007B681A7000BF0C37BD4680BC704700BF56
:10A6E0002DE9F04F97B000AF03463961FB750023A9
:10A6F00087F857300120FDF711FAF8624FF0FF3369
:10A700003B630023BB6400237B644FF000034FF0E6
:10A710000004C7E90E340123FB6463E000233B65BA
:10A7200054E0FB6A4FF00004260746EA13161D07A3
:10A73000FB6C4FF0000403FB06F105FB04F20A4436
:10A74000A5FB030153181946FA6C3B6D13443A6993
:10A7500002FB03F34FF000041A4623463FF021FCAE
:10A7600003460C46C7E908343B6A7B63D7E90834E3
:10A7700023003B6000237B603B683B647B6BB3F151
:10A78000004F05D97B6B5B427B633B6C01333B64C1
:10A790003B6C002B16D03B6CB3F5803F12D87A6B24
:10A7A0003B6B9A420FD27B6B3B633B6C4FF00004D8
:10A7B000C7E90E343B6DBB64FB6C7B643B6B002BC9
:10A7C00009D000E000BF3B6D01333B653A6DFB6C87
:10A7D0009A42A6D300E000BF3B6B002B06D0FB6C77
:10A7E0000133FB64FB6C0F2B98D900E000BFD7E965
:10A7F0000E34234301D10023C9E0FB6A1B097A6CA4
:10A8000002FB03F318464FF000017A6CBB6C134453
:10A810004FF00004BA6B04FB02F5FA6B03FB02F283
:10A820002A44BD6BA5FB0334224414461A46234632
:10A830003FF0B7FB03460C46FB613A69FB699A425D
:10A8400004D93A69FB69D31A3B6303E0FA693B69AF
:10A85000D31A3B633B6B642202FB03F23B69B2FBFE
:10A86000F3F33B633B6B022B00F28F80FB7D012BEC
:10A870002BD1494A484B1B7BDBB263F07F03DBB231
:10A880001373454AD7E90E34190AB960B96841EA29
:10A890000461B960230AFB603B7A13713E4B97F861
:10A8A00038201A703C4A3C4B1B7BDBB203F07F0321
:10A8B000DBB2137338497B6C1B01DAB2BB6C03F05B
:10A8C0000F031343DBB28B625CE0FB7D042B26D1CC
:10A8D000324A324BDB6843F08003D3602F4AD7E91A
:10A8E0000E344FEA132A4AEA046A4FEA142B5346FD
:10A8F000DBB25360294ABB6BDBB21360274A274B9C
:10A90000DB6803F07F03D36024497B6C1B01DAB260
:10A91000BB6C03F00F031343DBB28B6232E0FB7DB1
:10A92000184600F03DF8B861BB691B7BDBB263F0F1
:10A930007F03DAB2BB691A73D7E90E344FEA1328E2
:10A9400048EA04684FEA14295FFA88F2BB691A7171
:10A9500097F83820BB691A70BB691B7BDBB203F028
:10A960007F03DAB2BB691A737B6CDBB21B01DAB20C
:10A97000BB6CDBB203F00F03DBB21343DAB2BB698B
:10A9800083F82820012387F8573097F85730184666
:10A990005C37BD46BDE8F08F0000014000400A4032
:10A9A00080B485B000AF0346FB710023FB60FB79E8
:10A9B000022B07D0032B08D0002B00D008E0074B58
:10A9C000FB6005E0064BFB6002E0064BFB6000BF4E
:10A9D000FB6818461437BD4680BC704700C0004075
:10A9E0000080094000C0094080B586B000AF034632
:10A9F0003960FB71FB79042B00F2EA8001A252F866
:10AA000023F000BF19AA0000CDAA000019AA000077
:10AA100019AA00005BAB0000FB791846FFF7C0FFE6
:10AA20003861FB79002B04D101210820FDF7A4F83F
:10AA300010E0FB79022B05D101214FF08070FDF76A
:10AA40009BF807E0FB79032B04D101214FF0007044
:10AA5000FDF792F83B6907221A723B6900221A72CD
:10AA600003E03B691B78DBB27B613B691B7DDBB29A
:10AA700003F00103002BF4D13B69802283F83020DE
:10AA800000BF3B691B7DDBB203F02003002BF8D035
:10AA90003B69002283F830203B6900225A603B6901
:10AAA00000221A733B6900221A623B69002283F874
:10AAB0004C203B69002283F854203B69002283F834
:10AAC00050203B691B7DDBB27B6181E001211020BE
:10AAD000FDF752F8854B07221A72844B00221A7236
:10AAE00003E0824B1B78DBB27B61804B1B7DDBB2CA
:10AAF00003F00103002BF4D17C4B802283F830203B
:10AB000000BF7A4B1B7DDBB203F02003002BF8D093
:10AB1000764B002283F83020744B00225A60734B2E
:10AB200000221A73714B00221A62704B002283F8C4
:10AB30004C206E4B002283F854206C4B002283F88B
:10AB400050206A4B1B7DDBB27B61684B00221A747C
:10AB5000664B1B7EDBB27B613AE001214FF48070D3
:10AB6000FDF70AF8624B07229A60614B00229A6057
:10AB700002E05F4B1B687B615D4B5B6903F0010387
:10AB8000002BF6D15A4B0122DA6500BF584B5B69A6
:10AB900003F02003002BF9D0554B0022DA65544B0B
:10ABA00000225A60524B0022DA60514B00221A6296
:10ABB0004F4B0022DA644E4B00225A654C4B002268
:10ABC0001A654B4B5B697B61494B00225A6200BF9F
:10ABD0003B681A68FB7911461846FFF781FDFB793F
:10ABE000012B06D1414B1B7BDBB203F0C0037B6121
:10ABF00013E0FB79042B05D13D4BDB6803F0C00368
:10AC00007B610AE0FB791846FFF7CAFEF860FB6833
:10AC10001B7BDBB203F0C0037B613B685B79012BDC
:10AC200004D0022B07D0002B0FD009E07B6943F042
:10AC300001037B610AE07B6943F002037B6105E06D
:10AC40007B6943F003037B6100E000BF3B681B7935
:10AC5000002B23D07B6943F008037B613B681B79A1
:10AC6000013B032B19D801A252F823F09BAC000042
:10AC70007DAC000087AC000091AC00007B6943F024
:10AC800010037B610AE07B6943F020037B6105E0F0
:10AC90007B6943F030037B6100E000BF3B689B7938
:10ACA000012B00D004E07B6943F004037B6100BF0B
:10ACB000FB79012B04D10D4B7A69D2B21A7310E0E3
:10ACC000FB79042B04D10A4B7A69D2B2DA6008E02E
:10ACD000FB791846FFF764FEB8607B69DAB2BB689F
:10ACE0001A7300BF1837BD4680BD00BF0000014089
:10ACF00000400A4080B483B000AF78607B684FF4B6
:10AD0000E1321A607B6803225A717B6800221A7153
:10AD10007B6800229A7100BF0C37BD4680BC70472B
:10AD200080B483B000AF03460A46FB711346BB7183
:10AD3000FB79042B20D801A252F823F051AD00007A
:10AD400059AD000061AD000069AD000071AD0000BB
:10AD50000C4ABB7913700FE00B4ABB7913700BE000
:10AD60000A4ABB79137007E0094ABB79137003E004
:10AD7000084ABB79136000BF00BF0C37BD4680BCDA
:10AD8000704700BF00C00040000001400080094043
:10AD900000C0094000400A4080B483B000AF0346C1
:10ADA000FB71FB79042B21D801A252F823F000BFDC
:10ADB000C5AD0000CDAD0000D5AD0000DDAD00009B
:10ADC000E5AD00000C4B1B78DBB210E00B4B1B78A1
:10ADD000DBB20CE00A4B1B78DBB208E0094B1B78B6
:10ADE000DBB204E0084B1B68DBB200E0002318462E
:10ADF0000C37BD4680BC704700C0004000000140D9
:10AE00000080094000C0094000400A4080B58AB077
:10AE100000AFB9607A601A460346FB731346BB73F2
:10AE2000BB687B6100233B61FB7B042B1BD801A229
:10AE300052F823F049AE00004FAE000055AE0000BE
:10AE40005BAE000061AE00003F4B3B610BE03F4B4F
:10AE50003B6108E03E4B3B6105E03E4B3B6102E05D
:10AE60003D4B3B6100BF7B687B62BB7B012B36D1D6
:10AE700000233B622FE04FF0FF33FB6105E0FB69ED
:10AE8000002B09D0FB69013BFB613B691B6803F0A8
:10AE90002003002BF3D000E000BFFB69002B49D05A
:10AEA0001023BB6111E07B695A1C7A611A78FB7B25
:10AEB00011461846FFF734FFBB69013BBB617B6A53
:10AEC000013B7B623B6A01333B62BB69002B02D0D2
:10AED0007B6A002BE7D17B6A002BCCD12FE00023CB
:10AEE0003B6223E07B6A002B26D03B691B6803F0A2
:10AEF0002003002B22D01023BB6111E07B695A1C78
:10AF00007A611A78FB7B11461846FFF709FF7B6AC6
:10AF1000013B7B62BB69013BBB613B6A01333B6226
:10AF2000BB69002B02D07B6A002BE7D17B6A002B28
:10AF3000D8D104E000BF02E000BF00E000BF3B6AE0
:10AF400018462837BD4680BD14C00040140001409B
:10AF50001480094014C0094014400A4090B58BB0D9
:10AF600000AFB9607A601A460346FB731346BB73A1
:10AF7000BB68BB6100237B61FB7B042B1BD801A258
:10AF800052F823F099AF00009FAF0000A5AF00007A
:10AF9000ABAF0000B1AF0000314B7B610BE0314B38
:10AFA0007B6108E0304B7B6105E0304B7B6102E068
:10AFB0002F4B7B6100BF7B687B62BB7B012B2AD15F
:10AFC00000233B6223E04FF0FF33FB6105E0FB69A8
:10AFD000002B09D0FB69013BFB617B691B6803F017
:10AFE0000103002BF3D000E000BFFB69002B2ED043
:10AFF000BC69631CBB61FB7B1846FFF7CDFE0346B3
:10B0000023707B6A013B7B623B6A01333B627B6A54
:10B01000002BD8D11EE000233B6214E07B691B6843
:10B0200003F00103002B14D0BC69631CBB61FB7BE4
:10B030001846FFF7B1FE034623703B6A01333B62BB
:10B040007B6A013B7B627B6A002BE7D102E000BF99
:10B0500000E000BF3B6A18462C37BD4690BD00BFDC
:10B0600014C00040140001401480094014C009407D
:10B0700014400A4080B584B000AF03460A46FB7115
:10B080001346BB71BB79012B27D1FB79012B0AD168
:10B09000244A244B93F83030DBB263F07F03DBB2F9
:10B0A00082F8303039E0FB79042B06D11E4A1E4B62
:10B0B000DB6D43F00103D3652FE0FB791846FFF702
:10B0C0006FFCF860FB6893F83030DBB263F07F030D
:10B0D000DAB2FB6883F830201FE0FB79012B07D13F
:10B0E000104B93F830300F4B002283F8302014E0DF
:10B0F000FB79042B05D10C4BDB6D0B4B0022DA6581
:10B100000BE0FB791846FFF74BFCB860BB6893F87F
:10B110003030BB68002283F8302000BF1037BD46B6
:10B1200080BD00BF0000014000400A4080B483B0F1
:10B1300000AF0346FB71084997F907305B09FA79BC
:10B1400002F01F02012000FA02F241F8232000BFA2
:10B150000C37BD4680BC704700E100E080B483B08E
:10B1600000AF03463960FB7197F90730002B0BDA0B
:10B170000D49FB7903F00F03043B3A68D2B2D200C9
:10B18000D2B20B441A7609E0084997F907303A68B9
:10B19000D2B2D200D2B20B4483F8002300BF0C37E6
:10B1A000BD4680BC704700BF00ED00E000E100E05C
:10B1B00080B584B000AF78600023FB6006E04FF4F8
:10B1C0007A7000F00BF8FB680133FB60FA687B686B
:10B1D0009A42F4D300BF1037BD4680BD80B485B01D
:10B1E00000AF78600023FB6002E0FB680133FB6086
:10B1F0007B689A00FB689A42F7D800BF1437BD46B7
:10B2000080BC704780B582B000AF4FF000537B60C8
:10B210007B68454A13607B6803F580731A46434B8D
:10B220001A607B6803F588731A46414B1A607B6885
:10B2300003F590731A463F4B1A607B6803F59873C9
:10B240001A463D4B1A607B6803F5A0731A463B4BC8
:10B250001A607B6803F5A8731A46394B1A607B683D
:10B2600003F5E8731A46374B1A607B6803F5805381
:10B270001A46354B1A60344B1B681233334A13603D
:10B28000324B1B680933324A13602A4B1B6818463D
:10B2900000F07AFC284B1B68184600F075FC274B21
:10B2A0001B68184600F070FC204B1B68184600F025
:10B2B00055FC1F4B1B68184600F050FC1A4B1B68CE
:10B2C000184600F077FC3220FFF772FF214B002276
:10B2D0005A60204B00221A621E4B00229A621D4BBC
:10B2E00001229A601B4B1C4A5A631A4A194B5B682D
:10B2F00023F0C00343F080035360164B4FF48032B9
:10B300001A65144B084A12689A61124BDB6811499E
:10B31000104AD2681343CB600E4B104A1A6100BF2B
:10B320000837BD4680BD00BF7C9800109C98001077
:10B33000809800109898001094980010849800103D
:10B340008C98001078980010749800109098001055
:10B350008898001000C00820DF2E78275200008057
:10B3600080B500AF1D4A1D4BD3F8C43043F00043F5
:10B37000C2F8C4301A4B1922C3F8F42F00BF184B7F
:10B38000D3F8F83F03F01903192BF8D1144B01221D
:10B39000C3F8102101221F210020FEF797FF03228E
:10B3A0000E210020FEF792FF01220D210020FEF762
:10B3B0008DFF01220C210020FEF788FF01221F21B2
:10B3C0000120FEF783FFFFF71DFF1820FFF7AEFEF9
:10B3D00000211820FFF7C2FE00BF80BD00C00F4053
:10B3E00000C0082080B483B000AF5C4BDB687B609A
:10B3F0005A4B1B693B607A683B681340002B00F096
:10B40000A7807A683B6813407B607B6803F0400349
:10B41000002B7FD0514B5B6D03F48033002B2FD07A
:10B420004E4B1B6D03F40043002B06D04C4B1B68A6
:10B4300043F001034A4A13601EE0484B5B6D03F082
:10B440000103002B0FD0474B00221A70464B0022FD
:10B450001A60434B1B6843F00103414A1360434B9E
:10B4600001221A6008E03E4B1B6823F001033C4AAE
:10B4700013603E4B00221A60384B4FF480325A65FD
:10B48000364B9B6D03F48033002B2FD0334B1B6D59
:10B4900003F40043002B06D0314B1B6843F002033A
:10B4A0002F4A13601EE02D4B9B6D03F00103002B10
:10B4B0000FD02C4B00221A702B4B00221A60284B05
:10B4C0001B6843F00203264A1360284B01221A60CE
:10B4D00008E0234B1B6823F00203214A1360234B2F
:10B4E00000221A601D4B4FF480329A651B4B5B6D36
:10B4F00003F48013002B03D0184B4FF480125A65CD
:10B50000164B9B6D03F48013002B03D0134B4FF4A9
:10B5100080129A657B6803F00203002B09D0124B5E
:10B5200001221A60124B1B681B681B0FDAB20D4B0D
:10B530001A707B6803F01003002B04D00D4B1B68BE
:10B5400001330C4A1360054A7B68D36000BF00E0FA
:10B5500000BF0C37BD4680BC704700BF00C008204C
:10B560003028001038280010342800102C28001033
:10B570009C9800103C28001080B584B002AF00BF3A
:10B58000594B1B68002BFBD06420FFF711FE574B73
:10B590001B6803F00103002B0DD0554B10225A6598
:10B5A00000BF534B5B6D03F01003002BF9D1504BE0
:10B5B0004FF480125A654D4B1B6803F00203002BB9
:10B5C0000DD04B4B10229A6500BF494B9B6D03F089
:10B5D0001003002BF9D1464B4FF480129A65C82016
:10B5E000FFF7E6FD434B1B684FF490121A60424B85
:10B5F0001B6801931223009300234FF480720621ED
:10B60000802000F0D9F978607B68002B01D07B683E
:10B6100065E0384B1B68384A126807321278D2B29C
:10B6200012041A60002301930023009300230122D7
:10B630000521002000F006FA78607B68002B01D01D
:10B640007B684CE00220FFF7B3FD2A4B1B68294AB8
:10B650001268126842F001021A60284B1B680193BD
:10B660000923009300234FF400720621802000F08C
:10B67000A3F978607B68002B01D07B682FE01F4B1B
:10B680001B680233184600F0DFFA03461A461B4BCC
:10B690001B680193009200234FF400720621802062
:10B6A00000F08AF978607B68002B01D07B6816E097
:10B6B00000F026F878607B68002B01D07B680EE0F4
:10B6C000002301930023009300230122092100207D
:10B6D00000F0B8F978606420FFF76AFD7B681846CF
:10B6E0000837BD4680BD00BF2C2800103028001050
:10B6F00000C00820989800107498001090980010CE
:10B70000B0B582B000AF594B1B687B600023FB7063
:10B710007B6801331B78DBB2022B02D06FF00A0387
:10B720009FE07B681B78DBB21A467B6813447B6022
:10B7300082E07B6801331B78DBB2042B02D0052B3F
:10B740001FD071E07B6805331B78DBB2082B73D107
:10B750007B6806331B78DBB2062B6DD17B68073321
:10B760001B78DBB2502B67D10123FB70404B0022CA
:10B770001A707B681B78DBB21A467B6813447B60C7
:10B780005AE07B6803331B78DBB203F00303022B20
:10B7900042D17B6802331B78DBB25BB2002B1DDA2F
:10B7A000344B1D687B6802331B78DBB203F07F03E8
:10B7B000DB0143F4805444F001047B6804331846F1
:10B7C00000F042FA03461B0423432B607B681B787E
:10B7D000DBB21A467B6813447B602DE0264B1D6864
:10B7E0007B6802331B78DBB203F07F03DB0143F499
:10B7F000006444F001047B680433184600F024FA26
:10B8000003461B0423432B607B681B78DBB21A467C
:10B810007B6813447B600FE07B681B78DBB21A46C1
:10B820007B6813447B6007E07B681B78DBB21A46B9
:10B830007B6813447B6000BF0C4B1C680B4B1B6880
:10B840000233184600F000FA0346E2187B689A4279
:10B850007FF46FAFFB78002B01D0002301E06FF085
:10B860000B0318460837BD46B0BD00BF90980010C6
:10B87000B0000010949800108498001080B400AFBD
:10B88000034B1B78DBB21846BD4680BC704700BF37
:10B89000B000001080B586B000AFF860B9607A6083
:10B8A0003B60404B1B68FA689A420AD1BB68002B88
:10B8B00003D14FF000737B6105E04FF040737B6173
:10B8C00001E000237B61384B1A68B9687B690B4340
:10B8D00043F0704343F480231360344B1B68002211
:10B8E0001A60314B1B687A685A60304B1B68002223
:10B8F0005A602D4B1B682D4A12689A602B4B1B68AF
:10B9000000229A60284B1B683A68013A79680A4419
:10B91000DA60264B1B680022DA60FB689B6803F044
:10B920000203214A12681A43FB689A601F4B1B6886
:10B930001A46FB685A60FB680022DA60194B1B68E4
:10B94000FA689A420FD11A4AFB681362184A184BD8
:10B950009B6843F002039360154A154B5B6843F004
:10B96000100353600EE0124AFB689362104A104BBA
:10B970009B6843F0040393600D4A0D4B5B6843F0F2
:10B980002003536000F036F90A4B1B78DBB2002B22
:10B9900001D1002301E04FF0FF3318461837BD46B0
:10B9A00080BD00BF989800109C98001080980010EF
:10B9B00000C008203828001090B587B002AF0446B8
:10B9C000084611461A462346FB710346BB710B46D7
:10B9D000BB8013467B807C88BA88B979F8793B8C28
:10B9E0000093234600F074F8144B1868144B1A683F
:10B9F00008230021FFF74EFFF860FB68002B17D1EA
:10BA00003B8C002B08D00D4B18683B8C7A6A4FF4A6
:10BA10008011FFF73FFFF860FB68002B08D1074B50
:10BA20001868002300224FF40021FFF733FFF8606D
:10BA3000FB6818461437BD4690BD00BF98980010AB
:10BA40008C98001090B587B002AF044608461146A6
:10BA50001A462346FB710346BB710B46BB80134657
:10BA60007B807C88BA88B979F8793B8C009323462F
:10BA700000F02EF8144B1868144B1A6808230021A4
:10BA8000FFF708FFF860FB68002B17D13B8C002BF9
:10BA900008D00D4B18683B8C7A6A4FF40021FFF7F1
:10BAA000F9FEF860FB68002B08D1074B18680023EB
:10BAB00000224FF48011FFF7EDFEF860FB68184696
:10BAC0001437BD4690BD00BF989800108C980010A8
:10BAD00090B585B000AF0446084611461A46234685
:10BAE000FB710346BB710B46BB8013467B80002372
:10BAF000FB6008E0184B1A68FB68134400221A70B8
:10BB0000FB680133FB603A8CFB689A42F2DC124B13
:10BB10001B68FA791A70104B1B680133BA791A70D6
:10BB20000D4B1B680233BA881146184600F0A4F882
:10BB3000094B1B6804337A881146184600F09CF8BC
:10BB4000054B1B6806333A8C1146184600F094F8F2
:10BB500000BF1437BD4690BD8C98001080B483B0F0
:10BB600000AF78607B6800221A607B6800225A6010
:10BB70007B6800229A607B680022DA6000BF0C3785
:10BB8000BD4680BC704700BF80B483B000AF786012
:10BB90007B6800221A607B6800225A607B68002262
:10BBA0009A607B680022DA6000BF0C37BD4680BC1B
:10BBB000704700BF80B485B000AF78600023FB60A1
:10BBC0000FE07B68FA68002143F822107B680022AE
:10BBD000A3F880207B680022C3F88420FB6801332F
:10BBE000FB60FB681F2BECD900BF1437BD4680BC3F
:10BBF000704700BF80B400AF00BF054B1B68002B2F
:10BC0000FBD0034B00221A6000BFBD4680BC7047CA
:10BC10003428001080B483B000AF786039603B46B0
:10BC20001A787B681A707B6801337A781A707B689F
:10BC30000233BA781A707B680333FA781A7000BF3F
:10BC40000C37BD4680BC704780B485B000AF7860CB
:10BC500007F10E037A681278D2B21A7007F10E0358
:10BC600001337A685278D2B21A70FB8918461437B9
:10BC7000BD4680BC704700BF80B483B000AF786021
:10BC80000B467B80BB1C1A787B681A707B6801337B
:10BC9000FA781A7000BF0C37BD4680BC704700BFF1
:10BCA00080B485B000AF786007F10C037A68D27871
:10BCB000D2B21A7007F10C0301337A689278D2B2CB
:10BCC0001A7007F10C0302337A685278D2B21A70F4
:10BCD00007F10C0303337A681278D2B21A70FB684A
:10BCE00018461437BD4680BC704700BF80B483B08F
:10BCF00000AF78603960FA787B681A707B6801332E
:10BD0000BA781A707B6802337A781A707B680333CA
:10BD10003A4612781A7000BF0C37BD4680BC704797
:10BD200080B483B000AF78600B467B80FA787B6884
:10BD30001A707B680133BA1C12781A7000BF0C3776
:10BD4000BD4680BC704700BF80B400AF034B1B688A
:10BD50005BB21846BD4680BC704700BF2C2800105F
:10BD600080B483B000AF78604FF080427B6853604E
:10BD700000BF0C37BD4680BC704700BF80B483B0A5
:10BD800000AF03460A46FB711346BB71FB79002BDB
:10BD900018D1BB79012B0AD14FF080424FF080437C
:10BDA0001B78DBB243F01003DBB2137025E04FF0D9
:10BDB00080424FF080431B78DBB223F01003DBB2EC
:10BDC00013701AE0FB79012B17D1BB79012B0AD133
:10BDD0004FF080424FF080431B78DBB243F0020308
:10BDE000DBB2137009E04FF080424FF080431B78C4
:10BDF000DBB223F00203DBB2137000BF0C37BD4689
:10BE000080BC704780B483B000AF0346FB71FB7900
:10BE1000012B0AD14FF080424FF080431B78DBB2F8
:10BE200043F00103DBB2137009E04FF080424FF0A2
:10BE300080431B78DBB223F00103DBB2137000BF39
:10BE40000C37BD4680BC704780B483B000AF03465A
:10BE5000FB71FB79002B07D14FF080431B78DBB2DD
:10BE600003F00803DBB20BE0FB79012B07D14FF0A5
:10BE700080431B78DBB203F00403DBB200E0002355
:10BE800018460C37BD4680BC704700BF80B400AF79
:10BE90004FF080424FF080431B78DBB223F0040365
:10BEA000DBB2137000BFBD4680BC704780B400AFEA
:10BEB0004FF08043AA221A724FF0804355221A7223
:10BEC00000BFBD4680BC704780B485B000AF7860CD
:10BED0000C237B817B897A6802FB03F3FB6002E021
:10BEE000FB68013BFB60FB68002BF9D100BF1437F6
:10BEF000BD4680BC704700BF80B500AF0B4B002231
:10BF0000DA660A4B00221A67094A094B1B6823F0BC
:10BF100000631360064A064B1B6823F080531360CE
:10BF20003220FFF7D1FF00BF80BD00BF00C002403C
:10BF30000080092080B500AF0F4A0F4B1B6843F00B
:10BF4000006313600C4A0C4BDB6943F00063D36160
:10BF50003220FFF7B9FF084A074B1B6843F08053B4
:10BF60001360054A044BDB6943F08053D3613220F0
:10BF7000FFF7AAFF00BF80BD0080092080B500AF99
:10BF8000094A094B1B6823F000631360064A064BFD
:10BF90001B6823F0805313603220FFF795FFFFF7F3
:10BFA000C9FF00BF80BD00BF0080092080B500AF81
:10BFB000204A204B1B6843F0006313601D4A1D4B51
:10BFC000DB6943F00063D3613220FFF77DFF194A3C
:10BFD000184B1B6823F0805313603220FFF774FF67
:10BFE00007E0154B1B68013B134A13600120FFF764
:10BFF0006BFF104B5B6903F08053002BF1D00D4AAF
:10C000000C4B1B6823F0006313603220FFF75CFFCA
:10C0100007E0094B1B68013B074A13600120FFF74B
:10C0200053FF044B5B6903F08053002BF1D000BF3A
:10C0300080BD00BF00800920B400001080B584B02E
:10C0400000AF0346FB710023FB730023BB73802307
:10C050007B730023FB7348E0FA797B7B1340DBB2F0
:10C06000002B06D0454A454B1B6823F00063136044
:10C070000BE0424A414B1B6843F0006313603F4AA8
:10C080003E4BDB6943F00063D3617B7B5B087B73D2
:10C090003220FFF719FF394A384B1B6823F08053D1
:10C0A000136007E0364B1B68013B354A13600120E3
:10C0B000FFF70AFF314B5B6903F08053002BF1D08F
:10C0C0003220FFF701FF2D4A2C4B1B6843F08053B1
:10C0D00013602A4A294BDB6943F08053D361322035
:10C0E000FFF7F2FEFB7B0133FB73FB7B072BB3D91E
:10C0F000224A224B1B6823F0006313601F4A1F4B28
:10C100001B6823F08053136007E01D4B1B68013B45
:10C110001B4A13600120FFF7D7FE184B5B6903F041
:10C120008053002BF1D00023BB73144B5B6903F0E9
:10C130000063002B01D10123BB733220FFF7C4FE43
:10C140000E4A0E4B1B6843F0805313600B4A0B4B97
:10C15000DB6943F08053D361084A084B1B6843F006
:10C1600000631360054A054BDB6943F00063D3614C
:10C17000BB7B18461037BD4680BD00BF008009203C
:10C18000B400001080B584B000AF0346FB710023FB
:10C19000FB730023BB733C4A3B4B1B6823F00063DB
:10C1A00013603220FFF790FE0023BB7327E0FB7B78
:10C1B0005B00FB733220FFF787FE334A324B1B686C
:10C1C00023F0805313603220FFF77EFE2E4B5B6915
:10C1D00003F00063002B03D0FB7B43F00103FB73F0
:10C1E000294A294B1B6843F080531360264A264B8B
:10C1F000DB6943F08053D361BB7B0133BB73BB7BF3
:10C20000072BD4D93220FFF75FFEFB79012B0CD12D
:10C210001D4A1D4B1B6843F0006313601A4A1A4BFA
:10C22000DB6943F00063D36105E0174A164B1B68D6
:10C2300023F000631360144A134B1B6823F08053F0
:10C2400013603220FFF740FE0F4A0F4B1B6843F08C
:10C25000805313600C4A0C4BDB6943F08053D3616D
:10C26000094A094B1B6843F000631360064A064BFA
:10C27000DB6943F00063D3613220FFF725FEFB7BCF
:10C2800018461037BD4680BD0080092080B485B0B7
:10C2900000AFF860B9607A60FB68043BFB60FB6844
:10C2A0004FF080721A60FB68043BFB60BA68FB6861
:10C2B0001A60FB68043BFB60FB6800221A60FB68A5
:10C2C000143BFB607A68FB681A60FB68203BFB60EC
:10C2D000FB6818461437BD4680BC7047064B19688A
:10C2E0000868B0E8F00F80F309884FF0000080F391
:10C2F00011884EF00D0E7047548C001000BF00BF27
:10C3000003480068006880F3088800DF00BF000071
:10C3100008ED00E080B500AF0A4A0A4B1B6843F401
:10C3200078031360074A074B1B6843F07843136098
:10C3300000F07AF8044B00221A60FFF7E1FF0023B7
:10C34000184680BD20ED00E0B800001080B400AFBA
:10C35000034B4FF080521A6000BFBD4680BC70474F
:10C3600004ED00E080B400AF4FF0280080F31188A6
:10C37000044B1B680133034A136000BFBD4680BCF9
:10C38000704700BFB800001080B400AF084B1B68B6
:10C39000013B074A1360064B1B68002B03D14FF08B
:10C3A000000080F3118800BFBD4680BC704700BF0D
:10C3B000B8000010EFF309800C4B1A6820E9F00F69
:10C3C00010602DE908404FF0280080F3118800F03C
:10C3D000E7FB4FF0000080F31188BDE808401968C2
:10C3E0000868B0E8F00F80F309887047548C00109B
:10C3F00000BF00BF80B582B000AF0A4B4FF0805243
:10C400001A6000237B604FF0280080F3118800F051
:10C4100057FB4FF0000080F3118800BF0837BD467E
:10C4200080BD00BF04ED00E080B400AF044B054ABE
:10C430001A60054B07221A6000BFBD4680BC7047DA
:10C4400014E000E0BFD4010010E000E080B58AB045
:10C4500000AF78600023FB6100F0A4FA474B1B6833
:10C46000002B18D1464B474A1A60454B00225A60B0
:10C47000454B4FF4C8425A60434B00221A60414B6F
:10C480007B617B694FF4C8425A607B693E4A1A60FF
:10C490003A4B01221A607B68002B0ED010231A46FB
:10C4A0007B6813447B607B6803F00703002B04D098
:10C4B0007B6823F0070308337B607B68002B56D032
:10C4C0007B68B3F5C84F52D22D4B3B622C4B1B6897
:10C4D0007B6204E07B6A3B627B6A1B687B627B6AEF
:10C4E0005A687B689A4203D27B6A1B68002BF1D1A1
:10C4F0007B6A254A93423AD03B6A1B681022134458
:10C50000FB617B6A1A683B6A1A607B6A5A687B68BF
:10C51000D31A10225200934222D97A6A7B681344BC
:10C520003B617B6A5A687B68D21A3B695A607B6AB6
:10C530007A685A603B695B68FB60114BBB6102E043
:10C54000BB691B68BB61BB691B685A68FB689A4280
:10C55000F6D3BB691A683B691A60BB693A691A600D
:10C560000A4B1A687B6A5B68D31A084A136000F0AA
:10C5700027FAFB6918462837BD4680BD508C00104D
:10C58000408C001040280010488C0010BC000010A7
:10C5900080B586B000AF78607B683B617B68002B1C
:10C5A00027D010235B423A6913443B613B69FB602F
:10C5B00000F0F8F9FB685B68BB60104B7B6102E040
:10C5C0007B691B687B617B691B685A68BB689A4200
:10C5D000F6D37B691A68FB681A607B69FA681A608F
:10C5E000FB685A68064B1B681344054A136000F049
:10C5F000E7F900BF1837BD4680BD00BF408C001072
:10C60000BC00001080B483B000AF78607B6803F199
:10C6100008027B685A607B684FF0FF329A607B6843
:10C6200003F108027B68DA607B6803F108027B682B
:10C630001A617B6800221A6000BF0C37BD4680BCBF
:10C64000704700BF80B483B000AF78607B68002281
:10C650001A6100BF0C37BD4680BC704780B485B0FE
:10C6600000AF786039607B685B68FB60FB685A6884
:10C670003B685A607B685A683B689A60FB685B68F5
:10C680003A689A60FB683A685A607B683A685A6010
:10C690003B687A681A617B681B685A1C7B681A6061
:10C6A00000BF1437BD4680BC704700BF80B485B062
:10C6B00000AF786039603B681B68BB60BB68B3F152
:10C6C000FF3F03D17B681B69FB600CE07B6808338C
:10C6D000FB6002E0FB685B68FB60FB685B681A68F4
:10C6E000BB689A42F6D9FB685A683B685A603B6857
:10C6F0005B683A689A603B68FA689A60FB683A68D7
:10C700005A603B687A681A617B681B685A1C7B68B0
:10C710001A6000BF1437BD4680BC704780B485B036
:10C7200000AF78607B685B687A6892689A607B6823
:10C730009B687A6852685A607B681B69FB60FB687B
:10C740005A687B689A4203D17B689A68FB685A6092
:10C750007B6800221A61FB681B685A1EFB681A601E
:10C7600000BF1437BD4680BC704700BF80B58AB09B
:10C7700002AFF860B9603B601346FB80FB88396B01
:10C78000184600F015FBB861BB69002B70D0BB697F
:10C790001A6BFB8803F18043013B9B0013447B61D0
:10C7A0007B6923F007037B61FB8800937B6BBA6A8C
:10C7B000B968B86900F044FA3A68F9687869FFF72F
:10C7C00065FD0246BB691A60FB6A002B02D0FB6A5A
:10C7D000BA691A60FFF7C6FD314B1B680133304A56
:10C7E0001360304B1B68002B09D12E4ABB691360C4
:10C7F0002B4B1B68012B0FD100F058FA0CE02A4B91
:10C800001B68002B08D1274B1B68DA6ABB6A9A4267
:10C8100002D8244ABB691360BB69DA6A234B1B68E0
:10C820009A4203D9BB69DB6A204A1360204B1B681C
:10C8300001331F4A1360BB69DA6A1E4B1B689A42B8
:10C8400003D9BB69DB6A1B4A1360BB69DA6A13460A
:10C850009B0013449B00184A1A44BB6904331946D1
:10C860001046FFF7FBFE0123FB61FFF78DFD02E0A1
:10C870004FF0FF33FB61FB69012B0BD10A4B1B68A7
:10C88000002B07D0074B1B68DA6ABB6A9A4201D2B9
:10C89000FFF75CFDFB6918462037BD4680BD00BF31
:10C8A000F48D0010548C0010048E0010FC8D0010CC
:10C8B000188E0010008E0010588C001080B584B0C7
:10C8C00000AF78600023FB607B68002B2BD000F06A
:10C8D00069F8194B1A687B681344BB60174B1B68D7
:10C8E00004331846FFF71AFF144B1B68BA685A60E6
:10C8F000114B1B68BA689A4209D2114B1A680F4B48
:10C900001B68043319461046FFF7D0FE08E00D4BB4
:10C910001A680A4B1B68043319461046FFF7C6FE17
:10C9200000F04EF8F860FB68002B01D1FFF70EFD18
:10C9300000BF1037BD4680BDF88D0010548C00102C
:10C94000B08D0010AC8D001080B586B004AF002310
:10C9500003930023029300230193002300930023F9
:10C9600064220C490C48FFF701FF78607B68012BBB
:10C970000BD14FF0280080F31188084B01221A6078
:10C98000074B00221A60FFF7C5FC00BF0837BD4601
:10C9900080BD00BFA4A9040031CC0000048E0010AB
:10C9A000F88D001080B400AF044B1B680133034ABC
:10C9B000136000BFBD4680BC704700BF088E0010EA
:10C9C00090B583B000AF00237B60FFF7CBFC344B06
:10C9D0001B68013B324A1360314B1B68002B57D157
:10C9E000304B1B68002B53D000233B6024E004F144
:10C9F00018031846FFF792FE231D1846FFF78EFE18
:10CA0000E26A294B1B689A4202D9E36A264A1360FC
:10CA1000E26A13469B0013449B00244A1344221DE0
:10CA200011461846FFF71AFEE26A214B1B68DB6AC3
:10CA30009A4201D301233B601E4B1B68002B03D09D
:10CA40001C4BDB68DB6800E000231C46002CCED1C9
:10CA5000194B1B68002B0DD006E000F031F8164B87
:10CA60001B68013B144A1360134B1B68002BF4D165
:10CA700001233B603B68012B03D0104B1B68012B4B
:10CA800006D101237B600D4B00221A60FFF75EFC8C
:10CA9000FFF77AFC7B6818460C37BD4690BD00BF97
:10CAA000088E0010F48D0010008E0010588C0010BD
:10CAB000548C0010B48D00100C8E0010108E0010DD
:10CAC00090B583B000AF2E4B1B68002B4CD12D4B83
:10CAD0001B6801332B4A13602A4B1B68002B34D18F
:10CAE000294B1B687B60294B1B68274A1360274A28
:10CAF0007B681360264B1B680133254A136024E0D2
:10CB00006268204B1B689A4234D8231D1846FFF7F1
:10CB100005FEA36A002B04D004F118031846FFF7A2
:10CB2000FDFDE26A1B4B1B689A4202D9E36A194A6F
:10CB30001360E26A13469B0013449B00164A134499
:10CB4000221D11461846FFF789FD0F4B1B681B6815
:10CB5000002B04D00C4B1B68DB68DB6800E0002373
:10CB60001C46002CCCD106E00C4B1B6801330B4A51
:10CB7000136000E000BF00BF0C37BD4690BD00BF92
:10CB8000088E0010F88D0010AC8D0010B08D0010D4
:10CB9000148E0010008E0010588C00100C8E0010A7
:10CBA00080B483B000AF1D4B1B68002B08D01C4B1A
:10CBB00001221A602DE01B4B1B68013B194A1360D0
:10CBC000184B1A68184913469B0013449B000B44EA
:10CBD0001B68002BEFD0134B1A6813469B001344BD
:10CBE0009B00114A13447B607B685B685A687B68D2
:10CBF0005A607B685A687B6808339A4204D17B6824
:10CC00005B685A687B685A607B685B68DB68074AC8
:10CC100013600C37BD4680BC704700BF088E001003
:10CC2000108E0010008E0010588C0010548C0010D4
:10CC300080B582B000AF786000F078F8FCE700BF04
:10CC400080B584B000AFF860B9607A603B60FB6883
:10CC500034330C22B96818463CF087FEFB6800228A
:10CC600083F83F207B680E2B01D90E237B60FB6885
:10CC70007A68DA62FB687A681A64FB6804331846DB
:10CC8000FFF7E0FCFB6818331846FFF7DBFCFB6896
:10CC9000FA681A617B68C3F10F02FB689A61FB684E
:10CCA000FA685A6200BF1037BD4680BD80B582B0B9
:10CCB00000AF00237B600CE07A6813469B001344AE
:10CCC0009B00124A13441846FFF79CFC7B68013313
:10CCD0007B607B680E2BEFD90D48FFF793FC0D4866
:10CCE000FFF790FC0C48FFF78DFC0C48FFF78AFC1F
:10CCF0000B48FFF787FC0B4B054A1A600A4B054AA5
:10CD00001A6000BF0837BD4680BD00BF588C0010B8
:10CD1000848D0010988D0010B48D0010C88D001007
:10CD2000E08D0010AC8D0010B08D001080B582B089
:10CD300000AF1B4B1B68002B2ED0FFF733FE194BA7
:10CD40001B68002B0CBF01230023DBB27B60FFF7C5
:10CD500037FE7B68002B1FD1FFF704FB114B1B68CC
:10CD6000002B03D0104B5B68DB6800E000233B60C6
:10CD70003B6804331846FFF7D1FC0C4B1B68013BA2
:10CD80000A4A1360064B1B68013B054A1360FFF714
:10CD9000FBFA386800F03EF800BF0837BD4680BD9A
:10CDA000DC8D0010C88D0010D08D0010F48D0010A7
:10CDB00080B584B000AF03463960FB804420FFF7A4
:10CDC00045FBF860FB68002B1ED03B68002B06D1AA
:10CDD000FB889B001846FFF739FB034600E03B68E1
:10CDE000FA681363FB681B6B002B05D1F868FFF72B
:10CDF000CFFB0023FB6007E0FB68186BFB889B0000
:10CE00001A46A5213AF0DDFFFB6818461037BD46EB
:10CE100080BD00BF80B582B000AF78607B681B6BBF
:10CE20001846FFF7B5FB7868FFF7B2FB00BF08377D
:10CE3000BD4680BD80B485B000AF03463960FB803D
:10CE4000FB887F2B02D8FB88FB8125E03B68002B09
:10CE50000BD0FB88FF2B05D8FB88803B114A32F8AA
:10CE6000133000E00023FB8116E00023FB8109E082
:10CE7000FB890C4A32F81330FA889A4206D0FB89B3
:10CE80000133FB81FB897F2BF2D900E000BFFB89D6
:10CE900080339BB2DBB2FB81FB8918461437BD4659
:10CEA00080BC7047ACA9040080B487B000AF0346D3
:10CEB000FB80FB88B3F5805F01D23D4B00E03D4B2A
:10CEC0007B617B699A1C7A611B887B827B8A002B41
:10CED00068D0FA887B8A9A4264D37B699A1C7A610B
:10CEE0001B883B823B8A1B0AFB813B8ADBB23B826D
:10CEF000FA88798A3B8A0B449A4249DAFB89082BE3
:10CF00004FD801A252F823F02DCF00003FCF0000F0
:10CF100055CF00005DCF000065CF00006DCF000051
:10CF200075CF00007DCF000085CF0000FA887B8A96
:10CF3000D31A5B007A6913441B88FB8027E0FA88C8
:10CF40007B8AD31A9BB203F001039BB2FA88D31AEF
:10CF5000FB801CE0FB88103BFB8018E0FB88203B3B
:10CF6000FB8014E0FB88303BFB8010E0FB881A3B21
:10CF7000FB800CE0FB880833FB8008E0FB88503B1B
:10CF8000FB8004E0FB88A3F5E353FB8000BF08E0CF
:10CF9000FB89002B95D13B8A5B007A6913447B6146
:10CFA0008FE700BFFB8818461C37BD4680BC704722
:10CFB000ACAA0400A0AC040080B500AFFBF7ECFC09
:10CFC00000BF80BD80B48BB000AFF860B9607A60FC
:10CFD000BB68DB08BB61BB68DAB2BB69DBB2DB00F4
:10CFE000DBB2D31AFB75FB7DC3F108031A467B68DD
:10CFF0009A420DD9FA68BB6913441B781A46FB7D27
:10D000001A4101217B6801FA03F3013B134055E00B
:10D0100000233B62FA68BB6913441B781A46FB7D08
:10D020001A41FB7DC3F10803012101FA03F3013B1F
:10D0300013403B62FB7DC3F1080387F8273097F864
:10D0400027307A68D31A7B600123FB6119E0BA6943
:10D05000FB691344FA6813441B781A4697F8273083
:10D0600002FA03F31A463B6A13433B627B68083BB0
:10D070007B6097F82730083387F82730FB69013346
:10D08000FB617B68082BE2D87B68002B15D0BA695E
:10D09000FB691344FA6813441B78194601227B6824
:10D0A00002FA03F3013B01EA030297F8273002FA80
:10D0B00003F31A463B6A13433B623B6A18462C371C
:10D0C000BD4680BC704700BF80B485B000AF7860BB
:10D0D00039600023FB601AE07A68FB6813441B7810
:10D0E000FB727A68FB6813443968FA688A1A013A55
:10D0F00079680A4412781A703A68FB68D31A013BBF
:10D100007A681344FA7A1A70FB680133FB603B6853
:10D110005A08FB689A42DFD800BF1437BD4680BC6E
:10D12000704700BF80B582B000AF0346FB71FB794A
:10D13000002B02D0012B29D04CE0294B01221A7080
:10D14000FBF738F90020FBF761FE0346002B03D004
:10D15000234B1B78DBB23EE000F04CF80346012B7A
:10D1600008D11F4B1B78DBB223F00103DAB21C4B52
:10D170001A7007E01A4B1B78DBB243F00203DAB2F5
:10D18000174B1A70164B1B78DBB224E0154B1B783B
:10D1900003F00103002B1AD0FEF7E2F8FEF7ECF9DA
:10D1A0000346002B13D1FEF769FB0346002B0ED17B
:10D1B0000D4A0E490E48F9F751F80346002B06D1E7
:10D1C000084B1B7823F00103DAB2064B1A70054BAB
:10D1D0001B7800E0012318460837BD4680BD00BF1C
:10D1E000C1000010C0000010E89800103099001035
:10D1F0002C99001080B584B000AF0023FB73FCF7BE
:10D2000089FA03461A46874B1A75864B93F91430F0
:10D21000B3F1FF3F00F0F3808348FCF787FA034641
:10D22000002B40F0EE80FCF7F7FA0346002B40F0AD
:10D23000EA80FCF763FB02467A4BDA607B48FCF736
:10D2400067FB0346002B40F0E08004217748FFF79E
:10D250003BFF04217648FFF737FF04217548FFF7AD
:10D2600033FF04217448FFF72FFF10216F48FFF7A9
:10D270002BFF6C4B4FF400721A606A4B93F84330EB
:10D280009B09FB73FB7B012B0BD1162230216748D6
:10D29000FFF798FEB860BB6801339B02614A536098
:10D2A0001CE00C223E216148FFF78CFEB86003228F
:10D2B0002F215E48FFF786FE7860042250215B48EC
:10D2C000FFF780FE3860BB685A1C7B6802339A40C7
:10D2D0003B6802FA03F35B0A524A5360514B93F9DD
:10D2E0001430032B4ED801A252F823F039D300009A
:10D2F000FDD2000031D3000031D3000005222A21E5
:10D300004A48FFF75FFE03460133464A9360042212
:10D3100016214648FFF756FE0246424B9B68934053
:10D32000404A93603F4B9B685B0A3E4A93602AE009
:10D330003C4B01229A6026E001222E213B48FFF758
:10D3400041FE0346002B03D0364B01229A601AE0BF
:10D35000072227213548FFF735FE03460133314ABE
:10D360009360042216213148FFF72CFE02462D4B14
:10D370009B6893402B4A93602A4B9B685B0A294A1F
:10D38000936000E000BFFCF72BFB0346002B3ED16F
:10D390002A48FBF7BFFC234B93F91430002B09D02C
:10D3A000204B93F91430022B04D01E4B93F9143008
:10D3B000032B06D10120FBF7E3FC0346002B06D02C
:10D3C0002AE00020FBF7DCFC0346002B21D1154BA3
:10D3D00093F91430012B09D0124B93F91430002B20
:10D3E00004D0104B93F91430022B06D14FF4007087
:10D3F000FCF7E8FB0346002B0DD101230DE000BF35
:10D400000AE000BF08E000BF06E000BF04E000BF84
:10D4100002E000BF00E000BF002318461037BD4601
:10D4200080BD00BFA4980010BC980010D8980010D0
:10D43000DC980010E0980010E4980010002D3101F5
:10D4400080B582B000AF0E4B32221A800DE03B1D3A
:10D450001846FCF75BFB0346002B06D17B6803F400
:10D460008073002B01D0012305E0054B1B889BB284
:10D47000002BECD1002318460837BD4680BD00BF05
:10D480001C8E001080B588B000AF03463A60FB7177
:10D490000B46BB713B68BB61FB79002B03D0012BB2
:10D4A00000F0AB80D7E06E4B1B78DBB203F00103DA
:10D4B000002B01D00323CFE00123FB77BB790E2B98
:10D4C00000F2938001A252F823F000BF09D50000BA
:10D4D00019D5000027D5000037D50000EBD5000096
:10D4E000EBD50000EBD50000EBD50000EBD500003C
:10D4F000EBD5000045D5000057D5000081D50000D0
:10D50000EBD50000ADD50000FFF79AFF0346012BD5
:10D510006ED10023FB776BE0524B5A683B681A6070
:10D520000023FB7767E04F4B1B689AB23B681A8079
:10D530000023FB775FE04B4B9A683B681A6000233F
:10D54000FB7758E0474B93F91430DAB2BB691A7095
:10D550000023FB774FE00023BB770BE0BB7FBA696A
:10D560001344BA7F3F490A4492F834201A70BB7FB3
:10D570000133BB77BB7F0F2BF0D90023FB773AE059
:10D58000394B7B610023BB770AE0BB7FBA69134448
:10D59000BA7F79690A4412781A70BB7F0133BB776E
:10D5A000BB7F1B2BF1D90023FB7724E007F10C0391
:10D5B0001846FCF7ABFA0346002B1BD107F10C030E
:10D5C0003B610023BB770AE0BB7FBA691344BA7F93
:10D5D00039690A4412781A70BB7F0133BB77BB7F6D
:10D5E000012BF1D90023FB7704E00423FB7702E051
:10D5F00000BF00E000BFFB7F2EE01C4B1B7803F058
:10D600000103002B01D0032326E00023FB77BB7925
:10D61000032B1AD801A252F823F000BF51D6000004
:10D6200039D600002DD6000043D60000104B1B68F1
:10D630009AB23B681A800CE00E4B1A683B681A607D
:10D6400007E03B6801221A6003E00423FB7700E057
:10D6500000BFFB7F00E0042318462037BD4680BD95
:10D66000C1000010A4980010BC980010C000001069
:10D670002C9900103099001080B586B000AFB960C9
:10D680007A603B600346FB730023FB823B68002B00
:10D6900001D104235CE0FB7B002B02D0012B25D0C1
:10D6A00055E02D4B1B78DBB203F00103002B01D0BA
:10D6B00003234DE03A687968B868FCF7E7FC034655
:10D6C000002B11D100BFFCF71FFB0346002BFAD142
:10D6D0003B68012B06D9FCF721FB0346002B01D048
:10D6E000012335E0002333E0012331E01B4B1B789D
:10D6F00003F00103002B01D0032329E03B6899B21A
:10D70000174B1B681A467868F8F746FF0346002B4C
:10D7100015D10023FB820CE0FB8ABA681344104A3F
:10D720001168FA8A0A441278D2B21A70FB8A01335D
:10D73000FB82FB8AB3F5007FEED3002308E0074BA2
:10D7400001221A700120FFF7EDFC012300E0042301
:10D7500018461837BD4680BDC1000010C00000103B
:10D760007898001080B483B000AF0346FB71FB795A
:10D77000002B02D0012B04D006E0064B1B78DBB255
:10D7800003E0054B1B7800E0012318460C37BD462B
:10D7900080BC7047C1000010C000001080B586B08A
:10D7A00000AFB9607A603B600346FB730023FB82E5
:10D7B0003B68002B01D104235BE0FB7B002B02D0F4
:10D7C000012B25D054E02D4B1B78DBB203F0010375
:10D7D000002B01D003234CE03A687968B868FCF765
:10D7E000DFFB0346002B11D100BFFCF78DFA034687
:10D7F000002BFAD13B68012B06D9FCF78FFA0346C0
:10D80000002B01D0012334E0002332E0012330E07B
:10D810001B4B1B7803F00103002B01D0032328E0EE
:10D820000023FB820BE0174B1A68FB8A1344FA8A29
:10D83000B9680A4412781A70FB8A0133FB82FB8AAA
:10D84000B3F5007FEFD33B6899B20E4B1B681A46C5
:10D850007868F8F709FF0346002B01D1002308E0A0
:10D86000074B01221A700120FFF75CFC012300E046
:10D87000042318461837BD4680BD00BFC100001004
:10D88000C00000107898001080B485B000AF7860B8
:10D890007B6801331B78FB81FB891B021AB27B6812
:10D8A0001B781BB213431BB2FB81FB89184614374C
:10D8B000BD4680BC704700BF80B485B000AF7860C3
:10D8C0007B6803331B78FB60FB681B027A680232BB
:10D8D00012781343FB60FB681B027A6801321278EE
:10D8E0001343FB60FB681B027A6812781343FB60EA
:10D8F000FB6818461437BD4680BC704780B483B0BF
:10D9000000AF78600B467B807B685A1C7A607A880F
:10D91000D2B21A707B881B0A7B807B685A1C7A60A3
:10D920007A88D2B21A7000BF0C37BD4680BC7047EF
:10D9300080B483B000AF786039607B685A1C7A602D
:10D940003A68D2B21A703B681B0A3B607B685A1C6B
:10D950007A603A68D2B21A703B681B0A3B607B68F7
:10D960005A1C7A603A68D2B21A703B681B0A3B6054
:10D970007B685A1C7A603A68D2B21A7000BF0C37C2
:10D98000BD4680BC704700BF80B487B000AFF86070
:10D99000B9607A60FB687B61BB683B617B68002B88
:10D9A0000DD07B695A1C7A613A69511C3961127831
:10D9B0001A707B68013B7B607B68002BF1D100BF54
:10D9C0001C37BD4680BC704780B487B000AFF8609C
:10D9D000B9607A60FB687B617B695A1C7A61BA68BE
:10D9E000D2B21A707B68013B7B607B68002BF3D15D
:10D9F00000BF1C37BD4680BC704700BF80B489B0F3
:10DA000000AFF860B9607A60FB68FB61BB68BB611E
:10DA100000237B61FB695A1CFA611B781946BB69BC
:10DA20005A1CBA611B78CB1A7B617B68013B7B6017
:10DA30007B68002B02D07B69002BEBD07B691846FA
:10DA40002437BD4680BC704780B483B000AF786097
:10DA5000396002E07B6801337B607B681B78002BB8
:10DA600005D07B681B781A463B689A42F2D17B68E6
:10DA70001B7818460C37BD4680BC704780B485B013
:10DA800000AF786039600023BB60BB68FB6029E0B1
:10DA9000264AFB681B0113441B68002B1DD0234A38
:10DAA000FB681B0113441A687B681B689A4216D1F5
:10DAB0001E4AFB681B01134404331A687B689B6889
:10DAC0009A420CD1194AFB681B01134408331A68A7
:10DAD0007B685B699A4202D107E00123BB60FB6867
:10DAE0000133FB60FB68032BD2D9FB68042B09D1FF
:10DAF000BB68002B02D13B68022B01D1002310E050
:10DB000012230EE03B68002B08D1084AFB681B017A
:10DB100013440C331B88B3F5807F01D1102300E040
:10DB2000002318461437BD4680BC70472C8E001069
:10DB300080B483B000AF00237B6002E07B680133D8
:10DB40007B607B68032B06D8084A7B681B01134463
:10DB50001B68002BF2D17B68042B14BF0123002328
:10DB6000DBB218460C37BD4680BC70472C8E0010C7
:10DB700080B485B000AF786039600023FB601FE09F
:10DB8000414AFB681B0113441A687B681B689A4270
:10DB900013D13D4AFB681B01134404331A687B68A8
:10DBA0009B689A4209D1384AFB681B011344083329
:10DBB0001A687B685B699A4206D0FB680133FB6098
:10DBC000FB68032BDCD900E000BFFB68042B32D1DB
:10DBD0000023FB6002E0FB680133FB60FB68032B62
:10DBE00006D8294AFB681B0113441B68002BF2D19D
:10DBF000FB68042B01D1002340E07B681A682249AE
:10DC0000FB681B010B441A607B689A681E49FB681D
:10DC10001B010B4404331A607B685A691A49FB687C
:10DC20001B010B4408331A60174AFB681B0113449D
:10DC30000C3300221A803B68002B09D0124AFB6883
:10DC40001B0113440C331B88002B01D0002315E06B
:10DC50003B68002B08D10C4AFB681B0113440C33B2
:10DC60001B8801339AB201E04FF480720649FB68C9
:10DC70001B010B440C331A80FB6801331846143720
:10DC8000BD4680BC704700BF2C8E001080B485B0AC
:10DC900000AF78607B68013B7B607B68032B25D8F5
:10DCA000164A7B681B0113440C331B88FB81FB89DC
:10DCB000B3F5807F01D10023FB81FB89002B02D0CB
:10DCC000FB89013BFB810D4A7B681B0113440C332C
:10DCD000FA891A80FB89002B05D1084A7B681B0151
:10DCE000134400221A6000237B7301E002237B733C
:10DCF0007B7B18461437BD4680BC70472C8E0010C5
:10DD000080B485B000AF78600023FB6010E00C4A5F
:10DD1000FB681B0113441A687B689A4205D1084AC4
:10DD2000FB681B01134400221A60FB680133FB608F
:10DD3000FB68032BEBD900BF1437BD4680BC70478E
:10DD40002C8E001080B586B000AF78600023FB7386
:10DD50007B68DB78002B34D07B685B6B7B617B68F6
:10DD600058787B6803F1380101237A69FFF716FDC3
:10DD70000346002B02D00123FB7322E07B680022C4
:10DD8000DA707B689B6A7A69D21A7B681B6A9A424E
:10DD900017D27B689B783B6110E07B681B6A7A69CD
:10DDA00013447B617B6858787B6803F13801012359
:10DDB0007A69FFF7F3FC3B69013B3B613B69012B4F
:10DDC000EBD8FB7B18461837BD4680BD80B584B0C4
:10DDD00000AF786039600023FB737B685A6B3B6847
:10DDE0009A421BD07868FFF7ADFF0346FB73FB7BBD
:10DDF000002B13D17B6858787B6803F1380101232D
:10DE00003A68FFF739FC0346002B04D04FF0FF338C
:10DE10003B600123FB737B683A685A63FB7B1846BF
:10DE20001037BD4680BD00BF80B584B000AF7860BC
:10DE30007868FFF787FF0346FB73FB7B002B58D105
:10DE40007B681B78032B48D17B681B79012B44D15D
:10DE50007B6838334FF4007200211846FFF7B4FD99
:10DE60007B68383303F5FF734AF655211846FFF7F0
:10DE700045FD7B68383321491846FFF759FD7B681B
:10DE8000383303F5F2731E491846FFF751FD7B68DE
:10DE9000383303F5F4727B685B6919461046FFF767
:10DEA00047FD7B68383303F5F6727B681B691946BA
:10DEB0001046FFF73DFD7B685B6A5A1C7B685A631E
:10DEC0007B6858787B6803F138017B685A6B0123C3
:10DED000FFF764FC7B6800221A717B685B78002284
:10DEE00000211846FFF7CEFA0346002B01D001238C
:10DEF000FB73FB7B18461037BD4680BD5252614113
:10DF00007272416180B483B000AF786039603B6861
:10DF1000023B3B607B68DB699A1E3B689A4201D8F2
:10DF2000002308E07B685B891A463B6803FB02F22A
:10DF30007B681B6B134418460C37BD4680BC70478A
:10DF400080B586B000AF786039607B681B683B6144
:10DF50003B68012B04D93B69DA693B689A4202D8D5
:10DF600001237B618CE04FF0FF337B613B691B78C1
:10DF7000022B45D0032B5DD0012B77D13B68FB6092
:10DF8000FB685B08FA681344FB603B699A6AFB68AC
:10DF90005B0A134419463869FFF718FF0346002B44
:10DFA00067D1FB685A1CFA60C3F308033A6913444B
:10DFB00093F83830BB603B699A6AFB685B0A13448C
:10DFC00019463869FFF702FF0346002B53D1FB685F
:10DFD000C3F308033A69134493F838301B021A4616
:10DFE000BB681343BB603B6803F00103002B02D006
:10DFF000BB681B0902E0BB68C3F30B037B613FE016
:10E000003B699A6A3B681B0A134419463869FFF753
:10E01000DDFE0346002B30D13B6903F138023B683B
:10E020005B0003F4FF7313441846FFF72DFC03460F
:10E030007B6125E03B699A6A3B68DB09134419461A
:10E040003869FFF7C3FE0346002B18D13B6903F183
:10E0500038023B689B0003F4FE7313441846FFF735
:10E060002BFC034623F070437B6109E001237B61B5
:10E0700006E000BF04E000BF02E000BF00E000BF18
:10E080007B6918461837BD4680BD00BF90B589B082
:10E0900000AFF860B9607A600223FB77BB68012BA0
:10E0A00040F2D680FB68DA69BB689A4240F2D080C1
:10E0B000FB681B78022B73D0032B00F09180012B9F
:10E0C00040F0C680BB68BB61BB695B08BA6913449A
:10E0D000BB61FB689A6ABB695B0A13441946F8681E
:10E0E000FFF774FE0346FB77FB7F002B40F0A9800F
:10E0F000FB6803F13802BB69591CB961C3F308031B
:10E1000013447B61BB6803F00103002B0DD07B69D6
:10E110001B785BB203F00F035AB27B68DBB21B01C2
:10E120005BB213435BB2DBB201E07B68DBB27A69BE
:10E130001370FB680122DA70FB689A6ABB695B0A9C
:10E1400013441946F868FFF741FE0346FB77FB7F4F
:10E15000002B78D1FB6803F13802BB69C3F30803D5
:10E1600013447B61BB6803F00103002B03D07B6881
:10E170001B09DBB20EE07B691B785BB223F00F0357
:10E180005AB27B681B0A5BB203F00F035BB2134306
:10E190005BB2DBB27A691370FB680122DA7057E078
:10E1A000FB689A6ABB681B0A13441946F868FFF7B4
:10E1B0000DFE0346FB77FB7F002B46D1FB6803F186
:10E1C0003802BB685B0003F4FF7313447A6892B2B1
:10E1D00011461846FFF792FBFB680122DA7037E020
:10E1E000FB689A6ABB68DB0913441946F868FFF7B5
:10E1F000EDFD0346FB77FB7F002B28D17B6823F0E6
:10E200007044FB6803F13802BB689B0003F4FE73A3
:10E2100013441846FFF750FB034603F070432343B3
:10E220007B60FB6803F13802BB689B0003F4FE735C
:10E23000134479681846FFF77BFBFB680122DA700C
:10E2400006E000BF04E000BF02E000BF00E000BF46
:10E25000FB7F18462437BD4690BD00BF80B588B00F
:10E2600000AFF860B9607A600023FB77FB681B6839
:10E27000BB61BB68012B04D9BB69DA69BB689A42F0
:10E2800001D802234BE07B68002B0CD04FF0FF320B
:10E290007968B869FFF7FAFE0346FB77FB7F002B2E
:10E2A00001D0FB7F3BE0B968F868FFF749FE786171
:10E2B0007B69002B31D07B69012B01D102232EE039
:10E2C0007B69B3F1FF3F01D1012328E00022B96847
:10E2D000B869FFF7DBFE0346FB77FB7F002B01D01D
:10E2E000FB7F1CE0BB695A69BB69DB69023B9A4250
:10E2F0000BD2BB695B695A1CBB695A61BB691B794C
:10E3000043F00103DAB2BB691A717B69BB60BB6978
:10E31000DA69BB689A42C6D800E000BF00231846FD
:10E320002037BD4680BD00BF80B588B000AF7860A3
:10E3300039607B681B683B613B68002B0DD13B69F2
:10E340001B69BB61BB69002B04D03B69DA69BB69FF
:10E350009A421BD80123BB6118E039687868FFF73F
:10E36000EFFDF860FB68012B01D8012370E0FB682A
:10E37000B3F1FF3F01D1FB686AE03B69DA69FB68F2
:10E380009A4201D9FB6863E03B68BB61BB69FB61F2
:10E39000FB690133FB613B69DA69FB699A4207D883
:10E3A0000223FB61FA69BB699A4201D900234FE05D
:10E3B000F9697868FFF7C4FDF860FB68002B0ED0A0
:10E3C000FB68012B03D0FB68B3F1FF3F01D1FB6871
:10E3D0003EE0FA69BB699A42DAD1002338E000BF17
:10E3E0004FF0FF32F9693869FFF750FE0346FB75BD
:10E3F000FB7D002B09D13B68002B06D0FA693968F8
:10E400003869FFF743FE0346FB75FB7D002B16D1F1
:10E410003B69FA691A613B695A693B69DB69023BEE
:10E420009A4204D23B695B695A1E3B695A613B6957
:10E430001B7943F00103DAB23B691A7107E0FB7DF7
:10E44000012B02D14FF0FF3300E00123FB61FB6998
:10E4500018462037BD4680BD80B586B000AF7860D5
:10E4600039607B681B683B613B68B3F5001F04D2D1
:10E470003B6803F01F03002B01D0022363E07B689D
:10E480003A685A617B689B687B617B69002B06D187
:10E490003B691B78022B02D93B69DB6A7B617B6994
:10E4A000002B0CD13B685B093A691289934201D376
:10E4B000022348E03B69DA6A7B68DA6129E03B695C
:10E4C0005B895B02FB6019E07B6879691846FFF79E
:10E4D00037FD78617B69B3F1FF3F01D1012332E061
:10E4E0007B69012B04D93B69DA697B699A4201D8BF
:10E4F000022328E03A68FB68D31A3B603A68FB685D
:10E500009A42E1D279693869FFF7FCFC02467B68E0
:10E51000DA617B687A699A617B68DB69002B01D1DB
:10E52000022310E07B68DA693B685B0A1A447B6867
:10E53000DA613B6903F138023B68C3F308031A440C
:10E540007B681A62002318461837BD4680BD00BF9D
:10E5500080B586B000AF786039607B681B68FB606F
:10E560007B685B692033BB607B68DB69002B03D071
:10E57000BB68B3F5001F01D30423AAE0BB68C3F353
:10E580000803002B40F098807B68DB695A1C7B688D
:10E59000DA617B689B69002B0BD1BB685B09FA6869
:10E5A00012899342C0F088807B680022DA610423DC
:10E5B0008FE0BB685B0AFA685289013A1340002B6E
:10E5C0007AD17A687B689B6919461046FFF7B8FCD8
:10E5D00078617B69012B01D802237AE07B69B3F172
:10E5E000FF3F01D1012374E0FB68DA697B699A423D
:10E5F00058D83B68002B04D17B680022DA610423E1
:10E6000067E07A687B689B6919461046FFF78CFEC5
:10E6100078617B69002B01D107235AE07B69012BCC
:10E6200001D1022355E07B69B3F1FF3F01D1012302
:10E630004FE0F868FFF786FB0346002B01D001236B
:10E6400047E0FB6838334FF4007200211846FFF7AB
:10E65000BBF900233B617969F868FFF753FC024678
:10E66000FB685A6312E0FB680122DA70F868FFF772
:10E6700069FB0346002B01D001232AE03B690133EB
:10E680003B61FB685B6B5A1CFB685A63FB685B89E8
:10E690001A463B699A42E6D8FB685A6B3B69D21A24
:10E6A000FB685A637B687A699A617969F868FFF751
:10E6B00029FC02467B68DA617B68BA685A61FB68AC
:10E6C00003F13802BB68C3F308031A447B681A627B
:10E6D000002318461837BD4680BD00BF80B586B000
:10E6E00000AF786039607B681B68FB600021786848
:10E6F000FFF7B2FE0346FB75FB7D002B2BD10023F9
:10E700003B617B68DB691946F868FFF75FFB0346EE
:10E71000FB75FB7D002B1DD17B681B6A1B78E52BED
:10E7200004D07B681B6A1B78002B07D13B6901333F
:10E730003B613A693B689A4202D10CE000233B619D
:10E7400001217868FFF704FF0346FB75FB7D002B72
:10E75000D7D000E000BFFB7D042B01D10723FB7560
:10E76000FB7D18461837BD4680BD00BF80B584B01C
:10E7700000AF786039603B681A331846FFF784F8B9
:10E780000346FB607B681B78032B09D13B6814337D
:10E790001846FFF779F803461B04FA681343FB6039
:10E7A000FB6818461037BD4680BD00BF80B584B0F9
:10E7B00000AFF860B9607A60BB681A337A6892B2C9
:10E7C00011461846FFF79AF8FB681B78032B09D10E
:10E7D000BB6803F114027B681B0C9BB21946104600
:10E7E000FFF78CF800BF1037BD4680BD90B587B0ED
:10E7F00000AF786039603B681A331846FFF744F879
:10E800000346002B01D0002359E03B681B7803F03E
:10E810003F035A1E13465B0013449B0013447B6165
:10E820000123FB8100233B6133E0274A3B6913440A
:10E830001B781A463B6813441846FFF725F8034631
:10E84000BB81FB89002B1AD07B69FE2B12D8BB89B8
:10E850001846FEF729FB03461C467B695A1C7A6161
:10E860005B007A6813441B881846FEF71DFB0346BD
:10E870009C4201D0002322E0BB89FB8106E0BB89DA
:10E880004FF6FF72934201D0002318E03B69013339
:10E890003B613B690C2BC8D93B681B7803F04003F4
:10E8A000002B0BD0FB89002B08D07B695B007A68BA
:10E8B00013441B88002B01D0002300E001231846DD
:10E8C0001C37BD4690BD00BFDCAD040080B586B0EE
:10E8D00000AF786039603B681A331846FEF7D4FF02
:10E8E0000346002B01D000234DE03B681B7803F06A
:10E8F0003F035A1E13465B0013449B0013447B6185
:10E900000123FB8100233B6128E0214A3B6913443A
:10E910001B781A463B6813441846FEF7B5FF0346BA
:10E92000BB81FB89002B0FD07B69FE2B01D9002313
:10E9300029E07B695A1C7A615B007A681344BA89C2
:10E94000FA81FA891A8006E0BB894FF6FF7293427A
:10E9500001D0002317E03B6901333B613B690C2B7D
:10E96000D3D93B681B7803F04003002B0AD07B69A6
:10E97000FE2B01D9002306E07B695B007A68134413
:10E9800000221A80012318461837BD4680BD00BFFB
:10E99000DCAD040080B588B000AFF860B960114606
:10E9A0001A460B46FB711346BB71BB680D33BA792F
:10E9B0001A70BB680B330F221A70BB680C3300222D
:10E9C0001A70BB681A3300211846FEF797FFFB79CF
:10E9D0005A1E13465B0013449B001344FB61002343
:10E9E000FB820023BB61FB8A4FF6FF72934207D084
:10E9F000FB695A1CFA615B00FA6813441B88FB82AE
:10EA0000174ABB6913441B781A46BB681344FA8A39
:10EA100011461846FEF772FFFB8A002B02D14FF613
:10EA2000FF73FB82BB690133BB61BB690C2BDAD975
:10EA3000FB8A4FF6FF72934206D0FB695B00FA68CF
:10EA400013441B88002B03D1FB7943F04003FB7177
:10EA5000BB68FA791A7000BF2037BD4680BD00BF81
:10EA6000DCAD040080B58CB000AFF860B9607A60AE
:10EA70003B600B22B968F868FEF786FF3B68052B00
:10EA80002BD93B68FB6122E07B689A1C7A601B886B
:10EA90007B840023BB6217E0FB695A007B8C03F088
:10EAA00001031344FB617B8C5B087B84FB6903F4EB
:10EAB0008033002B05D0FB6983F4883383F0210376
:10EAC000FB61BB6A0133BB62BB6A0F2BE4D97B6875
:10EAD0001B88002BD8D1FB693B600723BB623B68D6
:10EAE000DBB203F00F03DBB2303387F82F3097F837
:10EAF0002F30392B04D997F82F30073387F82F3070
:10EB0000BB6A5A1EBA6207F13002134497F82F20ED
:10EB100003F81C2C3B681B093B603B68002BDED1D3
:10EB200007F11402BB6A13447E221A7000237B6231
:10EB300002E07B6A01337B627A6ABB6A9A4205D241
:10EB4000FA687B6A13441B78202BF2D17B6A5A1C2B
:10EB50007A62FA681A44BB6A072B08D8BB6A591C48
:10EB6000B96207F130010B4413F81C3C00E020238C
:10EB700013707B6A072BE9D900BF3037BD4680BDD3
:10EB800080B485B000AF78600023FB730B23BB60BB
:10EB9000FB7BDAB25208DB011343DAB27B68591C03
:10EBA00079601B781344FB73BB68013BBB60BB6897
:10EBB000002BEDD1FB7B18461437BD4680BC704757
:10EBC00080B586B000AF786039600423FB757B6840
:10EBD0001B683B61FF237B75FF233B7581E07B68EE
:10EBE000DB6919463869FFF7F1F80346FB75FB7DD1
:10EBF000002B7CD17B681B6A1B78BB75BB7D002B0F
:10EC000002D10423FB7577E07B681B6A0B331B780A
:10EC100003F03F03FB737B68FA7B9A71BB7DE52BA6
:10EC20000ED0BB7D2E2B0BD0FB7B23F02003082BBB
:10EC30000CBF01230023DBB21A463B689A4202D084
:10EC4000FF237B7544E0FB7B0F2B2FD1BB7D03F0B3
:10EC50004003002B0DD07B681B6A5B7B3B75BB7D43
:10EC600023F04003BB75BB7D7B757B685A697B686D
:10EC70001A63BA7D7B7D9A4215D17B681B6A0D337E
:10EC80001B783A7D9A420ED13B69DA687B681B6A31
:10EC900019461046FFF71AFE0346002B03D07B7D72
:10ECA000013BDBB200E0FF237B7511E07B7D002B95
:10ECB00009D17B681B6A1846FFF762FF03461A46B4
:10ECC0003B7D934215D07B684FF0FF321A6310E012
:10ECD00000217868FFF73CFC0346FB75FB7D002BA9
:10ECE00009D17B68DB69002B7FF479AF04E000BFBA
:10ECF00002E000BF00E000BFFB7D002B02D07B687C
:10ED00000022DA61FB7D18461837BD4680BD00BF82
:10ED100080B586B000AF78607B681B683B610021DE
:10ED20007868FFF799FB0346FB75FB7D002B01D04C
:10ED3000FB7DA9E0FF233B753B7D7B757B684FF036
:10ED4000FF321A637B68DB6919463869FFF73EF8C2
:10ED50000346FB75FB7D002B40F090807B681B6AAF
:10ED60001B78BB75BB7D002B02D10423FB758AE0A9
:10ED70007B681B6A0B331B7803F03F03FB737B68D4
:10ED8000FA7B9A71BB7DE52B07D0FB7B03F0080370
:10ED9000002B09D0FB7B0F2B06D0FF237B757B68F4
:10EDA0004FF0FF321A635EE0FB7B0F2B36D17B689E
:10EDB00093F82F3003F04003002B54D1BB7D03F0B8
:10EDC0004003002B0DD07B681B6A5B7B3B75BB7DD2
:10EDD00023F04003BB75BB7D7B757B685A697B68FC
:10EDE0001A63BA7D7B7D9A4215D17B681B6A0D330D
:10EDF0001B783A7D9A420ED13B69DA687B681B6AC0
:10EE000019461046FFF7F2FC0346002B03D07B7D2A
:10EE1000013BDBB200E0FF237B7524E07B7D002B10
:10EE200009D17B681B6A1846FFF7AAFE03461A46FB
:10EE30003B7D934224D07B6893F82F3003F001038D
:10EE4000002B0AD17B68186A7B6824330B22194691
:10EE5000FEF7D4FD0346002B14D0FF237B757B689F
:10EE60004FF0FF321A6300217868FFF771FB034609
:10EE7000FB75FB7D002B3FF465AF04E000BF02E0B3
:10EE800000BF00E000BFFB7D18461837BD4680BDBF
:10EE900080B58CB000AF78607B681B68FB617B68D5
:10EEA00093F82F3003F0A003002B01D00623E0E0FD
:10EEB00000237B6202E07B6A01337B62FB69DA68D4
:10EEC0007B6A5B0013441B88002BF4D17B6803F141
:10EED000240107F10C030C221846FEF755FDFB7DBB
:10EEE00003F00103002B32D07B68402283F82F20EF
:10EEF0000123BB6216E07B6803F12400FB69DA683A
:10EF000007F10C01BB6AFFF7ADFD7868FFF700FF62
:10EF1000034687F82F3097F82F30002B06D1BB6AB5
:10EF20000133BB62BB6A632BE5D900E000BFBB6A5B
:10EF3000642B01D107239CE097F82F30042B02D0DB
:10EF400097F82F3095E0FA7D7B6883F82F20FB7DC2
:10EF500003F00203002B07D07B6A0C33474AA2FB65
:10EF600003239B08013300E001233B62396A786880
:10EF7000FFF7B4FB034687F82F3097F82F30002BAC
:10EF800048D13B6A013B3B623B6A002B42D07B6825
:10EF90005A693B6A5B01D31A19467868FFF75CFA35
:10EFA000034687F82F3097F82F30002B32D17B683B
:10EFB00024331846FFF7E4FD0346FB767B68DB69E4
:10EFC0001946F869FEF702FF034687F82F3097F8D5
:10EFD0002F30002B1DD1FB69D8687B68196A3B6A0A
:10EFE000DAB2FB7EFFF7D6FCFB690122DA70002162
:10EFF0007868FFF7ADFA034687F82F3097F82F307F
:10F00000002B07D13B6A013B3B623B6A002BD5D109
:10F0100000E000BF97F82F30002B28D17B68DB6918
:10F020001946F869FEF7D2FE034687F82F3097F8A5
:10F030002F30002B1BD17B681B6A20220021184631
:10F04000FEF7C2FC7B68186A7B6824330B221946E2
:10F05000FEF79AFC7B681B6A0C337A6892F82F20C3
:10F0600002F01802D2B21A70FB690122DA7097F826
:10F070002F3018463037BD4680BD00BF4FECC44E20
:10F0800080B586B000AF78607B681B683B617B68A9
:10F090005B69FB607B681B6BB3F1FF3F07D07B684C
:10F0A0001B6B19467868FFF7D7F9034600E0002389
:10F0B000FB75FB7D002B28D17B68DB69194638691D
:10F0C000FEF784FE0346FB75FB7D002B15D17B68A4
:10F0D0001B6AE5221A703B690122DA707B685A6963
:10F0E000FB689A420BD200217868FFF731FA034699
:10F0F000FB75FB7D002BDFD002E000BF00E000BF0E
:10F10000FB7D042B01D10223FB75FB7D18461837CC
:10F11000BD4680BD80B588B000AF786039607B683F
:10F120001B683B613B6800229A757B68DB69002B9A
:10F1300000F0C9807B681B6BB3F1FF3F32D0002326
:10F14000BB61BB69FB611BE0FB8900211846FDF731
:10F1500071FE0346FB81FB89002B02D10023FB617A
:10F160001AE0FB69FE2B02D90023FB6114E0FB6966
:10F170005A1CFA61FA89D1B23A6813440A469A7560
:10F180003B69DA68BB69591CB9615B0013441B8891
:10F19000FB81FB89002BD7D13A68FB6913441633F6
:10F1A00000221A700023BB61BB69FB613A68FB69EE
:10F1B000134416331B78BB814CE07B681A6AFB69E9
:10F1C000591CF96113441B78FB75FB7D202B00D182
:10F1D00040E0FB7D052B01D1E523FB75FB69092B85
:10F1E0000FD1BB89002B05D13A68BB691344163394
:10F1F0002E221A70BB695A1CBA613A6813442E2237
:10F200005A723A68BB6913440933FA7D1A70BB8994
:10F21000002B1CD1FB7D402B13D9FB7D5A2B10D822
:10F220007B681B6A0C331B781A46FB69082B01D9D3
:10F23000102300E008231340002B02D0FB7D203375
:10F24000FB753A68BB6913441633FA7D1A70BB69C3
:10F250000133BB61FB690A2BAFD9BB89002B0DD1F0
:10F260003A68BB691344163300221A707B681B6A24
:10F270000C331B78002B01D10023BB613A68BB69BA
:10F280001344093300221A707B681B6ADA7A3B68E0
:10F290001A727B681B6A1C331846FEF70DFB024688
:10F2A0003B681A607B681B6A16331846FEF704FB3E
:10F2B000B860BB689AB23B68DA80BB681B0C9AB234
:10F2C0003B689A8000E000BF2037BD4680BD00BF8C
:10F2D00080B58AB000AF786039603B681B683B61DD
:10F2E0007B681B68DB68FB6000237B617B69BB611B
:10F2F000BB695A1CBA613A6913441B78BB84BB8C46
:10F300001F2B40D9BB8C2F2B06D0BB8C5C2B10D174
:10F3100002E0BB690133BB613A69BB6913441B78E6
:10F320002F2BF6D03A69BB6913441B785C2BF0D0C5
:10F330002AE07B69FE2B01D90623C9E1BB8CDBB235
:10F34000BB84BB8C01211846FDF774FD0346BB84CA
:10F35000BB8C002B01D10623BAE1BB8C7F2B09D8D3
:10F36000BB8C1946A548FEF76FFB0346002B01D066
:10F370000623ADE17B695A1C7A615B00FA6813448D
:10F38000BA8C1A80B4E700BF3A69BB691A443B687B
:10F390001A60BB8C1F2B01D8042300E0002387F8E0
:10F3A00026307B69012B09D17B6903F10043013BC6
:10F3B0005B00FA6813441B882E2B16D07B69022B46
:10F3C0004ED17B6903F10043013B5B00FA681344B3
:10F3D0001B882E2B44D17B6903F10043023B5B0069
:10F3E000FA6813441B882E2B3AD17B695B00FA68BC
:10F3F000134400221A8000233B620FE03A6A7B69C3
:10F400009A4201D22E2100E020217A683B6A1344FF
:10F4100024330A461A703B6A01333B623B6A0A2B6B
:10F42000ECD997F8263043F02003D9B27A683B6ACA
:10F43000134424330A461A70002349E17B6903F11F
:10F440000043013B5B00FA6813441B88BB84BB8C00
:10F45000202B02D0BB8C2E2B06D17B69013B7B611C
:10F460007B69002BEAD100E000BF7B695B00FA6892
:10F47000134400221A807B69002B01D1062327E167
:10F480007B6824330B2220211846FEF79DFA0023C7
:10F49000BB6102E0BB690133BB61BB695B00FA6819
:10F4A00013441B88202BF5D0BB695B00FA6813441A
:10F4B0001B882E2BEED0BB69002B09D097F8263085
:10F4C00043F0030387F8263002E07B69013B7B6150
:10F4D0007B69002B09D07B6903F10043013B5B0092
:10F4E000FA6813441B882E2BEFD1002387F82730AE
:10F4F00000233B620823FB61BB695A1CBA615B00B5
:10F50000FA6813441B88BB84BB8C002B00F09680E8
:10F51000BB8C202B06D0BB8C2E2B0AD1BA697B6901
:10F520009A4206D097F8263043F0030387F8263036
:10F5300083E03A6AFB699A4203D2BA697B699A42CC
:10F5400023D1FB690B2B06D197F8263043F0030338
:10F5500087F8263075E0BA697B699A4205D097F83A
:10F56000263043F0030387F82630BA697B699A4254
:10F5700066D87B69BB6108233B620B23FB6197F86C
:10F5800027309B0087F8273057E0BB8C7F2B14D99E
:10F59000BB8C00211846FDF74DFC0346BB84BB8C99
:10F5A000002B04D0BB8C803B154AD35CBB8497F8FE
:10F5B000263043F0020387F82630BB8C002B07D09F
:10F5C000BB8C19460F48FEF73FFA0346002B08D0C4
:10F5D0005F23BB8497F8263043F0030387F8263077
:10F5E00021E0BB8C402B0FD9BB8C5A2B0CD897F841
:10F5F000273043F0020387F8273014E0ECAD040015
:10F600005CAD0400F8AD0400BB8C602B0BD9BB8C47
:10F610007A2B08D897F8273043F0010387F8273072
:10F62000BB8C203BBB843B6A5A1C3A62BA8CD1B279
:10F630007A6813440A4683F824205DE700BF00E09F
:10F6400000BF7B6893F82430E52B03D17B6805224B
:10F6500083F82420FB69082B04D197F827309B00FE
:10F6600087F8273097F8273003F00C030C2B05D0D0
:10F6700097F8273003F00303032B05D197F82630C2
:10F6800043F0020387F8263097F8263003F0020390
:10F69000002B17D197F8273003F00303012B05D176
:10F6A00097F8263043F0100387F8263097F8273074
:10F6B00003F00C03042B05D197F8263043F0080320
:10F6C00087F826307B6897F8262083F82F200023C0
:10F6D00018462837BD4680BD80B586B000AF78603B
:10F6E00039607B683B613B691B68FB603B681B784A
:10F6F0002F2B0BD03B681B785C2B07D0FB689A69DB
:10F700003B699A600DE03B6801333B603B681B78C6
:10F710002F2BF8D03B681B785C2BF4D03B69002280
:10F720009A603B681B781F2B0AD87B68802283F87D
:10F730002F2000217868FEF78FFE0346FB7556E008
:10F740003B4619467868FFF7C3FD0346FB75FB7D12
:10F75000002B47D17868FFF7DBFA0346FB757B681F
:10F7600093F82F30FB72FB7D002B1BD0FB7D042B0D
:10F770003AD1FB7A03F02003002B0BD0FB7A03F085
:10F780000403002B2CD07B68802283F82F200023D9
:10F79000FB7529E0FB7A03F00403002B24D1052339
:10F7A000FB7521E0FB7A03F00403002B1ED13B69BB
:10F7B0009B7903F01003002B02D10523FB7516E0A3
:10F7C000FB6803F138027B685B69C3F308031344E9
:10F7D0001946F868FEF7CAFF02463B699A60AFE730
:10F7E00000BFADE700BF02E000BF00E000BFFB7D4F
:10F7F00018461837BD4680BD80B487B000AF78602A
:10F800004FF0FF333B617B681B68002B32D07B6875
:10F810001B687B6102E07B6901337B617B691B783C
:10F820001F2B03D97B691B783A2BF4D17B691B789A
:10F830003A2B1CD17B681B68FB60FB685A1CFA6082
:10F840001B78303BBB60BB68092B0ED8FA687B691C
:10F850009A420AD1BB68012B07D8BB683B617B6920
:10F8600001337B617B687A691A603B6903E0044B72
:10F870001B783B613B6918461C37BD4680BC70470E
:10F880002A8E001080B582B000AF786039607B6846
:10F890000022DA707B684FF0FF325A63396878686B
:10F8A000FEF794FA0346002B01D0042338E07B686E
:10F8B000383303F5FF731846FDF7E6FF03461A4693
:10F8C0004AF655239A4201D0032329E07B6893F836
:10F8D0003830E92B09D07B6893F83830EB2B1ED1F8
:10F8E0007B6893F83A30902B19D17B6838333633E4
:10F8F0001846FDF7E1FF034623F07F430A4A93428F
:10F9000001D100230CE07B68383352331846FDF7F1
:10F91000D3FF0246054B9A4201D1002300E00223A7
:10F9200018460837BD4680BD464154004641543311
:10F9300080B596B000AFF860B9601346FB71BB6844
:10F9400000221A60F868FFF757FFF863FB6B002B83
:10F9500001DA0B2334E2A84AFB6B52F82330BB6375
:10F96000BB6B002B01D10C232AE2BB68BA6B1A6077
:10F97000FB7923F00103FB71BB6B1B78002B1AD0C2
:10F98000BB6B5B781846FDF7EDFE034687F8373012
:10F9900097F8373003F00103002B0CD1FB79002BD3
:10F9A00007D097F8373003F00403002B01D00A2367
:10F9B00006E2002304E2BB6B00221A70FB6BDAB292
:10F9C000BB6B5A70BB6B5B781846FDF7ABFB03460D
:10F9D00087F8373097F8373003F00103002B01D058
:10F9E0000323EDE1FB79002B07D097F8373003F0C4
:10F9F0000403002B01D00A23E2E100233B65396DAB
:10FA0000B86BFFF73FFF034687F8573097F857303A
:10FA1000022B4BD100233B641FE0BB6B03F1380288
:10FA20003B6C1B0103F5DF7313443B633B6B0433F7
:10FA30001B78002B06D03B6B08331846FDF73CFFC4
:10FA4000024600E000223B6C9B0007F158010B448A
:10FA500043F8442C3B6C01333B643B6C032BDCD9F7
:10FA600000233B643B6C002B02D03B6C013B3B64AE
:10FA70003B6C9B0007F15802134453F8443C3B6530
:10FA80003B6D002B05D0396DB86BFFF7FBFE0346CD
:10FA900000E0032387F8573097F85730012B05D93A
:10FAA0003B6C01333B643B6C032BE1D997F8573037
:10FAB000042B01D1012383E197F85730012B01D9A1
:10FAC0000D237DE1BB6B38330B331846FDF7DCFEAD
:10FAD0000346B3F5007F01D00D2371E1BB6B3833D2
:10FAE00016331846FDF7D0FE0346FB64FB6C002B73
:10FAF00006D1BB6B383324331846FDF7DDFEF864BE
:10FB0000BB6BFA6C1A62BB6B93F84820BB6B9A70A4
:10FB1000BB6B9B78012B05D0BB6B9B78022B01D074
:10FB20000D234DE1BB6B9B781A46FB6C02FB03F384
:10FB3000FB64BB6B93F845309AB2BB6B5A81BB6BCD
:10FB40005B89002B08D0BB6B5B891A46BB6B5B895A
:10FB5000013B1340002B01D00D2331E1BB6B383347
:10FB600011331846FDF790FE03461A46BB6B1A8107
:10FB7000BB6B1B8903F00F039BB2002B01D00D233D
:10FB80001EE1BB6B383313331846FDF77DFE034689
:10FB9000BB64BB6C002B06D1BB6B383320331846DB
:10FBA000FDF78AFEB864BB6B38330E331846FDF799
:10FBB0006BFE0346FB85FB8D002B01D10D23FFE07F
:10FBC000FA8DFB6C1344BA6B1289120992B213447A
:10FBD000BB62BA6CBB6A9A4201D20D23F0E0BA6CE8
:10FBE000BB6AD31ABA6B5289B3FBF2F37B627B6AAE
:10FBF000002B03D10D23E3E0208E0010032387F8B0
:10FC000057307B6A4FF6F572934202D8022387F889
:10FC100057307B6A40F6F572934202D8012387F889
:10FC200057307B6A9A1CBB6BDA61BB6B3A6D5A62C8
:10FC3000FA8D3B6D1A44BB6B9A623A6DBB6A1A44EB
:10FC4000BB6B1A6397F85730032B1ED1BB6B38334D
:10FC50002A331846FDF718FE0346002B01D00D236A
:10FC6000AEE0BB6B1B89002B01D00D23A8E0BB6B62
:10FC700038332C331846FDF71FFE0246BB6BDA62A1
:10FC8000BB6BDB699B007B641FE0BB6B1B89002B9C
:10FC900001D10D2394E0BB6B9A6AFB6C1A44BB6BD9
:10FCA000DA6297F85730022B03D1BB6BDB695B003C
:10FCB0000AE0BB6BDA6913465B0013445A08BB6B5E
:10FCC000DB6903F0010313447B64BB6B1A6A7B6C32
:10FCD00003F2FF135B0A9A4201D20D2370E0BB6B63
:10FCE0004FF0FF325A61BB6B5A69BB6B1A61BB6B39
:10FCF00080221A7197F85730032B49D1BB6B3833E8
:10FD000030331846FDF7C0FD0346012B40D13B6D53
:10FD100001331946B86BFEF759F80346002B37D16B
:10FD2000BB6B00221A71BB6B383303F5FF731846A7
:10FD3000FDF7AAFD03461A464AF655239A4227D1F3
:10FD4000BB6B38331846FDF7B7FD02461E4B9A428F
:10FD50001ED1BB6B383303F5F2731846FDF7ACFDCB
:10FD600002461A4B9A4213D1BB6B383303F5F47336
:10FD70001846FDF7A1FD0246BB6B5A61BB6B3833D9
:10FD800003F5F6731846FDF797FD0246BB6B1A6143
:10FD9000BB6B97F857201A700D4B1B8801339AB232
:10FDA0000B4B1A800A4B1A88BB6BDA80BB6B094A73
:10FDB000DA60BB6B00229A61B86BFDF7A1FF0023EC
:10FDC00018465837BD4680BD52526141727241613A
:10FDD000288E00106C8E001080B584B000AF786063
:10FDE00039607B68002B1AD07B681B68002B16D00B
:10FDF0007B681B681B78002B11D07B681B68DA8836
:10FE00007B689B889A420AD17B681B685B7818469E
:10FE1000FDF7A8FC034603F00103002B05D03B6867
:10FE200000221A600923FB7305E07B681A683B68AF
:10FE30001A600023FB73FB7B18461037BD4680BD5C
:10FE400080B588B000AFF860B9601346FB71BB683D
:10FE50003B6107F110031846FFF7CEFCF861FB6920
:10FE6000002B01DA0B232BE0174AFB6952F82330F1
:10FE7000BB61BB69002B05D0B869FDF741FFBB69C9
:10FE800000221A70FB68002B02D0FB6800221A7057
:10FE9000FA680D49FB6941F82320FB68002B02D06A
:10FEA000FB79012B01D000230AE007F10C0107F1D7
:10FEB000080300221846FFF73BFD0346FB75FB7D58
:10FEC00018462037BD4680BD208E001080B59AB000
:10FED00000AFF860B9601346FB71FB68002B01D1DD
:10FEE0000923AAE1FB7903F03F03FB71FA7907F1DB
:10FEF000140107F108031846FFF71AFD034687F8B7
:10FF0000673097F86730002B40F08E817B69BB61CA
:10FF1000BA6807F1180311461846FFF7DDFB0346E0
:10FF200087F8673097F86730002B1AD197F8473079
:10FF30005BB2002B03DA062387F8673011E0FB7908
:10FF400023F00103002B14BF01230023DBB21A4668
:10FF500007F1180311461846FDF790FD034687F890
:10FF60006730FB7903F01C03002B7FD097F86730D4
:10FF7000002B17D097F86730042B0ED1FDF7D8FD72
:10FF80000346002B06D007F118031846FEF780FF42
:10FF9000034600E0122387F86730FB7943F008033B
:10FFA000FB7110E0BB7F03F01103002B03D007238C
:10FFB00087F8673007E0FB7903F00403002B02D0D9
:10FFC000082387F8673097F86730002B68D1FB79F2
:10FFD00003F00803002B63D005F012FEB865BB6B7D
:10FFE0000E33B96D1846FDF7A3FCBB6B1633B96D24
:10FFF0001846FDF79DFCBB6B0B3320221A707B6902
:020000021000EC
:10000000BA6B11461846FEF7B1FB78657B69B96B90
:1000100000221846FEF7CAFBBB6B1C3300211846B2
:10002000FDF786FC7B690122DA707B6D002B37D0EF
:100030007B695B6BBB6507F118030022796D18467D
:10004000FEF70CF9034687F8673097F86730002B06
:1000500026D17B69B96D1846FDF7B8FE034687F8CF
:1000600067307B697A6D013A1A6119E097F8673059
:10007000002B15D1BB7F03F01003002B03D004230A
:1000800087F867300CE0FB7903F00203002B07D000
:10009000BB7F03F00103002B02D0072387F86730F2
:1000A00097F86730002B28D1FB7903F00803002B69
:1000B00003D0FB7943F04003FB717B695A6BFB680B
:1000C0005A62BA6BFB689A62FB7923F00103002B3A
:1000D00014BF01230023DBB21A4607F118031146AF
:1000E0001846FDF745FD0246FB681A61FB681B696F
:1000F000002B02D1022387F8673097F86730002B76
:1001000040F092807B69BA6B11461846FEF72EFBD1
:100110000246FB689A60BB6B1C331846FDF7CCFBAC
:100120000246FB68DA607A69FB681A607B69DA88E4
:10013000FB689A80FB68FA791A75FB6800225A7589
:10014000FB6800221A62FB6800229A61FB682C336C
:100150004FF4007200211846FDF736FCFB7903F0DE
:100160002003002B60D0FB68DB68002B5CD0FB68B1
:10017000DA68FB689A617B695B895B023B65FB68B7
:100180009B683B66FB68DB68FB6516E0FB68396EC5
:100190001846FDF7D5FE38663B6E012B02D80223C8
:1001A00087F867303B6EB3F1FF3F02D1012387F838
:1001B0006730FA6D3B6DD31AFB6597F86730002BFB
:1001C00003D1FA6D3B6D9A42E0D8FB683A6EDA6172
:1001D00097F86730002B27D1FB6DC3F30803002B82
:1001E00022D07B69396E1846FDF78CFEF864FB6CF3
:1001F000002B03D1022387F8673015E0FB6D5A0A04
:10020000FB6C1A44FB681A627B695878FB6803F13F
:100210002C01FB681A6A0123FDF72EFA0346002B16
:1002200002D0012387F8673097F86730002B02D09F
:10023000FB6800221A6097F8673018466837BD4699
:1002400080BD00BF80B58EB000AFF860B9607A6045
:100250003B60BB687B623B6800221A60FB6807F169
:10026000140211461846FFF7B7FD034687F83730EA
:1002700097F83730002B07D1FB685B7D87F8373064
:1002800097F83730002B02D097F8373009E1FB6838
:100290001B7D03F00103002B01D1072301E1FB6863
:1002A000DA68FB689B69D31A3B627A683B6A9A42B8
:1002B00040F2F2803B6A7B60EEE0FB689B69C3F32F
:1002C0000803002B40F0BA80FB689B695B0A7A69DF
:1002D0005289013A1340FB61FB69002B23D1FB6873
:1002E0009B69002B03D1FB689B683B6307E0FA68BE
:1002F000FB68DB6919461046FDF722FE38633B6B4D
:10030000012B04D8FB6802225A750223C9E03B6B1B
:10031000B3F1FF3F04D1FB6801225A750123C0E00D
:10032000FB683A6BDA617A69FB68DB69194610464B
:10033000FDF7E8FDB861BB69002B04D1FB68022220
:100340005A750223ADE0BA69FB691344BB617B684F
:100350005B0ABB62BB6A002B39D0FA69BB6A1344E3
:100360007A695289934205D97B695B891A46FB6990
:10037000D31ABB627B695878BB6ABA69796AFDF7A0
:100380007BF90346002B04D0FB6801225A75012338
:1003900087E0FB681B7D5BB2002B14DAFB681A6AEE
:1003A000BB69D21ABB6A9A420DD2FB681A6ABB6952
:1003B000D31A5B027A6AD018FB682C334FF40072B0
:1003C0001946FDF7E1FABB6A5B02FB6250E0FB688D
:1003D0001A6ABB699A422ED0FB681B7D5BB2002B68
:1003E00018DA7B695878FB6803F12C01FB681A6AFC
:1003F0000123FDF7D3F90346002B04D0FB6801224B
:100400005A7501234DE0FB681B7D03F07F03DAB2D0
:10041000FB681A757B695878FB6803F12C0101238E
:10042000BA69FDF729F90346002B04D0FB680122C5
:100430005A75012335E0FB68BA691A62FB689B694B
:10044000C3F30803C3F50073FB62FA6A7B689A4240
:1004500001D97B68FB62FB6803F12C02FB689B6996
:10046000C3F308031344FA6A1946786AFDF78CFA55
:100470007A6AFB6A13447B62FB689A69FB6A1A44D6
:10048000FB689A613B681A68FB6A1A443B681A6009
:100490007A68FB6AD31A7B607B68002B7FF40DAF10
:1004A000002318463837BD4680BD00BF80B58CB0EC
:1004B00000AFF860B9607A603B60BB68FB613B6885
:1004C00000221A60FB6807F1100211461846FFF778
:1004D00083FC034687F82F3097F82F30002B07D185
:1004E000FB685B7D87F82F3097F82F30002B02D008
:1004F00097F82F303FE1FB681B7D03F00203002BD0
:1005000001D1072337E1FB689A697B681A44FB68CD
:100510009B699A4280F02181FB689B69DB437B6089
:100520001BE1FB689B69C3F30803002B40F0D780F5
:10053000FB689B695B0A3A695289013A1340BB61C7
:10054000BB69002B37D1FB689B69002B0CD1FB6882
:100550009B68BB62BB6A002B0ED1FB68002118466A
:10056000FDF7E2FEB86207E0FA68FB68DB6919464E
:100570001046FDF7D9FEB862BB6A002B00F0F2808E
:10058000BB6A012B04D1FB6802225A750223F2E0F8
:10059000BB6AB3F1FF3F04D1FB6801225A75012306
:1005A000E9E0FB68BA6ADA61FB689B68002B02D15C
:1005B000FB68BA6A9A60FB681B7D5BB2002B18DA95
:1005C0003B695878FB6803F12C01FB681A6A012328
:1005D000FDF7E4F80346002B04D0FB6801225A75AE
:1005E0000123C8E0FB681B7D03F07F03DAB2FB68E0
:1005F0001A753A69FB68DB6919461046FDF782FCFB
:1006000078617B69002B04D1FB6802225A750223B2
:10061000B1E07A69BB6913447B617B685B0A3B622A
:100620003B6A002B3CD0BA693B6A13443A69528951
:10063000934205D93B695B891A46BB69D31A3B6271
:100640003B6958783B6A7A69F969FDF7A7F8034670
:10065000002B04D0FB6801225A7501238BE0FB6854
:100660001A6A7B69D21A3B6A9A4215D2FB6803F177
:100670002C00FB681A6A7B69D31A5B02FA6913447F
:100680004FF400721946FDF77FF9FB681B7D03F0FC
:100690007F03DAB2FB681A753B6A5B027B623FE05C
:1006A000FB681A6A7B699A4216D0FB689A69FB68F4
:1006B000DB689A4210D23B695878FB6803F12C0141
:1006C00001237A69FCF7D8FF0346002B04D0FB68AE
:1006D00001225A7501234EE0FB687A691A62FB68B1
:1006E0009B69C3F30803C3F500737B627A6A7B6876
:1006F0009A4201D97B687B62FB6803F12C02FB689C
:100700009B69C3F3080313447A6AF9691846FDF735
:100710003BF9FB681B7D63F07F03DAB2FB681A7557
:10072000FA697B6A1344FB61FB689A697B6A1A4425
:10073000FB689A61FB68DA68FB689B699A4238BF7C
:100740001A46FB68DA603B681A687B6A1A443B68A1
:100750001A607A687B6AD31A7B607B68002B7FF40F
:10076000E0AE00E000BFFB681B7D43F04003DAB25F
:10077000FB681A75002318463037BD4680BD00BFA0
:1007800080B586B000AF78607B6807F1080211463B
:100790001846FFF721FB0346FB75FB7D002B68D154
:1007A0007B681B7D03F04003002B62D07B681B7DC0
:1007B0005BB2002B15DABB6858787B6803F12C011B
:1007C0007B681A6A0123FCF7E9FF0346002B01D07E
:1007D00001234FE07B681B7D03F07F03DAB27B6867
:1007E0001A7505F00DFA3861BA687B685B6A1946BC
:1007F0001046FDF7EBFA0346FB75FB7D002B38D165
:100800007B689B6AFB60FB680B33FA680B321278DB
:1008100042F02002D2B21A707B6818687B689B682D
:100820001A46F968FDF7C2FFFB6803F11C027B68FA
:10083000DB6819461046FDF77BF8FB68163339690B
:100840001846FDF775F8FB68123300211846FDF7CE
:1008500055F8BB680122DA70BB681846FDF7E4FA68
:100860000346FB757B681B7D23F04003DAB27B688F
:100870001A75FB7D18461837BD4680BD80B584B01B
:1008800000AF78607868FFF77BFF0346FB73FB7B64
:10089000002B18D17B6807F1080211461846FFF7B4
:1008A0009BFA0346FB73FB7B002B0CD17B681B6917
:1008B0001846FDF7EBF90346FB73FB7B002B02D1D7
:1008C0007B6800221A60FB7B18461037BD4680BD4E
:1008D00090B593B000AF786007F10C013B1D00228A
:1008E0001846FFF725F8034687F8473097F8473052
:1008F000002B31D1FB683B617A6807F11003114688
:100900001846FEF7E9FE034687F8473097F8473068
:10091000002B1AD197F83F305BB2002B03DAFB684B
:10092000BA699A6111E0BB7D03F01003002B09D076
:10093000FC68FB683A6B11461846FDF717FF034643
:10094000A36102E0052387F8473097F84730042B6E
:1009500002D1052387F8473097F8473018464C37BF
:10096000BD4690BD80B5DCB000AF3B1D18603B4676
:1009700019603B1D1B6800221A7007F592713B1D20
:1009800000221846FEF7D4FF034687F86F3197F828
:100990006F31002B40F01881D7F82431C7F8283187
:1009A0003B461B68C7F86831D7F824319B69C7F804
:1009B0003031B8E007F5947320211846FDF74CFD5F
:1009C000034687F86F3197F86F31002B40F0B58000
:1009D000D7F82431D7F8442111461846FDF7F6F927
:1009E000034687F86F3197F86F31002B40F0A780EE
:1009F000D7F82431D7F8482111461846FDF7B6FE3E
:100A00000346C7F8303107F5947300211846FDF707
:100A100023FD034687F86F3197F86F31002B40F0C4
:100A2000908007F5947300211846FEF7C9F8034635
:100A300087F86F3197F86F31002B1AD1D7F824312E
:100A4000D7F8482111461846FDF790FE0246D7F820
:100A50005C319A420FD007F5947300211846FDF7D8
:100A600077FD034687F86F3197F86F31002BD8D0A8
:100A700002E000BF00E000BF97F86F31042B02D105
:100A8000022387F86F3197F86F31002B5BD107F1A4
:100A90000C0207F5947311461846FEF73BFB002342
:100AA000C7F8643104E0D7F864310133C7F8643122
:100AB00007F10C02D7F86431134416331B78002B6E
:100AC000F1D1D7F86431DA1CD7F868319A421AD9D3
:100AD000112387F86F3137E03B1D1A68D7F868316A
:100AE000013BC7F86831D7F868311344D7F864215F
:100AF000013AC7F8642107F10C01D7F864210A44D0
:100B0000163212781A70D7F86431002BE4D13B1DED
:100B10001A68D7F86831013BC7F86831D7F86831EF
:100B200013442F221A70D7F83031C7F85C31D7F848
:100B30005C31002B7FF43EAF06E000BF04E000BF55
:100B400002E000BF00E000BF3B1D1B68C7F860313A
:100B500097F86F31002B33D1D7F860315A1CC7F8A2
:100B600060211D4A12783032D2B21A70D7F8603143
:100B70005A1CC7F860213A221A703B46D7F8682100
:100B80001B689A4207D1D7F860315A1CC7F8602118
:100B90002F221A7014E0D7F860315A1CC7F8602170
:100BA0003A1D1168D7F86821501CC7F868010A443B
:100BB00012781A703B46D7F868211B689A42EAD32C
:100BC000D7F8603100221A7097F86F31184607F590
:100BD000B877BD4680BD00BF2A8E001080B588B0B2
:100BE00000AF786039607B6807F10802114618464B
:100BF000FFF7F2F80346FB77FB7F002B05D17B68FC
:100C00005B7DFB77FB7F002B01D0FB7F0FE17B68D7
:100C1000DA683B689A4208D27B681B7D03F00203C6
:100C2000002B02D17B68DB683B607B689B693B6182
:100C300000237B617B687A699A613B68002B00F036
:100C4000A780BB685B895B02FB603B69002B1BD004
:100C50003B685A1EFB68B2FBF3F23B69591EFB6806
:100C6000B1FBF3F39A420FD33B695A1EFB685B4218
:100C70001A407B689A617B689B693A68D31A3B602B
:100C80007B68DB69BB6122E07B689B68BB61BB69F9
:100C9000002B19D17B6800211846FDF745FBB86190
:100CA000BB69012B04D17B6802225A750223BEE086
:100CB000BB69B3F1FF3F04D17B6801225A75012360
:100CC000B5E07B68BA699A607B68BA69DA61BB692A
:100CD000002B5DD03AE03A68FB68D31A3B607B6832
:100CE0009A69FB681A447B689A617B681B7D03F0F4
:100CF0000203002B0BD07B68B9691846FDF714FB83
:100D0000B861BB69002B08D100233B6022E07B68FF
:100D1000B9691846FDF714F9B861BB69B3F1FF3F33
:100D200004D17B6801225A75012380E0BB69012B45
:100D300004D9BB68DA69BB699A4204D87B6802228D
:100D40005A75022373E07B68BA69DA613A68FB6816
:100D50009A42C0D87B689A693B681A447B689A615A
:100D60003B68C3F30803002B12D0BB68B96918466F
:100D7000FDF7C8F878617B69002B04D17B680222FB
:100D80005A75022353E03B685B0A7A6913447B611E
:100D90007B689A697B68DB689A420AD97B689A69A2
:100DA0007B68DA607B681B7D43F04003DAB27B68C6
:100DB0001A757B689B69C3F30803002B36D07B68E8
:100DC0001A6A7B699A4231D07B681B7D5BB2002B2B
:100DD00018DABB6858787B6803F12C017B681A6AC3
:100DE0000123FCF7DBFC0346002B04D07B680122C7
:100DF0005A7501231BE07B681B7D03F07F03DAB289
:100E00007B681A75BB6858787B6803F12C01012355
:100E10007A69FCF731FC0346002B04D07B68012281
:100E20005A75012303E07B687A691A62FB7F1846D2
:100E30002037BD4680BD00BF80B592B000AFF860DE
:100E4000B9607A6007F1280107F10C030022184607
:100E5000FEF76EFD034687F8473097F84730002BC2
:100E600040F09980BA6A7B681A60BB6A5A69BB6AAB
:100E7000DB69023B9A4204D8BB6A5A69BB681A60B4
:100E800089E000233B64BB6A1B78012B28D1022335
:100E9000FB63BB6A7B6107F11403F96B1846FDF72E
:100EA0004FF8F862FB6AB3F1FF3F03D1012387F8E3
:100EB000473063E0FB6A012B03D1022387F84730F8
:100EC0005CE0FB6A002B02D13B6C01333B64FB6BA3
:100ED0000133FB63BB6ADB69FA6B9A42DBD34DE0FB
:100EE000BB6ADB69FB63BB6A9B6ABB6300237B63F2
:100EF00000233B637B6B002B13D1B86ABB6B5A1C7E
:100F0000BA631946FCF762FF034687F8473097F843
:100F10004730002B31D1BB6A38333B634FF4007349
:100F20007B63BB6A1B78022B0FD1386BFCF7ACFCE0
:100F30000346002B02D13B6C01333B643B6B023315
:100F40003B637B6B023B7B6310E0386BFCF7B4FCCC
:100F5000034623F07043002B02D13B6C01333B640A
:100F60003B6B04333B637B6B043B7B63FB6B013B61
:100F7000FB63FB6B002BBDD100E000BFBB683A6C8C
:100F80001A60BB6A3A6C5A61BB6ABA6A127942F05B
:100F90000102D2B21A7197F8473018464837BD4659
:100FA00080BD00BF80B5A0B000AF78600023BB67F4
:100FB00007F10C013B1D02221846FEF7B9FC03465F
:100FC00087F87F30FB687B6497F87F30002B40F018
:100FD000A4807A6807F1440311461846FEF77CFBAB
:100FE000034687F87F3097F87F30002B08D197F8B9
:100FF000733003F02003002B02D0062387F87F30E4
:1010000097F87F30002B08D107F1440302211846DE
:10101000FCF734FD034687F87F3097F87F30002BCC
:101020007BD197F873305BB2002B03DA062387F885
:101030007F3008E097F84A3003F00103002B02D01C
:10104000072387F87F3097F87F30002B3DD1FB686E
:101050007A6E11461846FDF789FBB86797F84A3053
:1010600003F01003002B30D0FB689A69BB6F9A42E3
:1010700003D1072387F87F3027E0FB683B61BB6F14
:10108000BB6107F1100300211846FDF7E5F903469F
:1010900087F87F3097F87F30002B16D107F11003C7
:1010A00000211846FDF78CFD034687F87F3097F83E
:1010B0007F30002B02D1072387F87F3097F87F30ED
:1010C000042B02D1002387F87F3097F87F30002B64
:1010D00023D107F144031846FDF7D2FF034687F8F2
:1010E0007F3097F87F30002B0CD1BB6F002B09D0DD
:1010F00007F144030022B96F1846FDF7AFF8034625
:1011000087F87F3097F87F30002B06D1FB681846B0
:10111000FCF78AFE034687F87F3097F87F30184641
:101120008037BD4680BD00BF80B598B000AF786005
:1011300007F10C013B1D02221846FEF7F9FB03469E
:1011400087F85F30FB683B6197F85F30002B40F019
:10115000F9807A6807F1100311461846FEF7BCFAC9
:10116000034687F85F3097F85F30002B02D10823E1
:1011700087F85F3097F85F30042B08D197F83F303D
:1011800003F02003002B02D0062387F85F3097F886
:101190005F30042B40F0D68007F110030021184681
:1011A000FDF7C2F8F864FB685B895B02FB61002312
:1011B00087F85F30FB6C002B02D1072387F85F3084
:1011C000FB6C012B02D1022387F85F30FB6CB3F17B
:1011D000FF3F02D1012387F85F3097F85F30002B83
:1011E00006D1FB681846FCF7ADFD034687F85F3073
:1011F00004F006FDB86497F85F30002B6AD1FB68F5
:10120000F96C1846FCF77EFE7865FB6838337B6422
:101210004FF400720021786CFCF7D6FB0B222021E2
:10122000786CFCF7D1FB7B6C2E221A707B6C0B3335
:1012300010221A707B6C1633B96C1846FCF778FBD9
:10124000FB68FA6C796C1846FDF7B0FA7B6C2033BA
:101250002022796C1846FCF797FB7B6C21332E22F9
:101260001A70BB693B65FB681B78032B06D1FB68D2
:10127000DA6A3B6D9A4201D100233B65F8687B6CCA
:1012800020333A6D1946FDF791FAFB685B89BB651F
:101290001BE0FA687B6D591C79655363FB6801227A
:1012A000DA70FB681846FCF74DFD034687F85F309F
:1012B00097F85F30002B0CD14FF400720021786C4E
:1012C000FCF782FBBB6D013BBB65BB6D002BE0D126
:1012D00000E000BF97F85F30002B07D107F1100343
:1012E0001846FDF7D5FD034687F85F3097F85F3065
:1012F000002B20D13B6B7B647B6C1633B96C18469A
:10130000FCF716FBFB68FA6C796C1846FDF74EFA91
:101310007B6C0B3310221A70FB680122DA7097F88D
:101320005F30002B0ED1FB681846FCF77DFD0346AD
:1013300087F85F3006E007F110030022F96C1846C9
:10134000FCF78CFF97F85F3018466037BD4680BDCC
:1013500090B5A7B000AF786039603B461846FEF7FD
:101360004BFA07F120013B1D02221846FEF7E0FA76
:10137000034687F8973097F89730002B40F0DB80D2
:101380003B6ABB657A6807F1580311461846FEF7B9
:10139000A3F9034687F8973097F89730002B08D1C8
:1013A00097F8873003F0A003002B02D0062387F8BC
:1013B000973097F89730002B08D107F15803022196
:1013C0001846FCF75BFB034687F8973097F8973091
:1013D000002B40F0B080BB6F03F10B0107F1080355
:1013E00015221846FCF7D0FA07F1580107F124033B
:1013F00034221846FCF7C8FA3A6807F1240311466C
:101400001846FEF769F9034687F8973097F8973042
:10141000002B0CD1FA6A3B6E9A4205D1BA6BFB6E77
:101420009A4201D1042300E0082387F8973097F807
:101430009730042B68D107F124031846FDF728FDE7
:10144000034687F8973097F89730002B5CD17B6C78
:10145000C7F89030D7F8903003F10D0007F108037A
:10146000023313221946FCF78FFAD7F890300B336A
:101470003A7A42F02002D2B21A703B6A0122DA7044
:10148000D7F890300B331B7803F01003002B3BD0C0
:101490003A6EFB6A9A4237D03C6A3B6AD7F89010A2
:1014A0001846FDF763F9034619462046FCF72AFD66
:1014B000C7F88C00D7F88C30002B03D1022387F8B3
:1014C000973021E03B6AD7F88C101846FCF77EFC79
:1014D000034687F897303B6A38332033C7F890309B
:1014E00097F89730002B0FD1D7F8903001331B7845
:1014F0002E2B09D13B6AFA6AD7F890101846FDF7EF
:1015000055F93B6A0122DA7097F89730002B12D117
:1015100007F158031846FDF7B3FD034687F89730E7
:1015200097F89730002B06D13B6A1846FCF77CFCF5
:10153000034687F8973097F8973018469C37BD4692
:1015400090BD00BF80B500AF01F0C0FD00BF80BD01
:1015500080B483B000AF78604FF0402302225A601D
:101560004FF040230022DA604FF04021154B1A68FB
:10157000154BD3F8A83103F01F03B2FBF3F3134A62
:10158000A2FB03239B09013B7A6802FB03F38B61F7
:101590004FF04023FF221A604FF0402304225A618B
:1015A0004FF0402301225A6000BF4FF040235B6898
:1015B00003F00103002BF8D100BF0C37BD4680BCFF
:1015C000704700BFF000001000C00F40D34D621004
:1015D00080B487B000AF4FF020437B614FF02043D1
:1015E0003B610023FB6021E00023BB6018E03B6906
:1015F0009A1C3A61FA6891B2BA6892B20A4492B2FD
:101600001A803B699A1C3A61FA6891B2BA6892B240
:101610000A4492B2013292B21A80BB680133BB60B5
:10162000BB68FF2BE3D9FB680133FB60FB687F2BB2
:10163000DAD94FF020437B610023FB601FE00023D9
:10164000BB6016E07B691A1D7A611B687B60FA68D3
:10165000BB68134401331A04F968BB680B449BB29E
:101660001A437B689A4201D001230CE0BB68013326
:10167000BB60BB68FF2BE5D9FB680133FB60FB68EF
:101680007F2BDCD9002318461C37BD4680BC704731
:1016900080B586B000AF786000237B61FF233B619B
:1016A000FF23FB602FE07B68002B0CD1314BD3F87C
:1016B000DC3123F01F03BB602E49BA687B691343FA
:1016C000C1F8DC310CE02B4BD3F8DC3123F4F853B8
:1016D000BB6028497B691A02BB681343C1F8DC313F
:1016E000FFF776FF0346002B05D13B69FF2B07D19F
:1016F0007B693B6104E03B69FF2B01D07B69FB60A8
:101700007B6901337B617B691F2BCCD9FB68FF2B85
:1017100005D03A69FB6813445B087B6108E03B69CC
:10172000FF2B04D03B691F335B087B6100E0FEE7C1
:101730007B68002B0CD10F4BD3F8DC3123F01F0357
:10174000BB600C49BA687B691343C1F8DC310CE01B
:10175000084BD3F8DC3123F4F853BB6005497B69AF
:101760001A02BB681343C1F8DC3100BF1837BD460D
:1017700080BD00BF00C00F4080B485B000AF002323
:10178000FB6000237B601AE0134B4FF48042C3F8E8
:10179000E021114BD3F8E031BB6003E00E4BD3F8EE
:1017A000E031BB60BB6803F40043002BF6D0BB689C
:1017B000DBB2FA681344FB607B6801337B607B68B3
:1017C000092BE1D9FB68054AA2FB0323DB08184675
:1017D0001437BD4680BC704700C00F40CDCCCCCC88
:1017E00080B586B000AF7860FFF7C6FF7861164B12
:1017F000D3F8DC313B613B6903F01F037A6802FBDD
:1018000003F27B69B2FBF3F303F01F03FB603B6958
:1018100003F4F8537A6802FB03F27B69B2FBF3F33B
:1018200003F4F853BB6008493B6923F4F85323F0F1
:101830001F03BA681A43FB681343C1F8DC3100BFC9
:101840001837BD4680BD00BF00C00F4080B584B0D2
:1018500000AFC54AC44BD3F8C43043F40063C2F8A8
:10186000C430C14B41F21002C3F8DC21BF4B01224E
:101870001A60BE4B00229A60BD4B0122C3F8802142
:10188000BB4B0122C3F88421B94B0122C3F8882144
:10189000B74B0122C3F88C21B54B0122C3F890212C
:1018A000B34B0122C3F89421B14B0122C3F8982114
:1018B000AF4B0122C3F89C21AD4B0122C3F8A021FC
:1018C000AB4B0122C3F8A421A94B0122C3F8A821E4
:1018D000A74B0122C3F8AC21A54B0122C3F8B021CC
:1018E000A34B0122C3F8B421A14B0122C3F8B821B4
:1018F0009F4B0122C3F8BC219D4B0122C3F8C0219C
:101900009B4B0122C3F8C421994B0122C3F8C82183
:10191000974B0122C3F8CC21954B0122C3F8D0216B
:10192000934B0122C3F8D421914B0122C3F8D82153
:101930008F4B0122C3F8DC218D4B0122C3F8E0213B
:101940008B4B0122C3F8E421894B0122C3F8E82123
:10195000874B0122C3F8EC21854B0122C3F8F0210B
:10196000834B0122C3F8F421814B0122C3F8F821F3
:101970007F4B0122C3F8FC217D4B0122C3F80022DA
:101980007B4B0122C3F80422794B0122C3F80822C1
:10199000774B0122C3F80C22754B0122C3F81022A9
:1019A000734B0122C3F81422714B0122C3F8182291
:1019B0006F4B0122C3F81C226D4B0122C3F8202279
:1019C0006B4B0122C3F82422694B0122C3F8282261
:1019D000674B0122C3F82C22654B0122C3F8302249
:1019E000634B0122C3F83422614B0122C3F8382231
:1019F0005F4B0122C3F83C225D4B0122C3F8402219
:101A00005B4B0122C3F84422594B0122C3F8482200
:101A1000574B0122C3F84C22554B0122C3F85022E8
:101A2000534B0122C3F85422514B0122C3F85822D0
:101A30004F4B0122C3F85C224D4B0122C3F86022B8
:101A40004B4B0122C3F86422494B0122C3F86822A0
:101A5000474B0122C3F86C22454B0122C3F8702288
:101A6000434B0122C3F87422414B0122C3F8782270
:101A70003F4B0122C3F87C223D4B0122C3F83821A1
:101A80003B4B0122C3F83C21394B0122C3F84021D2
:101A9000374B0122C3F84421354B0122C3F84821BA
:101AA000334B0122C3F84C21314B0122C3F85021A2
:101AB0002F4B0122C3F854212D4B0122C3F858218A
:101AC0002B4B0122C3F85C21294B0122C3F8602172
:101AD000274B0122C3F86421254B0122C3F868215A
:101AE000234B0122C3F86C21214B0122C3F8702142
:101AF0001F4B0122C3F874211D4B0122C3F878212A
:101B00001B4B0122C3F87C21184B4FF48942C3F8C8
:101B10000021164B40F20222C3F80421134B01228C
:101B20009A62124B01221A63104B03225A630F4B25
:101B300005229A630D4B0222DA630C4B03221A64CE
:101B40000A4B01225A64094B04229A64074B04226F
:101B5000DA64064B05221A65044B01225A65034BD1
:101B600001229A6506E000BF00C00F4000C00920B6
:101B700000C002406420FFF7EBFC1C4B40F28312D4
:101B80001A62C820FFF7E4FC184B40F203121A62F5
:101B9000164B02225A6200237B6002E07B6801330D
:101BA0007B607B687F2BF9D9104B3A225A620F4B2E
:101BB00083221A620E4B1B68BB600C4B00221A6218
:101BC0000A4B0C4AC3F80021FFF7D6FD0346FB6021
:101BD0000020FFF75DFD0120FFF75AFDFB68184666
:101BE000FFF7FEFD00BF1037BD4680BD00C00920D5
:101BF000004004A08044080080B500AF01F066FA00
:101C0000FFF724FE0123184680BD00BF80B500AF5A
:101C1000FFF798FC28F0A4FC0023184680BD00BF05
:101C200080B500AF4FF44001034832F0BBF980208B
:101C300032F0C0F900BF80BD00B80BA080B400AF87
:101C4000034B00221A6000BFBD4680BC704700BF36
:101C50003499001080B400AF00BFBD4680BC70470F
:101C600080B400AF00BFBD4680BC704780B400AFF9
:101C700000BFBD4680BC704780B400AF002318464B
:101C8000BD4680BC704700BF80B483B000AF7860B1
:101C90004FF0402302225A604FF040230022DA60C6
:101CA0004FF04021154B1A68154BD3F8A83103F0BB
:101CB0001F03B2FBF3F3134AA2FB03239B09013B6F
:101CC0007A6802FB03F38B614FF04023FF221A6016
:101CD0004FF0402304225A614FF0402301225A6002
:101CE00000BF4FF040235B6803F00103002BF8D1E5
:101CF00000BF0C37BD4680BC704700BFF00000102D
:101D000000C00F40D34D621080B483B000AF786044
:101D1000396007493A6813461B019B1A9B011A4612
:101D2000044B13440B6100BF0C37BD4680BC7047A9
:101D300000800820000000A080B485B000AF78606B
:101D40000123FB6002E0FB680133FB60114B1A6862
:101D5000FB68B2FBF3F27B689A4202D9FB683F2B27
:101D6000F1D9FB68012B03D84FF08063BB600AE018
:101D7000FB68023BFB60FB6803F01F02FB685B092A
:101D8000DB061343BB60BB6818461437BD4680BCF6
:101D9000704700BFF000001080B487B000AFF8605B
:101DA000B9607A600123FB8202237B75164B1B68A6
:101DB0003B6118E0144B1B68FA8A0132797D01FB04
:101DC00002F2B3FBF2F33B613A69FB689A420AD92B
:101DD000FB8A0133FB82FB8AFF2B04D90023FB82A1
:101DE0007B7D02337B753A69FB689A42E2D8FB8AB5
:101DF000DAB2BB681A707B687A7D1A7000BF1C3734
:101E0000BD4680BC704700BFF400001080B584B0B0
:101E100000AF0346FB711F4B0222DA631D4B022207
:101E20001A641C4B02225A641A4B02229A6407F16C
:101E30000E0207F10D0319461748FFF7ADFF7B7B34
:101E40001B0243F00703BB60FB79002B02D1BB6888
:101E5000BB6006E0FB79012B03D1BB6843F0C003F4
:101E6000BB600E4ABB6813600C4BBA7B1A6100233F
:101E7000FB7305E0094B9B68BB60FB7B0133FB7385
:101E8000FB7B072BF6D9054B02225A6000BF1037A7
:101E9000BD4680BD00C00240C0C62D000080084085
:101EA00080B485B000AF7860396000BF114BDB684B
:101EB00003F01203022BF9D10E4A7B681B78936062
:101EC0007B6801337B6000BF0A4BDB6803F01403BF
:101ED000042BF9D1074B9B68DBB2FB733B68013BDA
:101EE0003B603B68002BE0D100BF1437BD4680BC8F
:101EF000704700BF0080084080B400AF3D4B052212
:101F0000C3F830213B4B0722C3F81821394B072275
:101F1000C3F81C21374B0722C3F82021354B072279
:101F2000C3F82421334B0722C3F8D020314B0722BA
:101F3000C3F8D4202F4B0722C3F8D8202D4B0722FB
:101F4000C3F8DC202B4B0722C3F8E020294B0722E3
:101F5000C3F8E420274B0722C3F83421254B07227E
:101F6000C3F8E820234B0722C3F8EC20214B0722BB
:101F7000C3F8F0201F4B0722C3F8F4201D4B0722A3
:101F8000C3F800211B4B0722C3F80421194B072279
:101F9000C3F80821174B0722C3F80C21154B072261
:101FA000C3F81021134B0722C3F81421114B002250
:101FB000C3F86C21104A104B1B6843F00063136098
:101FC0000D4A0D4B9B6943F000639361094B00225E
:101FD000C3F8C820094A094B1B6843F480231360E7
:101FE000064A064B9B6943F48023936100BFBD46BC
:101FF00080BC704700C0024040800920208009203A
:1020000090B583B000AF684B0A221A70664B142259
:102010005A70654B654A5A61634B01221A74624BD0
:1020200006225A74604B00225A765F4B2A229A701D
:102030005D4B00229A735C4B00221A735A4B0022AC
:102040005A73594B0122DA73574B01221A76564BB9
:102050004FF4F0725A81544B4FF448729A80524BAD
:1020600008229A71504B0A22DA714F4B0A221A72D7
:102070004F4A4F4BD3F8C43043F00103C2F8C43089
:102080004C4A4C4B9B6923F0010393614949464BF1
:102090009B881B099BB2013B9A00434B9B78013BF9
:1020A0001B021A43404B5B78013B1B041A433E4B17
:1020B0001B78013B1B0613430B603E493A4B5B897F
:1020C0005A1E394B1B7A013B9B021A43364BDB7974
:1020D0001B041A43344B9B791B0613434B60354C4E
:1020E000314B5B691846FFF727FE02462E4B1B7CDF
:1020F000013B9B011A432C4BDB7BDB021A432A4B2F
:102100009B7B1B031A43284B5B7B5B031A43264BC9
:102110009B88013B1B041343A3602649224B5B7C35
:102120005A00214B1B7E5B01134343F480738B6188
:1021300000237B6008E01F4A7B688033002142F85F
:1021400023107B6801337B607B687F2BF3D9184BAE
:102150000022C3F8B821174B174A1A61154A154BCC
:102160009B6943F001039361124A124B9B6943F44C
:1021700000639361114A114B9B6943F000639361C3
:102180000F4B0022C3F800210C4A0C4B1B6843F094
:1021900001031360094A094BDB6943F00103D36172
:1021A00000BF0C37BD4690BD6C90001040A5AE023C
:1021B00000C00F4000800820000000A040800920DF
:1021C00000C0024080B584B000AF03460A46FB80E1
:1021D0001346BB80194B4FF40022DA6100233B7396
:1021E000FB88DBB27B7307F10C0302211846FFF773
:1021F00057FE124B4FF400229A61BB881B0A9BB218
:10220000DBB23B73BB88DBB27B7307F10C030221AB
:102210001846FFF745FE094B4FF40022DA61002310
:102220003B7322237B7307F10C0302211846FFF74F
:1022300037FE00BF1037BD4680BD00BF00800920BB
:1022400080B500AF774A774B1B6843F001031360FA
:10225000744B01229A61744A734B1B6843F4002348
:10226000136001210020FFF7ADFF1E20FFF70CFDDA
:1022700046F63E610320FFF7A5FF07210C20FFF77C
:10228000A1FF0E210D20FFF79DFF4FF430510E20CE
:10229000FFF798FFAE211E20FFF794FF1E20FFF7E7
:1022A000F3FC21210720FFF78DFF6420FFF7ECFCF2
:1022B00023210720FFF786FF6420FFF7E5FC332189
:1022C0000720FFF77FFF6420FFF7DEFC42F63F3177
:1022D0000120FFF777FF4FF4C0610220FFF772FF84
:1022E00000211020FFF76EFF1E20FFF7CDFC4CF2FF
:1022F000B0511120FFF766FF2820FFF7C5FCD02161
:102300001520FFF75FFF00210520FFF75BFF00218D
:102310000620FFF757FF4EF61C711620FFF752FFFD
:1023200003211720FFF74EFF40F233210720FFF76C
:1023300049FF45F210310B20FFF744FF00210F2029
:10234000FFF740FF4FF460412520FFF73BFF2820B7
:10235000FFF79AFC00214120FFF734FF00214220C3
:10236000FFF730FF00214820FFF72CFF40F23F111C
:102370004920FFF727FF4FF46F414420FFF722FF6A
:1023800000214520FFF71EFF40F23F114620FFF7D6
:1023900019FF00214A20FFF715FF00214B20FFF70E
:1023A00011FF2820FFF770FC40F207713020FFF783
:1023B00009FF4FF4C0613120FFF704FF05213220EF
:1023C000FFF700FF40F202413320FFF7FBFE40F22F
:1023D00003213420FFF7F6FE4FF401713520FFF79B
:1023E000F1FE4FF401713620FFF7ECFE40F201419F
:1023F0003720FFF7E7FE40F202313A20FFF7E2FE16
:102400004FF4A0613B20FFF7DDFE2820FFF73CFCE6
:1024100000212220FFF7D6FE2820FFF735FC00BF61
:1024200080BD00BF408009200080092090B58BB09E
:1024300002AF5E4A5D4B1B6843F4801313600120BA
:10244000FFF7E4FCD3233B71E7237B719023BB713F
:10245000564B4FF48012DA613B1D03211846FFF7FB
:102460001FFD524B4FF480129A61514B1B78002B89
:102470004BD100202EF03BFB0346002B02D0002363
:10248000FB7701E00123FB7700202EF02DFB0446B3
:1024900000202EF026FB03465B0044EA0302FB7F8C
:1024A0009B001343BB60B8682FF076FAFB7F002BCC
:1024B00015D0CD23009340F666634FF4F0720021EF
:1024C00000202FF06FFA40F20B13009340F60273D6
:1024D0004FF44872002101202FF064FA5EE0CD2312
:1024E000009340F666634FF44872002101202FF0FC
:1024F00059FA40F20B13009340F602734FF4F07256
:10250000002100202FF04EFA48E0294B1B78012BC8
:102510000CD14FF4FA73BB6140F642637B6140F625
:10252000E4433B6140F26223FB6011E0204B1B78E7
:10253000022B0CD140F6AC53BB614FF4F5737B61B9
:1025400040F226233B6140F65843FB6000E0FEE783
:1025500000202EF0C6FA044600202EF0C5FA0346ED
:102560005B001C4300202EF0C2FA03469B0023436D
:10257000BB60B8682FF010FA7B690093BB694FF419
:102580004872002100202FF00DFAFB6800933B6990
:102590004FF4F072002101202FF004FA054B0122C4
:1025A0001A7000BF2437BD4690BD00BF00800920CF
:1025B000889000108990001080B500AFFFF79CFC58
:1025C000084B40F609421A60074B1B78002B06D1D6
:1025D0000020FFF71BFCFFF733FEFFF711FD00BFE4
:1025E00080BD00BF88C10F408890001080B582B0C8
:1025F00000AF7860FFF7E0FF7B681A464FF4F07198
:102600004FF448702EF0F4F97B681A464FF4F071DD
:102610004FF448702EF0D4F97B68054918462EF027
:10262000B9F9FFF703FF00BF0837BD4680BD00BF03
:10263000000000A080B582B000AF1F4B1B78002BBC
:1026400002D11E4B7B6001E01C4B7B60002300220B
:102650001B49786830F0A6F80022002100202EF0F7
:10266000DFF900202EF043FA0346002B0ED04FF482
:1026700048724FF4F07100202EF0BAF94FF448720E
:102680004FF4F07100202EF09BF90DE04FF4F07242
:102690004FF4487100202EF0ABF94FF4F0724FF474
:1026A000487100202EF08CF9002100202EF072F9E4
:1026B00000BF0837BD4680BD8890001080410500EE
:1026C000E042050080B586B000AFF860B9607A607E
:1026D000BB68012B02D0032B05D010E00020FFF7D0
:1026E00085FF00230FE07B687B617B691A687B694B
:1026F0005B6819461046FFF707FB002303E04FF025
:10270000FF333B613B6918461837BD4680BD00BFAB
:1027100080B500AF00F060FF3B4B1B6801211846FD
:1027200001F064F8394B1B680121184601F05EF88E
:10273000374B1B680121184601F058F8354B1A68D1
:10274000354B1B681A43354B1B6813430121184650
:1027500001F04CF8324B1A682F4B1B681A432F4B71
:102760001B6813430121184601F040F82D4B1A68ED
:10277000294B1B681A43294B1B6813430121184638
:1027800001F034F8284B1A68234B1B681A43234B7B
:102790001B6813430121184601F028F8234B1A68DF
:1027A0001D4B1B681A431D4B1B6813430121184620
:1027B00001F01CF81E4B1A68174B1B681A43174B85
:1027C0001B6813430121184601F010F8194B1A68D1
:1027D000114B1B681A43114B1B6813430121184608
:1027E00001F004F800F03CFF00F052FF124B1B78A0
:1027F000002B01D100F06CF8104B01221A70104B25
:1028000001221A7000BF80BDE0000010E40000103B
:10281000E8000010C4000010909000108C90001090
:10282000C8000010D0000010D8000010D400001024
:10283000CC000010DC0000109C900010EC00001098
:102840009D90001090B482B000AF04460846114637
:102850001A462346FB710346BB710B467B71134638
:102860007B80FB79154A1360BB791B029BB2144A2B
:1028700013607B79002B02D1124B00221A707B79F6
:10288000012B02D10F4B01221A707B79022B02D14E
:102890000C4B02221A700C4A7B8813800A4A7B88F0
:1028A00013803B8A1B041A46BB8A1343074A1360F2
:1028B00000BF0837BD4690BC704700BF8C90001029
:1028C000909000109C900010949000109890001030
:1028D00080B500AF1F4B1B681F4A13601E4B0822B8
:1028E0001A731D4B01225A731B4B00229A731B4B08
:1028F0001B68DAB2184B1A71194B1B681B0ADAB243
:10290000154B5A71174B1B88DAB2134BDA71154B02
:102910001B881B0A9BB2DAB20F4B9A71124B1B68D1
:10292000DAB20D4B1A72104B1B681B0ADAB20A4B53
:10293000DA720D4B1B681B0CDAB2074B9A720A4B0A
:102940001B681B0EDAB2044B5A72034800F0C2FE39
:1029500000BF80BDE8000010389900108C90001076
:1029600090900010949000109890001080B582B064
:1029700000AF3B600346FB710B46BB711346BB8047
:10298000FA79204B1B681343BA79120213431E4A8B
:1029900013601D4B08221A731B4B01225A731A4BEA
:1029A00000229A73194B1B68DAB2174B1A71184B35
:1029B0001B681B0ADAB2144B5A71BB88DAB2124B8D
:1029C000DA71BB881B0A9BB2DAB20F4B9A713B6873
:1029D000DAB20D4BDA723B681B0ADAB20A4B9A7212
:1029E0003B681B0CDAB2084B5A723B681B0EDAB21A
:1029F000054B1A72044800F06DFE00BF0837BD4653
:102A000080BD00BFC4000010389900108C900010E9
:102A10009090001080B582B000AF3B600346FB7120
:102A20000B46BB711346BB80FA79204B1B681343DE
:102A3000BA79120213431E4A13601D4B08221A73FF
:102A40001B4B01225A731A4B00229A73194B1B68B5
:102A5000DAB2174B1A71184B1B681B0ADAB2144B07
:102A60005A71BB88DAB2124BDA71BB881B0A9BB26F
:102A7000DAB20F4B9A713B68DAB20D4BDA723B68EF
:102A80001B0ADAB20A4B9A723B681B0CDAB2084B8B
:102A90005A723B681B0EDAB2054B1A72044800F0FA
:102AA00019FE00BF0837BD4680BD00BFC80000103A
:102AB000389900108C9000109090001080B582B072
:102AC00000AF3B600346FB710B46BB711346BB80F6
:102AD000FA79204B1B681343BA79120213431E4A3A
:102AE00013601D4B08221A731B4B01225A731A4B99
:102AF00000229A73194B1B68DAB2174B1A71184BE4
:102B00001B681B0ADAB2144B5A71BB88DAB2124B3B
:102B1000DA71BB881B0A9BB2DAB20F4B9A713B6821
:102B2000DAB20D4BDA723B681B0ADAB20A4B9A72C0
:102B30003B681B0CDAB2084B5A723B681B0EDAB2C8
:102B4000054B1A72044800F0C5FD00BF0837BD46AA
:102B500080BD00BFCC000010389900108C90001090
:102B60009090001080B582B000AF0346FB710B4619
:102B7000BB711346BB80FA791C4B1B681343BA79AF
:102B8000120213431A4A1360194B08221A73184B86
:102B900001225A73164B00229A73164B1B68DAB245
:102BA000134B1A71144B1B681B0ADAB2104B5A7183
:102BB000BB88DAB20E4BDA71BB881B0A9BB2DAB261
:102BC0000B4B9A710A4B0022DA72094B00229A725F
:102BD000074B00225A72064B00221A72044800F07A
:102BE00079FD00BF0837BD4680BD00BFD80000108A
:102BF000389900108C9000109090001080B582B031
:102C000000AF3B600346FB710B46BB711346BB80B4
:102C1000FA79204B1B681343BA79120213431E4AF8
:102C200013601D4B08221A731B4B01225A731A4B57
:102C300000229A73194B1B68DAB2174B1A71184BA2
:102C40001B681B0ADAB2144B5A71BB88DAB2124BFA
:102C5000DA71BB881B0A9BB2DAB20F4B9A713B68E0
:102C6000DAB20D4BDA723B681B0ADAB20A4B9A727F
:102C70003B681B0CDAB2084B5A723B681B0EDAB287
:102C8000054B1A72044800F025FD00BF0837BD4609
:102C900080BD00BFD4000010389900108C90001047
:102CA0009090001080B400AF00BFBD4680BC70475C
:102CB00080B400AF00BFBD4680BC704780B582B015
:102CC00000AF3B600346FB710B46BB711346BB80F4
:102CD000BA88B979F8793B6803F040FC00BF08373F
:102CE000BD4680BD80B582B000AF3B600346FB713E
:102CF0000B46BB711346BB80BB88B3F5907F20D0D9
:102D0000B3F5907F06DCB3F5807F0BD0B3F5827FFF
:102D10000FD031E040F2211293421DD0B3F5A87FCD
:102D200022D029E0BA88B979F879184BFFF7C6FEA6
:102D300028E0174B1B88BA88B979F879FFF7BEFEEF
:102D400020E0144B1A68144B1B681343BA88B979F6
:102D5000F879FFF7B3FE15E0104B1B68BA88B97914
:102D6000F879FFF7ABFE0DE00D4B1B88BA88B979F7
:102D7000F879FFF7A3FE05E0BA88B979FB79184620
:102D8000FFF7F0FE00BF0837BD4680BD0007000119
:102D9000EE0000108C9000109090001098900010A1
:102DA0009490001080B582B000AF3B600346FB7189
:102DB0000B46BB711346BB80BB88B3F5827F2CD01A
:102DC000B3F5827F0ADCB3F5817F1CD0B3F5817F38
:102DD0001FDC40F2011293420CD067E0B3F5806F24
:102DE00057D045F2190293425AD040F2051293424D
:102DF00018D05BE03B4B00221A703B4B01221A803B
:102E0000FFF750FF69E0374B01221A70FFF750FFC0
:102E100063E0354B01221A805FE03B689AB2334B86
:102E20001A805AE03B681B0D03F00F03002B53D1AF
:102E30003B681B0C03F00F03002B4DD13B681B0BB1
:102E400003F00F03002B47D13B681B0A03F00F036D
:102E5000052B41D13B681B0903F00F03092B3BD124
:102E60003B6803F00F03072B36D13B681B0E9BB268
:102E70001A46920013445B009AB21D4B1A801C4BF9
:102E80001B88B3F5167F27D3194B4FF416721A809F
:102E900022E0BA88B979FB791846FFF763FE1CE097
:102EA000BA88B979FB791846FFF75CFEBB88B3F5A1
:102EB000837F0AD3BB88B3F57A7F06D8BA88B979FD
:102EC000FB791846FFF74EFE07E0BA88B979FB791F
:102ED0001846FFF747FE00E000BF00BF0837BD46B9
:102EE00080BD00BFEC0000109E900010EE000010AE
:102EF000A090001080B582B000AF3B600346FB712C
:102F00000B46BB711346BB80BA88B979F8793B6828
:102F100003F07AFC00BF0837BD4680BD80B582B0A3
:102F200000AF3B600346FB710B46BB711346BB8091
:102F3000BA88B979F8793B6803F08AFB00BF083793
:102F4000BD4680BD90B583B000AF0446084611462B
:102F50001A462346FB710346BB710B467B71134631
:102F60003B713B8BB3F5907F04D040F2211293422A
:102F70001AD03AE02A4B1B68FA699A420DD1FB79C4
:102F8000284A1360BB791B029BB2274A1360FFF7E4
:102F9000BFFB264B00221A703DE03A8B39797B79D2
:102FA0001846FFF7DFFD36E0FA791E4B1B689A42A0
:102FB0002ED1BB791B021A461B4B1B689A4227D1A4
:102FC0001B4B1B88002B09D03A8B39797879FB6928
:102FD00003F02EFB154B00221A7019E03A8B397959
:102FE0007B791846FFF7BEFD12E0FA790D4B1B689E
:102FF0009A420FD1BB791B021A460B4B1B689A42AF
:1030000008D13A8B39797879FB6903F011FB01E03B
:1030100000BF00E000BF00BF0C37BD4690BD00BF41
:10302000989000108C90001090900010EC00001010
:10303000A090001080B483B000AF0346FB710B4634
:10304000BB711346BB8000BF0C37BD4680BC7047C8
:1030500080B582B000AF0346FB710B46BB711346CF
:10306000BB80BB8840F20142934208D100F07EFF52
:103070000346BA88B979F879FFF7C0FD06E0BA8847
:10308000B979FB791846FFF76DFD00BF00BF08371F
:10309000BD4680BD80B483B000AF3B600346FB718A
:1030A0000B46BB711346BB8000BF0C37BD4680BCCE
:1030B000704700BF90B484B000AF3C4684E80F0076
:1030C00000BF1037BD4690BC704700BF80B400AF52
:1030D000B34BD3F8043103F48073002B7BD1B04B96
:1030E000D3F80C3103F00103002B31D1AC4BD3F8F2
:1030F000043103F01F03002B08D0A94BD3F804318F
:1031000003F01F03A74AB2FBF3F300E00023A64A33
:103110001360A34BD3F8A83103F01F03002B08D092
:103120009F4BD3F8A83103F01F039E4AB2FBF3F381
:1031300000E000239D4A1360994BD3F8003103F05F
:1031400001030133974AB2FBF3F3994A1360F7E0A6
:10315000934BD3F8A03103F04003002B09D1924BDD
:1031600000221A60914B00221A60914B00221A60D3
:10317000E6E08B4BD3F8043103F01F03002B08D09B
:10318000874BD3F8043103F01F03864AB2FBF3F3F5
:1031900000E00023844A1360814BD3F8A83103F088
:1031A0001F03002B08D07E4BD3F8A83103F01F0378
:1031B0007C4AB2FBF3F300E000237C4A1360784BB7
:1031C000D3F8003103F001030133764AB2FBF3F385
:1031D000774A1360B4E0724BD3F8883003F48073FD
:1031E000002B09D1704B00221A60704B00221A602C
:1031F0006F4B00221A60A3E0694BD3F80C3103F047
:103200000103002B49D1664BD3F8043103F01F03AF
:10321000002B10D0624BD3F8883003F01F0301332A
:10322000604A02FB03F25E4BD3F8043103F01F0344
:10323000B2FBF3F300E000235B4A1360584BD3F872
:10324000A83103F01F03002B10D0554BD3F8883062
:1032500003F01F030133534A02FB03F2504BD3F830
:10326000A83103F01F03B2FBF3F300E000234F4A41
:1032700013604B4BD3F8883003F01F030133494AE6
:1032800002FB03F2464BD3F8003103F00103013394
:10329000B2FBF3F3464A136052E0414BD3F8A0313E
:1032A00003F04003002B09D13F4B00221A603F4B33
:1032B00000221A603E4B00221A6041E0384BD3F8DE
:1032C000043103F01F03002B10D0354BD3F88830A6
:1032D00003F01F030133334A02FB03F2304BD3F8F0
:1032E000043103F01F03B2FBF3F300E000232E4A86
:1032F00013602B4BD3F8A83103F01F03002B10D021
:10330000274BD3F8883003F01F030133254A02FB13
:1033100003F2234BD3F8A83103F01F03B2FBF3F3FE
:1033200000E00023214A13601F4B1A681C4BD3F89E
:10333000003103F001030133B2FBF3F31C4A1360C5
:10334000174BD3F8083103F48073002B4BD0144B88
:10335000D3F8083103F01F03042B07D0062B05D048
:10336000002B3CD1134B00221A6066E00C4BD3F8C3
:103370000C3103F00103002B1ED0094BD3F8883029
:1033800003F01F030133074A02FB03F2044BD3F897
:10339000083103F01F03B2FBF3F3064A13604CE05D
:1033A00000C00F40001BB700F0000010F400001038
:1033B000F8000010FC000010224BD3F8883003F016
:1033C0001F030133204A02FB03F21E4BD3F80831DE
:1033D00003F01F03B2FBF3F31C4A13602DE01B4BF9
:1033E00000221A6029E0174BD3F8083103F4007368
:1033F000002B1ED0134BD3F80C3103F00103002B2C
:103400000BD0104BD3F8A83003F01F0301330E4A42
:1034100002FB03F30D4A13600FE00A4BD3F8883028
:1034200003F01F030133084A02FB03F3074A13604A
:1034300003E0064B00221A60FFE700BFBD4680BCD8
:10344000704700BF00C00F40001BB700FC00001019
:1034500080B400AF374B46F23A021A60354B212256
:10346000C3F8A02100BF334BD3F8A03103F04003D1
:10347000002BF8D02F4B0122C3F80C212D4B092231
:10348000C3F884202B4B0122C3F88020294BAA22A9
:10349000C3F88C20274B5522C3F88C2000BF254B46
:1034A000D3F8883003F48063002BF8D0214B23221B
:1034B000C3F8A4201F4B0122C3F8A0201D4BAA2251
:1034C000C3F8AC201B4B5522C3F8AC2000BF194BEE
:1034D000D3F8A83003F48063002BF8D0154B40F2EA
:1034E0000112C3F80421134B40F20122C3F8082152
:1034F000104B0122C3F800210E4B0222C3F8A82171
:103500000C4B0D4AC3F8C4200A4B4FF48072C3F829
:10351000C821084A074BD3F8B03143F00303C2F87F
:10352000B031064B4FF4C0429A6000BFBD4680BC2C
:10353000704700BF00C00F40DE87280400ED00E0A8
:1035400080B483B000AF0346FB71084997F9073098
:103550005B09FA7902F01F02012000FA02F241F839
:10356000232000BF0C37BD4680BC704700E100E05F
:1035700080B487B000AF786039607B68012B01D1DF
:10358000114B00E0114B7B6100233B610C23FB607E
:103590000F4AFB68B2FBF3F23B68B2FBF3F3013B6B
:1035A0003B613B69C3F309033B610A4AFB6852F87C
:1035B00023303A6913433B617B693A695A6100BF22
:1035C0001C37BD4680BC704700400440008004406A
:1035D0000087930334AE040080B582B000AF0123AE
:1035E0007B607B68012B01D1174B00E0174B3B60E0
:1035F0007B68012B10D1164A154BD3F8C43043F425
:103600000053C2F8C430134B01221A60114B01223F
:103610005A601920FFF794FF0F4B02221A603B6893
:1036200001221A603B6800221A613B6800229A60FE
:103630000A497868FFF79CFF3B6803221A6100BFC4
:103640000837BD4680BD00BF0040044000800440F4
:1036500000C00F4000C0024000C0034020A107008E
:1036600080B483B000AF01237B607B68012B01D164
:10367000054B00E0054B3B603B6800221A6000BF31
:103680000C37BD4680BC70470040044000800440B9
:1036900080B483B000AF01237B607B68012B01D134
:1036A000094B00E0094B3B6000BF3B68DB6903F05E
:1036B0000403002BF9D0064B01221A6000BF0C371F
:1036C000BD4680BC704700BF0040044000800440FD
:1036D000A490001080B487B000AF786001237B61B4
:1036E0007B69012B01D11D4B00E01D4B3B617B68C9
:1036F0001B7B1B0403F470227B685B7B012B02D1D4
:103700004FF0004300E000231A437B689B7B012BB2
:1037100002D14FF0804300E000231343FB603B697C
:10372000DB6903F00403002B13D03B69FA681A63CA
:103730007B681A683B695A637B6804331A683B6983
:103740009A637B6808331A683B69DA633B69212214
:103750005A6000BF1C37BD4680BC70470040044023
:103760000080044080B487B000AF786001237B61A3
:103770007B69012B01D11B4B00E01B4B3B613B697B
:103780001B6AFB60FB68DB0FDBB21A467B685A736F
:10379000FB6803F08043002B14BF01230023DBB23E
:1037A0001A467B689A73FB681B0CDBB203F00F03AD
:1037B000DAB27B681A733B695A6A7B681A607B6865
:1037C0009B7B002B09D17B6804333A69926A1A60AB
:1037D0007B6808333A69D26A1A6000BF1C37BD465D
:1037E00080BC7047004004400080044080B489B031
:1037F00000AF78600B46FB700123BB60974B1B68E2
:1038000001335A10964B1B681344B3F5007F80F2C6
:103810007881944B01221A60FB78002B40F0FC80E9
:10382000BB68013B5B037A6813437B607A684FF2A5
:10383000FF7313407B60894B1B6803F00103002B6F
:1038400024D1874B1B68002B20D0844B1B685B1056
:103850007B61834B1B68FB60834A7B6952F8233092
:10386000FB610EE07B6901337B617F4A7B6952F823
:103870002330BB617C497B69FA6941F82320BB692D
:10388000FB61FB685A1EFA60002BEBD1734B1B687F
:10389000002B08D1744A7B681B046FEA13436FEA5C
:1038A00003431360B2E06D4B1B68012B17D16E4BC5
:1038B0001B681A0C7B689A4208D96B496A4B1B68D3
:1038C0001A0C7B681B0413430B609FE06649664B30
:1038D0001B681B0C1B047A6813430B6096E00023E3
:1038E0007B615E4B1B683B615C4B1B68013B5B1063
:1038F000FB601BE05C4A7B6952F823301A0C7B6842
:103900009A4203D97B695B003B6113E0564A7B69AD
:1039100052F823309AB27B689A4204D97B695B00E3
:1039200001333B6106E07B6901337B617A69FB68A7
:103930009A42DFDD7A69FB689A421DDD474B1B68BE
:1039400003F00103002B0AD147497B681B046FEA8F
:1039500013436FEA03437A6941F8223056E0424943
:10396000414A7B6952F823301B0C1B047A681A43C6
:103970007B6941F8232049E03B4A7B6952F82330B8
:10398000FB613B6903F00103002B06D17B681A043D
:10399000FB691B0C1343BB6105E0FB691B0C1B049B
:1039A0007A681343BB6130497B69BA6941F82320C7
:1039B0002A4B1B685B10FB6012E07B6901337B6163
:1039C000294A7B6952F82330BB612749BB691A0C2D
:1039D000FB691B041A437B6941F82320BB69FB6127
:1039E0007A69FB689A42E8DB1C4B1B6803F0010311
:1039F000002B0BD11C491C4A7B6952F823306FEA1B
:103A000013436FEA03437A6941F82230134B1B6872
:103A10000133124A136054E0BB68013B5B077A68CC
:103A200013437B600D4B1B6801335B107B610023EC
:103A30003B610CE00C4A7B6952F823207B689A4278
:103A400014D87B6901337B613B6901333B61044BD3
:103A50001B683A699A42EDDB09E000BFAC900010A8
:103A6000B090001000C003400080034000BF274A10
:103A70007B6952F82330FB6124497B697A6841F8FD
:103A80002320234B1B680133214A1360204B1B6802
:103A9000013BFB6011E07B6901337B613B690133D2
:103AA0003B611A4A7B6952F82330BB6117497B6935
:103AB000FA6941F82320BB69FB613A69FB689A42C5
:103AC000E9DB144B1B6801335B109B00FB61104B5F
:103AD0001B689B001A46FB691344BB610E4B002216
:103AE0005A600D4AFB6993600B4AFB69D3600A4A2E
:103AF000BB691361084ABB695361074B00221A6016
:103B000000E000BF2437BD4680BC70470080034002
:103B1000B0900010AC90001000C00340B0B586B06B
:103B200002AF824BDB68BB60BB6803F00103002B74
:103B300008D07F48FFF716FE7C4B04225A607D4B6D
:103B400001221A607B4B1B68002B00F0F081784B40
:103B50000FCBFFF7AFFA764B1A68774B1B689A4288
:103B600001D1FEF7B5FE724B1A68744B1B689A427E
:103B70002ED16F4B9B799BB2FB80FB889BB21B02C3
:103B80009BB2FB806A4BDB799AB2FB889BB21343F2
:103B90009BB2FB80664BDB7AFB60654B9B7A1B021A
:103BA000FA681343FB60624B5B7A1B04FA681343A9
:103BB000FB605F4B1B7A1B06FA681343FB605C4B90
:103BC00018795B4B5979FB889AB2FB68FFF776F856
:103BD000574B1B6803F47022594B1B689A4239D12A
:103BE000534B9B799BB2FB80FB889BB21B029BB221
:103BF000FB804F4BDB799AB2FB889BB213439BB29D
:103C0000FB804B4BDB7AFB60494B9B7A1B02FA68CB
:103C10001343FB60464B5B7A1B04FA681343FB605B
:103C2000434B1B7A1B06FA681343FB60404B1B682F
:103C3000D8B23F4B1B681B0AD9B23D4B1C793C4B99
:103C40005D79FB889BB2FA68019200932B4622466D
:103C5000FFF778F9364B1B68DAB23A4B1B689A4289
:103C600040F06581324B1B6803F47F42364B1B6882
:103C70009A4240F05C812E4B1B6803F47022334B58
:103C80001B689A422FD12A4B9B799BB2FB80FB8801
:103C90009BB21B029BB2FB80254BDB799AB2FB885F
:103CA0009BB213439BB2FB80214BDB7AFB60204B22
:103CB0009B7A1B02FA681343FB601D4B5B7A1B0463
:103CC000FA681343FB601A4B1B7A1B06FA6813430E
:103CD000FB60174B1879164B5979FB889AB2FB6831
:103CE000FFF760F823E1124B1B6803F47022184BB6
:103CF0001B689A422ED10E4B9B799BB2FB80FB88AE
:103D00009BB21B029BB2FB80094BDB799AB2FB880A
:103D10009BB213439BB2FB80054B1879044B597936
:103D2000FB889AB2FB68FEF7DDFF00E1004004402B
:103D300048990010A8900010E4000010E80000105E
:103D4000E00000108C90001090900010C400001053
:103D5000C80000107D4B1B6803F470227C4B1B686D
:103D60009A422FD1794B9B799BB2FB80FB889BB207
:103D70001B029BB2FB80754BDB799AB2FB889BB22E
:103D800013439BB2FB80714BDB7AFB606F4B9B7ADA
:103D90001B02FA681343FB606C4B5B7A1B04FA68E6
:103DA0001343FB60694B1B7A1B06FA681343FB60E5
:103DB000664B1879654B5979FB889AB2FB68FFF717
:103DC000ADF8B4E0614B1B6803F47022614B1B68D3
:103DD0009A422FD15D4B9B799BB2FB80FB889BB2B3
:103DE0001B029BB2FB80594BDB799AB2FB889BB2DA
:103DF00013439BB2FB80554BDB7AFB60534B9B7AA2
:103E00001B02FA681343FB60504B5B7A1B04FA6891
:103E10001343FB604D4B1B7A1B06FA681343FB6090
:103E20004A4B1879494B5979FB889AB2FB68FFF7DE
:103E300061F87CE0454B1B6803F47022464B1B681D
:103E40009A421AD1414B9B799BB2FB80FB889BB273
:103E50001B029BB2FB803D4BDB799AB2FB889BB285
:103E600013439BB2FB80394B1879384B5B79FA8846
:103E700092B21946FFF7DEF859E0344B1B6803F4A1
:103E80007022364B1B689A421AD1304B9B799BB2F9
:103E9000FB80FB889BB21B029BB2FB802B4BDB7928
:103EA0009AB2FB889BB213439BB2FB80274B1879D5
:103EB000264B5B79FA8892B21946FFF7C9F836E0CB
:103EC000224B1B6803F47022254B1B689A422ED1AB
:103ED0001E4B9B799BB2FB80FB889BB21B029BB263
:103EE000FB801A4BDB799AB2FB889BB213439BB2DF
:103EF000FB80164BDB7AFB60144B9B7A1B02FA6843
:103F00001343FB60114B5B7A1B04FA681343FB609D
:103F10000E4B1B7A1B06FA681343FB600B4B187998
:103F20000A4B5979FB889AB2FB68FFF7B3F80D4B3F
:103F300000221A60BB6803F00203002B02D00A4B78
:103F400001221A6000BF1037BD46B0BD489900106D
:103F5000CC000010DC000010D8000010D0000010D1
:103F6000D4000010A8900010A490001080B485B078
:103F700000AF0123FB60FB68012B01D10A4B00E07D
:103F80000A4BBB60BB689B680023FB71BB689B68E6
:103F90000023BB71FB791A02BB791343184614370F
:103FA000BD4680BC704700BF004004400080044014
:103FB00080B582B000AF7860786835F0B1FC024619
:103FC000012379680020F6F721FF034618460837D9
:103FD000BD4680BD80B584B000AF03460A46FB7184
:103FE0001346BB71F7F7A6FFFB791846F8F726F8DA
:103FF000BB791846F8F722F8F7F7C0FFFB790133D1
:10400000DBB21846F8F71AF80346012B00D0F3E7A5
:1040100000BF0120F8F7B6F80346FB730120F8F75C
:10402000B1F80346BB73F7F7C1FFFB7B1A02BB7BFA
:104030001343DB119BB218461037BD4680BD00BF4D
:1040400080B582B000AF0346FB710B46BB711346CF
:104050007B71F7F76FFFFB791846F7F7EFFFBB7936
:104060001846F7F7EBFF7B791846F7F7E7FFF7F706
:104070009DFF00BF0837BD4680BD00BF80B483B040
:1040800000AF0346FB71084997F907305B09FA79DD
:1040900002F01F02012000FA02F241F8232000BFC3
:1040A0000C37BD4680BC704700E100E080B400AF33
:1040B000BFF34F8F0549054BDB6803F4E062044B07
:1040C0001343CB60BFF34F8FFEE700BF00ED00E06E
:1040D0000400FA0580B400AF00BFBD4680BC704745
:1040E00080B58AB002AFF860B9607A603B600023A7
:1040F000FB7797F84430002B03D1F86A2DF0E3FEEC
:1041000002E0386B2DF0DFFEFA687B68D118BA68E0
:104110003B681A4497F84830009313460A46B9683A
:10412000F8682DF0EDFF786B2DF0CDFEFA687B6816
:10413000D118BA683B681A4497F848300093134680
:104140000A46B968F8682EF093F8FB681BB2BB8288
:10415000FB689AB27B689BB213449BB21BB23B8351
:10416000BB681BB2FB82BB689AB23B689BB213442C
:104170009BB21BB27B83B86B2DF05EFE97F8443088
:10418000002B03D1386B2DF09EFE02E0F86A2DF073
:104190009AFE02202DF040FE97F83C30022B04D10D
:1041A000FB7F43F00203FB7728E097F83C30002BBD
:1041B0000ED1B7F914309BB205339BB21BB2BB8250
:1041C000B7F918309BB20A3B9BB21BB23B8315E098
:1041D00097F83C30012B11D1FB7F43F00103FB77B3
:1041E000B7F914309BB20A339BB21BB2BB82B7F94A
:1041F00018309BB2053B9BB21BB23B8397F8403013
:10420000022B04D1FB7F43F00C03FB7728E097F8E7
:104210004030032B0ED1B7F916309BB202339BB25C
:104220001BB2FB82B7F91A309BB2043B9BB21BB2A4
:104230007B8315E097F84030042B11D1FB7F43F0CE
:104240000403FB77B7F916309BB204339BB21BB261
:10425000FB82B7F91A309BB2023B9BB21BB27B8345
:10426000FA7F07F114010123B86A2EF0D1F800BFDC
:104270002037BD4680BD00BF80B586B000AFF86076
:10428000B9607A603B603B687A68B968F8682BF07F
:10429000F5FB786178692BF0F9FB00202DF013FE17
:1042A0003B687A68B968F8682DF092FF6FF07F403C
:1042B0002DF009FE02202DF0AFFD0B482DF0BCFDC6
:1042C000FB680A33BA681946386A2EF045F90020AF
:1042D0002BF0DCFB78692BF05DFC78692BF064FB3C
:1042E00000BF1837BD4680BD843A050080B588B050
:1042F00000AFF860B9607A603B600023FB77FB6831
:104300001BB2BB82FB689AB27B689BB213449BB220
:104310001BB23B83BB681BB2FB82BB689AB23B6893
:104320009BB213449BB21BB27B83386B2DF084FD90
:10433000F86A2DF0C8FD02202DF06EFD97F834309C
:10434000022B04D1FB7F43F00203FB770BE097F8CD
:104350003430002B07D097F83430012B03D1FB7F8A
:1043600043F00103FB7797F83830022B04D1FB7F31
:1043700043F00C03FB770BE097F83830032B07D0A2
:1043800097F83830042B03D1FB7F43F00403FB770D
:10439000FA7F07F114010123B86A2EF039F800BF43
:1043A0002037BD4680BD00BF80B584B000AFF86047
:1043B000B9607A603B60B8692DF03EFD38682DF039
:1043C00082FD02202DF028FDBA68F96878682EF089
:1043D000C3F800BF1037BD4680BD00BF80B586B0B2
:1043E00002AFF860B9607A603B60386A2DF06BFD0F
:1043F000FB69DBB218462DF0EBFD7A68FB68D1183B
:104400003A68BB681A44BB69009313460A46B96808
:10441000F86830F04FF900BF1037BD4680BD00BFCF
:1044200080B5ADF5107D00AF3B1D18603B461960AF
:104430000023C7F83C323B4607F1100001221968FF
:10444000FBF744FD0346002B1AD107F11003DB688C
:10445000C7F83C32D7F83C2207F10C03391D07F1AD
:1044600010000968FBF7EEFE07F110031846FCF791
:1044700087F907F110031846FCF700FA002307E05C
:10448000064B1B889BB201339AB2044B1A8001235E
:10449000184607F51077BD4680BD00BFB4900010E8
:1044A00080B5A0B00AAFF860B9607A60002387F8E1
:1044B0005730FB681433184635F000FA3865FB684E
:1044C0002833184635F0FAF9F864AD4B1B78DBB2A7
:1044D00007F11400FA68192134F0E8F907F1140320
:1044E00007F13000A74A192134F0E0F9A44B1B78FA
:1044F000DBB2012B02D0032387F85730A24B1B7885
:10450000DBB2092B00F24D8201A252F823F000BF6A
:1045100039450100A5450100114601007D46010015
:10452000E946010055470100F34701005F480100DB
:10453000CB480100374901004FF47A3200219348FB
:1045400033F03FFC07F1300319469048FFF768FF4E
:104550000346002B05D17A68B9688C482FF0CEFB52
:104560001FE297F8572013469B0013449B001A46FE
:10457000FB6813440022089200220792022206924E
:1045800002220592824A0492824A0392824A02924D
:10459000804A019200933B6DFA6C7968B868FFF726
:1045A0009FFDFEE14FF47A3200217C4833F009FC94
:1045B00007F1300319467948FFF732FF0346002B15
:1045C00005D17A68B96875482FF098FBE9E197F84A
:1045D000572013469B0013449B001A46FB68134464
:1045E00000220892002207920222069202220592DD
:1045F000674A0492674A0392674A0292654A0192A7
:1046000000933B6DFA6C7968B868FFF769FDC8E103
:104610004FF47A320021624833F0D3FB07F13003C4
:1046200019465F48FFF7FCFE0346002B05D17A6868
:10463000B9685B482FF062FBB3E197F85720134647
:104640009B0013449B001A46FB6813440022089207
:104650000022079202220692022205924C4A0492FC
:104660004C4A03924C4A02924A4A019200933B6D93
:10467000FA6C7968B868FFF733FD92E14FF47A324B
:104680000021484833F09DFB07F1300319464548A7
:10469000FFF7C6FE0346002B05D17A68B96841488A
:1046A0002FF02CFB7DE197F8572013469B00134415
:1046B0009B001A46FB6813440022089200220792CE
:1046C0000222069202220592314A0492314A039252
:1046D000314A02922F4A019200933B6DFA6C79683D
:1046E000B868FFF7FDFC5CE14FF47A3200212E48F8
:1046F00033F067FB07F1300319462B48FFF790FEB4
:104700000346002B05D17A68B96827482FF0F6FADE
:1047100047E197F8572013469B0013449B001A4625
:10472000FB6813440022089200220792022206929C
:1047300002220592164A0492164A0392164A0292DF
:10474000144A019200933B6DFA6C7968B868FFF7E0
:10475000C7FC26E14FF47A320021144833F031FBD4
:1047600007F1300319461148FFF75AFE0346002BA4
:104770001ED17A68B9680D482FF0C0FA11E100BF68
:10478000BE90001090AE0400C090001000B8CBA006
:104790001C2F0500CCCCCC004D4D4D000088D3A083
:1047A0000070D7A00058DBA00040DFA00028E3A0E5
:1047B00097F8572013469B0013449B001A46FB684A
:1047C000134400220892002207920222069202223B
:1047D0000592824A0492824A0392824A0292804A55
:1047E000019200933B6DFA6C7968B868FFF778FC2A
:1047F000D7E04FF47A3200217B4833F0E2FA07F138
:10480000300319467848FFF70BFE0346002B05D10D
:104810007A68B96874482FF071FAC2E097F85720A7
:1048200013469B0013449B001A46FB681344002266
:104830000892002207920222069202220592674AFB
:104840000492674A0392674A0292654A0192009372
:104850003B6DFA6C7968B868FFF742FCA1E04FF451
:104860007A320021614833F0ACFA07F1300319467F
:104870005E48FFF7D5FD0346002B05D17A68B9687D
:104880005A482FF03BFA8CE097F8572013469B00CC
:1048900013449B001A46FB6813440022089200222E
:1048A000079202220692022205924C4A04924C4A36
:1048B00003924C4A02924A4A019200933B6DFA6C71
:1048C0007968B868FFF70CFC6BE04FF47A3200218E
:1048D000474833F076FA07F1300319464448FFF7AA
:1048E0009FFD0346002B05D17A68B96840482FF038
:1048F00005FA56E097F8572013469B0013449B0097
:104900001A46FB68134400220892002207920222F2
:10491000069202220592314A0492314A0392314AA8
:1049200002922F4A019200933B6DFA6C7968B86845
:10493000FFF7D6FB35E04FF47A3200212D4833F0F3
:1049400040FA07F1300319462A48FFF769FD03468C
:10495000002B05D17A68B96826482FF0CFF91FE0FF
:1049600097F8572013469B0013449B001A46FB6898
:104970001344002208920022079202220692022289
:104980000592164A0492164A0392164A0292144A53
:10499000019200933B6DFA6C7968B868FFF7A0FB51
:1049A00000BF154B1B78DBB20133DAB2124B1A7021
:1049B000114B1B78DBB2092B02D90F4B00221A7066
:1049C0000E482DF080FA6FF07F402DF07CFA0C48F5
:1049D0002DF079FA00BF5837BD4680BD1C2F050069
:1049E000CCCCCC004D4D4D000010E7A000F8EAA063
:1049F00000E0EEA000C8F2A0C0900010AF6E720000
:104A00007E162D0098B500AF00240FE022464FF42B
:104A1000E47303FB02F3624A13444FF4E47200218F
:104A2000184633F0CEF923460133DCB2272CEDD9FA
:104A30000024ACE021465A4A4FF4E47303FB01F32F
:104A4000134403F5C07301221A702146544A4FF4EF
:104A5000E47303FB01F3134403F5B87302221A70E5
:104A600021464F4A4FF4E47303FB01F3134403F56B
:104A7000BC734C4A1A602146494A4FF4E47303FB65
:104A800001F3134403F2711302221A702146444ABF
:104A90004FF4E47303FB01F3134403F5B9730222EB
:104AA0001A7021463E4A4FF4E47303FB01F31344AA
:104AB00003F5DA736FF07F421A602146384A4FF4EB
:104AC000E47303FB01F3134403F5D4736FF07F42E7
:104AD0001A602146324A4FF4E47303FB01F3134496
:104AE00003F2731300221A7021462D4A4FF4E47327
:104AF00003FB01F3134403F5AA73FF221A70214646
:104B0000274A4FF4E47303FB01F3134403F5AE7338
:104B1000FF221A702146224A4FF4E47303FB01F38B
:104B2000134403F5B2734FF6FF721A8021461C4AF4
:104B30004FF4E47303FB01F3134403F5B6734FF032
:104B4000FF321A602146164A4FF4E47303FB01F367
:104B5000134403F5DE73144A1A602146104A4FF4D9
:104B6000E47303FB01F3134403F5D1734FF6FF72B3
:104B70001A8021460A4A4FF4E47303FB01F31344FD
:104B800003F5E273094A1A6023460133DCB2272C8D
:104B90007FF650AF064B1E221A7000BF98BD00BFB3
:104BA00050A50010BB900010900C0500D5400100EE
:104BB0000001001098B500AF00240024F5E07F4B01
:104BC0001A687F494FF4E47303FB04F30B4403F5C5
:104BD000C6731B689A4240F38980784B1A687849FB
:104BE0004FF4E47303FB04F30B4403F5C673196835
:104BF00073484FF4E47303FB04F3034403F5CE73EB
:104C00001B680B449A4271DA6C4B5A686C494FF43A
:104C1000E47303FB04F30B4403F5CA731B689A4265
:104C200064DD664B5A6866494FF4E47303FB04F392
:104C30000B4403F5CA73196861484FF4E47303FB2E
:104C400004F3034403F5CC731B680B449A424DDA1A
:104C50005B4A4FF4E47303FB04F3134403F2891338
:104C60001B78DBB2002B41D1564B01221A70544AFB
:104C70004FF4E47303FB04F3134403F5C4731B788C
:104C8000DBB2032B02D0504B01221A704C4A4FF476
:104C9000E47303FB04F3134403F27D131B78DBB2CC
:104CA0000033012B48D8464A4FF4E47303FB04F366
:104CB000134403F27D1301221A70414A4FF4E47346
:104CC00003FB04F3134403F27F131B78DBB2002BC6
:104CD0000AD14FF4E47303FB04F3394A13443B4A0B
:104CE0001E213B4833F0E2FD00BF25E0344A4FF47B
:104CF000E47303FB04F3134403F27D131B78DBB26C
:104D0000012B03D0022B0CD0002B16E02C4A4FF4C1
:104D1000E47303FB04F3134403F27D1302221A70BD
:104D20000BE0274A4FF4E47303FB04F3134403F24C
:104D30007D1300221A7000E000BF214A4FF4E47393
:104D400003FB04F3134403F5BF731B78DAB21C4969
:104D50004FF4E47303FB04F30B4403F27D131B785D
:104D6000DBB29A4220D0164A4FF4E47303FB04F3FB
:104D7000134403F27D131B78D9B2114A4FF4E47344
:104D800003FB04F3134403F5BF730A461A70114B77
:104D900001221A700A4A4FF4E47303FB04F313442C
:104DA00003F27F1300221A7001340B4B1B78DBB225
:104DB000A342BFF604AF00BF98BD00BFD89F00104C
:104DC00050A50010BD900010BC9000109CAE0400D7
:104DD000E8A10010B7900010BF900010F0B593B09C
:104DE0000AAF002400F09BBEB54A4FF4E47303FB06
:104DF00004F3134403F27F131B78DBB2002B40F063
:104E00008D86AF4A4FF4E47303FB04F3134403F2BB
:104E10007D131B78DBB2002B06D0002BC0F2B285CD
:104E2000022B00F3AF85D5E2A54A4FF4E47303FBF0
:104E300004F3134403F5B8731B78DBB2042B00F2C0
:104E4000318201A252F823F05D4E0100994E01001B
:104E5000954F0100C5500100D15301004FF4E47398
:104E600003FB04F33833964A1344181D944A4FF455
:104E7000E47303FB04F3134403F5C6731968904A03
:104E80004FF4E47303FB04F3134403F5CA731B6884
:104E90001A46FFF705FB9CE24FF4E47303FB04F3AF
:104EA0003833874A1344181D854A4FF4E47303FBD3
:104EB00004F3134403F5C6731A6881494FF4E4738D
:104EC00003FB04F30B4403F5C8731B68D1187C4A39
:104ED0004FF4E47303FB04F3134403F5CA731B6834
:104EE0001A46FFF7DDFA764A4FF4E47303FB04F346
:104EF000134403F5C6731E68714A4FF4E47303FB51
:104F000004F3134403F5CA731B68FB616C4A4FF446
:104F1000E47303FB04F3134403F5CE731A68BA6118
:104F2000674A4FF4E47303FB04F3134403F5CC73B3
:104F30001B68A3F1020E4FF4E47303FB04F3604A11
:104F400013445F494FF4E47202FB04F20A4402F591
:104F5000D47212685A484FF4E47101FB04F1014421
:104F600001F5DE710968564D4FF4E47000FB04F062
:104F7000284400F271100078C0B204250495039013
:104F80000291019200937346BA69F9693046FFF7BE
:104F9000ADF91EE24A4A4FF4E47303FB04F31344F1
:104FA00003F5C6731B68FB61454A4FF4E47303FBCA
:104FB00004F3134403F5CA731A68BA61404A4FF404
:104FC000E47303FB04F3134403F5CE731D687D61A2
:104FD0003B4A4FF4E47303FB04F3134403F5CC732F
:104FE0001E683E614FF4E47303FB04F3344A9818DF
:104FF000334A4FF4E47303FB04F3134403F5D27311
:105000001D682F4A4FF4E47303FB04F3134403F5C4
:10501000D4731E682A4A4FF4E47303FB04F3134469
:1050200003F5D6731968F960254A4FF4E47303FB5E
:1050300004F3134403F5DE731B68BB60204A4FF48E
:10504000E47303FB04F3134403F271131B785FFA58
:1050500083FE72467A601A4A4FF4E47303FB04F34A
:10506000134403F5B9731B785FFA83FE7146396008
:10507000134A4FF4E47303FB04F3134403F2731372
:105080001B78D9B20E4A4FF4E47303FB04F31344C4
:1050900003F5BA731B78DBB2089307913968069160
:1050A0007A680592BB680493F968039102960195AA
:1050B00000903B697A69B969F869FFF711F888E1EE
:1050C00050A50010764A4FF4E47303FB04F3134435
:1050D00003F5C6731B68FB61714A4FF4E47303FB6D
:1050E00004F3134403F5CA731A68BA616C4A4FF4A7
:1050F000E47303FB04F3134403F5CE731D687D6171
:10510000674A4FF4E47303FB04F3134403F5CC73D1
:105110001E683E614FF4E47303FB04F3604A981881
:105120005F4A4FF4E47303FB04F3134403F5D273B3
:105130001D685B4A4FF4E47303FB04F3134403F567
:10514000D4731E68564A4FF4E47303FB04F313440C
:1051500003F5D6731968F960514A4FF4E47303FB01
:1051600004F3134403F5DE731B68BB604C4A4FF431
:10517000E47303FB04F3134403F271131B785FFA27
:1051800083FE72467A60464A4FF4E47303FB04F3ED
:10519000134403F5B9731B785FFA83FE71463960D7
:1051A0003F4A4FF4E47303FB04F3134403F2731315
:1051B0001B78D9B23A4A4FF4E47303FB04F3134467
:1051C00003F5BA731B78DBB208930791396806912F
:1051D0007A680592BB680493F96803910296019579
:1051E00000903B697A69B969F869FEF779FF2C4A42
:1051F0004FF4E47303FB04F3134403F5C6731E6812
:10520000274A4FF4E47303FB04F3134403F5CA7312
:105210001B68FB61224A4FF4E47303FB04F313445D
:1052200003F5CE731A68BA611D4A4FF4E47303FBA9
:1052300004F3134403F5CC731B68A3F1020E4FF47F
:10524000E47303FB04F31833154A1344063314497B
:105250004FF4E47202FB04F20A4402F5D4721268BD
:105260000F484FF4E47101FB04F1014401F5E071D2
:1052700009680B4D4FF4E47000FB04F0284400F281
:1052800071100078C0B20425049503900291019238
:1052900000937346BA69F9693046FFF727F898E03A
:1052A00050A50010A64A4FF4E47303FB04F3134423
:1052B00003F5C6731B68FB61A14A4FF4E47303FB5B
:1052C00004F3134403F5CA731A68BA619C4A4FF495
:1052D000E47303FB04F3134403F5CE731D687D618F
:1052E000974A4FF4E47303FB04F3134403F5CC73C0
:1052F0001E683E614FF4E47303FB04F3904A981870
:105300008F4A4FF4E47303FB04F3134403F5D273A1
:105310001D688B4A4FF4E47303FB04F3134403F555
:10532000D4731E68864A4FF4E47303FB04F31344FA
:1053300003F5D6731968F960814A4FF4E47303FBEF
:1053400004F3134403F5DE731B68BB607C4A4FF41F
:10535000E47303FB04F3134403F271131B785FFA45
:1053600083FE72467A60764A4FF4E47303FB04F3DB
:10537000134403F5B9731B785FFA83FE71463960F5
:105380006F4A4FF4E47303FB04F3134403F2731303
:105390001B78D9B26A4A4FF4E47303FB04F3134455
:1053A00003F5BA731B78DBB208930791396806914D
:1053B0007A680592BB680493F96803910296019597
:1053C00000903B697A69B969F869FEF789FE00E0E7
:1053D00000BFD7E25A4A4FF4E47303FB04F31344CB
:1053E00003F5B8731B78DBB2042B00F2338201A201
:1053F00052F823F0095401004554010045550100BD
:1054000075560100815901004FF4E47303FB04F366
:10541000C0334B4A1344981D494A4FF4E47303FBCD
:1054200004F3134403F5C6731968454A4FF4E47353
:1054300003FB04F3134403F5CA731B681A46FFF712
:105440002FF89EE24FF4E47303FB04F3C0333C4AAD
:105450001344981D3A4A4FF4E47303FB04F31344D6
:1054600003F5C6731A6836494FF4E47303FB04F37B
:105470000B4403F5C8731B68D118314A4FF4E47329
:1054800003FB04F3134403F5CA731B681A46FFF7C2
:1054900007F82B4A4FF4E47303FB04F3134403F5BA
:1054A000C6731E68264A4FF4E47303FB04F31344E7
:1054B00003F5CA731B68FB61214A4FF4E47303FBD5
:1054C00004F3134403F5CE731A68BA611C4A4FF40F
:1054D000E47303FB04F3134403F5CC731B68A3F1DB
:1054E000020E4FF4E47303FB04F3154A134414490A
:1054F0004FF4E47202FB04F20A4402F5DA72126815
:105500000F484FF4E47101FB04F1014401F5DE7131
:1055100009680B4D4FF4E47000FB04F0284400F2DE
:1055200071100078C0B20425049503900291019295
:1055300000937346BA69F9693046FEF7D7FE20E258
:1055400050A500104A4A4FF4E47303FB04F31344DC
:1055500003F5C6731B68FB61454A4FF4E47303FB14
:1055600004F3134403F5CA731A68BA61404A4FF44E
:10557000E47303FB04F3134403F5CE731D687D61EC
:105580003B4A4FF4E47303FB04F3134403F5CC7379
:105590001E683E614FF4E47303FB04F3344A981829
:1055A000334A4FF4E47303FB04F3134403F5D87355
:1055B0001D682F4A4FF4E47303FB04F3134403F50F
:1055C000DA731E682A4A4FF4E47303FB04F31344AE
:1055D00003F5DC731968F960254A4FF4E47303FBA3
:1055E00004F3134403F5DE731B68BB60204A4FF4D9
:1055F000E47303FB04F3134403F271131B785FFAA3
:1056000083FE72467A601A4A4FF4E47303FB04F394
:10561000134403F5B9731B785FFA83FE7146396052
:10562000134A4FF4E47303FB04F3134403F27313BC
:105630001B78D9B20E4A4FF4E47303FB04F313440E
:1056400003F5BA731B78DBB20893079139680691AA
:105650007A680592BB680493F968039102960195F4
:1056600000903B697A69B969F869FEF739FD88E10C
:1056700050A50010764A4FF4E47303FB04F313447F
:1056800003F5C6731B68FB61714A4FF4E47303FBB7
:1056900004F3134403F5CA731A68BA616C4A4FF4F1
:1056A000E47303FB04F3134403F5CE731D687D61BB
:1056B000674A4FF4E47303FB04F3134403F5CC731C
:1056C0001E683E614FF4E47303FB04F3604A9818CC
:1056D0005F4A4FF4E47303FB04F3134403F5D873F8
:1056E0001D685B4A4FF4E47303FB04F3134403F5B2
:1056F000DA731E68564A4FF4E47303FB04F3134451
:1057000003F5DC731968F960514A4FF4E47303FB45
:1057100004F3134403F5DE731B68BB604C4A4FF47B
:10572000E47303FB04F3134403F271131B785FFA71
:1057300083FE72467A60464A4FF4E47303FB04F337
:10574000134403F5B9731B785FFA83FE7146396021
:105750003F4A4FF4E47303FB04F3134403F273135F
:105760001B78D9B23A4A4FF4E47303FB04F31344B1
:1057700003F5BA731B78DBB2089307913968069179
:105780007A680592BB680493F968039102960195C3
:1057900000903B697A69B969F869FEF7A1FC2C4A67
:1057A0004FF4E47303FB04F3134403F5C6731E685C
:1057B000274A4FF4E47303FB04F3134403F5CA735D
:1057C0001B68FB61224A4FF4E47303FB04F31344A8
:1057D00003F5CE731A68BA611D4A4FF4E47303FBF4
:1057E00004F3134403F5CC731B68A3F1020E4FF4CA
:1057F000E47303FB04F31833154A134406331449C6
:105800004FF4E47202FB04F20A4402F5DA72126801
:105810000F484FF4E47101FB04F1014401F5E0711C
:1058200009680B4D4FF4E47000FB04F0284400F2CB
:1058300071100078C0B20425049503900291019282
:1058400000937346BA69F9693046FEF74FFD98E058
:1058500050A50010B74A4FF4E47303FB04F313445C
:1058600003F5C6731B68FB61B24A4FF4E47303FB94
:1058700004F3134403F5CA731A68BA61AD4A4FF4CE
:10588000E47303FB04F3134403F5CE731D687D61D9
:10589000A84A4FF4E47303FB04F3134403F5CC73F9
:1058A0001E683E614FF4E47303FB04F3A14A9818A9
:1058B000A04A4FF4E47303FB04F3134403F5D873D5
:1058C0001D689C4A4FF4E47303FB04F3134403F58F
:1058D000DA731E68974A4FF4E47303FB04F313442E
:1058E00003F5DC731968F960924A4FF4E47303FB23
:1058F00004F3134403F5DE731B68BB608D4A4FF459
:10590000E47303FB04F3134403F271131B785FFA8F
:1059100083FE72467A60874A4FF4E47303FB04F314
:10592000134403F5B9731B785FFA83FE714639603F
:10593000804A4FF4E47303FB04F3134403F273133C
:105940001B78D9B27B4A4FF4E47303FB04F313448E
:1059500003F5BA731B78DBB2089307913968069197
:105960007A680592BB680493F968039102960195E1
:1059700000903B697A69B969F869FEF7B1FB00E00C
:1059800000BF00BF6B4A4FF4E47303FB04F31344FE
:1059900003F27D131B78DBB2012B04D0022B00F045
:1059A000B280002BB0E0634A4FF4E47303FB04F3CE
:1059B000134403F5C4731B78DBB2002B02D0032B16
:1059C00011D014E05B4A4FF4E47303FB04F3134477
:1059D00003F5D0731B889BB2DAB2574B1A70574B42
:1059E00001221A7003E0564B01221A7000BF514A7F
:1059F0004FF4E47303FB04F3134403F5AA731B7819
:105A0000DBB2FF2B13D04B4A4FF4E47303FB04F3D8
:105A1000134403F5A8731B6846494FF4E47202FB74
:105A200004F20A4402F5AA721278D2B21A70414AFC
:105A30004FF4E47303FB04F3134403F5AE731B78D4
:105A4000DBB2FF2B13D03B4A4FF4E47303FB04F3A8
:105A5000134403F5AC731B6836494FF4E47202FB40
:105A600004F20A4402F5AE721278D2B21A70314AC8
:105A70004FF4E47303FB04F3134403F5B2731B8880
:105A80009BB24FF6FF72934213D02A4A4FF4E4734D
:105A900003FB04F3134403F5B0731B6825494FF46B
:105AA000E47202FB04F20A4402F5B272128892B266
:105AB0001A80204A4FF4E47303FB04F3134403F504
:105AC000B6731B68B3F1FF3F12D01A4A4FF4E47368
:105AD00003FB04F3134403F5B4731B6815494FF437
:105AE000E47202FB04F20A4402F5B67212681A600C
:105AF000104A4FF4E47303FB04F3134403F5E27319
:105B00001B68984700E000BF0A4A4FF4E47303FBA8
:105B100004F3134403F27F1301221A700134094B7A
:105B20001B78DBB2A342BFF65FA900BF2437BD4696
:105B3000F0BD00BF50A50010BA900010BAA200102E
:105B4000B6900010BF90001080B483B000AF034641
:105B50000A46FB711346BB71BB79002B09D10C4976
:105B60000B4BDB69FA79012000FA02F21343CB6197
:105B700008E00749064B9B69FA79012000FA02F216
:105B800013438B6100BF0C37BD4680BC704700BF1C
:105B90004080092090B583B000AF0023FB713B46E5
:105BA0000E4A19460E48FBF747F90346FB71FB798D
:105BB000002B04D04FF000034FF0000409E0074B26
:105BC0001B685B69054A1268528902FB03F34FF0B8
:105BD0000004184621460C37BD4690BD68A1001050
:105BE00084C9040080B582B000AF7860796803484A
:105BF000F4F704FD00BF0837BD4680BD00400240F9
:105C000080B588B000AF3B461846FFF7EBFFFB6955
:105C1000A3F2BC735A06BB695B051A43FB681B04FD
:105C20001A43BB68DB021A437B685B011A433B687B
:105C30005B08134318462037BD4680BD80B400AFD3
:105C4000174B002283F82020154A164B9B7803F04F
:105C50003F03DBB282F82430114A124BDB7803F0A9
:105C60001F03DBB282F828300D4A0E4B1B7903F07C
:105C70001F03DBB282F82C30094A0A4B5B7903F030
:105C80000F03DBB282F83830054A064BDB88C3F3DA
:105C90000B039BB2938700BFBD4680BC704700BF1B
:105CA000004002405CA1001080B500AF00211F48F9
:105CB000F4F74CFC0346DAB21D4B5A7001211B4825
:105CC000F4F744FC0346DAB2194B9A7002211748E4
:105CD000F4F73CFC0346DAB2154BDA7004211348A2
:105CE000F4F734FC0346DAB2114B1A7106210F485F
:105CF000F4F72CFC0346DAB20D4B5A7107210B481E
:105D0000F4F724FC03469AB2094BDA80084B187961
:105D1000074B5979064BDB881A4600F073F80346A7
:105D20001A46034B1A7000BF80BD00BF00400240FE
:105D30005CA1001080B483B000AF0346FB710B463A
:105D4000BB711346BB80FB79002B55D0FB791F2B11
:105D500052D8BB79002B4FD0BB790C2B4CD8BB88C9
:105D600040F26B72934247D9BB8840F634029342AB
:105D700042D8FB791D2B0AD1BB79022B07D1BB88F6
:105D800003F003039BB2002B01D1002335E0FB7924
:105D90001C2B04D8BB79022B01D100232DE0FB7909
:105DA0001E2B0DD8BB79042B08D0BB79062B05D050
:105DB000BB79092B02D0BB790B2B01D100231CE04E
:105DC000FB791F2B16D8BB79012B11D0BB79032B84
:105DD0000ED0BB79052B0BD0BB79072B08D0BB7934
:105DE000082B05D0BB790A2B02D0BB790C2B01D133
:105DF000002302E0012300E0012318460C37BD46D2
:105E000080BC704790B486B000AF0346FB710B4670
:105E1000BB711346BB80BB79C3F10E03254A82FBDD
:105E200003125210DB17D31A7B61B9797A691346D2
:105E30005B0013449B000B44023B3B61BA887B69C7
:105E4000D31AFB60F9793A6913465B0013449B004F
:105E50001344013B184A82FB03025210DB17D31A8A
:105E6000CA18FB681A44FB68002B00DA03339B1046
:105E70001A44FB68114981FB03014911DB17CB1A56
:105E8000D21AFB680D4981FB0301C911DB17CB1A3C
:105E90001A440B4B82FB033413199910D317C91AF8
:105EA0000B46DB005B1AD11ACBB218461837BD4639
:105EB00090BC7047ABAAAA2A676666661F85EB513D
:105EC0009324499280B582B000AF0346FB71FB7901
:105ED000062B6CD801A252F823F000BFF95E010036
:105EE000135F01002D5F0100475F0100615F01004A
:105EF0007B5F0100955F01002F4B1B78DBB21A46D8
:105F00002E4B53F822301A460F212D4832F0CEFC8A
:105F10004DE0294B1B78DBB21A462A4B53F822304E
:105F20001A460F21264832F0C1FC40E0224B1B7874
:105F3000DBB21A46244B53F822301A460F21204870
:105F400032F0B4FC33E01C4B1B78DBB21A461F4B1B
:105F500053F822301A460F21194832F0A7FC26E0E8
:105F6000154B1B78DBB21A46194B53F822301A46F0
:105F70000F21134832F09AFC19E00F4B1B78DBB26B
:105F80001A46144B53F822301A460F210C4832F0AF
:105F90008DFC0CE0084B1B78DBB21A460E4B53F815
:105FA00022301A460F21064832F080FC00BF012340
:105FB00018460837BD4680BDBE900010D40C0010B6
:105FC000C89F0010E40C0010F40C0010040D001029
:105FD000140D0010240D0010340D001080B483B097
:105FE00000AF0346FB710B46BB7113467B71FB7917
:105FF000172B01D901230AE0BB793B2B01D90123DF
:1060000005E07B793B2B01D9012300E000231846F2
:106010000C37BD4680BC704780B500AF01215248A7
:10602000F4F734FB0346002B00F06C824F4B1B88C7
:106030009AB24F4B1A804F4B1B889AB24E4B1A8024
:106040004E4B1B889AB24E4B1A804E4B1B889AB20D
:106050004D4B1A804B4B00221A80484B00221A806D
:10606000424B00221A80434B00221A80474B1B7878
:10607000DBB203F00103002B20D0454B1B78DBB2D1
:10608000002B06D0424B1B78DBB2013BDAB2404B0F
:106090001A70404B1B78DBB25B00DAB23D4B1A70D2
:1060A0003C4B1B78DBB2402B02D93A4B01221A70D1
:1060B000384B1B78DBB29AB2374B1A80374B1B78C0
:1060C000DBB2002B0BD0364B1B78DBB2002B06D09B
:1060D000324B1B78DBB2013BDAB2304B1A70304BDB
:1060E0001B78DBB2002B17D02C4B1B78DBB2002BBC
:1060F00012D1264B1B78DBB223F00103DAB2234B1B
:106100001A70284B1B78DBB243F01003DAB2254B30
:106110001A70254B00221A70224B1B78DBB2002B21
:1061200009D0224BDB78DBB2012B04D0204B1B784B
:10613000DBB2662B5BD11F4B1B78DBB2002B06D08A
:106140001D4B1B78DBB20133DAB21B4B1A701B4BB1
:106150001B78DBB2022B33D8184B1B78DBB2013330
:10616000DAB2164B1A7042E000400240169300105B
:106170000E9300101A930010109300101893001043
:10618000129300101C93001014930010C99000107B
:10619000C8900010F0F9F8A0C0990010F80E001097
:1061A000F90E0010F8900010F990001090EC00101B
:1061B000F8920010FA900010FB900010DB90001095
:1061C0004C4B9A684C4B1B689A4210D94A4B1B683F
:1061D0000133494A1360494B1B68002B04D0474BDD
:1061E0001B68013B454A1360454B01221A70454B21
:1061F0001B78DBB2002B0ED0424B1B78DBB2013B8D
:10620000DAB2404B1A703F4B1B78DBB2002B02D145
:106210003D4B00221A703D4B1B78DBB2002B08D09F
:106220003B4B1B68002B04D0394B1B68013B384AA1
:106230001360384B1B78DBB2072B04D0354B1B782F
:10624000DBB2022B02D12E4B01221A70324B1B788B
:10625000DBB20A2B09D0304B1B78DBB2642B04D0A5
:106260002D4B1B78DBB2102B0ED12C4B1B78DBB2E5
:10627000002B09D0294B1B78DBB2013BDAB2274B4C
:106280001A701F4B01221A70234B1B78DBB2132BA1
:1062900002D11B4B01221A701F4B1B78DBB2112B52
:1062A00017D11F4B1B78DBB2002B06D01C4B1B7881
:1062B000DBB2013BDAB21A4B1A701A4B1B78DBB215
:1062C000182B06D8174B1B78DBB20133DAB2154B0B
:1062D0001A70154B1B78DBB2002B29D10E4B1B78A3
:1062E000DBB20C2B38D1104B0A221A700F4B1E2236
:1062F0001A7031E09CA20010F0900010EC90001099
:10630000B690001000930010FB920010DC9000107B
:10631000E0900010BA900010F8920010D090001099
:10632000D6900010D4900010049300100593001034
:10633000754B1B78DBB2013BDAB2734B1A70724BB0
:106340001B78DBB2002B07D1704B1B78DBB20C2B18
:1063500002D16F4B04221A706E4B1B78DBB2002BFC
:106360000ED06C4B1B78DBB2013BDAB2694B1A7072
:10637000684B1B78DBB2002B02D1674B00221A70EE
:10638000664B1B889BB2002B06D0644B1B889BB2CC
:10639000013B9AB2614B1A80614B1B889BB2002B68
:1063A00006D05F4B1B889BB2013B9AB25C4B1A80B4
:1063B0005C4B1B889BB2002B06D05A4B1B889BB2B0
:1063C000013B9AB2574B1A80574B1B78DBB2002B1C
:1063D00006D0554B1B78DBB2013BDAB2524B1A7038
:1063E000524B1B78DBB2002B13D0504B1B78DBB227
:1063F000013BDAB24D4B1A704C4B1B78DBB2002BD1
:1064000007D1424B1B78DBB2022B02D1404B072253
:106410001A70F5F799FC0346002B02D1444B002279
:106420001A70444BDB78DBB2012B1CD1424B5A680B
:10643000424B5B689A4216DD404B5B6812333F4A21
:1064400053603E4B9B6812333C4A93603B4B5B6806
:10645000B3F5067F07DD394B4FF406725A60374BB0
:106460004FF406729A60FFF71FFC354B1B78DBB2C6
:106470000133DAB2324B1A70314B1B78DBB23B2B53
:1064800009D92F4B00221A702E4B1B78DBB2013337
:10649000DAB22C4B1A702B4B1B78DBB23B2B09D991
:1064A000284B00221A70284B1B78DBB20133DAB27A
:1064B000254B1A70254B1B78DBB2012B06D9234BD9
:1064C0001B78DBB2013BDAB2204B1A70204B1B78F1
:1064D000DBB2002B06D01E4B1B78DBB2013BDAB2DD
:1064E0001B4B1A701B4B1B78DBB2002B06D0194BD1
:1064F0001B78DBB2013BDAB2164B1A700121164849
:10650000F4F7DAF800BF80BD04930010F892001091
:10651000BA90001005930010FB920010FA0E0010C4
:10652000FC0E0010FE0E00100E910010130F001054
:106530000893001090EC00109CA2001080A20010A4
:10654000D1900010D2900010D39000100D93001045
:10655000FF9000100F9100100040024080B582B003
:1065600000AF3B600346FB710B46BB711346BB801B
:10657000264B1B78DBB2FA799A4242D1244B1B7826
:10658000DBB2BA799A423CD1224B1B78DBB203F0E2
:106590000103002B35D1BB88102B32D11E4B1B7849
:1065A000DBB2002B2DD1194B1B78D8B2184B1B78BE
:1065B000D9B2002340F20112FCF7D8F9174B05229B
:1065C0001A70144B1B78DBB243F00103DAB2114BA3
:1065D0001A70134B1B78DBB243F00103DAB2104B95
:1065E0001A70104B4FF0FF321A600F4B4FF0FF3212
:1065F0001A600E4B1B78DBB223F01003DAB20B4BA0
:106600001A7000BF0837BD4680BD00BFF70E0010EE
:10661000F50E0010C9900010CB900010C89000102B
:10662000CA900010E8900010E4900010F89000105C
:1066300080B483B000AF3B600346FB710B46BB7177
:106640001346BB8000BF0C37BD4680BC704700BFFF
:1066500080B483B000AF3B600346FB710B46BB7157
:106660001346BB805E4B1B78DBB203F00103002BAB
:1066700000F0B0805B4B1B78DBB2BA799A4240F0F5
:10668000A980594B1B78DBB2FA799A4240F0A2807C
:10669000BB88A3F5A043013B162B00F29B8001A20F
:1066A00052F823F0B367010001670100276701007A
:1066B000496701006B6701007D6701008F6701007A
:1066C000A1670100D5670100D5670100D56701000A
:1066D000D5670100D5670100D5670100D5670100C6
:1066E000D5670100D5670100D5670100D5670100B6
:1066F000D5670100D5670100CD670100156701006E
:106700003A4B00221A703A4B00221A70394A3B6801
:1067100013605FE03A681346DB0013445B001A46DF
:10672000354B1A6056E03A681346DB0013445B00B1
:106730001A46314B5A60314B1B78DBB243F00103F0
:10674000DAB22E4B1A7045E03A681346DB00134468
:106750005B001A46284B9A60284B1B78DBB243F04B
:106760000203DAB2254B1A7034E03A681346DB00B4
:1067700013445B001A46204BDA602BE03A6813465C
:10678000DB0013445B001A461B4B1A6122E03A6897
:106790001346DB0013445B001A46174B5A6119E09D
:1067A0003A681346DB0013445B001A46124B9A61A9
:1067B00010E03B689AB2124B1A80104B1B78DBB288
:1067C00043F00403DAB20D4B1A7003E00D4A3B6844
:1067D000136000BF00BF0C37BD4680BC704700BFD0
:1067E000C9900010F50E0010F70E0010F90E001001
:1067F000F80E0010CC90001080A20010F99000104C
:10680000F4F9F8A004FAF8A080B483B000AF3B60BC
:106810000346FB710B46BB711346BB80154B1B78BF
:10682000DBB203F00103002B1ED0134B1B78DBB24D
:10683000BA799A4218D1114B1B78DBB2FA799A4295
:1068400012D1BB8845F20102934204D045F21602F0
:10685000934205D008E03B689AB2094B1A8003E0E6
:10686000084A3B68136000BF00BF0C37BD4680BCC0
:10687000704700BFC9900010F50E0010F70E001011
:10688000F4F9F8A004FAF8A080B500AFAB4B1B7880
:10689000DBB203F00103002B00F0F281A84B1B7860
:1068A000DBB2002B40F0EC81A64B1B78DBB203F08F
:1068B0000103002B00F08980A34B1B78D8B2A34BB7
:1068C0001B78D9B23C234FF48272FCF74FF80120B9
:1068D000F5F7F4FF9E4A1368042161F30203136085
:1068E0009B4A13686FF3C6031360994A136845F215
:1068F000010161F31F431360934B1B78D8B2934B94
:106900001B78D9B2924B1B6841F20D02FCF72EF8AE
:106910000120F5F7D3FF8E4A1368042161F30203C7
:1069200013608B4A1368012161F3C6031360884A20
:10693000136845F2160161F31F431360824B1B7805
:10694000D8B2824B1B78D9B2814B1B6841F20D0241
:10695000FCF70CF80120F5F7B1FF7E4B1B78DBB29A
:10696000112B2AD07C4A1368062161F302031360BD
:10697000794A13686FF3C6031360774A13686FF39D
:10698000CF131360744A13680F2161F31743136028
:10699000714A1368152161F31F6313606A4B1B78FA
:1069A000D8B26A4B1B78D9B26B4B1B6841F20C0210
:1069B000FBF7DCFF0120F5F781FF624B1B78DBB2B0
:1069C00023F00103DAB25F4B1A70644B1B78DBB221
:1069D000002B06D0624B1B88C3F34013DBB2002BA5
:1069E00015D0594B1B78D8B2584B1B78D9B200231D
:1069F00040F20312FBF7BAFF584B04221A70584AB0
:106A000013886FF3451313800120F5F757FF554B9B
:106A10001A68554B1B689A4221D0524A138843F09A
:106A2000010313804F4A138843F0020313804D4A39
:106A3000138843F004031380434B1B78D8B2434BB5
:106A40001B78D9B2474B1B6841F20A02FBF78EFF55
:106A5000444B1B68444A13600120F5F72FFF434B5A
:106A60001A68434B1B689A4212D0374B1B78D8B236
:106A7000364B1B78D9B23D4B1B6841F20702FBF73E
:106A800075FF3A4B1B683A4A13600120F5F716FF71
:106A9000384B1B889AB2384B1B889BB29A4206D15E
:106AA0002F4B1B88C3F3C003DBB2002B19D0264B3E
:106AB0001B78D8B2254B1B78D9B22E4B1B889BB2C2
:106AC00041F20202FBF752FF2A4B1B889AB22A4B73
:106AD0001A80234A13886FF3C30313800120F5F74C
:106AE000EDFE1F4B1B88C3F30003DBB2002B18D055
:106AF000154B1B78D8B2154B1B78D9B2002345F241
:106B00000202FBF787FF1D4B02221A701C4B012269
:106B10001A70134A13886FF3000313800120F5F7EE
:106B2000CDFE0F4B1B88C3F34003DBB2002B00F0FC
:106B30008D80054B1B78D8B224E000BFC9900010AF
:106B4000CB900010CA900010F70E0010F50E001048
:106B500008FAF8A0F89200104CA50010C890001098
:106B6000C099001000FAF8A0E8900010FCF9F8A015
:106B7000E4900010F8F9F8A0FAF9F8A0F80E001067
:106B8000F90E00103F4B1B78D9B2002345F21702D3
:106B9000FBF740FF0120F5F791FE3B4B1B78D8B285
:106BA000384B1B78D9B2002345F20302FBF732FFC2
:106BB0000120F5F783FE344B1B78D8B2314B1B789C
:106BC000D9B2002345F20402FBF724FF0120F5F7B8
:106BD00075FE2D4B1B78D8B22A4B1B78D9B20023F7
:106BE00045F20502FBF716FF0120F5F767FE264B7D
:106BF0001B78D8B2234B1B78D9B2002345F206028A
:106C0000FBF708FF0120F5F759FE1F4B1B78D8B2A0
:106C10001C4B1B78D9B2002345F20702FBF7FAFEA2
:106C20000120F5F74BFE184B1B78D8B2154B1B789B
:106C3000D9B2002345F20802FBF7ECFE0120F5F77C
:106C40003DFE124A13886FF3410313800F4B1B88DC
:106C5000C3F38003DBB2002B12D00B4B1B78D8B2EE
:106C6000084B1B78D9B2002345F20102FBF7D2FE94
:106C70000120F5F723FE054A13886FF38203138082
:106C800000BF80BDF50E0010F70E0010C099001077
:106C900080B500AF1C22FF21634831F092F80C222E
:106CA0000021624831F08DF8614B01221A80614B5E
:106CB00000221A60604B00221A60604B00221A808A
:106CC0005F4B00221A605F4B4FF6FF721A805E4BDB
:106CD00000221A705D4B4FF0FF321A605C4B4FF090
:106CE000FF321A605B4B01221A704FF48032002190
:106CF000594831F066F84FF400320021574831F01E
:106D000060F84FF400320021554831F05AF84FF442
:106D100000320021534831F054F84FF48022002112
:106D2000514831F04EF84FF4802200214F4831F0A5
:106D300048F84FF4802200214D4831F042F84FF4DA
:106D4000002200214B4831F03CF84FF40032002182
:106D5000494831F036F84FF400220021474831F01D
:106D600030F84FF400220021454831F02AF84FF462
:106D700000420021434831F024F84FF480220021E2
:106D8000414831F01EF84FF4802200213F4831F095
:106D900018F83F4B00221A703E4B00221A703E4BEF
:106DA0004FF6FF721A80214B41F2B0325A601F4BEE
:106DB00005229A601D4B00221A701C4B00225A803B
:106DC0001A4B00225A70354B41F2B0325A621A4ABD
:106DD000138843F480631380174A1388012161F3F9
:106DE000CC231380144A138843F0080313802C4BE0
:106DF00000221A70294B0022DA702A4B1B78DBB272
:106E0000002B04D0254BDB6D0133244AD3650622C9
:106E10002549264830F0D1FF06222549254830F083
:106E2000CCFF00BF80BD00BF80A200109CA200105C
:106E3000C0990010FCF9F8A000FAF8A0F8F9F8A041
:106E400004FAF8A0F4F9F8A064A10010E89000108A
:106E5000E4900010F0F9F8A014FAF8A014FAF9A0E0
:106E600014FAFBA014FAFDA014FAFFA014FA03A16F
:106E700014FA07A114FA0BA114FA13A114FA15A11C
:106E800014FA1DA114FA25A1147A26A1147A2AA1B4
:106E9000F8900010FB920010FAF9F8A090EC0010A6
:106EA000BE9000100C910010B8EC00101C0F0010E8
:106EB000BEEC0010140F001080B584B000AF7860F5
:106EC00039600023BB607B68002B02DB3B68002B32
:106ED00009DA0123BB60786832F01EFD78603868FB
:106EE00032F01AFD38603B68002B0FD00123FB60A5
:106EF00005E0FA6813469B0013445B00FB603A68A8
:106F0000FB6892FBF3F3002BF3D101E00A23FB6053
:106F1000BB68002B07D07B68FA6802FB03F23B6872
:106F200013445B4205E07B68FA6802FB03F23B68AE
:106F3000134418461037BD4680BD00BF80B582B0EF
:106F400000AF78607B6842F22832934203DC7B68B2
:106F5000274A93420CDA274B1B78DBB21A46264BA2
:106F600053F82230254A0A21254831F09FFC3AE0A7
:106F7000244B93F82030DBB2012B13D0022B21D00D
:106F8000002B00D02FE07B681F4A82FB0312921077
:106F9000DB17D31A7B607B681C4A0A21184831F042
:106FA00085FC20E07B681A4A82FB03129210DB17F3
:106FB000D31A20337B607B68164A0A21104831F0CF
:106FC00075FC10E07B68104A82FB03129210DB17FD
:106FD000D31A03F211137B607B680F4A0A21084819
:106FE00031F064FC00BF7B6818460837BD4680BDA1
:106FF000D8DCFFFFBE900010640100109CAE0400BE
:10700000B0A2001090EC0010398EE33888C904005B
:107010006766666690C9040098C9040080B5ADF53E
:10702000127D00AF07F10C03186007F10803196027
:107030003B1D1A600023C7F8443207F114030022F5
:107040001A6007F10C0307F1180001221968F8F71C
:107050003DFF0346002B2ED107F11803DB68C7F86C
:10706000443207F11403391D07F11800D7F8442200
:107070000968F9F7E7F807F118031846F9F780FBF4
:1070800007F118031846F9F7F9FB07F114031B6819
:10709000D7F844229A4204D00B4B01221A700123E4
:1070A0000DE007F108013B1D084A096818682AF03D
:1070B00079FE002303E0044B01221A7002231846D4
:1070C00007F51277BD4680BD2093001010430500E0
:1070D00080B582B000AF0023FB712C4B00221A80D8
:1070E00000F00CFB2A4BFF221A602A4B00221A6088
:1070F000294B00229A600023FB711CE0FA79274992
:107100001346DB009B1A1B010B4478331B78DBB260
:10711000012B0DD1FA7921491346DB009B1A1B0183
:107120000B44E4331B681C4A926813441A4A936068
:10713000FB790133FB71FB79072BDFD9134B00225D
:107140001A80124B1B889BB21946144A0B46DB006F
:107150005B1A1B011344E4331B68114A13600B4B89
:107160001B889BB219460D4A0B46DB005B1A1B01BC
:10717000134479331B78DBB2002B02D0094B012278
:107180001A7000BF0837BD4680BD00BF18910010BF
:10719000F4900010F09000109CA20010D09B001002
:1071A000EC9000100491001080B483B000AF002375
:1071B000FB710023FB7149E0FA7928491346DB0093
:1071C0009B1A1B010B4478331B78DBB2012B3AD19D
:1071D000FA7922491346DB009B1A1B010B44DE336C
:1071E0001B78DBB29AB21E4B5A80FA791B491346C0
:1071F000DB009B1A1B010B44E0331B68184A5360E9
:10720000FA7916491346DB009B1A1B010B44E43341
:107210001B68134A9360FA7910491346DB009B1AE6
:107220001B010B44DD331B78DAB20D4B1A70FA796F
:107230000A491346DB009B1A1B010B44DF331B7802
:10724000DAB2074B5A70FB790133FB71FB79072BDC
:10725000B2D900BF0C37BD4680BC7047D09B001030
:107260009CA2001080B400AF4B4B1B78DBB20A2B02
:1072700005D0494B1B78DBB2102B40F08880474B80
:107280001B78DBB2002B00F08280454B1B68002B83
:107290007DD1444B1B78DBB203F00403002B76D185
:1072A000414B1B889BB2062B71D83F4B1B889BB26E
:1072B00001339AB23C4B1A803B4B1B889BB2194658
:1072C0003A4A0B46DB005B1A1B01134478331B78E8
:1072D000DBB2012B5BD1344B1B889BB21946334A7E
:1072E0000B46DB005B1A1B011344E4331B682C4A7A
:1072F00013602D4B1B889BB219462C4A0B46DB00B2
:107300005B1A1B011344DE331B78DBB29AB2284BA5
:107310005A80254B1B889BB21946244A0B46DB003A
:107320005B1A1B011344E0331B68214A53601E4B58
:107330001B889BB219461D4A0B46DB005B1A1B01DA
:107340001344DD331B78DAB2194B1A70164B1B88C5
:107350009BB21946154A0B46DB005B1A1B0113440E
:10736000DF331B78DAB2124B5A700F4B1B889BB27B
:1073700019460E4A0B46DB005B1A1B011344793396
:107380001B78DBB2002B02D00A4B01221A7000BF1F
:10739000BD4680BC704700BFF892001006910010F7
:1073A000EC900010F890001018910010D09B001085
:1073B0009CA200100491001080B400AF1E4B1B78FB
:1073C000DBB2002B2FD11D4B5B889BB2002B05D16C
:1073D0001B4A13886FF30003138029E0194B1B78B5
:1073E000DBB21946154B5B889BB2174AA2FB0323FD
:1073F000DB089BB21A46154B9B5CDBB21A466FF05A
:10740000090303FB02F303F59673994205DC0C4A6A
:10741000138843F0010313800AE0094A13886FF3CD
:107420000003138004E0064A13886FF300031380FF
:1074300000BFBD4680BC7047020F00109CA2001028
:10744000F8F9F8A000910010CDCCCCCC080F0010BA
:1074500080B483B000AF00237B600023FB70002367
:10746000BB70504B1B78DBB2002B0AD14E4B5B68D4
:107470007B604D4B5B78FB704B4B5B889BB2BB706A
:1074800006E04A4B9B687B606423FB700023BB7063
:10749000474B1B78DBB21946FB78C3F164036422C7
:1074A00002FB03F3434A82FB03025211DB17D31A98
:1074B000013B994219DA404A13886FF3C3031380E2
:1074C000BB78002B54D03D4B5A687B68013B9A42F5
:1074D00005DA394A138843F00403138048E0364A3A
:1074E00013886FF38203138042E0314B1B78DBB2C9
:1074F0001946FB78C3F16403642202FB03F32D4AAF
:1075000082FB03025211DB17D31A99420ADA2A4A84
:1075100013886FF382031380274A13886FF3C30322
:10752000138025E0224B1B78DBB2622B16D8224A4F
:1075300013886FF382031380204B9A687B68013BAA
:107540009A4205DA1C4A138843F0080313800FE0BF
:10755000194A13886FF3C303138009E0164A13888E
:107560006FF382031380144A13886FF3C3031380ED
:10757000BB78002B10D1114B5A687B68013B9A42B3
:1075800005DA0D4A138843F00403138004E00A4A25
:1075900013886FF38203138000BF0C37BD4680BC95
:1075A000704700BF020F00109CA2001090EC00106A
:1075B000019100101F85EB51F8F9F8A080A200108E
:1075C00080B400AF194B9A68194B1B689A4229D8AE
:1075D000184B1B78DBB203F00403002B22D1164BAF
:1075E0001B78DBB2002B1DD0124B1B78DBB243F0B3
:1075F0000403DAB20F4B1A70104B01221A700D4BB4
:107600001B78DBB203F00403002B0BD00C4B1B7870
:10761000DBB2102B03D10B4B5D221A7002E0094B39
:107620000C221A7000BFBD4680BC70479CA200109F
:10763000F0900010F890001006910010B690001025
:10764000F8920010BA90001080B58AB00AAF184BBB
:107650001B78DBB2002B0ED00022002115482CF045
:107660004DFB15482AF02FFC14482AF02CFC144836
:107670002AF029FC19E00023089300230793022332
:107680000693022305930F4B04930F4B03930E4B6A
:1076900002930D4B01930D4B00934FF4F0734FF495
:1076A000487200210020FCF71BFD00BFBD4680BDD5
:1076B0000A930010147A2AA1AF6E7200FEFEFE003B
:1076C0007E162D0038D504001F634100C0AE0400B3
:1076D00080B500AF064B1B78DBB29BB21A4605495A
:1076E000054825F0DDFB00F009F800BF80BD00BFB4
:1076F0000291001008A200109CC9040080B582B05D
:1077000000AF0023FB715B4B5B4A4FF400715B4899
:1077100031F0CCF85A4B1B889BB21A46594957484E
:1077200025F0BEFB78225749574830F046FB574BAF
:107730001B78DBB2002B40F096804FF47E72002164
:10774000534830F03EFB0C220021524830F039FB08
:107750004F494D4825F02EF80346002B6CD10023ED
:10776000FB711BE0FA794A491346DB009B1A1B01A7
:107770000B4478331B78DBB2012B0CD0FA7913461B
:10778000DB009B1A1B017833414A1344702200210D
:10779000184630F016FBFB790133FB71FB79072BA0
:1077A000E0D93D4B1B889BB21946394A0B46DB009A
:1077B0005B1A1B011344DE331B78DBB29AB2354BE4
:1077C0005A80354B1B889BB21946314A0B46DB0069
:1077D0005B1A1B011344E0331B682E4A53602E4B87
:1077E0001B889BB219462A4A0B46DB005B1A1B0119
:1077F0001344E4331B68274A9360274B1B889BB2D2
:107800001946234A0B46DB005B1A1B011344DD3388
:107810001B78DAB21F4B1A701F4B1B889BB219469C
:107820001B4A0B46DB005B1A1B011344DF331B783A
:10783000DAB2184B5A7016E04FF47E7200211448E9
:1078400030F0BFFA154A1E21154831F02FF8114BC0
:1078500000225A800F4B00225A600E4B00221A70F1
:107860000C4B00225A700F4824F0E2FD00BF08378D
:10787000BD4680BD08A20010B0C90400C499001024
:107880001491001070A10010D0A40010DA90001024
:10789000D09B00109CA2001018910010BCC90400DD
:1078A000D49B001002A5001080B500AF064B1B78DA
:1078B000DBB29BB21A460549054825F0F1FA0548A6
:1078C00024F0B6FD00BF80BD0291001008A2001098
:1078D0009CC904003AA2001080B586B006AF7B4B6D
:1078E0001B78DBB2072B4AD1794B00221A70794BF7
:1078F00002221A70784A1E21784830F0D7FF2A23D6
:107900004FF482725A21802028F0B8F80246744B56
:107910001A60734B1B68184628F0B8F8FFF794FEFE
:1079200002230493022303936E4B02936E4B019345
:107930006A4B00932A234FF482725A218020FCF76D
:10794000D5FC0423049302230393664B0293664BF6
:107950000193664B00932A234FF482725A218020B0
:10796000FCF7C4FC002028F091F85D4B1B6818461A
:1079700028F010F95A4B1B68184628F015F8534B9D
:107980001B78DBB2082B4AD1514B00221A70514BA5
:1079900002221A70504A1E21504830F087FF2A23D5
:1079A0004FF48272CE21802028F068F802464C4BBA
:1079B0001A604B4B1B68184628F068F8FFF744FE26
:1079C0000223049302230393464B0293464B0193F5
:1079D000424B00932A234FF48272CE218020FCF781
:1079E00085FC04230493022303933E4B02933E4BF6
:1079F00001933E4B00932A234FF48272CE218020C4
:107A0000FCF774FC002028F041F8354B1B68184641
:107A100028F0C0F8324B1B68184627F0C5FF2B4BE7
:107A20001B78DBB2092B4DD1294B00221A70294B50
:107A300002221A70284A1E21284830F037FF2A23D4
:107A40004FF482724FF4A171802028F017F802469B
:107A5000234B1A60224B1B68184628F017F8FFF7D3
:107A6000F3FD02230493022303931E4B02931E4B48
:107A700001931A4B00932A234FF482724FF4A171A1
:107A80008020FCF733FC0423049302230393154B5B
:107A90000293154B0193154B00932A234FF48272E6
:107AA0004FF4A1718020FCF721FC002027F0EEFFAD
:107AB0000B4B1B68184628F06DF8094B1B681846DD
:107AC00027F072FF00BFBD4680BD00BF0B930010C2
:107AD0000193001002930010C8C90400E49F001035
:107AE00010FAF8A090910010FEFEFE00CCC9040030
:107AF00080B58AB00AAF7F4B1B78DBB20A2B4DD121
:107B00007D4B00221A707D4B03221A707C4A1E2185
:107B10007C4830F0CBFE6323A02232210F2027F0D7
:107B2000ADFF0246784B1A60774B1B68184627F06A
:107B3000ADFF122308930023079302230693022329
:107B40000593724B0493724B039300230293704B83
:107B500001936C4B00936323A02232210F20FCF78A
:107B6000BFFA0423049300230393684B029300237A
:107B70000193684B00936323A02232210F20FCF76E
:107B8000B5FB002027F082FF5F4B1B68184628F0EA
:107B900001F85D4B1B68184627F006FF554B1B7814
:107BA000DBB2052B4DD1544B00221A70534B0322EC
:107BB0001A70534A1E21534830F078FE6323A022E6
:107BC000A8210F2027F05AFF02464F4B1A604E4B58
:107BD0001B68184627F05AFF1223089300230793C7
:107BE0000223069302230593484B0493484B0393C7
:107BF00000230293464B0193424B00936323A02240
:107C0000A8210F20FCF76CFA0423049300230393AC
