:100000000000011089010000050200000D0200003F
:10001000150200001D020000250200000000000083
:10002000000000000000000000000000814F000000
:1000300035020000000000005950000099500000F7
:100040004D0200004D0200004D0200004D02000074
:100050004D0200004D0200004D0200004D02000064
:100060004D0200004D0200004D0200004D02000054
:100070004D0200004D0200004D0200004D02000044
:100080004D0200004D0200004D0200004D02000034
:100090004D0200004D0200004D0200004D02000024
:1000A000CD4500004D0200005D5C00004D020000E7
:1000B000691500007D2100004D0200004D02000086
:1000C0004D0200004D0200004D0200004D020000F4
:1000D0004D0200004D0200004D0200004D020000E4
:1000E0004D020000C057020000000010A4020000F2
:1000F000C05702000000002000000000A80200100D
:10010000A07C0000000000200000000080B489B046
:1001100000AFF860B9607A60BB68FB61FB68BB61E7
:1001200000237B610AE0FB691A1DFA61BA69111D9F
:10013000B96112681A607B6904337B617A697B68F4
:100140009A42F0D300BF2437BD4680BC704700BF41
:1001500080B485B000AF786039607B68FB600023B5
:10016000BB6007E0FB681A1DFA6000221A60BB68DA
:100170000433BB60BA683B689A42F3D300BF1437BC
:10018000BD4680BC704700BF80B584B000AF1A4B3D
:10019000FB6013E0FB681A1DFA601B68BB60FB681C
:1001A0001A1DFA601B687B60FB681A1DFA601B68E9
:1001B0003B603A687968B868FFF7A8FFFB680F4AA8
:1001C0009342E7D30DE0FB681A1DFA601B687B6061
:1001D000FB681A1DFA601B683B6039687868FFF796
:1001E000B7FFFB68064A9342EDD30AF0CDFA09F057
:1001F00063FB1DF08EFBFEE7E4000000FC00000046
:100200000C01000080B400AFFEE700BF80B400AF77
:10021000FEE700BF80B400AFFEE700BF80B400AFD0
:10022000FEE700BF80B400AFFEE700BF80B400AFC0
:10023000FEE700BF80B400AFFEE700BF80B400AFB0
:10024000FEE700BF80B400AFFEE700BF80B400AFA0
:10025000FEE700BF80B586B000AFF860B9607A6095
:1002600000F036F85023FB750AE000F091F8386191
:100270003B69002B08D000F041F8FB7D013BFB758A
:10028000FB7D002BF1D100E000BF3B69002B07D0C4
:100290003B694B220B490C4800F040FB3B690DE0E9
:1002A000F968B86800F0B0F83861FB681B68074A65
:1002B0001360786800F00AF938613B69184618370E
:1002C000BD4680BD580B0200340B0200A80200108E
:1002D00080B584B002AF084B1B68019301230093E3
:1002E00000230022FE21A12004F05AFC78607B68E4
:1002F00018460837BD4680BD4075001080B584B0F3
:1003000002AF0623019303230093802300220021E0
:10031000002000F0F9F91B4B18681B4B1A681F23CB
:100320004FF4002104F0AAFB78607B68002B23D1F6
:10033000164B1868144B1A6812234FF4801104F0FE
:100340009DFB78607B68002B16D1104B18680E4B14
:100350001A680D234FF4801104F090FB78607B68DD
:10036000002B09D1084B1B680C331B78DBB2002B28
:1003700002D06FF009037B607B6818460837BD46E2
:1003800080BD00BF38750010407500104875001022
:1003900080B584B002AF06230193002300930123AC
:1003A00000220021002000F0AFF9144B1868144B14
:1003B0001A681F234FF4002104F060FB78607B680B
:1003C000002B16D10F4B18680D4B1A680D234FF4F4
:1003D000801104F053FB78607B68002B09D1084B37
:1003E0001B680C331B78DBB2002B02D06FF00903C3
:1003F0007B607B6818460837BD4680BD38750010A5
:10040000407500104875001080B586B002AF786066
:1004100039600A23019325230093802300220021C1
:10042000002000F071F9264B1868264B1A681F232C
:100430004FF4002104F022FBF860FB68002B3AD156
:10044000214B18681F4B1A6808234FF4801104F0E1
:1004500015FBF860FB68002B2DD17B68002B07D0C3
:10046000184B1B68184604F00FFD02467B681A60A3
:100470003B68002B08D0134B1B680433184604F06C
:1004800003FD02463B681A600F4B18680D4B1A6853
:100490000D234FF4801104F0F1FAF860FB68002B93
:1004A00009D1084B1B680C331B78DBB2002B02D040
:1004B0006FF00903FB60FB6818461037BD4680BD2E
:1004C00038750010407500104875001080B586B072
:1004D00002AF786006230193122300938023002249
:1004E0000021002000F010F9264B1868264B1A68EE
:1004F0001F234FF4002104F0C1FAF860FB68002BC1
:100500003AD1224B1868204B1A6824234FF48011EB
:1005100004F0B4FAF860FB68002B2DD17B68002B47
:1005200013D00023BB600DE07B685A1C7A60164A2A
:100530001268511C144801601278D2B21A70BB685C
:100540000133BB60BB68232BEED9104B18680E4BF0
:100550001A680D234FF4801104F090FAF860FB68DC
:10056000002B09D1084B1B680C331B78DBB2002B26
:1005700002D06FF00903FB60FB6818461037BD46D8
:1005800080BD00BF38750010407500104875001020
:1005900080B58AB002AFF8600B467A607B817B68D9
:1005A0007B610023BB6107E07B695A1C7A610022F2
:1005B0001A70BB690133BB617B89254A126802FB53
:1005C00003F2BB699A42EFD8214B19687A890A2352
:1005D0000193282300938023F86800F095F81D4BC1
:1005E00018681D4B1A681F234FF4002104F046FAC7
:1005F000F861FB69002B26D1184B18687B89144AD7
:10060000126802FB03F37A684FF4801104F036FAA3
:10061000F861FB69002B16D1104B18680E4B1A6855
:100620000D234FF4801104F029FAF861FB69002BC7
:1006300009D1094B1B680C331B78DBB2002B02D0AD
:100640006FF00903FB61FB6918462037BD4680BD8A
:10065000A802001038750010407500104875001091
:1006600080B588B002AFF8600B467A607B81224B80
:1006700019687A890A2301932A2300930023F868D2
:1006800000F042F81D4B18681D4B1A681F234FF4E9
:10069000002104F0F3F978617B69002B26D1174B18
:1006A00018687B89144A126802FB03F37A684FF4D6
:1006B000002104F0E3F978617B69002B16D1114B1E
:1006C00018680F4B1A680D234FF4801104F0D6F907
:1006D00078617B69002B09D1094B1B680C331B78AF
:1006E000DBB2002B02D06FF009037B617B691846F7
:1006F0001837BD4680BD00BFA80200103875001035
:10070000407500104875001080B586B000AFF860E5
:10071000B96011461A460B46FB8013467B710023D5
:100720003B6108E05F4B1A683B69134400221A7072
:100730003B6901333B613B691E2BF3D997F82030AD
:10074000252B5BD801A252F823F000BFE50700007B
:10075000FD070000FD070000F1070000FD07000095
:10076000FD070000FD070000FD070000FD07000079
:10077000FD070000FD070000FD070000FD07000069
:10078000FD070000FD070000FD070000FD07000059
:10079000FD070000F7070000FD070000FD0700004F
:1007A000FD070000FD070000FD070000FD07000039
:1007B000FD070000FD070000FD070000FD07000029
:1007C000FD070000FD070000FD070000FD07000019
:1007D000FD070000FD070000FD070000FD07000009
:1007E000EB07000000237B610EE008237B610BE038
:1007F00012237B6108E024237B6105E0FB88BA6853
:1008000002FB03F37B6100BF264B1B682649184699
:1008100004F0F4FA234B1B681A1D244B1B6819467D
:10082000104604F0EBFA1F4B1B6808337969184631
:1008300004F0E4FA1B4B1B680C337A79012A01D0CF
:100840007A7900E000221A70164B1B680E3397F875
:1008500024201A70134B1B680F3397F820201A704E
:1008600097F82030032B03D097F82030122B06D1B5
:100870000C4B1B6813337A69D2B21A7006E0094B2D
:100880001B681133F968184604F024FB054B1B68FC
:100890001633FA881146184604F036FB00BF1837A5
:1008A000BD4680BD4075001055534243AC02001058
:1008B00080B582B000AF0346FB71054B1B68FA7927
:1008C00011460020984700BF0837BD4680BD00BFD5
:1008D000F074001080B582B000AF786015E07B68DE
:1008E0001B780A2B0AD17B685A1C7A601B78184641
:1008F000FFF7DEFF0D20FFF7DBFF06E07B685A1CE9
:100900007A601B781846FFF7D3FF7B681B78002BB3
:10091000E5D100BF0837BD4680BD00BF0FB480B52C
:1009200082B000AF07F114037B607A68396906482A
:100930001DF0E0FD0448FFF7CDFF00BF0837BD46BE
:10094000BDE8804004B07047B002001080B582B0AE
:1009500000AF03460A46FB711346BB71B91DF87917
:100960000123012203F028FB00BF0837BD4680BDEC
:1009700080B584B000AF0346FB710023FB7307F121
:100980000F01F8790123012203F0BEFBFB7B18461F
:100990001037BD4680BD00BF80B582B000AF0346B2
:1009A0003960FB713B68002B01D100230BE0F87923
:1009B00000230122396803F0A7FB0346002B01D076
:1009C000012300E0002318460837BD4680BD00BF64
:1009D00080B588B000AF3B600346FB710B46BB712E
:1009E00013467B710023FB7200237B777B79002BFE
:1009F00004D13B6800221A600023EFE000233B6132
:100A0000BB79012B06D0BB79002B01D10A2302E070
:100A1000002300E01023BB77BB7F002B04D13B6891
:100A200000221A600023D9E000237B61CEE001237D
:100A30007B7707F10B01F8790123012203F064FBB6
:100A4000FB7A2F2B06D9FB7A392B03D8FB7A303B64
:100A5000BB616FE0BB79012B6AD11023BB77FB7AB6
:100A6000413B252B60D801A252F823F0050B000072
:100A70000B0B0000110B0000170B00001D0B0000FA
:100A8000230B0000290B0000290B0000290B00009C
:100A9000290B0000290B0000290B0000290B000086
:100AA000290B0000290B0000290B0000290B000076
:100AB000290B0000290B0000290B0000290B000066
:100AC000290B0000290B0000290B0000290B000056
:100AD000290B0000290B0000290B0000290B000046
:100AE000290B0000290B0000290B0000050B00005A
:100AF0000B0B0000110B0000170B00001D0B00007A
:100B0000230B00000A23BB6114E00B23BB6111E03F
:100B10000C23BB610EE00D23BB610BE00E23BB6118
:100B200008E00F23BB6105E000237B7700BF01E0F5
:100B300000237B770123FB607B7F002B1DD1BB79DA
:100B4000002B05D1FB792749184600F051F807E042
:100B5000BB79012B04D1FB792349184600F048F8F2
:100B60003B6901333B613B69092B2FD9FB791F4955
:100B7000184600F03DF8002330E0FA7AFB79114680
:100B80001846FFF7E3FE7B79012B04D10123BB77E5
:100B90000123FB600EE00123FB7707E0BA7FFB68CF
:100BA00002FB03F3FB60FB7F0133FB77FA7F7B796A
:100BB0009A42F3D3BB69FA6802FB03F3BB617A691B
:100BC000BB6913447B617B79013B7B717B79002B93
:100BD0007FF42DAF3B687A691A60012318462037ED
:100BE000BD4680BD600B02008C0B0200E80B0200CA
:100BF00080B584B000AF03463960FB713B68FB6091
:100C000008E0FB685A1CFA601A78FB79114618460E
:100C1000FFF79CFEFB681B78002BF2D100BF10375A
:100C2000BD4680BD80B582B000AF03463960FB7120
:100C3000FB7939681846FFF7DBFFFB790349184653
:100C4000FFF7D6FF00BF0837BD4680BD180C020075
:100C500080B584B000AF03460A46FB711346BB71F2
:100C6000BA79234BA3FB0213D9080B469B000B4414
:100C70005B00D31AFB73BB791D4AA2FB0323DB087D
:100C8000DAB21B4BA3FB0213D9080B469B000B44A3
:100C90005B00D31ABB73BB79164AA2FB03235B0923
:100CA000DAB2134BA3FB0213D9080B469B000B448B
:100CB0005B00D31A7B737B7B3033DAB2FB7911464E
:100CC0001846FFF743FEBB7B3033DAB2FB7911469F
:100CD0001846FFF73BFEFB7B3033DAB2FB79114657
:100CE0001846FFF733FE00BF1037BD4680BD00BF7A
:100CF000CDCCCCCC1F85EB5180B584B000AF034682
:100D00000A46FB711346BB80BA883D4BA3FB021316
:100D1000D9080B469B000B445B00D31A9BB2FB73B4
:100D2000BB88374AA2FB0323DB089AB2344BA3FBF0
:100D30000213D9080B469B000B445B00D31A9BB2ED
:100D4000BB73BB882F4AA2FB03235B099AB22C4BCF
:100D5000A3FB0213D9080B469B000B445B00D31A7C
:100D60009BB27B73BB88284AA2FB03239B099AB2E0
:100D7000234BA3FB0213D9080B469B000B445B00DB
:100D8000D31A9BB23B73BB88204AA2FB03235B0BA5
:100D90009AB21B4BA3FB0213D9080B469B000B44D2
:100DA0005B00D31A9BB2FB72FB7A3033DAB2FB7969
:100DB00011461846FFF7CAFD3B7B3033DAB2FB79A8
:100DC00011461846FFF7C2FD7B7B3033DAB2FB7960
:100DD00011461846FFF7BAFDBB7B3033DAB2FB7918
:100DE00011461846FFF7B2FDFB7B3033DAB2FB79D0
:100DF00011461846FFF7AAFD00BF1037BD4680BD5B
:100E0000CDCCCCCC1F85EB51D34D62105917B7D147
:100E100080B586B000AF03463960FB713968784B06
:100E2000A3FB0123DA0813469B0013445B00CA1A94
:100E30001346FB753B68724AA2FB0323D908704B2B
:100E4000A3FB0123DA0813469B0013445B00CA1A74
:100E50001346BB753B686B4AA2FB03235909684BD9
:100E6000A3FB0123DA0813469B0013445B00CA1A54
:100E700013467B753B68644AA2FB03239909604BC8
:100E8000A3FB0123DA0813469B0013445B00CA1A34
:100E900013463B753B685D4AA2FB0323590B584B35
:100EA000A3FB0123DA0813469B0013445B00CA1A14
:100EB0001346FB743B685B09554AA2FB0323D9091F
:100EC0004F4BA3FB0123DA0813469B0013445B003E
:100ED000CA1A1346BB743B684E4AA2FB0323990C03
:100EE000474BA3FB0123DA0813469B0013445B0026
:100EF000CA1A13467B743B68474AA2FB0323990D29
:100F00003F4BA3FB0123DA0813469B0013445B000D
:100F1000CA1A13463B743B68404AA2FB0323590E8E
:100F2000374BA3FB0123DA0813469B0013445B00F5
:100F3000CA1A1346FB733B685B0A394AA2FB0323B8
:100F4000D9092F4BA3FB0123DA0813469B00134456
:100F50005B00CA1A1346BB73BB7B3033DAB2FB7932
:100F600011461846FFF7F2FCFB7B3033DAB2FB790F
:100F700011461846FFF7EAFC3B7C3033DAB2FB79C6
:100F800011461846FFF7E2FC7B7C3033DAB2FB797E
:100F900011461846FFF7DAFCBB7C3033DAB2FB7936
:100FA00011461846FFF7D2FCFB7C3033DAB2FB79EE
:100FB00011461846FFF7CAFC3B7D3033DAB2FB79A5
:100FC00011461846FFF7C2FC7B7D3033DAB2FB795D
:100FD00011461846FFF7BAFCBB7D3033DAB2FB7915
:100FE00011461846FFF7B2FCFB7D3033DAB2FB79CD
:100FF00011461846FFF7AAFC00BF1837BD4680BD52
:10100000CDCCCCCC1F85EB51D34D62105917B7D145
:10101000C55A7C0A83DE1B436BCA5F6B893BE6556E
:10102000834B040080B584B000AF03460A46FB71D1
:101030001346BB710123FB73BA79FB7B9B0042FA19
:1010400003F3DBB203F00F03BB73BB7B092B03D9A4
:10105000BB7B3733DBB202E0BB7B3033DBB2FA79E8
:1010600019461046FFF772FCFB7B5A1EFA73002BE1
:10107000E2D100BF1037BD4680BD00BF80B584B04F
:1010800000AF03460A46FB711346BB71FB79134957
:101090001846FFF7ADFD0123FB73BA79FB7B9B007C
:1010A00042FA03F3DBB203F00F03BB73BB7B092BE4
:1010B00003D9BB7B3733DBB202E0BB7B3033DBB21F
:1010C000FA7919461046FFF741FCFB7B5A1EFA736A
:1010D000002BE2D100BF1037BD4680BD1C0C0200C2
:1010E00080B584B000AF03460A46FB711346BB804F
:1010F0000323FB73BA88FB7B9B0042FA03F3DBB24A
:1011000003F00F03BB73BB7B092B03D9BB7B3733C6
:10111000DBB202E0BB7B3033DBB2FA791946104612
:10112000FFF714FCFB7B5A1EFA73002BE2D100BFC1
:101130001037BD4680BD00BF80B584B000AF034608
:101140000A46FB711346BB80FB7913491846FFF72B
:101150004FFD0323FB73BA88FB7B9B0042FA03F32A
:10116000DBB203F00F03BB73BB7B092B03D9BB7B43
:101170003733DBB202E0BB7B3033DBB2FA7919469E
:101180001046FFF7E3FBFB7B5A1EFA73002BE2D1FC
:1011900000BF1037BD4680BD1C0C020080B584B076
:1011A00000AF03463960FB710723FB73FB7B9B0099
:1011B0003A6822FA03F3DBB203F00F03BB73BB7B85
:1011C000092B03D9BB7B3733DBB202E0BB7B303367
:1011D000DBB2FA7919461046FFF7B8FBFB7B5A1EC3
:1011E000FA73002BE2D100BF1037BD4680BD00BFAF
:1011F00080B584B000AF03463960FB71FB791349B9
:101200001846FFF7F5FC0723FB73FB7B9B003A684E
:1012100022FA03F3DBB203F00F03BB73BB7B092B92
:1012200003D9BB7B3733DBB202E0BB7B3033DBB2AD
:10123000FA7919461046FFF789FBFB7B5A1EFA73B1
:10124000002BE2D100BF1037BD4680BD1C0C020050
:1012500080B582B000AF01220221002002F09AFA8C
:1012600001220321002002F095FA3B46184602F0C5
:1012700017FE3B461946002002F08CFC012100209D
:1012800002F0CEFF184B194A1A60194B194A1A601E
:10129000194B1A4A1A601A4B1A4A1A601A4B1B4AFF
:1012A0001A601B4B1B4A1A601B4B1C4A1A601C4BD2
:1012B0001C4A1A601C4B1D4A1A601D4B1D4A1A60BD
:1012C0001D4B1E4A1A601E4B1E4A1A601E4B1F4AB7
:1012D0001A601F4B1F4A1A601F4B204A1A6000BF3A
:1012E0000837BD4680BD00BFE4740010F10B00005C
:1012F000EC740010250C0000F07400104D09000083
:10130000F47400107D100000047500103911000005
:10131000D4740010F1110000E074001025100000DA
:10132000F8740010E1100000FC7400109D11000022
:10133000CC740010510C0000D8740010F90C00009F
:10134000D0740010110E0000E87400107109000044
:1013500000750010D1090000DC740010990900002C
:1013600080B483B000AF0346FB71FB79032B17D821
:1013700001A252F823F000BF891300008F13000070
:10138000951300009B130000084B1B6809E0084BF5
:101390001B6806E0074B1B6803E0074B1B6800E077
:1013A000FEE718460C37BD4680BC7047B8000010F9
:1013B000BC000010C0000010C400001080B483B056
:1013C00000AF78600B46FB70FB78012B08D10D490C
:1013D0000C4BD3F8C4207B681343C1F8C4300BE036
:1013E000FB78002B08D10749064BD3F8C4207B6853
:1013F000DB431340C1F8C43000BF0C37BD4680BC8E
:10140000704700BF00C00F4080B487B000AF0346F4
:10141000FB71FB79002B0DD11B4BD3F82C317B6179
:10142000194BD3F828313B61174BD3F824310133E2
:10143000FB600CE0144BD3F818317B61124BD3F8EE
:1014400014313B61104BD3F810310133FB607A69E2
:101450003B699A4201D1002311E07B69002B06D140
:10146000FB685A1E3B699A4201D1022307E03B699F
:101470005A1C7B699A4201D1022300E001231846DD
:101480001C37BD4680BC70470040082080B483B044
:1014900000AF074BD3F828317B607B6803F1006312
:1014A00016339B001B6818460C37BD4680BC70473E
:1014B0000040082080B483B000AF074BD3F8183148
:1014C0007B607B6803F180630433DB001B68184694
:1014D0000C37BD4680BC70470040082080B483B004
:1014E00000AF094BD3F818317B607B6803F1806350
:1014F0000433DB001B68C3F30A03013318460C37BF
:10150000BD4680BC704700BF0040082080B483B057
:1015100000AF074BD3F818317B607B6803F1806321
:10152000DB001B6818460C37BD4680BC704700BF07
:101530000040082080B483B000AF0A4BD3F81831C4
:101540007B607B6801337B607B68042B01D10023C7
:101550007B60044A7B68C2F8183100BF0C37BD4677
:1015600080BC70470040082080B588B000AF6BE1B8
:10157000804AFB69C2F8E83FFB6903F00303002BD4
:1015800063D0FFF797FFF8600023BB60FB6803F4AC
:101590000003002B01D0102300E00023BA6813439E
:1015A000BB60FB6803F08073002B01D0082300E0D0
:1015B0000023BA681343BB60FB6803F00073002B81
:1015C00001D0042300E00023BA681343BB60FB682A
:1015D00003F00063002B01D0012300E00023BA6870
:1015E0001343BB60FB6803F08053002B01D0402302
:1015F00000E00023BA681343BB60FB6803F00053AC
:10160000002B01D0202300E00023BA681343BB6005
:10161000FB6803F48013002B02D04FF4805300E0EA
:101620000023BA681343BB60BB68002B04D1FB697D
:1016300023F00203FB6108E04F4B1B6A002B04D030
:101640004D4B1B6ABA6810469847FB6903F030039C
:10165000002B48D0FFF71AFF786000233B607B68BF
:1016600003F08063002B02D04FF4007300E00023EE
:101670003A6813433B607B6803F00063002B02D0A1
:101680004FF4807300E000233A6813433B607B68AB
:1016900003F08053002B01D0802300E000233A6840
:1016A00013433B607B6803F00053002B02D04FF4E0
:1016B000806300E000233A6813433B607B6803F0DB
:1016C0008043002B02D04FF4006300E000233A680F
:1016D00013433B60284B1B6A002B04D0264B1B6A2C
:1016E0003A6810469847FB6903F00803002B00F0A6
:1016F00087800120FFF788FE0346002B00F08080E2
:10170000FFF7ECFE0346BB61BB69002B78DDBB69CC
:10171000033BBB61FFF7CEFE0246184B1340002B84
:101720006ED1174B1B781946164B1A680B465B0097
:101730000B445B0213445B00134A13447B61FFF7C5
:10174000E5FE03463B610F4B1A68BB6913440D4A23
:1017500013600C4B1B68B3F5C06F22D3094B0022FA
:101760001A60054B1B6A002B4AD0034B1B6A0420EE
:10177000984745E000400820DC0200100000901B64
:101780000C1B0010081B0010080300107B699A1C3A
:101790007A613A69911C396112881A80BB69023BEF
:1017A000BB61BB69002BF1DCFFF784FE034603F04D
:1017B0008043002B22D02C4B9B69002B0ED02A4B50
:1017C0009A692A4B1B7819460B465B000B449B0217
:1017D00027495818274B1B6819469047254B00226C
:1017E0001A60224B1B780133DAB2204B1A701F4B60
:1017F0001B78012B02D91D4B00221A70FFF79AFEAD
:10180000FB6903F04003002B06D0174BDB69002B6C
:1018100002D0154BDB699847FB6903F48053002B1A
:1018200006D0114B9B6A002B02D00F4B9B6A984746
:10183000FB6903F40053002B06D00B4B5B6A002BB3
:1018400002D0094B5B6A98470B4BD3F8E02F0A4B49
:10185000D3F8E43F1340FB61FB69002B7FF488AEB3
:1018600000BF2037BD4680BDDC0200100C1B0010FD
:1018700008030010081B00100040082080B500AFCE
:1018800001214FF00050FFF799FD104B00221A6123
:101890000F4B00221A610F4B00221A610E4B0022DF
:1018A0001A610E4B00221A610D4B00221A610D4B7A
:1018B00000221A610C4B00221A610C4BFF229A6025
:1018C0000A4BFF221A6100BF80BD00BF0001082043
:1018D0002001082040010820600108208001082024
:1018E000A0010820C0010820E00108200000082015
:1018F00080B487B000AF7860A44BDA697B681B685E
:10190000012101FA03F31340DBB2002B01D00023C5
:1019100089E17B681B689E4A52F823307B619B4AB1
:101920007B681B68012101FA03F3DBB29360974ADD
:101930007B681B68012101FA03F3DBB213617B6949
:101940000022DA607B6900221A617B681A6A7B696F
:101950009A607B685B69062B00F2D48001A252F882
:1019600023F000BF81190000BF190000291A0000F0
:10197000931A0000051B0000BF190000291A00007F
:101980007B68DA687B691A607B681A697B695A60D0
:101990007B685B68C3F30B027B689B689B0403F462
:1019A000E0131A437B689B685B0503F460031343F1
:1019B00043F00C4343F410337A69D360A4E07B68AE
:1019C000DA687B691A607B68DB69724A52F82330F7
:1019D0001A467B695A607B685B68C3F30B027B68BD
:1019E000DB696D49CB5C1B0303F4E0431A437B685E
:1019F000DB696949CB5CDB0303F460331A437B6822
:101A0000DB696649CB5C9B0403F4E0131A437B68F3
:101A1000DB696249CB5C5B0503F46003134343F06D
:101A200004427B69DA606FE07B689B69594A52F82F
:101A300023301A467B691A607B681A697B695A6091
:101A40007B685B68C3F30B027B689B695249CB5C84
:101A50001B0303F4E0431A437B689B694E49CB5C4C
:101A6000DB0303F460331A437B689B694B49CB5C0F
:101A70009B0403F4E0131A437B689B694749CB5CE2
:101A80005B0503F46003134343F008427B69DA60AB
:101A90003AE07B689B693F4A52F823301A467B69DB
:101AA0001A607B68DB693B4A52F823301A467B692F
:101AB0005A607B685B68C3F30B027B689B6936499D
:101AC000CB5C1B0303F4E0431A437B68DB693249B8
:101AD000CB5CDB0303F460331A437B689B692F49BB
:101AE000CB5C9B0403F4E0131A437B68DB692B494E
:101AF000CB5C5B0503F46003134343F000427B6956
:101B0000DA6001E000238EE07B689B69082B22D01D
:101B10007B689B69092B1ED07B689B690F2B0DD9B5
:101B20001F491F4BD3F8C4317A689269103A0120DB
:101B300000FA02F21343C1F8C4310CE01849184B03
:101B4000D3F8C4317A689269012000FA02F2D243D4
:101B50001340C1F8C4317B68DB69082B2FD07B6848
:101B6000DB69092B2BD07B68DB690F2B1AD90C4959
:101B70000B4BD3F8C4317A68D269103A012000FACD
:101B800002F21343C1F8C43119E000BF000008207D
:101B90008000001000000010200C0200400C020029
:101BA00000C00F402249224BD3F8C4317A68D26971
:101BB000012000FA02F2D2431340C1F8C4311D4B98
:101BC00001221A6300BF1B4B1B6B03F00103002BA8
:101BD000F9D07B689B693B613B690F2B02D93B695C
:101BE000103B00E03B693B617B68DB69FB60FB68A5
:101BF0000F2B02D9FB68103B00E0FB68FB607B68A1
:101C00005B69DB0203F460523B695B0003F03E0357
:101C10001A43FB689B0103F4F863134343F4404207
:101C20007B691A61012318461C37BD4680BC70478A
:101C300000C00F400000082080B485B000AF03460C
:101C40000A46FB711346BB71FB790C4A52F82330EC
:101C5000FB60BB79012B06D1FB681B6943F00102D5
:101C6000FB681A6105E0FB681B6923F00102FB6851
:101C70001A6100BF1437BD4680BC70478000001059
:101C800080B483B000AF03460A46FB711346BB71B4
:101C9000FB79042B52D801A252F823F0B11C0000AA
:101CA000CD1C0000E91C0000051D0000211D0000E6
:101CB0002B4B1A68BB79012101FA03F31340DBB205
:101CC000002B01D0012346E0002344E0244B5A6856
:101CD000BB79012101FA03F31340DBB2002B01D0E1
:101CE000012338E0002336E01D4BDA68BB7901217F
:101CF00001FA03F31340DBB2002B01D001232AE0E9
:101D0000002328E0164B9A69BB79012101FA03F3FD
:101D10001340DBB2002B01D001231CE000231AE0AA
:101D20000F4B5A69BB79012101FA03F31340DBB26F
:101D3000002B01D001230EE000230CE0084BDA69F0
:101D4000BB79012101FA03F31340DBB2002B01D070
:101D5000012300E0002318460C37BD4680BC7047C5
:101D60000000082080B483B000AF03460A46FB7130
:101D70001346BB71FB79002B07D10A4ABB790121BD
:101D800001FA03F3DBB2936006E0064ABB79012156
:101D900001FA03F3DBB2136100BF0C37BD4680BC10
:101DA000704700BF0000082080B483B000AF034636
:101DB000FB71084997F907305B09FA7902F01F02B5
:101DC000012000FA02F241F8232000BF0C37BD4683
:101DD00080BC704700E100E080B58EB000AFF860D5
:101DE000B9607A604FF40073BB610223FB617B68CA
:101DF000BB6200237B63BB687B617B68052B0AD1D8
:101E0000FB683B62154BD3F880307B620023FB629A
:101E100001233B630FE07B68062B0AD10F4BD3F8FD
:101E200080303B62FB687B620123FB6200233B63E3
:101E300001E000230EE007F114031846FFF758FDF8
:101E4000BB68DBB201211846FFF7F6FE1A20FFF748
:101E5000ABFF012318463837BD4680BD00000C405B
:101E600080B500AF00210020FFF70AFF0346002BDA
:101E700020D000210120FFF703FF0346002B08D0EC
:101E800000210020FFF76EFF1F4B1B6801331E4A25
:101E9000136000210220FFF7F3FE0346002B30D031
:101EA00000210120FFF75EFF184B1B680133174A22
:101EB000136026E001210020FFF7E2FE0346002B1D
:101EC0001FD001210120FFF7DBFE0346002B08D0C5
:101ED00001210020FFF746FF0D4B1B6801330C4A20
:101EE000136001210220FFF7CBFE0346002B08D030
:101EF00001210120FFF736FF064B1B680133054A1D
:101F0000136000BF80BD00BF1C7500101875001065
:101F1000147500100875001080B400AF054A054B19
:101F2000DB6B43F4E36343F00203D36300BFBD46BE
:101F300080BC704700000C4080B400AF054A054BE0
:101F4000DB6B23F4E36323F00203D36300BFBD46DE
:101F500080BC704700000C4080B400AF054A054BC0
:101F6000DB6B43F4E56343F00203D36300BFBD467C
:101F700080BC704700000C4080B400AF054A054BA0
:101F8000DB6B23F4E56323F00203D36300BFBD469C
:101F900080BC704700000C4080B586B000AF03469F
:101FA000FB714FF0FF337B614FF6FF733B612EE017
:101FB00007F10803184601F00DF80346002B2AD15B
:101FC000BB6803F48073002B03D16FF004037B61C3
:101FD00011E0BB685B1203F00F02FB799A4208D054
:101FE000BB685B1203F00F03072B04D06FF00303F1
:101FF00013E0002311E03B69013B3B610023FB60E0
:1020000002E0FB680133FB60FB681F2BF9D93B69D9
:10201000002BCDD100E000BF7B6918461837BD46C4
:1020200080BD00BF80B483B000AF194B5B6B7B6099
:102030007B6803F00103002B02D0154B01229A6349
:102040007B6803F00403002B02D0114B04229A6337
:102050007B6803F04003002B02D00D4B40229A63B3
:102060007B6803F08003002B02D0094B80229A6327
:102070007B6803F40063002B04D0054B4FF400622F
:102080009A6300BF00BF0C37BD4680BC704700BFDD
:1020900000000C4080B483B000AF1B4B5B6B7B60D7
:1020A0007B6803F00203002B02D0174B02229A63D5
:1020B0007B6803F00803002B02D0134B08229A63BD
:1020C0007B6803F01003002B02D00F4B10229A63A1
:1020D0007B6803F02003002B02D00B4B20229A6375
:1020E0007B6803F40073002B03D0074B4FF400729E
:1020F0009A63064B00221A60054A7B68136000BF92
:102100000C37BD4680BC704700000C40101B00100F
:10211000141B001080B582B000AF124B5B6B7B606C
:102120007B6803F48073002B0ED00E4B4FF480724B
:102130009A630D4B00221A600C4B00221A60FFF7C5
:10214000FBFEFFF719FF0AE07B6803F48063002BB6
:1021500004D0044B4FF480629A6300E000BF08375C
:10216000BD4680BD00000C40101B0010141B001069
:1021700080B400AF00BFBD4680BC704780B582B060
:1021800000AF144B5B6B7B607A6840F23A231340DC
:10219000002B02D0FFF77EFF18E07B6803F4A063FA
:1021A000002B02D0FFF7B6FF10E07A680A4B13400D
:1021B000002B02D0FFF7DCFF08E07A6840F6C50389
:1021C0001340002B02D0FFF72DFF00BF0837BD469C
:1021D00080BD00BF00000C4000C40F0080B586B079
:1021E00000AF786000237B610120FFF7B9F8386108
:1021F0007B685A003B6913445A1E7B685B00B2FB44
:10220000F3F37B617B69002B02D07B69013B7B612F
:102210000C490C4B5B6823F4FF7323F001037A69CC
:10222000134343F480734B600023FB6002E0FB68C0
:102230000133FB60FB680F2BF9D900BF1837BD468F
:1022400080BD00BF00000C4080B584B000AF786056
:102250000023FB737B68002B06D11C4A1B4B5B6879
:1022600023F4006353600AE07B68012B07D1174A0F
:10227000164B5B6843F4006353600A23FB7300232F
:10228000BB6002E0BB680133BB60BB680F2BF9D9B0
:102290000F4B1B785BB2002B09D00D4B1B785BB248
:1022A000022B04D00A4B1B785BB2032B09D1FB7BBA
:1022B000184600F039FF0346002B02D04FF0FF33E1
:1022C00000E0002318461037BD4680BD00000C40DA
:1022D0002075001080B584B000AF0346FB718F4BB2
:1022E000FF221A708E4A8E4BD3F8883023F01F03DA
:1022F000C2F888308A4A8A4BD3F88C3023F01F0307
:10230000C2F88C30864A864BD3F8943023F01F03F2
:10231000C2F89430824A824BD3F8983023F01F03DE
:10232000C2F898307E4A7E4BD3F89C3023F01F03CE
:10233000C2F89C307A4A7A4BD3F8AC3023F01F03B2
:10234000C2F8AC30764A764BD3F8B03003F01F03B6
:10235000C2F8B030734A734B1B6843F4C75343F061
:102360000C0313606F4B4FF48052DA616D4B4FF4E6
:102370000062DA616B4B8022DA616A4B4022DA61DB
:10238000684B20229A61674B0822DA61654B042270
:10239000DA610023FB6002E0FB680133FB60FB684D
:1023A000B3F5801FF8D3604A5F4BD3F8C43043F0D5
:1023B0008053C2F8C4305D4B5B6803F48073002B1C
:1023C0000ED05A4A594B5B6823F480735360002344
:1023D000FB6002E0FB680133FB60FB680F2BF9D95F
:1023E000524B1B6803F00203002B0BD04F4B002213
:1023F0001A600023FB6002E0FB680133FB60FB68AE
:102400000F2BF9D9494B0022DA6302220221012065
:1024100001F0C0F902220321012001F0BBF90222E0
:102420000521012001F0B6F902220621012001F068
:10243000B1F902220721012001F0ACF902220B219F
:10244000012001F0A7F902220C21012001F0A2F9DC
:10245000FB79002B08D1344A334BD3F8A03123F059
:102460000803C2F8A03107E02F4A2F4BD3F8A03160
:1024700043F00803C2F8A0312C4B6FF060425A625F
:102480002A4B0022DA600023FB6002E0FB68013384
:10249000FB60FB680F2BF9D9244B0022DA62002382
:1024A000FB6002E0FB680133FB60FB680F2BF9D98E
:1024B0001E4B40F2FF729A631C4B02221A600023EB
:1024C000FB6002E0FB680133FB60FB680F2BF9D96E
:1024D0000023FB6002E0FB680133FB60FB68B3F59F
:1024E000002FF8D31248FFF779FE104A0F4B1B68F4
:1024F00043F0010313600023FB6002E0FB6801333B
:10250000FB60FB680F2BF9D91D20FFF74DFC00F095
:10251000F5FA002318461037BD4680BD207500101F
:1025200000C002402080092000C00F4000000C4085
:10253000801A060080B485B000AF78600023FB608D
:102540007B68012B06D10D4A0C4B1B6843F04003FE
:10255000136005E0094A094B1B6803F0830313600D
:102560000023FB6002E0FB680133FB60FB680F2B7C
:10257000F9D900BF1437BD4680BC704700000C403D
:1025800080B48BB000AF786000237B627B681B68EF
:102590003B627B685B68FB617B689B68BB617B68B7
:1025A000DB687B6110E0354B0022DA600023FB60C2
:1025B00002E0FB680133FB60FB680F2BF9D92F4A5F
:1025C0003B6943F4006393632C4B5B6B3B613B695A
:1025D00003F40063002BE6D13B6A03F03F037A6A01
:1025E00013437B62BB69002B04D17B6A23F0C003D9
:1025F0007B620EE0BB69012B04D17B6A43F0400390
:102600007B6206E0BB69022B03D17B6A43F0C00307
:102610007B627B69012B04D17B6A23F480737B622C
:1026200003E07B6A43F480737B627B6A43F48063DC
:102630007B62124B40F2FF729A63104AFB6993600F
:102640000E4A7B6AD3600023FB6002E0FB68013323
:10265000FB60FB680F2BF9D900BF084B5B6B002BAD
:10266000FBD000BF054B5B6B03F40063002BF9D17B
:1026700000BF2C37BD4680BC704700BF00000C4037
:1026800080B489B000AFF860B9607A600023BB61A4
:102690000023FB61BB68002B01D100238EE04A4B75
:1026A0005B6BBB61BB6903F00403002B16D0464A89
:1026B000BB6943F004039363434B0022DA60424B4F
:1026C0004FF0FF329A600023FB6102E0FB690133A7
:1026D000FB61FB690F2BF9D9BB696FE0BB6903F0A4
:1026E0000103002B25D0384ABB6943F001039363F3
:1026F000354BDB6803F03F037B617B69012B05D021
:102700007B69292B02D07B690C2B10D12E4B002228
:10271000DA602D4B4FF0FF329A600023FB6102E03C
:10272000FB690133FB61FB690F2BF9D90BE0BB6936
:1027300044E0BB6903F04003002BB0D0224ABB69E0
:1027400043F040039363204B1B6903F03F02FB6897
:102750009A4211D0FB68012B0ED0FB68292B0BD0BD
:10276000FB68022B08D0FB68092B05D04FF0FF3324
:10277000BB614FF0FF3321E07B68002B1DD0BB68AD
:10278000012B04D1104B5A697B681A6015E0BB68B5
:10279000022B12D10C4B5A697B681A607B68043398
:1027A000094A92691A607B680833074AD2691A603D
:1027B0007B680C33044A126A1A60002318462437D7
:1027C000BD4680BC704700BF00000C4080B586B09D
:1027D00000AF78607B681B683B617B689B68FB602F
:1027E0007B681B69BB607868FFF7CAFEBB68002B7B
:1027F00002D1FB68002B06D0BA68F9683869FFF788
:102800003FFF786102E06FF001037B617B6918464E
:102810001837BD4680BD00BF80B586B000AF00232D
:102820007B600023BB600023FB6000233B6100232F
:102830007B613B1D1846FFF7A3FE0023184618379F
:10284000BD4680BD80B58EB000AF4FF0FF333B6317
:102850004FF400737B6301237B601B4BBB60012340
:10286000FB6001233B6107F118037B6124E03B1D02
:102870001846FFF7ABFF0346FB62FB6A03F0040355
:10288000002B03D06FF002033B6309E0BB69002B10
:1028900003DB6FF002033B6302E000233B630EE0C7
:1028A0000023BB6202E0BB6A0133BB62BB6A1F2B21
:1028B000F9D97B6B013B7B637B6B002BD7D13B6BE7
:1028C00018463837BD4680BD0080FF0080B590B007
:1028D00000AF4FF0FF33BB63012387F83730AA23E3
:1028E00087F8363097F837301A0297F836301343A6
:1028F0003B631423FB6308237B603B6BBB600123BA
:10290000FB6001233B6107F118037B612FE03B1D56
:102910001846FFF75BFF0346FB62FB6A03F0040304
:10292000002B05D06FF00203BB630023BB6218E0ED
:10293000BB69DAB297F836309A4202D06FF00103E1
:1029400019E0BB691B0A03F00F0297F837309A426F
:1029500002D06FF001030EE000230CE0BB6A0133EC
:10296000BB62BB6A1F2BF9D9FB6B013BFB63FB6BA3
:10297000002BCCD1BB6B18464037BD4680BD00BF95
:1029800080B58EB000AF4FF0FF33FB62274B1B7852
:102990005BB2002B09D0254B1B785BB2022B04D015
:1029A000224B1B785BB2032B03D1214B1B683B638B
:1029B00001E000233B6314237B6337233B603B6BC5
:1029C0007B600123BB600123FB6007F114033B61C3
:1029D00023E03B461846FFF7F9FE0346BB62BB6A9D
:1029E000002B03D04FF0FF33FB620AE07B6903F05A
:1029F0002003002B02D00023FB6211E06FF00403E0
:102A0000FB6200237B6202E07B6A01337B627B6AAC
:102A10001F2BF9D97B6B013B7B637B6B002BD8D1E0
:102A2000FB6A18463837BD4680BD00BF20750010D0
:102A30001075001080B590B000AF0346FB714FF0E9
:102A4000FF33BB63FB799B0743F47F0343F40043ED
:102A50007B634FF40053FB632923BB607B6BFB60FC
:102A600001233B6101237B6107F11C03BB61002053
:102A7000FFF760FD38E0FFF783FFB863BB6B002B07
:102A800024D107F108031846FFF7A0FE03463B6375
:102A90003B6B03F00403002B03D06FF00203BB6316
:102AA00016E0FB69002B03DB6FF00203BB630FE052
:102AB000FB6903F08043002B14BF01230023DBB22A
:102AC0001A460D4B1A700023BB6310E0BB6B0FE07E
:102AD0000023FB6202E0FB6A0133FB62FB6A1F2BEF
:102AE000F9D9FB6B013BFB63FB6B002BC3D1BB6BC9
:102AF00018464037BD4680BD0C75001080B582B0C9
:102B000000AF4FF0FF337B60324BFF221A70FFF7AC
:102B100083FE0346002B02D04FF0FF3356E0002027
:102B2000FFF708FD00233B6002E03B6801333B6098
:102B30003B68B3F5405FF8D3FFF7C8FE78607B6869
:102B400013F1020F01D17B6840E07B68002B13D1A9
:102B50000120FFF76FFF78607B68002B0CD11D4BC5
:102B600002221A701C4B1B78DBB2002B02D0194BCF
:102B700003221A70002329E07B68002B0BD0002071
:102B8000FFF758FF78607B68002B04D1114B0022BF
:102B90001A7000231AE07B68002B16D00120FFF783
:102BA000C9FC00233B6002E03B6801333B603B68AB
:102BB000B3F5405FF8D3FFF745FE0346002B04D181
:102BC000044B01221A70002300E000231846083746
:102BD000BD4680BD207500100C75001080B400AF9C
:102BE000034B1B785BB21846BD4680BC704700BFE4
:102BF0002075001080B58EB000AF78604FF4007380
:102C00007B630223BB600023FB6002233B61012343
:102C10007B6107F11C03BB6158E007F1080318460C
:102C2000FFF7D4FD03463B633B6B03F00403002B2B
:102C300040D17B68002B3BD0FB691B0EDAB27B686E
:102C40001A70FB691B0A9AB27B685A80FB69DAB278
:102C50007B681A713A6A7B689A607B6A1B0EDAB2EB
:102C60007B681A737B6A1A02BB6A1B0E1A437B6865
:102C70001A61BB6A1B0DDBB203F01F03DAB27B687B
:102C80001A75BB6A1B0A9BB2C3F30B039AB27B682B
:102C9000DA82BB6A5B08DBB203F07F03DAB27B68DF
:102CA0001A76BB6ADBB203F00103DAB27B685A76AC
:102CB000002310E00023FB6202E0FB6A0133FB62A9
:102CC000FB6A1F2BF9D97B6B013B7B637B6B002B72
:102CD000A3D16FF0020318463837BD4680BD00BF50
:102CE00080B58CB000AF4FF0FF337B62334B1B7865
:102CF0005BB2002B09D0314B1B785BB2022B04D0A6
:102D00002E4B1B785BB2032B02D10023BB6202E087
:102D10004FF48033BB622023FB6203237B60BB6ADA
:102D2000BB600123FB6001233B6107F118037B615A
:102D30003BE03B1D1846FFF749FD03463B623B6AFB
:102D400003F00403002B03D06FF002037B6220E04A
:102D5000BB6903F48073002B03D16FF004037B6223
:102D600017E0BB695B0A03F00F03022B03D06FF07F
:102D700003037B620DE0BB691B0C114A1360104B0F
:102D80001B681B040E4A13600020FFF7D3FB0023CF
:102D90000FE00023FB6102E0FB690133FB61FB698B
:102DA0001F2BF9D9FB6A013BFB62FB6A002BC0D1E8
:102DB0007B6A18463037BD4680BD00BF20750010C5
:102DC0001075001080B400AF024B1B681846BD465A
:102DD00080BC70471075001080B590B000AF78606F
:102DE0002F4B1B785BB2002B09D02D4B1B785BB2AD
:102DF000022B04D02A4B1B785BB2032B03D1294B47
:102E00001B68BB6302E04FF48033BB632023FB638A
:102E10000923FB60BB6B3B6102237B610123BB6128
:102E200007F12003FB6132E00320FFF7B5F803460A
:102E3000002B02D06FF003032EE007F10C031846BD
:102E4000FFF7C4FC03467B637B6B002B13D17B68CD
:102E5000002B0ED03A6A7B681A607B6804337A6A6A
:102E60001A607B680833BA6A1A607B680C33FA6AA6
:102E70001A60002310E000233B6302E03B6B013348
:102E80003B633B6B1F2BF9D9FB6B013BFB63FB6B7C
:102E9000002BC9D14FF0FF3318464037BD4680BDE7
:102EA000207500101075001080B58EB000AF4FF087
:102EB000FF33FB62444B1B785BB2002B09D0424BC3
:102EC0001B785BB2022B04D03F4B1B785BB2032B09
:102ED00003D13E4B1B683B6302E04FF480333B63FE
:102EE00020237B6307233B603B6B7B600123BB603C
:102EF0000123FB6007F114033B615DE00320FFF752
:102F00004BF80346002B1AD00420FFF745F8034680
:102F1000002B14D00520FFF73FF80346002B0ED0FE
:102F20000720FFF739F80346002B08D00820FFF7E9
:102F300033F80346002B02D06FF0030340E03B461A
:102F40001846FFF743FC0346BB62BB6A002B05D063
:102F50004FF0FF33FB6200237B6227E07A691C4B52
:102F60001340002B02D06FF0010329E00320FFF78C
:102F700013F80346002B14D00420FFF70DF8034686
:102F8000002B0ED00720FFF707F80346002B08D0D0
:102F90000820FFF701F80346002B02D06FF003036F
:102FA0000EE000230CE07B6A01337B627B6A1F2BFF
:102FB000F9D97B6B013B7B637B6B002B9ED1FB6A5A
:102FC00018463837BD4680BD2075001010750010BA
:102FD0000880F8FD80B590B000AF78604FF0FF3307
:102FE0007B637B68002B01D1002346E0254B1B78D7
:102FF0005BB2002B09D0234B1B785BB2022B04D0B1
:10300000204B1B785BB2032B03D11F4B1B68BB63A8
:1030100002E04FF48033BB632023FB630D23BB60CE
:10302000BB6BFB6001233B6101237B6107F11C0348
:10303000BB611EE007F108031846FFF7C7FB034614
:103040003B633B6B002B08D04FF0FF337B63FB6B84
:10305000013BFB630023FB6208E0FB691A467B68C7
:103060001A60002309E0FB6A0133FB62FB6A0F2B45
:10307000F9D9FB6B002BDDD17B6B18464037BD4681
:1030800080BD00BF207500101075001080B590B095
:1030900000AF78604FF0FF33BB632023FB63102346
:1030A000FB607B683B6101237B610123BB6107F10E
:1030B0002003FB612EE00420FEF76EFF0346002B89
:1030C00002D06FF0030329E007F10C031846FFF765
:1030D0007DFB03467B637B6B002B05D04FF0FF33FA
:1030E000BB6300233B630FE03A6A0E4B1340002B97
:1030F00002D06FF0010311E00420FEF74DFF0346FC
:103100000CE03B6B01333B633B6B1F2BF9D9FB6B33
:10311000013BFB63FB6B002BCDD1BB6B18464037EB
:10312000BD4680BD0880F8FD80B590B000AF7860E6
:103130004FF0FF33BB632023FB630623FB607B68F8
:103140003B6101237B610123BB6107F12003FB612C
:1031500034E00420FEF720FFB863BB6B002B01D0E6
:10316000BB6B2FE0FFF70CFC0346002B1AD107F1D5
:103170000C031846FFF72AFB03467B637B6B002B8F
:1031800003D04FF0FF33BB630CE03A6A0F4B1340A0
:10319000002B02D06FF0010314E00420FEF7FCFEC8
:1031A00003460FE000233B6302E03B6B01333B63CC
:1031B0003B6B1F2BF9D9FB6B013BFB63FB6B002BBC
:1031C000C7D1BB6B18464037BD4680BD0880F8FDAF
:1031D00080B400AF024B1B681846BD4680BC7047E8
:1031E000101B001080B58EB000AF4FF0FF333B6373
:1031F0000420FEF7D1FE0346002B01D1002351E04D
:1032000020237B630C237B600023BB600123FB60D6
:1032100001233B6107F118037B613FE00520FEF7C6
:10322000BBFE0346002B08D00620FEF7B5FE034682
:10323000002B02D06FF0030334E03B1D1846FFF76C
:10324000C5FA0346FB62FB6A002B05D04FF0FF3343
:103250003B630023BB621BE0BA69144B1340002B95
:1032600002D06FF001031DE00720FEF795FE034634
:10327000002B08D00420FEF78FFE0346002B02D05F
:103280006FF003030EE000230CE0BB6A0133BB6266
:10329000BB6A1F2BF9D97B6B013B7B637B6B002BDC
:1032A000BCD13B6B18463837BD4680BD0880F8FD61
:1032B00080B590B000AF786039604FF0FF337B632A
:1032C0003B68012B02D91923BB6301E01823BB63C0
:1032D0002023FB63BB6BBB602A4B1B785BB2032BC9
:1032E00002D17B68FB6002E07B685B02FB6001232C
:1032F0003B6101237B6107F11C03BB613AE00420C1
:10330000FEF74AFE0346002B02D06FF0030335E0C0
:1033100007F108031846FFF759FA03463B633B6B76
:10332000002B05D04FF0FF337B630023FB621BE0D3
:10333000FA69154B1340002B02D06FF001031DE01A
:103340000620FEF729FE0346002B08D00420FEF7D6
:1033500023FE0346002B02D06FF003030EE0002390
:103360000CE0FB6A0133FB62FB6A1F2BF9D9FB6B94
:10337000013BFB63FB6B002BC1D17B6B18464037D5
:10338000BD4680BD207500100880F8FD80B590B066
:1033900000AF786039604FF0FF337B633B68012BEF
:1033A00002D91223BB6301E01123BB632023FB631B
:1033B000BB6BBB602A4B1B785BB2032B02D17B68D3
:1033C000FB6002E07B685B02FB6001233B61012341
:1033D0007B6107F11C03BB613AE00420FEF7DCFDD2
:1033E0000346002B02D06FF0030335E007F108031A
:1033F0001846FFF7EBF903463B633B6B002B05D008
:103400004FF0FF337B630023FB621BE0FA69154B2F
:103410001340002B02D06FF001031DE00520FEF7E2
:10342000BBFD0346002B08D00420FEF7B5FD034684
:10343000002B02D06FF003030EE000230CE0FB6AC8
:103440000133FB62FB6A1F2BF9D9FB6B013BFB636A
:10345000FB6B002BC1D17B6B18464037BD4680BD4E
:10346000207500100880F8FD80B586B000AFF860C8
:10347000B9607A6000237B617B685B02B3F5803FB3
:1034800002D36FF0010352E02B4AFB6813602B4B11
:1034900040F2FF729A63294B0022DA6200233B61FB
:1034A00002E03B6901333B613B690F2BF9D90420F2
:1034B000FEF772FD0346002B02D06FF0030336E0E7
:1034C0001E4B1F4A5A621D4A7B685B0293621D4B6A
:1034D00001221A601C4B00221A601C4B00221A7039
:1034E0001B4B00221A60FEF717FD7968B868FFF7DA
:1034F000DFFE0346002B02D04FF0FF3317E00E4BE8
:103500001B68052200211846FEF766FC7B6943F024
:1035100099037B61094A7B69D36200233B6102E026
:103520003B6901333B613B690F2BF9D900231846F6
:103530001837BD4680BD00BFA000001000000C4041
:10354000002D3101101B0010141B0010181B00105F
:103550001C1B001080B586B000AFF860B9607A60BF
:1035600000237B617B685B02B3F5803F02D36FF081
:10357000010352E02B4AFB6813602B4B40F2FF72B1
:103580009A63294B0022DA6200233B6102E03B6927
:1035900001333B613B690F2BF9D90420FEF7FCFC9A
:1035A0000346002B02D06FF0030336E0FEF7D4FC95
:1035B0001D4B1E4A5A621C4A7B685B0293621C4B7D
:1035C00001221A601B4B00221A601B4B00221A605A
:1035D0001A4B00221A70134B1B6806220121184651
:1035E000FEF7FAFB7B6943F09B037B610E4A7B6924
:1035F000D36200233B6102E03B6901333B613B69DD
:103600000F2BF9D97968B868FFF7C0FE0346002B85
:1036100002D04FF0FF3300E0002318461837BD46B4
:1036200080BD00BFA400001000000C40404B4C00C7
:10363000101B0010141B0010201B0010181B001082
:1036400080B485B000AF03460A46FB711346BB71D8
:103650000023FB60FB795A01BB79134403F18053CB
:1036600003F530439B00FB60FB6818461437BD46EA
:1036700080BC704780B485B000AF03460A46FB713A
:103680001346BB710523FB73FB79052B75D801A28B
:1036900052F823F0AD3600003337000051370000F8
:1036A000513700005137000057370000BB79062B17
:1036B0000BD9BB79092B02D9BB790B2B05D9BB7967
:1036C0000D2B05D9BB79162B02D80023FB732FE0F5
:1036D000BB790C2B08D0BB790D2B05D0BB79162BF1
:1036E00005D9BB791A2B02D80123FB7320E0BB79E3
:1036F0001D2B05D0BB791E2B02D0BB791F2B02D10D
:103700000223FB7314E0BB791B2B02D0BB791C2B6B
:1037100002D10323FB730BE0BB79072B05D0BB79E8
:10372000082B02D0BB79092B29D10423FB7326E097
:1037300025E0BB791D2B02D80023FB7321E0BB7968
:103740001E2B02D0BB791F2B1BD10123FB7318E06A
:103750000023FB7318E0BB79012B02D9BB79042B42
:1037600002D10023FB730EE0BB79022B02D0BB79A0
:10377000032B08D10323FB7305E000BF04E000BF67
:1037800002E000BF00E000BFFB7B18461437BD46D7
:1037900080BC704780B584B000AF0346FB710B4618
:1037A000BB7113467B710023FB60BA79FB7911462C
:1037B0001846FFF75FFF0346FB72FB7A052B01D12A
:1037C0000D4B15E0BA79FB7911461846FFF738FF23
:1037D000F860FB681B6823F00702FB681A60FB684F
:1037E0001A687B7903F007031A43FB681A60002309
:1037F00018461037BD4680BD0100001080B483B06C
:1038000000AF786039607B6893F82C30DBB203F04E
:103810001F023B68DA607B6893F83030DBB203F05C
:1038200007023B681A617B689B8E9BB2C3F3080258
:103830003B685A617B6893F82830DBB203F01F02C3
:103840003B689A607B6893F82430DBB203F03F0258
:103850003B685A607B6893F82030DBB203F03F028C
:103860003B681A607B6893F83830DBB203F00F02D4
:103870003B689A617B689B8F9BB2C3F30B023B68EA
:10388000DA6100BF0C37BD4680BC70472DE9F04FB0
:1038900097B000AF03463961FB75002387F85730B6
:1038A0000120FDF75DFDF8624FF0FF333B6300231D
:1038B000BB6400237B644FF000034FF00004C7E9B2
:1038C0000E340123FB6463E000233B6554E0FB6A94
:1038D0004FF00004260746EA13161D07FB6C4FF055
:1038E000000403FB06F105FB04F20A44A5FB0301F7
:1038F00053181946FA6C3B6D13443A6902FB03F303
:103900004FF000041A4623461CF070FA03460C469A
:10391000C7E908343B6A7B63D7E9083423003B607E
:1039200000237B603B683B647B6BB3F1004F05D9A0
:103930007B6B5B427B633B6C01333B643B6C002BDA
:1039400016D03B6CB3F5803F12D87A6B3B6B9A4232
:103950000FD27B6B3B633B6C4FF00004C7E90E3426
:103960003B6DBB64FB6C7B643B6B002B09D000E0C0
:1039700000BF3B6D01333B653A6DFB6C9A42A6D3A9
:1039800000E000BF3B6B002B06D0FB6C0133FB64F7
:10399000FB6C0F2B98D900E000BFD7E90E3423430E
:1039A00001D10023C9E0FB6A1B097A6C02FB03F317
:1039B00018464FF000017A6CBB6C13444FF00004C2
:1039C000BA6B04FB02F5FA6B03FB02F22A44BD6BEF
:1039D000A5FB0334224414461A4623461CF006FA7B
:1039E00003460C46FB613A69FB699A4204D93A697D
:1039F000FB69D31A3B6303E0FA693B69D31A3B6363
:103A00003B6B642202FB03F23B69B2FBF3F33B63C3
:103A10003B6B022B00F28F80FB7D012B2BD1494A9F
:103A2000484B1B7BDBB263F07F03DBB21373454A69
:103A3000D7E90E34190AB960B96841EA0461B9607E
:103A4000230AFB603B7A13713E4B97F838201A70BB
:103A50003C4A3C4B1B7BDBB203F07F03DBB21373AE
:103A600038497B6C1B01DAB2BB6C03F00F031343C4
:103A7000DBB28B625CE0FB7D042B26D1324A324BF9
:103A8000DB6843F08003D3602F4AD7E90E344FEA56
:103A9000132A4AEA046A4FEA142B5346DBB25360F6
:103AA000294ABB6BDBB21360274A274BDB6803F064
:103AB0007F03D36024497B6C1B01DAB2BB6C03F03B
:103AC0000F031343DBB28B6232E0FB7D184600F03C
:103AD0003DF8B861BB691B7BDBB263F07F03DAB2F0
:103AE000BB691A73D7E90E344FEA132848EA046811
:103AF0004FEA14295FFA88F2BB691A7197F83820E7
:103B0000BB691A70BB691B7BDBB203F07F03DAB2BF
:103B1000BB691A737B6CDBB21B01DAB2BB6CDBB224
:103B200003F00F03DBB21343DAB2BB6983F828203A
:103B3000012387F8573097F8573018465C37BD4651
:103B4000BDE8F08F0000014000400A4080B485B01D
:103B500000AF0346FB710023FB60FB79022B07D00B
:103B6000032B08D0002B00D008E0074BFB6005E0DA
:103B7000064BFB6002E0064BFB6000BFFB6818468B
:103B80001437BD4680BC704700C00040008009402B
:103B900000C0094080B586B000AF03463960FB71B4
:103BA000FB79042B00F2EA8001A252F823F000BF57
:103BB000C53B0000793C0000C53B0000C53B000050
:103BC000073D0000FB791846FFF7C0FF3861FB791D
:103BD000002B04D101210820FDF7F0FB10E0FB7958
:103BE000022B05D101214FF08070FDF7E7FB07E0C4
:103BF000FB79032B04D101214FF00070FDF7DEFBB0
:103C00003B6907221A723B6900221A7203E03B6982
:103C10001B78DBB27B613B691B7DDBB203F00103E8
:103C2000002BF4D13B69802283F8302000BF3B6930
:103C30001B7DDBB203F02003002BF8D03B69002290
:103C400083F830203B6900225A603B6900221A73D6
:103C50003B6900221A623B69002283F84C203B69D1
:103C6000002283F854203B69002283F850203B69EE
:103C70001B7DDBB27B6181E001211020FDF79EFB03
:103C8000854B07221A72844B00221A7203E0824B82
:103C90001B78DBB27B61804B1B7DDBB203F0010341
:103CA000002BF4D17C4B802283F8302000BF7A4B6C
:103CB0001B7DDBB203F02003002BF8D0764B0022F3
:103CC00083F83020744B00225A60734B00221A7321
:103CD000714B00221A62704B002283F84C206E4B0D
:103CE000002283F854206C4B002283F850206A4B4A
:103CF0001B7DDBB27B61684B00221A74664B1B7E16
:103D0000DBB27B613AE001214FF48070FDF756FB96
:103D1000624B07229A60614B00229A6002E05F4B7F
:103D20001B687B615D4B5B6903F00103002BF6D1DF
:103D30005A4B0122DA6500BF584B5B6903F0200340
:103D4000002BF9D0554B0022DA65544B00225A6003
:103D5000524B0022DA60514B00221A624F4B002274
:103D6000DA644E4B00225A654C4B00221A654B4BCD
:103D70005B697B61494B00225A6200BF3B681A684D
:103D8000FB7911461846FFF781FDFB79012B06D11F
:103D9000414B1B7BDBB203F0C0037B6113E0FB797B
:103DA000042B05D13D4BDB6803F0C0037B610AE0C7
:103DB000FB791846FFF7CAFEF860FB681B7BDBB295
:103DC00003F0C0037B613B685B79012B04D0022BBD
:103DD00007D0002B0FD009E07B6943F001037B6122
:103DE0000AE07B6943F002037B6105E07B6943F0F5
:103DF00003037B6100E000BF3B681B79002B23D0ED
:103E00007B6943F008037B613B681B79013B032B13
:103E100019D801A252F823F0473E0000293E0000C5
:103E2000333E00003D3E00007B6943F010037B61A0
:103E30000AE07B6943F020037B6105E07B6943F086
:103E400030037B6100E000BF3B689B79012B00D011
:103E500004E07B6943F004037B6100BFFB79012B25
:103E600004D10D4B7A69D2B21A7310E0FB79042B9E
:103E700004D10A4A7B69DBB2D36008E0FB791846BB
:103E8000FFF764FEB8607B69DAB2BB681A7300BFE3
:103E90001837BD4680BD00BF0000014000400A4009
:103EA00080B483B000AF78607B684FF4E1321A6071
:103EB0007B6803225A717B6800221A717B6800229A
:103EC0009A7100BF0C37BD4680BC704780B483B088
:103ED00000AF03460A46FB711346BB71FB79042B06
:103EE00020D801A252F823F0FD3E0000053F00005B
:103EF0000D3F0000153F00001D3F00000C4ABB793C
:103F000013700FE00B4ABB7913700BE00A4ABB79C0
:103F1000137007E0094ABB79137003E0084ABB79C4
:103F2000136000BF00BF0C37BD4680BC704700BFA8
:103F300000C00040000001400080094000C009406E
:103F400000400A4080B483B000AF0346FB71FB79A8
:103F5000042B21D801A252F823F000BF713F0000CA
:103F6000793F0000813F0000893F0000913F000041
:103F70000C4B1B78DBB210E00B4B1B78DBB20CE078
:103F80000A4B1B78DBB208E0094B1B78DBB204E07C
:103F9000084B1B68DBB200E0002318460C37BD4617
:103FA00080BC704700C00040000001400080094014
:103FB00000C0094000400A4080B58AB000AFB96037
:103FC0007A601A460346FB731346BB73BB687B617A
:103FD00000233B61FB7B042B1BD801A252F823F08A
:103FE000F53F0000FB3F00000140000007400000DB
:103FF0000D4000003F4B3B610BE03F4B3B6108E055
:104000003E4B3B6105E03E4B3B6102E03D4B3B617B
:1040100000BF7B687B62BB7B012B36D100233B62F8
:104020002FE04FF0FF33FB6105E0FB69002B09D067
:10403000FB69013BFB613B691B6803F02003002B1C
:10404000F3D000E000BFFB69002B49D01023BB6117
:1040500011E07B695A1C7A611A78FB7B114618467D
:10406000FFF734FFBB69013BBB617B6A013B7B62AD
:104070003B6A01333B62BB69002B02D07B6A002B99
:10408000E7D17B6A002BCCD12FE000233B6223E0F9
:104090007B6A002B26D03B691B6803F02003002BB2
:1040A00022D01023BB6111E07B695A1C7A611A7817
:1040B000FB7B11461846FFF709FF7B6A013B7B62D9
:1040C000BB69013BBB613B6A01333B62BB69002BAF
:1040D00002D07B6A002BE7D17B6A002BD8D104E0A9
:1040E00000BF02E000BF00E000BF3B6A184628376F
:1040F000BD4680BD14C0004014000140148009403A
:1041000014C0094014400A4090B58BB000AFB960AC
:104110007A601A460346FB731346BB73BB68BB61E8
:1041200000237B61FB7B042B1BD801A252F823F0F8
:10413000454100004B410000514100005741000043
:104140005D410000314B7B610BE0314B7B6108E04E
:10415000304B7B6105E0304B7B6102E02F4B7B6194
:1041600000BF7B687B62BB7B012B2AD100233B62B3
:1041700023E04FF0FF33FB6105E0FB69002B09D022
:10418000FB69013BFB617B691B6803F00103002BAA
:10419000F3D000E000BFFB69002B2ED0BC69631C8C
:1041A000BB61FB7B1846FFF7CDFE034623707B6A9D
:1041B000013B7B623B6A01333B627B6A002BD8D1B7
:1041C0001EE000233B6214E07B691B6803F00103DF
:1041D000002B14D0BC69631CBB61FB7B1846FFF746
:1041E000B1FE034623703B6A01333B627B6A013BAD
:1041F0007B627B6A002BE7D102E000BF00E000BFDA
:104200003B6A18462C37BD4690BD00BF14C0004025
:10421000140001401480094014C0094014400A40B1
:1042200080B584B000AF03460A46FB711346BB71EC
:10423000BB79012B27D1FB79012B0AD1244A244BCE
:1042400093F83030DBB263F07F03DBB282F83030BA
:1042500039E0FB79042B06D11E4A1E4BDB6D43F07F
:104260000103D3652FE0FB791846FFF76FFCF86078
:10427000FB6893F83030DBB263F07F03DAB2FB689F
:1042800083F830201FE0FB79012B07D1104B93F806
:1042900030300F4B002283F8302014E0FB79042BE0
:1042A00005D10C4BDB6D0B4B0022DA650BE0FB7983
:1042B0001846FFF74BFCB860BB6893F83030BB681A
:1042C000002283F8302000BF1037BD4680BD00BFFC
:1042D0000000014000400A4080B483B000AF0346B4
:1042E000FB71084997F907305B09FA7902F01F0260
:1042F000012000FA02F241F8232000BF0C37BD462E
:1043000080BC704700E100E080B483B000AF03469A
:104310003960FB7197F90730002B0BDA0D49FB79F7
:1043200003F00F03043B3A68D2B2D200D2B20B447E
:104330001A7609E0084997F907303A68D2B2D200F4
:10434000D2B20B4483F8002300BF0C37BD4680BCBB
:10435000704700BF00ED00E000E100E080B584B0F0
:1043600000AF78600023FB6006E04FF47A7000F045
:104370000BF8FB680133FB60FA687B689A42F4D360
:1043800000BF1037BD4680BD80B485B000AF7860F7
:104390000023FB6002E0FB680133FB607B689A004E
:1043A000FB689A42F7D800BF1437BD4680BC7047FF
:1043B00080B582B000AF4FF000537B607B68454A08
:1043C00013607B6803F580731A46434B1A607B6861
:1043D00003F588731A46414B1A607B6803F59073A6
:1043E0001A463F4B1A607B6803F598731A463D4B9B
:1043F0001A607B6803F5A0731A463B4B1A607B6812
:1044000003F5A8731A46394B1A607B6803F5E87305
:104410001A46374B1A607B6803F580531A46354BB2
:104420001A60344B1B681233334A1360324B1B68DB
:104430000933324A13602A4B1B68184600F098FC77
:10444000284B1B68184600F093FC274B1B68184646
:1044500000F08EFC204B1B68184600F073FC1F4BCD
:104460001B68184600F06EFC1A4B1B68184600F0DB
:1044700095FC3220FFF772FF214B00225A60204B3F
:1044800000221A621E4B00229A621D4B01229A6082
:104490001B4B1C4A5A631A4A194B5B6823F0C00332
:1044A00043F080035360164B4FF480321A65144B6F
:1044B000084A12689A61124BDB681149104AD268A7
:1044C0001343CB600E4B104A1A6100BF0837BD463C
:1044D00080BD00BF3075001050750010347500109D
:1044E0004C750010487500103875001040750010AC
:1044F0002C75001028750010447500103C750010D4
:1045000000C00820DF2E78275200008080B500AF61
:104510002C4A2C4BD3F8C43043F00043C2F8C430CB
:10452000294B1922C3F8F42F00BF274BD3F8F83FCB
:1045300003F01903192BF8D1234B0122C3F81021E2
:1045400001221D210020FFF725F901221E21002054
:10455000FFF720F9012209210220FFF71BF90122B0
:1045600012210120FFF716F9022213210120FFF783
:1045700011F901221B210120FFF70CF901221F2153
:104580000020FFF707F903220E210020FFF702F9B0
:1045900001220D210020FFF7FDF801220C2100204F
:1045A000FFF7F8F801221F210120FFF7F3F8FFF7CA
:1045B000FFFE1820FFF790FE00211820FFF7A4FE51
:1045C00000BF80BD00C00F4000C0082080B483B091
:1045D00000AF5C4BDB687B605A4B1B693B607A68C1
:1045E0003B681340002B00F0A7807A683B681340BB
:1045F0007B607B6803F04003002B7FD0514B5B6DE9
:1046000003F48033002B2FD04E4B1B6D03F400437B
:10461000002B06D04C4B1B6843F001034A4A136041
:104620001EE0484B5B6D03F00103002B0FD0474B9E
:1046300000221A70464B00221A60434B1B6843F05D
:104640000103414A1360434B01221A6008E03E4BCC
:104650001B6823F001033C4A13603E4B00221A60A2
:10466000384B4FF480325A65364B9B6D03F48033E0
:10467000002B2FD0334B1B6D03F40043002B06D0CF
:10468000314B1B6843F002032F4A13601EE02D4B91
:104690009B6D03F00103002B0FD02C4B00221A70EE
:1046A0002B4B00221A60284B1B6843F00203264A5A
:1046B0001360284B01221A6008E0234B1B6823F08B
:1046C0000203214A1360234B00221A601D4B4FF452
:1046D00080329A651B4B5B6D03F48013002B03D073
:1046E000184B4FF480125A65164B9B6D03F48013E0
:1046F000002B03D0134B4FF480129A657B6803F0B4
:104700000203002B09D0124B01221A60124B1B68C6
:104710001B681B0FDAB20D4B1A707B6803F0100395
:10472000002B04D00D4B1B6801330C4A1360054A63
:104730007B68D36000BF00E000BF0C37BD4680BC83
:10474000704700BF00C00820281B0010301B00105D
:104750002C1B0010241B001050750010341B00107F
:1047600080B584B002AF00BF594B1B68002BFBD053
:104770006420FFF7F3FD574B1B6803F00103002B88
:104780000DD0554B10225A6500BF534B5B6D03F0A3
:104790001003002BF9D1504B4FF480125A654D4B4A
:1047A0001B6803F00203002B0DD04B4B10229A65BF
:1047B00000BF494B9B6D03F01003002BF9D1464B12
:1047C0004FF480129A65C820FFF7C8FD434B1B6861
:1047D0004FF490121A60424B1B680193122300930E
:1047E00000234FF480720621802000F0D9F9786010
:1047F0007B68002B01D07B6865E0384B1B68384A2A
:10480000126807321278D2B212041A6000230193A0
:1048100000230093002301220521002000F006FA66
:1048200078607B68002B01D07B684CE00220FFF7AA
:1048300095FD2A4B1B68294A1268126842F0010252
:104840001A60284B1B6801930923009300234FF43F
:1048500000720621802000F0A3F978607B68002BAD
:1048600001D07B682FE01F4B1B680233184600F015
:10487000DFFA03461A461B4B1B6801930092002384
:104880004FF400720621802000F08AF978607B687E
:10489000002B01D07B6816E000F026F878607B687A
:1048A000002B01D07B680EE00023019300230093CE
:1048B000002301220921002000F0B8F9786064206B
:1048C000FFF74CFD7B6818460837BD4680BD00BF2A
:1048D000241B0010281B001000C008204C7500107D
:1048E0002875001044750010B0B582B000AF594B68
:1048F0001B687B600023FB707B6801331B78DBB295
:10490000022B02D06FF00A039FE07B681B78DBB2BA
:104910001A467B6813447B6082E07B6801331B7816
:10492000DBB2042B02D0052B1FD071E07B6805336E
:104930001B78DBB2082B73D17B6806331B78DBB2A4
:10494000062B6DD17B6807331B78DBB2502B67D108
:104950000123FB70404B00221A707B681B78DBB28E
:104960001A467B6813447B605AE07B6803331B78EC
:10497000DBB203F00303022B42D17B6802331B78C6
:10498000DBB25BB2002B1DDA344B1D687B6802334F
:104990001B78DBB203F07F03DB0143F4805444F067
:1049A00001047B680433184600F042FA03461B04F6
:1049B00023432B607B681B78DBB21A467B68134469
:1049C0007B602DE0264B1D687B6802331B78DBB2D1
:1049D00003F07F03DB0143F4006444F001047B68CF
:1049E0000433184600F024FA03461B0423432B60CB
:1049F0007B681B78DBB21A467B6813447B600FE050
:104A00007B681B78DBB21A467B6813447B6007E047
:104A10007B681B78DBB21A467B6813447B6000BF5F
:104A20000C4B1C680B4B1B680233184600F000FA55
:104A30000346E2187B689A427FF46FAFFB78002B45
:104A400001D0002301E06FF00B0318460837BD4684
:104A5000B0BD00BF44750010A800001048750010DC
:104A60003875001080B400AF034B1B78DBB21846DA
:104A7000BD4680BC704700BFA800001080B586B05E
:104A800000AFF860B9607A603B60404B1B68FA6821
:104A90009A420AD1BB68002B03D14FF000737B61AF
:104AA00005E04FF040737B6101E000237B61384BF0
:104AB0001A68B9687B690B4343F0704343F4802361
:104AC0001360344B1B6800221A60314B1B687A68F4
:104AD0005A60304B1B6800225A602D4B1B682D4AD0
:104AE00012689A602B4B1B6800229A60284B1B6847
:104AF0003A68013A79680A44DA60264B1B6800225A
:104B0000DA60FB689B6803F00203214A12681A43CB
:104B1000FB689A601F4B1B681A46FB685A60FB686B
:104B20000022DA60194B1B68FA689A420FD11A4AC0
:104B3000FB681362184A184B9B6843F002039360AA
:104B4000154A154B5B6843F0100353600EE0124AA0
:104B5000FB689362104A104B9B6843F00403936018
:104B60000D4A0D4B5B6843F02003536000F036F9AB
:104B70000A4B1B78DBB2002B01D1002301E04FF080
:104B8000FF3318461837BD4680BD00BF4C75001076
:104B9000507500103475001000C00820301B001044
:104BA00090B587B002AF0446084611461A46234620
:104BB000FB710346BB710B46BB8013467B807C8830
:104BC000BA88B979F8793B8C0093234600F074F8E1
:104BD000144B1868144B1A6808230021FFF74EFF86
:104BE000F860FB68002B17D13B8C002B08D00D4BD5
:104BF00018683B8C7A6A4FF48011FFF73FFFF8602A
:104C0000FB68002B08D1074B1868002300224FF4E3
:104C10000021FFF733FFF860FB6818461437BD46E4
:104C200090BD00BF4C7500104075001090B587B066
:104C300002AF0446084611461A462346FB71034656
:104C4000BB710B46BB8013467B807C88BA88B979E0
:104C5000F8793B8C0093234600F02EF8144B18682B
:104C6000144B1A6808230021FFF708FFF860FB685F
:104C7000002B17D13B8C002B08D00D4B18683B8CB8
:104C80007A6A4FF40021FFF7F9FEF860FB68002B09
:104C900008D1074B1868002300224FF48011FFF75A
:104CA000EDFEF860FB6818461437BD4690BD00BFA6
:104CB0004C7500104075001090B585B000AF0446EB
:104CC000084611461A462346FB710346BB710B4644
:104CD000BB8013467B800023FB6008E0184B1A68FA
:104CE000FB68134400221A70FB680133FB603A8CA6
:104CF000FB689A42F2DC124B1B68FA791A70104B6F
:104D00001B680133BA791A700D4B1B680233BA88DD
:104D10001146184600F0A4F8094B1B6804337A8842
:104D20001146184600F09CF8054B1B6806333A8C78
:104D30001146184600F094F800BF1437BD4690BDE8
:104D40004075001080B483B000AF78607B680022AB
:104D50001A607B6800225A607B6800229A607B6838
:104D60000022DA6000BF0C37BD4680BC704700BF30
:104D700080B483B000AF78607B6800221A607B68E3
:104D800000225A607B6800229A607B680022DA6009
:104D900000BF0C37BD4680BC704700BF80B485B0F3
:104DA00000AF78600023FB600FE07B68FA680021A9
:104DB00043F822107B680022A3F880207B68002241
:104DC000C3F88420FB680133FB60FB681F2BECD920
:104DD00000BF1437BD4680BC704700BF80B400AF31
:104DE00000BF054B1B68002BFBD0034B00221A6051
:104DF00000BFBD4680BC70472C1B001080B483B040
:104E000000AF786039603B461A787B681A707B681F
:104E100001337A781A707B680233BA781A707B682B
:104E20000333FA781A7000BF0C37BD4680BC704758
:104E300080B485B000AF786007F10E037A6812780D
:104E4000D2B21A7007F10E0301337A685278D2B2E7
:104E50001A70FB8918461437BD4680BC704700BFE6
:104E600080B483B000AF78600B467B80BB1C1A789F
:104E70007B681A707B680133FA781A7000BF0C37B0
:104E8000BD4680BC704700BF80B485B000AF78607D
:104E900007F10C037A68D278D2B21A7007F10C03CA
:104EA00001337A689278D2B21A7007F10C03023398
:104EB0007A685278D2B21A7007F10C0303337A6819
:104EC0001278D2B21A70FB6818461437BD4680BCFF
:104ED000704700BF80B483B000AF78603960FA7863
:104EE0007B681A707B680133BA781A707B6802336A
:104EF0007A781A707B6803333A4612781A7000BFCA
:104F00000C37BD4680BC704780B483B000AF78607A
:104F10000B467B80FA787B681A707B680133BA1C79
:104F200012781A7000BF0C37BD4680BC704700BFB6
:104F300080B485B000AFF860B9607A60FB68043B6C
:104F4000FB60FB684FF080721A60FB68043BFB60FB
:104F5000BA68FB681A60FB68043BFB60FB680022D0
:104F60001A60FB68143BFB607A68FB681A60FB6898
:104F7000203BFB60FB6818461437BD4680BC704779
:104F8000064B19680868B0E8F00F80F309884FF005
:104F9000000080F311884EF00D0E70474C6B00102E
:104FA00000BF00BF03480068006880F3088800DF86
:104FB00000BF000008ED00E080B500AF0A4A0A4BD0
:104FC0001B6843F478031360074A074B1B6843F0E0
:104FD0007843136000F07AF8044B00221A60FFF760
:104FE000E1FF0023184680BD20ED00E0AC0000107A
:104FF00080B400AF034B4FF080521A6000BFBD4633
:1050000080BC704704ED00E080B400AF4FF0280092
:1050100080F31188044B1B680133034A136000BFFF
:10502000BD4680BC704700BFAC00001080B400AF2C
:10503000084B1B68013B074A1360064B1B68002B9B
:1050400003D14FF0000080F3118800BFBD4680BC43
:10505000704700BFAC000010EFF309800C4B1A68DA
:1050600020E9F00F10602DE908404FF0280080F390
:10507000118800F0E7FB4FF0000080F31188BDE8D5
:10508000084019680868B0E8F00F80F30988704795
:105090004C6B001000BF00BF80B582B000AF0A4B60
:1050A0004FF080521A6000237B604FF0280080F39D
:1050B000118800F057FB4FF0000080F3118800BF0B
:1050C0000837BD4680BD00BF04ED00E080B400AFEE
:1050D000044B054A1A60054B07221A6000BFBD4603
:1050E00080BC704714E000E0BFD4010010E000E095
:1050F00080B58AB000AF78600023FB6100F0A4FAAD
:10510000474B1B68002B18D1464B474A1A60454B4A
:1051100000225A60454B4FF4A0425A60434B002294
:105120001A60414B7B617B694FF4A0425A607B69F6
:105130003E4A1A603A4B01221A607B68002B0ED05F
:1051400010231A467B6813447B607B6803F00703D7
:10515000002B04D07B6823F0070308337B607B6857
:10516000002B56D07B68B3F5A04F52D22D4B3B623B
:105170002C4B1B687B6204E07B6A3B627B6A1B688A
:105180007B627B6A5A687B689A4203D27B6A1B689F
:10519000002BF1D17B6A254A93423AD03B6A1B68C7
:1051A00010221344FB617B6A1A683B6A1A607B6AAF
:1051B0005A687B68D31A10225200934222D97A6A25
:1051C0007B6813443B617B6A5A687B68D21A3B69EF
:1051D0005A607B6A7A685A603B695B68FB60114B76
:1051E000BB6102E0BB691B68BB61BB691B685A6895
:1051F000FB689A42F6D3BB691A683B691A60BB69BF
:105200003A691A600A4B1A687B6A5B68D31A084AC3
:10521000136000F027FAFB6918462837BD4680BDA9
:10522000486B0010386B0010381B0010406B0010EA
:10523000B000001080B586B000AF78607B683B613D
:105240007B68002B27D010235B423A6913443B61F3
:105250003B69FB6000F0F8F9FB685B68BB60104BD2
:105260007B6102E07B691B687B617B691B685A6814
:10527000BB689A42F6D37B691A68FB681A607B693F
:10528000FA681A60FB685A68064B1B681344054AA3
:10529000136000F0E7F900BF1837BD4680BD00BFBE
:1052A000386B0010B000001080B483B000AF78609D
:1052B0007B6803F108027B685A607B684FF0FF321D
:1052C0009A607B6803F108027B68DA607B6803F10F
:1052D00008027B681A617B6800221A6000BF0C37E5
:1052E000BD4680BC704700BF80B483B000AF78601B
:1052F0007B6800221A6100BF0C37BD4680BC704736
:1053000080B485B000AF786039607B685B68FB6013
:10531000FB685A683B685A607B685A683B689A60C9
:10532000FB685B683A689A60FB683A685A607B6819
:105330003A685A603B687A681A617B681B685A1C35
:105340007B681A6000BF1437BD4680BC704700BF41
:1053500080B485B000AF786039603B681B68BB6083
:10536000BB68B3F1FF3F03D17B681B69FB600CE0B6
:105370007B680833FB6002E0FB685B68FB60FB68EE
:105380005B681A68BB689A42F6D9FB685A683B6842
:105390005A603B685B683A689A603B68FA689A6052
:1053A000FB683A685A603B687A681A617B681B68D8
:1053B0005A1C7B681A6000BF1437BD4680BC70471A
:1053C00080B485B000AF78607B685B687A6892686B
:1053D0009A607B689B687A6852685A607B681B6930
:1053E000FB60FB685A687B689A4203D17B689A68C5
:1053F000FB685A607B6800221A61FB681B685A1EB2
:10540000FB681A6000BF1437BD4680BC704700BF00
:1054100080B58AB002AFF860B9603B601346FB808C
:10542000FB88396B184600F015FBB861BB69002B8F
:1054300070D0BB691A6BFB8803F18043013B9B0072
:1054400013447B617B6923F007037B61FB88009336
:105450007B6BBA6AB968B86900F044FA3A68F968CF
:105460007869FFF765FD0246BB691A60FB6A002B8D
:1054700002D0FB6ABA691A60FFF7C6FD314B1B68A0
:105480000133304A1360304B1B68002B09D12E4A80
:10549000BB6913602B4B1B68012B0FD100F058FA2E
:1054A0000CE02A4B1B68002B08D1274B1B68DA6ADB
:1054B000BB6A9A4202D8244ABB691360BB69DA6AA4
:1054C000234B1B689A4203D9BB69DB6A204A1360ED
:1054D000204B1B6801331F4A1360BB69DA6A1E4BFD
:1054E0001B689A4203D9BB69DB6A1B4A1360BB691C
:1054F000DA6A13469B0013449B00184A1A44BB699E
:10550000043319461046FFF7FBFE0123FB61FFF74A
:105510008DFD02E04FF0FF33FB61FB69012B0BD1E6
:105520000A4B1B68002B07D0074B1B68DA6ABB6A63
:105530009A4201D2FFF75CFDFB6918462037BD4651
:1055400080BD00BF246C00104C6B0010346C001048
:105550002C6C0010486C0010306C0010506B001068
:1055600080B584B000AF78600023FB607B68002BBF
:105570002BD000F069F8194B1A687B681344BB60A4
:10558000174B1B6804331846FFF71AFF144B1B68B0
:10559000BA685A60114B1B68BA689A4209D2114B1B
:1055A0001A680F4B1B68043319461046FFF7D0FEEC
:1055B00008E00D4B1A680A4B1B6804331946104665
:1055C000FFF7C6FE00F04EF8F860FB68002B01D133
:1055D000FFF70EFD00BF1037BD4680BD286C0010E0
:1055E0004C6B0010E06B0010DC6B001080B586B0D7
:1055F00004AF0023039300230293002301930023AD
:105600000093002364220C490C48FFF701FF7860E7
:105610007B68012B0BD14FF0280080F31188084BD9
:1056200001221A60074B00221A60FFF7C5FC00BF79
:105630000837BD4680BD00BF600C0200D558000091
:10564000346C0010286C001080B400AF044B1B6851
:105650000133034A136000BFBD4680BC704700BFE2
:10566000386C001090B583B000AF00237B60FFF76B
:10567000CBFC344B1B68013B324A1360314B1B6837
:10568000002B57D1304B1B68002B53D000233B60BD
:1056900024E004F118031846FFF792FE231D184674
:1056A000FFF78EFEE26A294B1B689A4202D9E36A31
:1056B000264A1360E26A13469B0013449B00244A67
:1056C0001344221D11461846FFF71AFEE26A214BC9
:1056D0001B68DB6A9A4201D301233B601E4B1B68A7
:1056E000002B03D01C4BDB68DB6800E000231C466A
:1056F000002CCED1194B1B68002B0DD006E000F01A
:1057000031F8164B1B68013B144A1360134B1B689E
:10571000002BF4D101233B603B68012B03D0104BDD
:105720001B68012B06D101237B600D4B00221A6000
:10573000FFF75EFCFFF77AFC7B6818460C37BD4626
:1057400090BD00BF386C0010246C0010306C00104D
:10575000506B00104C6B0010E46B00103C6C0010A0
:10576000406C001090B583B000AF2E4B1B68002B2F
:105770004CD12D4B1B6801332B4A13602A4B1B68FD
:10578000002B34D1294B1B687B60294B1B68274AAF
:105790001360274A7B681360264B1B680133254A38
:1057A000136024E06268204B1B689A4234D8231DA2
:1057B0001846FFF705FEA36A002B04D004F1180376
:1057C0001846FFF7FDFDE26A1B4B1B689A4202D99F
:1057D000E36A194A1360E26A13469B0013449B0074
:1057E000164A1344221D11461846FFF789FD0F4B38
:1057F0001B681B68002B04D00C4B1B68DB68DB6844
:1058000000E000231C46002CCCD106E00C4B1B68AA
:1058100001330B4A136000E000BF00BF0C37BD46E8
:1058200090BD00BF386C0010286C0010DC6B0010BD
:10583000E06B0010446C0010306C0010506B0010D6
:105840003C6C001080B483B000AF1D4B1B68002B74
:1058500008D01C4B01221A602DE01B4B1B68013B3A
:10586000194A1360184B1A68184913469B001344D1
:105870009B000B441B68002BEFD0134B1A68134698
:105880009B0013449B00114A13447B607B685B6858
:105890005A687B685A607B685A687B6808339A420A
:1058A00004D17B685B685A687B685A607B685B6878
:1058B000DB68074A13600C37BD4680BC704700BFE9
:1058C000386C0010406C0010306C0010506B0010F1
:1058D0004C6B001080B582B000AF786000F078F8B3
:1058E000FCE700BF80B584B000AFF860B9607A60B3
:1058F0003B60FB6834330C22B968184619F0B0FDE0
:10590000FB68002283F83F207B68042B01D9042325
:105910007B60FB687A68DA62FB687A681A64FB6805
:1059200004331846FFF7E0FCFB6818331846FFF70E
:10593000DBFCFB68FA681A617B68C3F10502FB684F
:105940009A61FB68FA685A6200BF1037BD4680BD95
:1059500080B582B000AF00237B600CE07A6813460C
:105960009B0013449B00124A13441846FFF79CFC0B
:105970007B6801337B607B68042BEFD90D48FFF710
:1059800093FC0D48FFF790FC0C48FFF78DFC0C488A
:10599000FFF78AFC0B48FFF787FC0B4B054A1A60A0
:1059A0000A4B054A1A6000BF0837BD4680BD00BFDC
:1059B000506B0010B46B0010C86B0010E46B00104B
:1059C000F86B0010106C0010DC6B0010E06B001026
:1059D00080B582B000AF1B4B1B68002B2ED0FFF7A9
:1059E00033FE194B1B68002B0CBF01230023DBB2D5
:1059F0007B60FFF737FE7B68002B1FD1FFF704FBAE
:105A0000114B1B68002B03D0104B5B68DB6800E078
:105A100000233B603B6804331846FFF7D1FC0C4B76
:105A20001B68013B0A4A1360064B1B68013B054A91
:105A30001360FFF7FBFA386800F03EF800BF083744
:105A4000BD4680BD0C6C0010F86B0010006C00109F
:105A5000246C001080B584B000AF03463960FB8031
:105A60004420FFF745FBF860FB68002B1ED03B6825
:105A7000002B06D1FB889B001846FFF739FB034635
:105A800000E03B68FA681363FB681B6B002B05D1D1
:105A9000F868FFF7CFFB0023FB6007E0FB68186B9B
:105AA000FB889B001A46A52117F041FFFB681846AA
:105AB0001037BD4680BD00BF80B582B000AF7860B2
:105AC0007B681B6B1846FFF7B5FB7868FFF7B2FBE6
:105AD00000BF0837BD4680BD80B485B000AF034627
:105AE0003960FB80FB887F2B02D8FB88FB8125E097
:105AF0003B68002B0BD0FB88FF2B05D8FB88803B35
:105B0000114A32F8133000E00023FB8116E0002335
:105B1000FB8109E0FB890C4A32F81330FA889A427B
:105B200006D0FB890133FB81FB897F2BF2D900E092
:105B300000BFFB8980339BB2DBB2FB81FB89184637
:105B40001437BD4680BC7047680C020080B487B033
:105B500000AF0346FB80FB88B3F5805F01D23D4B6D
:105B600000E03D4B7B617B699A1C7A611B887B82DC
:105B70007B8A002B68D0FA887B8A9A4264D37B693F
:105B80009A1C7A611B883B823B8A1B0AFB813B8AF9
:105B9000DBB23B82FA88798A3B8A0B449A4249DA23
:105BA000FB89082B4FD801A252F823F0D15B0000EB
:105BB000E35B0000F95B0000015C0000095C000091
:105BC000115C0000195C0000215C0000295C0000F1
:105BD000FA887B8AD31A5B007A6913441B88FB809E
:105BE00027E0FA887B8AD31A9BB203F001039BB2A9
:105BF000FA88D31AFB801CE0FB88103BFB8018E07E
:105C0000FB88203BFB8014E0FB88303BFB8010E0EE
:105C1000FB881A3BFB800CE0FB880833FB8008E024
:105C2000FB88503BFB8004E0FB88A3F5E353FB803B
:105C300000BF08E0FB89002B95D13B8A5B007A69A5
:105C400013447B618FE700BFFB8818461C37BD46B5
:105C500080BC7047680D02005C0F020080B500AF89
:105C6000FCF7FEF800BF80BD80B48BB000AFF860D9
:105C7000B9607A60BB68DB08BB61BB68DAB2BB693C
:105C8000DBB2DB00DBB2D31AFB75FB7DC3F108038B
:105C90001A467B689A420DD9FA68BB6913441B788F
:105CA0001A46FB7D1A4101217B6801FA03F3013B8F
:105CB000134055E000233B62FA68BB6913441B782C
:105CC0001A46FB7D1A41FB7DC3F10803012101FA4D
:105CD00003F3013B13403B62FB7DC3F1080387F8EC
:105CE000273097F827307A68D31A7B600123FB614D
:105CF00019E0BA69FB691344FA6813441B781A4621
:105D000097F8273002FA03F31A463B6A13433B62C3
:105D10007B68083B7B6097F82730083387F827308B
:105D2000FB690133FB617B68082BE2D87B68002BA1
:105D300015D0BA69FB691344FA6813441B781946F5
:105D400001227B6802FA03F3013B01EA030297F8A0
:105D5000273002FA03F31A463B6A13433B623B6A5D
:105D600018462C37BD4680BC704700BF80B485B054
:105D700000AF786039600023FB601AE07A68FB6846
:105D800013441B78FB727A68FB6813443968FA681D
:105D90008A1A013A79680A4412781A703A68FB68DC
:105DA000D31A013B7A681344FA7A1A70FB680133FC
:105DB000FB603B685A08FB689A42DFD800BF143783
:105DC000BD4680BC704700BF80B582B000AF0346BF
:105DD000FB71FB79002B02D0012B29D04CE0294B21
:105DE00001221A70FBF74AFD0020FCF773FA034604
:105DF000002B03D0234B1B78DBB23EE000F04CF8C5
:105E00000346012B08D11F4B1B78DBB223F00103A3
:105E1000DAB21C4B1A7007E01A4B1B78DBB243F066
:105E20000203DAB2174B1A70164B1B78DBB224E070
:105E3000154B1B7803F00103002B1AD0FEF766FB0D
:105E4000FEF78EFC0346002B13D1FEF70BFE034634
:105E5000002B0ED10D4A0E490E48FAF7FBF9034606
:105E6000002B06D1084B1B7823F00103DAB2064B56
:105E70001A70054B1B7800E0012318460837BD4611
:105E800080BD00BFB5000010B40000109C7500106C
:105E9000C4750010C075001080B584B000AF002339
:105EA000FB73FCF79BFE03461A46874B1A75864B1D
:105EB00093F91430B3F1FF3F00F0F3808348FCF70F
:105EC00099FE0346002B40F0EE80FCF709FF0346E5
:105ED000002B40F0EA80FCF775FF02467A4BDA604F
:105EE0007B48FCF779FF0346002B40F0E08004215B
:105EF0007748FFF73BFF04217648FFF737FF04217F
:105F00007548FFF733FF04217448FFF72FFF102176
:105F10006F48FFF72BFF6C4B4FF400721A606A4B0F
:105F200093F843309B09FB73FB7B012B0BD11622AB
:105F300030216748FFF798FEB860BB6801339B02C9
:105F4000614A53601CE00C223E216148FFF78CFE41
:105F5000B86003222F215E48FFF786FE7860042296
:105F600050215B48FFF780FE3860BB685A1C7B6895
:105F700002339A403B6802FA03F35B0A524A5360C9
:105F8000514B93F91430032B4ED801A252F823F051
:105F9000DD5F0000A15F0000D55F0000D55F00005D
:105FA00005222A214A48FFF75FFE03460133464A8D
:105FB0009360042216214648FFF756FE0246424BE4
:105FC0009B689340404A93603F4B9B685B0A3E4A04
:105FD00093602AE03C4B01229A6026E001222E21A8
:105FE0003B48FFF741FE0346002B03D0364B01220E
:105FF0009A601AE0072227213548FFF735FE03464D
:106000000133314A9360042216213148FFF72CFEF8
:1060100002462D4B9B6893402B4A93602A4B9B680A
:106020005B0A294A936000E000BFFCF73DFF03468E
:10603000002B3ED12A48FCF7D1F8234B93F91430BA
:10604000002B09D0204B93F91430022B04D01E4BA7
:1060500093F91430032B06D10120FCF7F5F8034621
:10606000002B06D02AE00020FCF7EEF80346002BB8
:1060700021D1154B93F91430012B09D0124B93F910
:106080001430002B04D0104B93F91430022B06D19E
:106090004FF40070FCF7FAFF0346002B0DD10123EB
:1060A0000DE000BF0AE000BF08E000BF06E000BF4F
:1060B00004E000BF02E000BF00E000BF002318467C
:1060C0001037BD4680BD00BF5875001070750010B8
:1060D0008C75001090750010947500109875001064
:1060E000002D310180B582B000AF0E4B32221A80F4
:1060F0000DE03B1D1846FCF76DFF0346002B06D153
:106100007B6803F48073002B01D0012305E0054B6D
:106110001B889BB2002BECD1002318460837BD46E4
:1061200080BD00BF4C6C001080B588B000AF034646
:106130003A60FB710B46BB713B68BB61FB79002B7E
:1061400003D0012B00F0AB80D7E06E4B1B78DBB2A5
:1061500003F00103002B01D00323CFE00123FB77E1
:10616000BB790E2B00F2938001A252F823F000BFFE
:10617000AD610000BD610000CB610000DB6100008B
:106180008F6200008F6200008F6200008F6200004B
:106190008F6200008F620000E9610000FB61000077
:1061A000256200008F62000051620000FFF79AFF35
:1061B0000346012B6ED10023FB776BE0524B5A68EC
:1061C0003B681A600023FB7767E04F4B1B689AB26D
:1061D0003B681A800023FB775FE04B4B9A683B6873
:1061E0001A600023FB7758E0474B93F91430DAB27A
:1061F000BB691A700023FB774FE00023BB770BE0ED
:10620000BB7FBA691344BA7F3F490A4492F83420ED
:106210001A70BB7F0133BB77BB7F0F2BF0D90023F4
:10622000FB773AE0394B7B610023BB770AE0BB7F09
:10623000BA691344BA7F79690A4412781A70BB7F2D
:106240000133BB77BB7F1B2BF1D90023FB7724E005
:1062500007F10C031846FCF7BDFE0346002B1BD1CB
:1062600007F10C033B610023BB770AE0BB7FBA69EF
:106270001344BA7F39690A4412781A70BB7F01331C
:10628000BB77BB7F012BF1D90023FB7704E004230C
:10629000FB7702E000BF00E000BFFB7F2EE01C4B5D
:1062A0001B7803F00103002B01D0032326E0002319
:1062B000FB77BB79032B1AD801A252F823F000BF59
:1062C000F5620000DD620000D1620000E7620000BC
:1062D000104B1B689AB23B681A800CE00E4B1A6890
:1062E0003B681A6007E03B6801221A6003E0042360
:1062F000FB7700E000BFFB7F00E004231846203757
:10630000BD4680BDB50000105875001070750010B6
:10631000B4000010C0750010C475001080B586B0C0
:1063200000AFB9607A603B600346FB730023FB82D9
:106330003B68002B01D1042356E0FB7B002B02D0ED
:10634000012B25D04FE02A4B1B78DBB203F0010371
:10635000002B01D0032347E03A687968B868FDF75D
:10636000F9F80346002B11D100BFFCF731FF0346BB
:10637000002BFAD13B68012B06D9FCF733FF03460B
:10638000002B01D001232FE000232DE001232BE07F
:10639000184B1B7803F00103002B01D0032323E0EB
:1063A0003B6899B2144B1B681A467868FAF7F0F804
:1063B0000346002B15D10023FB820CE0FB8ABA6850
:1063C00013440D4A1168FA8A0A441278D2B21A703C
:1063D000FB8A0133FB82FB8AB3F5007FEED30023F7
:1063E00002E0012300E0042318461837BD4680BDB3
:1063F000B5000010B40000102C75001080B483B0FC
:1064000000AF0346FB71FB79002B02D0012B04D0B7
:1064100006E0064B1B78DBB203E0054B1B7800E07F
:10642000012318460C37BD4680BC7047B5000010EC
:10643000B400001080B586B000AFB9607A603B60F0
:106440000346FB730023FB823B68002B01D104232E
:1064500055E0FB7B002B02D0012B25D04EE02A4BD0
:106460001B78DBB203F00103002B01D0032346E0CD
:106470003A687968B868FCF7F7FF0346002B11D13A
:1064800000BFFCF7A5FE0346002BFAD13B68012BA9
:1064900006D9FCF7A7FE0346002B01D001232EE00E
:1064A00000232CE001232AE0184B1B7803F00103A2
:1064B000002B01D0032322E00023FB820BE0144BCE
:1064C0001A68FB8A1344FA8AB9680A4412781A7067
:1064D000FB8A0133FB82FB8AB3F5007FEFD33B6875
:1064E00099B20B4B1B681A467868FAF7B9F803465D
:1064F000002B01D1002302E0012300E00423184611
:106500001837BD4680BD00BFB5000010B4000010B4
:106510002C75001080B485B000AF78607B680133C3
:106520001B78FB81FB891B021AB27B681B781BB2AC
:1065300013431BB2FB81FB8918461437BD4680BC50
:10654000704700BF80B485B000AF78607B680333CC
:106550001B78FB60FB681B027A68023212781343D7
:10656000FB60FB681B027A68013212781343FB6000
:10657000FB681B027A6812781343FB60FB681846BD
:106580001437BD4680BC704780B483B000AF7860DC
:106590000B467B807B685A1C7A607A88D2B21A706C
:1065A0007B881B0A7B807B685A1C7A607A88D2B20F
:1065B0001A7000BF0C37BD4680BC704780B483B0F2
:1065C00000AF786039607B685A1C7A603A68D2B252
:1065D0001A703B681B0A3B607B685A1C7A603A68F9
:1065E000D2B21A703B681B0A3B607B685A1C7A6007
:1065F0003A68D2B21A703B681B0A3B607B685A1C2F
:106600007A603A68D2B21A7000BF0C37BD4680BCBF
:10661000704700BF80B487B000AFF860B9607A609F
:10662000FB687B61BB683B617B68002B0DD07B699D
:106630005A1C7A613A69511C396112781A707B6868
:10664000013B7B607B68002BF1D100BF1C37BD464E
:1066500080BC704780B487B000AFF860B9607A60E2
:10666000FB687B617B695A1C7A61BA68D2B21A7086
:106670007B68013B7B607B68002BF3D100BF1C373C
:10668000BD4680BC704700BF80B489B000AFF860E1
:10669000B9607A60FB68FB61BB68BB6100237B610A
:1066A000FB695A1CFA611B781946BB695A1CBA610E
:1066B0001B78CB1A7B617B68013B7B607B68002B7E
:1066C00002D07B69002BEBD07B6918462437BD468E
:1066D00080BC704780B483B000AF7860396002E05E
:1066E0007B6801337B607B681B78002B05D07B685F
:1066F0001B781A463B689A42F2D17B681B78184691
:106700000C37BD4680BC704780B586B000AF78605E
:106710000023FB737B68DB78002B34D07B685B6BDA
:106720007B617B6858787B6803F1380101237A69C3
:10673000FFF780FE0346002B02D00123FB7322E00B
:106740007B680022DA707B689B6A7A69D21A7B6860
:106750001B6A9A4217D27B689B783B6110E07B688A
:106760001B6A7A6913447B617B6858787B6803F104
:10677000380101237A69FFF75DFE3B69013B3B610C
:106780003B69012BEBD8FB7B18461837BD4680BD13
:1067900080B584B000AF786039600023FB737B68FC
:1067A0005A6B3B689A421BD07868FFF7ADFF0346EF
:1067B000FB73FB7B002B13D17B6858787B6803F15C
:1067C000380101233A68FFF7A9FD0346002B04D0E6
:1067D0004FF0FF333B600123FB737B683A685A63D9
:1067E000FB7B18461037BD4680BD00BF80B584B026
:1067F00000AF78607868FFF787FF0346FB73FB7B89
:10680000002B58D17B681B78032B48D17B681B7900
:10681000012B44D17B6838334FF4007200211846B5
:10682000FFF718FF7B68383303F5FF734AF65521ED
:106830001846FFF7A9FE7B68383321491846FFF751
:10684000BDFE7B68383303F5F2731E491846FFF727
:10685000B5FE7B68383303F5F4727B685B691946D3
:106860001046FFF7ABFE7B68383303F5F6727B68A2
:106870001B6919461046FFF7A1FE7B685B6A5A1C2C
:106880007B685A637B6858787B6803F138017B68C2
:106890005A6B0123FFF7CEFD7B6800221A717B68DB
:1068A0005B78002200211846FFF73EFC0346002BD0
:1068B00001D00123FB73FB7B18461037BD4680BD1A
:1068C000525261417272416180B483B000AF78600E
:1068D00039603B68023B3B607B68DB699A1E3B6822
:1068E0009A4201D8002308E07B685B891A463B681E
:1068F00003FB02F27B681B6B134418460C37BD4642
:1069000080BC704780B586B000AF786039607B6826
:106910001B683B613B68012B04D93B69DA693B6822
:106920009A4202D801237B618CE04FF0FF337B61F8
:106930003B691B78022B45D0032B5DD0012B77D10F
:106940003B68FB60FB685B08FA681344FB603B69CB
:106950009A6AFB685B0A134419463869FFF718FF07
:106960000346002B67D1FB685A1CFA60C3F3080387
:106970003A69134493F83830BB603B699A6AFB6804
:106980005B0A134419463869FFF702FF0346002BE0
:1069900053D1FB68C3F308033A69134493F83830C2
:1069A0001B021A46BB681343BB603B6803F001033C
:1069B000002B02D0BB681B0902E0BB68C3F30B03CA
:1069C0007B613FE03B699A6A3B681B0A13441946A6
:1069D0003869FFF7DDFE0346002B30D13B6903F138
:1069E00038023B685B0003F4FF7313441846FFF75B
:1069F00091FD03467B6125E03B699A6A3B68DB09B0
:106A0000134419463869FFF7C3FE0346002B18D11B
:106A10003B6903F138023B689B0003F4FE731344A7
:106A20001846FFF78FFD034623F070437B6109E0B2
:106A300001237B6106E000BF04E000BF02E000BF6D
:106A400000E000BF7B6918461837BD4680BD00BF17
:106A500090B589B000AFF860B9607A600223FB7727
:106A6000BB68012B40F2D880FB68DA69BB689A42A8
:106A700040F2D280FB681B78022B75D0032B00F00C
:106A80009380012B40F0C880BB68BB61BB695B0889
:106A9000BA691344BB61FB689A6ABB695B0A134419
:106AA0001946F868FFF774FE0346FB77FB7F002B5F
:106AB00040F0AB80FB6803F13802BB69591CB96137
:106AC000C3F3080313447B61BB6803F00103002B8D
:106AD0000FD07B691B785BB203F00F035AB27B685F
:106AE0001B015BB223F00F035BB213435BB2DBB25B
:106AF00001E07B68DBB27A691370FB680122DA700F
:106B0000FB689A6ABB695B0A13441946F868FFF789
:106B10003FFE0346FB77FB7F002B78D1FB6803F138
:106B20003802BB69C3F3080313447B61BB6803F0FD
:106B30000103002B03D07B681B09DBB20EE07B69ED
:106B40001B785BB223F00F035AB27B681B0A5BB25F
:106B500003F00F035BB213435BB2DBB27A691370CD
:106B6000FB680122DA7057E0FB689A6ABB681B0A6F
:106B700013441946F868FFF70BFE0346FB77FB7FCB
:106B8000002B46D1FB6803F13802BB685B0003F4BD
:106B9000FF7313447A6892B211461846FFF7F4FC6B
:106BA000FB680122DA7037E0FB689A6ABB68DB0990
:106BB00013441946F868FFF7EBFD0346FB77FB7FAC
:106BC000002B28D17B6823F07044FB6803F1380266
:106BD000BB689B0003F4FE7313441846FFF7B2FC36
:106BE000034603F0704323437B60FB6803F13802E4
:106BF000BB689B0003F4FE73134479681846FFF7E3
:106C0000DDFCFB680122DA7006E000BF04E000BF93
:106C100002E000BF00E000BFFB7F18462437BD46FE
:106C200090BD00BF80B588B000AFF860B9607A60F1
:106C30000023FB77FB681B68BB61BB68012B04D991
:106C4000BB69DA69BB689A4201D802234BE07B68D2
:106C5000002B0CD04FF0FF327968B869FFF7F8FECF
:106C60000346FB77FB7F002B01D0FB7F3BE0B9683D
:106C7000F868FFF747FE78617B69002B31D07B69AC
:106C8000012B01D102232EE07B69B3F1FF3F01D13B
:106C9000012328E00022B968B869FFF7D9FE03464E
:106CA000FB77FB7F002B01D0FB7F1CE0BB695A699F
:106CB000BB69DB69023B9A420BD2BB695B695A1C18
:106CC000BB695A61BB691B7943F00103DAB2BB6946
:106CD0001A717B69BB60BB69DA69BB689A42C6D826
:106CE00000E000BF002318462037BD4680BD00BF2E
:106CF00080B588B000AF786039607B681B683B6105
:106D00003B68002B0DD13B691B69BB61BB69002B44
:106D100004D03B69DA69BB699A421BD80123BB6185
:106D200018E039687868FFF7EDFDF860FB68012B23
:106D300001D8012370E0FB68B3F1FF3F01D1FB688C
:106D40006AE03B69DA69FB689A4201D9FB6863E053
:106D50003B68BB61BB69FB61FB690133FB613B695C
:106D6000DA69FB699A4207D80223FB61FA69BB69B9
:106D70009A4201D900234FE0F9697868FFF7C2FD14
:106D8000F860FB68002B0ED0FB68012B03D0FB687A
:106D9000B3F1FF3F01D1FB683EE0FA69BB699A425B
:106DA000DAD1002338E000BF4FF0FF32F9693869CB
:106DB000FFF74EFE0346FB75FB7D002B09D13B68B8
:106DC000002B06D0FA6939683869FFF741FE03469F
:106DD000FB75FB7D002B16D13B69FA691A613B6993
:106DE0005A693B69DB69023B9A4204D23B695B69A1
:106DF0005A1E3B695A613B691B7943F00103DAB2C1
:106E00003B691A7107E0FB7D012B02D14FF0FF3384
:106E100000E00123FB61FB6918462037BD4680BDB9
:106E200080B586B000AF786039607B681B683B61D5
:106E30003B68B3F5001F04D23B6803F01F03002B2F
:106E400001D0022363E07B683A681A617B689B6823
:106E50007B617B69002B06D13B691B78022B02D931
:106E60003B69DB6A7B617B69002B0CD13B685B096A
:106E70003A691289934201D3022348E03B69DA6AF6
:106E80007B689A6129E03B695B895B02FB6019E0E2
:106E90007B6879691846FFF735FD78617B69B3F146
:106EA000FF3F01D1012332E07B69012B04D93B690B
:106EB000DA697B699A4201D8022328E03A68FB68C4
:106EC000D31A3B603A68FB689A42E1D27969386923
:106ED000FFF7FAFC02467B689A617B687A695A611F
:106EE0007B689B69002B01D1022310E07B689A69C3
:106EF0003B685B0A1A447B689A613B6903F138027C
:106F00003B68C3F308031A447B68DA610023184620
:106F10001837BD4680BD00BF80B586B000AF786031
:106F200039607B681B68FB607B681B692033BB6032
:106F30007B689B69002B03D0BB68B3F5001F01D3AE
:106F40000423AAE0BB68C3F30803002B40F0988039
:106F50007B689B695A1C7B689A617B685B69002B24
:106F60000BD1BB685B09FA6812899342C0F0888034
:106F70007B6800229A6104238FE0BB685B0AFA6891
:106F80005289013A1340002B7AD17A687B685B6999
:106F900019461046FFF7B6FC78617B69012B01D8D2
:106FA00002237AE07B69B3F1FF3F01D1012374E052
:106FB000FB68DA697B699A4258D83B68002B04D198
:106FC0007B6800229A61042367E07A687B685B69CA
:106FD00019461046FFF78CFE78617B69002B01D1C2
:106FE00007235AE07B69012B01D1022355E07B691D
:106FF000B3F1FF3F01D101234FE0F868FFF784FBB5
:107000000346002B01D0012347E0FB6838334FF4DF
:10701000007200211846FFF71DFB00233B617969D0
:10702000F868FFF751FC0246FB685A6312E0FB6800
:107030000122DA70F868FFF767FB0346002B01D0E6
:1070400001232AE03B6901333B61FB685B6B5A1CFF
:10705000FB685A63FB685B891A463B699A42E6D82B
:10706000FB685A6B3B69D21AFB685A637B687A6982
:107070005A617969F868FFF727FC02467B689A61D4
:107080007B68BA681A61FB6803F13802BB68C3F316
:1070900008031A447B68DA61002318461837BD4696
:1070A00080BD00BF80B586B000AF786039607B6876
:1070B0001B68FB6000217868FFF7B2FE0346FB7592
:1070C000FB7D002B2BD100233B617B689B6919461C
:1070D000F868FFF75DFB0346FB75FB7D002B1DD1B8
:1070E0007B68DB691B78E52B04D07B68DB691B7848
:1070F000002B07D13B6901333B613A693B689A42F7
:1071000002D10CE000233B6101217868FFF704FF06
:107110000346FB75FB7D002BD7D000E000BFFB7D55
:10712000042B01D10723FB75FB7D18461837BD469C
:1071300080BD00BF80B584B000AF786039603B6827
:107140001A331846FFF7E6F90346FB607B681B78A5
:10715000032B09D13B6814331846FFF7DBF90346CC
:107160001B04FA681343FB60FB6818461037BD46E2
:1071700080BD00BF80B584B000AFF860B9607A60B0
:10718000BB681A337A6892B211461846FFF7FCF9C9
:10719000FB681B78032B09D1BB6803F114027B68E1
:1071A0001B0C9BB219461046FFF7EEF900BF1037D3
:1071B000BD4680BD90B587B000AF786039603B6850
:1071C0001A331846FFF7A6F90346002B01D0002317
:1071D00059E03B681B7803F03F035A1E13465B00DF
:1071E00013449B0013447B610123FB8100233B611B
:1071F00033E0274A3B6913441B781A463B68134423
:107200001846FFF787F90346BB81FB89002B1AD08C
:107210007B69FE2B12D8BB891846FEF797FC034604
:107220001C467B695A1C7A615B007A6813441B8890
:107230001846FEF78BFC03469C4201D0002322E057
:10724000BB89FB8106E0BB894FF6FF72934201D0F8
:10725000002318E03B6901333B613B690C2BC8D923
:107260003B681B7803F04003002B0BD0FB89002BFD
:1072700008D07B695B007A6813441B88002B01D01F
:10728000002300E0012318461C37BD4690BD00BF17
:107290009810020080B588B000AFF860B960114660
:1072A0001A460B46FB711346BB71BB680D33BA79A6
:1072B0001A70BB680B330F221A70BB680C330022A4
:1072C0001A70BB681A3300211846FFF75DF9FB7985
:1072D0005A1E13465B0013449B001344FB610023BA
:1072E000FB820023BB61FB8A4FF6FF72934207D0FB
:1072F000FB695A1CFA615B00FA6813441B88FB8225
:10730000174ABB6913441B781A46BB681344FA8AB0
:1073100011461846FFF738F9FB8A002B02D14FF6C9
:10732000FF73FB82BB690133BB61BB690C2BDAD9EC
:10733000FB8A4FF6FF72934206D0FB695B00FA6846
:1073400013441B88002B03D1FB7943F04003FB71EE
:10735000BB68FA791A7000BF2037BD4680BD00BFF8
:107360009810020080B58CB000AFF860B9607A6008
:107370003B600B22B968F868FFF74CF93B68052BB6
:107380002BD93B68FB6122E07B689A1C7A601B88E2
:107390007B840023BB6217E0FB695A007B8C03F0FF
:1073A00001031344FB617B8C5B087B84FB6903F462
:1073B0008033002B05D0FB6983F4883383F02103ED
:1073C000FB61BB6A0133BB62BB6A0F2BE4D97B68EC
:1073D0001B88002BD8D1FB693B600723BB623B684D
:1073E000DBB203F00F03DBB2303387F82F3097F8AE
:1073F0002F30392B04D997F82F30073387F82F30E7
:10740000BB6A5A1EBA6207F13002134497F82F2064
:1074100003F81C2C3B681B093B603B68002BDED14A
:1074200007F11402BB6A13447E221A7000237B62A8
:1074300002E07B6A01337B627A6ABB6A9A4205D2B8
:10744000FA687B6A13441B78202BF2D17B6A5A1CA2
:107450007A62FA681A44BB6A072B08D8BB6A591CBF
:10746000B96207F130010B4413F81C3C00E0202303
:1074700013707B6A072BE9D900BF3037BD4680BD4A
:1074800080B485B000AF78600023FB730B23BB6032
:10749000FB7BDAB25208DB011343DAB27B68591C7A
:1074A00079601B781344FB73BB68013BBB60BB680E
:1074B000002BEDD1FB7B18461437BD4680BC7047CE
:1074C00080B586B000AF78607B681B683B610021A7
:1074D0007868FFF7A5FC0346FB75FB7D002B01D008
:1074E000FB7DA9E0FF233B753B7D7B757B684FF0FF
:1074F000FF32DA627B689B6919463869FFF748F901
:107500000346FB75FB7D002B40F090807B68DB69B8
:107510001B78BB75BB7D002B02D10423FB758AE071
:107520007B68DB690B331B7803F03F03FB737B68DD
:10753000FA7B9A71BB7DE52B07D0FB7B03F0080338
:10754000002B09D0FB7B0F2B06D0FF237B757B68BC
:107550004FF0FF32DA625EE0FB7B0F2B36D17B68A7
:1075600093F82B3003F04003002B54D1BB7D03F084
:107570004003002B0DD07B68DB695B7B3B75BB7DDB
:1075800023F04003BB75BB7D7B757B681A697B6804
:10759000DA62BA7D7B7D9A4215D17B68DB690D3357
:1075A0001B783A7D9A420ED13B69DA687B68DB69C9
:1075B00019461046FFF7FEFD0346002B03D07B7DE6
:1075C000013BDBB200E0FF237B7524E07B7D002BD9
:1075D00009D17B68DB691846FFF752FF03461A465C
:1075E0003B7D934224D07B6893F82B3003F001035A
:1075F000002B0AD17B68D8697B6820330B2219469F
:10760000FFF742F80346002B14D0FF237B757B68FD
:107610004FF0FF32DA6200217868FFF77DFC034605
:10762000FB75FB7D002B3FF465AF04E000BF02E07B
:1076300000BF00E000BFFB7D18461837BD4680BD87
:1076400080B58CB000AF78607B681B68FB617B689D
:1076500093F82B3003F0A003002B01D00623E0E0C9
:1076600000237B6202E07B6A01337B62FB69DA689C
:107670007B6A5B0013441B88002BF4D17B6803F109
:10768000200107F10C030C221846FEF7C3FFFB7D17
:1076900003F00103002B32D07B68402283F82B20BB
:1076A0000123BB6216E07B6803F12000FB69DA6806
:1076B00007F10C01BB6AFFF755FE7868FFF700FF82
:1076C000034687F82F3097F82F30002B06D1BB6A7E
:1076D0000133BB62BB6A632BE5D900E000BFBB6A24
:1076E000642B01D107239CE097F82F30042B02D0A4
:1076F00097F82F3095E0FA7D7B6883F82B20FB7D8F
:1077000003F00203002B07D07B6A0C33474AA2FB2D
:1077100003239B08013300E001233B62396A786848
:10772000FFF7C0FC034687F82F3097F82F30002B67
:1077300048D13B6A013B3B623B6A002B42D07B68ED
:107740001A693B6A5B01D31A19467868FFF768FB30
:10775000034687F82F3097F82F30002B32D17B6803
:1077600020331846FFF78CFE0346FB767B689B6947
:107770001946F869FFF70CF8034687F82F3097F899
:107780002F30002B1DD1FB69D8687B68D9693B6A13
:10779000DAB2FB7EFFF77EFDFB690122DA70002181
:1077A0007868FFF7B9FB034687F82F3097F82F303A
:1077B000002B07D13B6A013B3B623B6A002BD5D1D2
:1077C00000E000BF97F82F30002B28D17B689B6921
:1077D0001946F869FEF7DCFF034687F82F3097F863
:1077E0002F30002B1BD17B68DB692022002118463B
:1077F000FEF730FF7B68D8697B6820330B2219467F
:10780000FEF708FF7B68DB690C337A6892F82B205F
:1078100002F01802D2B21A70FB690122DA7097F8EE
:107820002F3018463037BD4680BD00BF4FECC44EE8
:1078300080B588B000AF786039607B681B683B61B9
:107840003B6800229A757B689B69002B00F0C98019
:107850007B68DB6AB3F1FF3F32D00023BB61BB69B9
:10786000FB611BE0FB8900211846FEF735F9034652
:10787000FB81FB89002B02D10023FB611AE0FB692D
:10788000FE2B02D90023FB6114E0FB695A1CFA614C
:10789000FA89D1B23A6813440A469A753B69DA68A4
:1078A000BB69591CB9615B0013441B88FB81FB89D0
:1078B000002BD7D13A68FB691344163300221A70A3
:1078C0000023BB61BB69FB613A68FB691344163353
:1078D0001B78BB814CE07B68DA69FB69591CF96154
:1078E00013441B78FB75FB7D202B00D140E0FB7D12
:1078F000052B01D1E523FB75FB69092B0FD1BB8952
:10790000002B05D13A68BB69134416332E221A7036
:10791000BB695A1CBA613A6813442E225A723A68FB
:10792000BB6913440933FA7D1A70BB89002B1CD143
:10793000FB7D402B13D9FB7D5A2B10D87B68DB696C
:107940000C331B781A46FB69082B01D9102300E081
:1079500008231340002B02D0FB7D2033FB753A68CF
:10796000BB6913441633FA7D1A70BB690133BB61DE
:10797000FB690A2BAFD9BB89002B0DD13A68BB69D3
:107980001344163300221A707B68DB690C331B78B2
:10799000002B01D10023BB613A68BB691344093352
:1079A00000221A707B68DB69DA7A3B681A727B689E
:1079B000DB691C331846FEF7C5FD02463B681A60BA
:1079C0007B68DB6916331846FEF7BCFDB860BB6800
:1079D0009AB23B68DA80BB681B0C9AB23B689A800B
:1079E00000E000BF2037BD4680BD00BF80B58AB033
:1079F00000AF786039603B681B683B617B681B683F
:107A0000DB68FB6000237B617B69BB61BB695A1C3F
:107A1000BA613A6913441B78BB84BB8C1F2B40D9D5
:107A2000BB8C2F2B06D0BB8C5C2B10D102E0BB692A
:107A30000133BB613A69BB6913441B782F2BF6D025
:107A40003A69BB6913441B785C2BF0D02AE07B6950
:107A5000FE2B01D90623C9E1BB8CDBB2BB84BB8CF6
:107A600001211846FEF738F80346BB84BB8C002B77
:107A700001D10623BAE1BB8C7F2B09D8BB8C1946F8
:107A8000A548FEF727FE0346002B01D00623ADE1F3
:107A90007B695A1C7A615B00FA681344BA8C1A80BD
:107AA000B4E700BF3A69BB691A443B681A60BB8CF3
:107AB0001F2B01D8042300E0002387F826307B69C0
:107AC000012B09D17B6903F10043013B5B00FA689C
:107AD00013441B882E2B16D07B69022B4ED17B6959
:107AE00003F10043013B5B00FA6813441B882E2B13
:107AF00044D17B6903F10043023B5B00FA68134405
:107B00001B882E2B3AD17B695B00FA681344002254
:107B10001A8000233B620FE03A6A7B699A4201D2E5
:107B20002E2100E020217A683B6A134420330A4664
:107B30001A703B6A01333B623B6A0A2BECD997F817
:107B4000263043F02003D9B27A683B6A13442033CD
:107B50000A461A70002349E17B6903F10043013BA7
:107B60005B00FA6813441B88BB84BB8C202B02D0BB
:107B7000BB8C2E2B06D17B69013B7B617B69002B83
:107B8000EAD100E000BF7B695B00FA681344002281
:107B90001A807B69002B01D1062327E17B68203303
:107BA0000B2220211846FEF755FD0023BB6102E0A1
:107BB000BB690133BB61BB695B00FA6813441B8876
:107BC000202BF5D0BB695B00FA6813441B882E2B71
:107BD000EED0BB69002B09D097F8263043F00303A1
:107BE00087F8263002E07B69013B7B617B69002BD3
:107BF00009D07B6903F10043013B5B00FA68134441
:107C00001B882E2BEFD1002387F8273000233B62FF
:107C10000823FB61BB695A1CBA615B00FA68134414
:107C20001B88BB84BB8C002B00F09680BB8C202B68
:107C300006D0BB8C2E2B0AD1BA697B699A4206D03A
:107C400097F8263043F0030387F8263083E03A6A3A
:107C5000FB699A4203D2BA697B699A4223D1FB69D4
:107C60000B2B06D197F8263043F0030387F8263014
:107C700075E0BA697B699A4205D097F8263043F0DF
:107C8000030387F82630BA697B699A4266D87B6914
:107C9000BB6108233B620B23FB6197F827309B00F5
:107CA00087F8273057E0BB8C7F2B14D9BB8C002181
:107CB0001846FDF711FF0346BB84BB8C002B04D094
:107CC000BB8C803B154AD35CBB8497F8263043F0CD
:107CD000020387F82630BB8C002B07D0BB8C1946DB
:107CE0000F48FEF7F7FC0346002B08D05F23BB8448
:107CF00097F8263043F0030387F8263021E0BB8C49
:107D0000402B0FD9BB8C5A2B0CD897F8273043F057
:107D1000020387F8273014E0A810020018100200B0
:107D2000B4100200BB8C602B0BD9BB8C7A2B08D80B
:107D300097F8273043F0010387F82730BB8C203BAE
:107D4000BB843B6A5A1C3A62BA8CD1B27A6813443B
:107D50000A4683F820205DE700BF00E000BF7B6893
:107D600093F82030E52B03D17B68052283F820208F
:107D7000FB69082B04D197F827309B0087F8273040
:107D800097F8273003F00C030C2B05D097F8273019
:107D900003F00303032B05D197F8263043F00203C9
:107DA00087F8263097F8263003F00203002B17D10E
:107DB00097F8273003F00303012B05D197F82630FD
:107DC00043F0100387F8263097F8273003F00C03B0
:107DD000042B05D197F8263043F0080387F82630A6
:107DE0007B6897F8262083F82B2000231846283735
:107DF000BD4680BD80B586B000AF786039607B68D5
:107E00003B613B691B68FB603B681B782F2B0BD0E9
:107E10003B681B785C2B07D0FB689A693B699A60CA
:107E20000DE03B6801333B603B681B782F2BF8D09B
:107E30003B681B785C2BF4D03B6900229A603B685E
:107E40001B781F2B0AD87B68802283F82B20002107
:107E50007868FEF7E5FF0346FB7556E03B4619469A
:107E60007868FFF7C3FD0346FB75FB7D002B47D108
:107E70007868FFF725FB0346FB757B6893F82B308A
:107E8000FB72FB7D002B1BD0FB7D042B3AD1FB7AD0
:107E900003F02003002B0BD0FB7A03F00403002B2C
:107EA0002CD07B68802283F82B200023FB7529E0EF
:107EB000FB7A03F00403002B24D10523FB7521E09A
:107EC000FB7A03F00403002B1ED13B699B7903F07E
:107ED0001003002B02D10523FB7516E0FB6803F1AC
:107EE00038027B681B69C3F3080313441946F8681A
:107EF000FFF720F902463B699A60AFE700BFADE7A4
:107F000000BF02E000BF00E000BFFB7D184618374D
:107F1000BD4680BD80B487B000AF78604FF0FF33BE
:107F20003B617B681B68002B32D07B681B687B61E0
:107F300002E07B6901337B617B691B781F2B03D9CE
:107F40007B691B783A2BF4D17B691B783A2B1CD1C7
:107F50007B681B68FB60FB685A1CFA601B78303B2F
:107F6000BB60BB68092B0ED8FA687B699A420AD1BC
:107F7000BB68012B07D8BB683B617B6901337B6120
:107F80007B687A691A603B6903E0044B1B783B61AC
:107F90003B6918461C37BD4680BC70475A6C0010C0
:107FA00080B582B000AF786039607B680022DA70FB
:107FB0007B684FF0FF325A6339687868FEF7E8FB58
:107FC0000346002B01D0042338E07B68383303F5E7
:107FD000FF731846FEF79EFA03461A464AF65523E3
:107FE0009A4201D0032329E07B6893F83830E92BCB
:107FF00009D07B6893F83830EB2B1ED17B6893F85F
:108000003A30902B19D17B68383336331846FEF757
:1080100099FA034623F07F430A4A934201D1002391
:108020000CE07B68383352331846FEF78BFA024671
:10803000054B9A4201D1002300E00223184608377D
:10804000BD4680BD464154004641543380B596B08C
:1080500000AFF860B9601346FB71BB6800221A607C
:10806000F868FFF757FFF863FB6B002B01DA0B236F
:1080700031E2A84AFB6B52F82330BB63BB6B002B89
:1080800001D10C2327E2BB68BA6B1A60FB7923F09D
:108090000103FB71BB6B1B78002B1AD0BB6B5B78A9
:1080A0001846FEF7ABF9034687F8373097F83730B4
:1080B00003F00103002B0CD1FB79002B07D097F8BC
:1080C000373003F00403002B01D00A2303E200231E
:1080D00001E2BB6B00221A70FB6BDAB2BB6B5A7009
:1080E000BB6B5B781846FDF76FFE034687F83730A9
:1080F00097F8373003F00103002B01D00323EAE1A6
:10810000FB79002B07D097F8373003F00403002BDE
:1081100001D00A23DFE100233B65396DB86BFFF71F
:108120003FFF034687F8573097F85730022B4BD163
:1081300000233B641FE0BB6B03F138023B6C1B0167
:1081400003F5DF7313443B633B6B04331B78002B55
:1081500006D03B6B08331846FEF7F4F9024600E000
:1081600000223B6C9B0007F158010B4443F8442C60
:108170003B6C01333B643B6C032BDCD900233B6439
:108180003B6C002B02D03B6C013B3B643B6C9B0087
:1081900007F15802134453F8443C3B653B6D002BF8
:1081A00005D0396DB86BFFF7FBFE034600E00323F3
:1081B00087F8573097F85730012B05D93B6C0133BE
:1081C0003B643B6C032BE1D997F85730042B01D16A
:1081D000012380E197F85730012B01D90D237AE173
:1081E000BB6B38330B331846FEF794F90346B3F5EF
:1081F000007F01D00D236EE1BB6B38331633184678
:10820000FEF788F90346FB64FB6C002B06D1BB6BC1
:10821000383324331846FEF795F9F864BB6BFA6CD3
:108220001A62BB6B93F84820BB6B9A70BB6B9B7850
:10823000012B05D0BB6B9B78022B01D00D234AE1AB
:10824000BB6B9B781A46FB6C02FB03F3FB64BB6BB6
:1082500093F845309AB2BB6B5A81BB6B5B89002B9C
:1082600008D0BB6B5B891A46BB6B5B89013B134033
:10827000002B01D00D232EE1BB6B38331133184690
:10828000FEF748F903461A46BB6B1A81BB6B1B8984
:1082900003F00F039BB2002B01D00D231BE1BB6B3E
:1082A000383313331846FEF735F90346BB64BB6C0D
:1082B000002B06D1BB6B383320331846FEF742F94A
:1082C000B864BB6B38330E331846FEF723F9034608
:1082D000FB85FB8D002B01D10D23FCE0FA8DFB6C9F
:1082E0001344BA6B1289120992B21344BB62BA6C7E
:1082F000BB6A9A4201D20D23EDE0BA6CBB6AD31A75
:10830000BA6B5289B3FBF2F37B627B6A002B03D119
:108310000D23E0E0506C0010032387F857307B6A90
:108320004FF6F572934202D8022387F857307B6AE2
:1083300040F6F572934202D8012387F857307B6AE2
:108340009A1CBB6BDA61BB6B3A6D5A62FA8D3B6D5E
:108350001A44BB6B9A623A6DBB6A1A44BB6B1A63D0
:1083600097F85730032B1ED1BB6B38332A3318468E
:10837000FEF7D0F80346002B01D00D23ABE0BB6B1A
:108380001B89002B01D00D23A5E0BB6B38332C33A8
:108390001846FEF7D7F80246BB6BDA62BB6BDB69A7
:1083A0009B007B641FE0BB6B1B89002B01D10D235D
:1083B00091E0BB6B9A6AFB6C1A44BB6BDA6297F86C
:1083C0005730022B03D1BB6BDB695B000AE0BB6B50
:1083D000DA6913465B0013445A08BB6BDB6903F090
:1083E000010313447B64BB6B1A6A7B6C03F2FF13BB
:1083F0005B0A9A4201D20D236DE0BB6B4FF0FF3256
:108400005A61BB6B5A69BB6B1A61BB6B80221A71D4
:1084100097F85730032B49D1BB6B383330331846AC
:10842000FEF778F80346012B40D13B6D0133194626
:10843000B86BFEF7ADF90346002B37D1BB6B0022BA
:108440001A71BB6B383303F5FF731846FEF762F8F9
:1084500003461A464AF655239A4227D1BB6B383356
:108460001846FEF76FF802461D4B9A421ED1BB6BB1
:10847000383303F5F2731846FEF764F80246194BD9
:108480009A4213D1BB6B383303F5F4731846FEF7E9
:1084900059F80246BB6B5A61BB6B383303F5F67370
:1084A0001846FEF74FF80246BB6B1A61BB6B97F894
:1084B00057201A700C4B1B8801339AB20A4B1A8052
:1084C000094B1A88BB6BDA80BB6B084ADA60BB6B5E
:1084D00000229A61002318465837BD4680BD00BF70
:1084E0005252614172724161586C00105C6C001014
:1084F00080B584B000AF786039607B68002B1AD0FB
:108500007B681B68002B16D07B681B681B78002BD0
:1085100011D07B681B68DA887B689B889A420AD1F5
:108520007B681B685B781846FDF768FF034603F01D
:108530000103002B05D03B6800221A600923FB735E
:1085400005E07B681A683B681A600023FB73FB7BBD
:1085500018461037BD4680BD80B588B000AFF860C2
:10856000B9601346FB71BB683B6107F11003184605
:10857000FFF7D0FCF861FB69002B01DA0B2328E040
:10858000164AFB6952F82330BB61BB69002B02D04D
:10859000BB6900221A70FB68002B02D0FB68002226
:1085A0001A70FA680D49FB6941F82320FB68002B1B
:1085B00002D0FB79012B01D000230AE007F10C0166
:1085C00007F1080300221846FFF740FD0346FB753C
:1085D000FB7D18462037BD4680BD00BF506C0010A3
:1085E00080B598B000AFF860B9601346FB71FB68C6
:1085F000002B01D1092377E1FB7903F03F03FB71E5
:10860000FA7907F1100107F108031846FFF71EFD7C
:10861000034687F85F3097F85F30002B40F05B81AE
:108620003B697B61BA6807F1140311461846FFF7EE
:10863000E1FB034687F85F3097F85F30002B07D1E6
:1086400097F83F305BB2002B02DA062387F85F30E1
:10865000FB7903F01C03002B78D097F85F30002BD8
:1086600010D097F85F30042B07D107F11403184698
:10867000FEF7E6FF034687F85F30FB7943F0080317
:10868000FB7110E0BB7E03F01103002B03D0072326
:1086900087F85F3007E0FB7903F00403002B02D07A
:1086A000082387F85F3097F85F30002B68D1FB799B
:1086B00003F00803002B63D002F0FCF838653B6B35
:1086C0000E33396D1846FDF779FF3B6B1633396D64
:1086D0001846FDF773FF3B6B0B3320221A703B6982
:1086E0003A6B11461846FEF725FDF8643B69396B75
:1086F00000221846FEF73EFD3B6B1C330021184656
:10870000FDF75CFF3B690122DA70FB6C002B37D070
:108710003B695B6B3B6507F114030022F96C18465B
:10872000FEF780FA034687F85F3097F85F30002B3A
:1087300026D13B69396D1846FEF72AF8034687F8BB
:108740005F303B69FA6C013A1A6119E097F85F30C3
:10875000002B15D1BB7E03F01003002B03D00423A4
:1087600087F85F300CE0FB7903F00203002B07D0A1
:10877000BB7E03F00103002B02D0072387F85F3094
:1087800097F85F30002B0FD1FB7903F00803002B23
:1087900003D0FB7943F04003FB713B695A6BFB68E4
:1087A0001A623A6BFB685A6297F85F30002B40F010
:1087B00092803B693A6B11461846FEF7BBFC0246B5
:1087C000FB689A603B6B1C331846FDF7BBFE024604
:1087D000FB68DA603A69FB681A603B69DA88FB6813
:1087E0009A80FB68FA791A74FB6800225A74FB6855
:1087F0000022DA61FB6800225A61FB6828334FF4DB
:10880000007200211846FDF725FFFB7903F02003D5
:10881000002B60D0FB68DB68002B5CD0FB68DA685B
:10882000FB685A613B695B895B02BB64FB689B68C0
:10883000BB65FB68DB687B6516E0FB68B96D1846B5
:10884000FEF760F8B865BB6D012B02D8022387F8EC
:108850005F30BB6DB3F1FF3F02D1012387F85F307A
:108860007A6DBB6CD31A7B6597F85F30002B03D110
:108870007A6DBB6C9A42E0D8FB68BA6D9A6197F842
:108880005F30002B27D17B6DC3F30803002B22D070
:108890003B69B96D1846FEF717F878647B6C002BBE
:1088A00003D1022387F85F3015E07B6D5A0A7B6C99
:1088B0001A44FB68DA613B695878FB6803F12801C8
:1088C000FB68DA690123FDF729FD0346002B02D07E
:1088D000012387F85F3097F85F30002B02D0FB68E8
:1088E00000221A6097F85F3018466037BD4680BD99
:1088F00080B58EB000AFF860B9607A603B60BB684D
:108900007B623B6800221A60FB6807F11402114683
:108910001846FFF7EDFD034687F8373097F83730F4
:10892000002B07D1FB685B7C87F8373097F837302E
:10893000002B02D097F8373009E1FB681B7C03F06D
:108940000103002B01D1072301E1FB68DA68FB6812
:108950005B69D31A3B627A683B6A9A4240F2F280C2
:108960003B6A7B60EEE0FB685B69C3F30803002BA6
:1089700040F0BA80FB685B695B0A7A695289013A08
:108980001340FB61FB69002B23D1FB685B69002B63
:1089900003D1FB689B683B6307E0FA68FB689B694F
:1089A00019461046FDF7AEFF38633B6B012B04D828
:1089B000FB6802225A740223C9E03B6BB3F1FF3F0C
:1089C00004D1FB6801225A740123C0E0FB683A6BB2
:1089D0009A617A69FB689B6919461046FDF774FF36
:1089E000B861BB69002B04D1FB6802225A740223D0
:1089F000ADE0BA69FB691344BB617B685B0ABB628B
:108A0000BB6A002B39D0FA69BB6A13447A69528970
:108A1000934205D97B695B891A46FB69D31ABB620D
:108A20007B695878BB6ABA69796AFDF777FC0346B7
:108A3000002B04D0FB6801225A74012387E0FB68F5
:108A40001B7C5BB2002B14DAFB68DA69BB69D21AB3
:108A5000BB6A9A420DD2FB68DA69BB69D31A5B0222
:108A60007A6AD018FB6828334FF400721946FDF774
:108A7000D1FDBB6A5B02FB6250E0FB68DA69BB694F
:108A80009A422ED0FB681B7C5BB2002B18DA7B6904
:108A90005878FB6803F12801FB68DA690123FDF7C8
:108AA000C9FC0346002B04D0FB6801225A74012341
:108AB0004DE0FB681B7C03F07F03DAB2FB681A749D
:108AC0007B695878FB6803F128010123BA69FDF737
:108AD00025FC0346002B04D0FB6801225A740123B5
:108AE00035E0FB68BA69DA61FB685B69C3F30803C8
:108AF000C3F50073FB62FA6A7B689A4201D97B680E
:108B0000FB62FB6803F12802FB685B69C3F308039F
:108B10001344FA6A1946786AFDF77CFD7A6AFB6AA3
:108B200013447B62FB685A69FB6A1A44FB685A610A
:108B30003B681A68FB6A1A443B681A607A68FB6AE9
:108B4000D31A7B607B68002B7FF40DAF002318469F
:108B50003837BD4680BD00BF80B58CB000AFF8602F
:108B6000B9607A603B60BB68FB613B6800221A60B9
:108B7000FB6807F1100211461846FFF7B9FC0346DF
:108B800087F82F3097F82F30002B07D1FB685B7CDC
:108B900087F82F3097F82F30002B02D097F82F301E
:108BA0003FE1FB681B7C03F00203002B01D107238C
:108BB00037E1FB685A697B681A44FB685B699A4233
:108BC00080F02181FB685B69DB437B601BE1FB6814
:108BD0005B69C3F30803002B40F0D780FB685B6937
:108BE0005B0A3A695289013A1340BB61BB69002BA9
:108BF00037D1FB685B69002B0CD1FB689B68BB62BB
:108C0000BB6A002B0ED1FB6800211846FEF770F8F6
:108C1000B86207E0FA68FB689B6919461046FEF7E0
:108C200067F8B862BB6A002B00F0F280BB6A012BC8
:108C300004D1FB6802225A740223F2E0BB6AB3F14A
:108C4000FF3F04D1FB6801225A740123E9E0FB686D
:108C5000BA6A9A61FB689B68002B02D1FB68BA6A0A
:108C60009A60FB681B7C5BB2002B18DA3B69587872
:108C7000FB6803F12801FB68DA690123FDF7DAFBE1
:108C80000346002B04D0FB6801225A740123C8E07C
:108C9000FB681B7C03F07F03DAB2FB681A743A6945
:108CA000FB689B6919461046FDF70EFE78617B69EB
:108CB000002B04D1FB6802225A740223B1E07A69C6
:108CC000BB6913447B617B685B0A3B623B6A002B98
:108CD0003CD0BA693B6A13443A695289934205D938
:108CE0003B695B891A46BB69D31A3B623B6958787A
:108CF0003B6A7A69F969FDF79DFB0346002B04D0B6
:108D0000FB6801225A7401238BE0FB68DA697B69F6
:108D1000D21A3B6A9A4215D2FB6803F12800FB681D
:108D2000DA697B69D31A5B02FA6913444FF4007263
:108D30001946FDF76FFCFB681B7C03F07F03DAB27A
:108D4000FB681A743B6A5B027B623FE0FB68DA698E
:108D50007B699A4216D0FB685A69FB68DB689A42C5
:108D600010D23B695878FB6803F1280101237A6926
:108D7000FDF7D4FA0346002B04D0FB6801225A7495
:108D800001234EE0FB687A69DA61FB685B69C3F333
:108D90000803C3F500737B627A6A7B689A4201D943
:108DA0007B687B62FB6803F12802FB685B69C3F3A5
:108DB000080313447A6AF9691846FDF72BFCFB682F
:108DC0001B7C63F07F03DAB2FB681A74FA697B6A72
:108DD0001344FB61FB685A697B6A1A44FB685A6159
:108DE000FB68DA68FB685B699A4238BF1A46FB6821
:108DF000DA603B681A687B6A1A443B681A607A68D2
:108E00007B6AD31A7B607B68002B7FF4E0AE00E0C6
:108E100000BFFB681B7C43F04003DAB2FB681A74A6
:108E2000002318463037BD4680BD00BF80B586B0F0
:108E300000AF78607B6807F1080211461846FFF71B
:108E400057FB0346FB75FB7D002B68D17B681B7CC1
:108E500003F04003002B62D07B681B7C5BB2002BCD
:108E600015DABB6858787B6803F128017B68DA69FA
:108E70000123FDF7DFFA0346002B01D001234FE069
:108E80007B681B7C03F07F03DAB27B681A7401F005
:108E900011FD3861BA687B681B6A19461046FDF7F8
:108EA00077FC0346FB75FB7D002B38D17B685B6A42
:108EB000FB60FB680B33FA680B32127842F0200239
:108EC000D2B21A707B6818687B689B681A46F9688A
:108ED000FEF750F9FB6803F11C027B68DB6819465A
:108EE0001046FDF76BFBFB68163339691846FDF732
:108EF00065FBFB68123300211846FDF745FBBB6894
:108F00000122DA70BB681846FDF770FC0346FB755A
:108F10007B681B7C23F04003DAB27B681A74FB7D0C
:108F200018461837BD4680BD80B584B000AF786064
:108F30007868FFF77BFF0346FB73FB7B002B0ED1AA
:108F40007B6807F1080211461846FFF7D1FA03467D
:108F5000FB73FB7B002B02D17B6800221A60FB7B3A
:108F600018461037BD4680BD80B590B000AF786020
:108F7000396007F10C013B1D00221846FFF766F827
:108F8000034687F83F3097F83F30002B1FD17A68AF
:108F900007F10C0311461846FEF72CFF034687F82D
:108FA0003F3097F83F30002B11D197F837305BB244
:108FB000002B03DA062387F83F3008E03B68002BDC
:108FC00005D007F10C0339681846FEF731FC97F815
:108FD0003F3018464037BD4680BD00BF80B596B0D3
:108FE00000AF786007F108013B1D02221846FFF729
:108FF0002DF8034687F85730BB68FB6097F8573069
:10900000002B40F0F9807A6807F10C0311461846EE
:10901000FEF7F0FE034687F8573097F85730002BDD
:1090200002D1082387F8573097F85730042B08D11E
:1090300097F8373003F02003002B02D0062387F87F
:10904000573097F85730042B40F0D68007F10C03C7
:1090500000211846FDF74CFE7864BB685B895B0213
:10906000BB61002387F857307B6C002B02D10723AC
:1090700087F857307B6C012B02D1022387F85730D9
:109080007B6CB3F1FF3F02D1012387F8573097F88B
:109090005730002B06D1BB681846FDF735FB034659
:1090A00087F8573001F006FC386497F85730002BEA
:1090B0006AD1BB68796C1846FDF706FCF864BB689A
:1090C0003833FB634FF400720021F86BFDF7C2FAEE
:1090D0000B222021F86BFDF7BDFAFB6B2E221A70D4
:1090E000FB6B0B3310221A70FB6B1633396C18466E
:1090F000FDF764FABB687A6CF96B1846FEF73AF82C
:10910000FB6B20332022F96B1846FDF783FAFB6BCB
:1091100021332E221A707B69BB64BB681B78032B3A
:1091200006D1BB68DA6ABB6C9A4201D10023BB64EA
:10913000B868FB6B2033BA6C1946FEF71BF8BB68A6
:109140005B893B651BE0BA68FB6C591CF96453638F
:10915000BB680122DA70BB681846FDF7D5FA0346F2
:1091600087F8573097F85730002B0CD14FF4007226
:109170000021F86BFDF76EFA3B6D013B3B653B6DE3
:10918000002BE0D100E000BF97F85730002B07D14B
:1091900007F10C031846FEF753FA034687F85730D9
:1091A00097F85730002B20D1BB6AFB63FB6B16335B
:1091B000396C1846FDF702FABB687A6CF96B1846F1
:1091C000FDF7D8FFFB6B0B3310221A70BB6801222E
:1091D000DA7097F85730002B0ED1BB681846FDF7B0
:1091E00005FB034687F8573006E007F10C03002221
:1091F000796C1846FDF716FD97F857301846583722
:10920000BD4680BD80B500AF01F0FCF800BF80BD59
:1092100080B483B000AF78604FF0402302225A60E0
:109220004FF040230022DA604FF04021154B1A68BE
:10923000154BD3F8A83103F01F03B2FBF3F3134A25
:10924000A2FB03239B09013B7A6802FB03F38B61BA
:109250004FF04023FF221A604FF0402304225A614E
:109260004FF0402301225A6000BF4FF040235B685B
:1092700003F00103002BF8D100BF0C37BD4680BCC2
:10928000704700BFB800001000C00F40D34D6210FF
:1092900080B487B000AF4FF020437B614FF0204394
:1092A0003B610023FB6021E00023BB6018E03B69C9
:1092B0009A1C3A61FA6891B2BA6892B20A4492B2C0
:1092C0001A803B699A1C3A61FA6891B2BA6892B204
:1092D0000A4492B2013292B21A80BB680133BB6079
:1092E000BB68FF2BE3D9FB680133FB60FB687F2B76
:1092F000DAD94FF020437B610023FB601FE000239D
:10930000BB6016E07B691A1D7A611B687B60FA6896
:10931000BB68134401331A04F968BB680B449BB261
:109320001A437B689A4201D001230CE0BB680133E9
:10933000BB60BB68FF2BE5D9FB680133FB60FB68B2
:109340007F2BDCD9002318461C37BD4680BC7047F4
:1093500080B586B000AF786000237B61FF233B615E
:10936000FF23FB602FE07B68002B0CD1314BD3F83F
:10937000DC3123F01F03BB602E49BA687B691343BD
:10938000C1F8DC310CE02B4BD3F8DC3123F4F8537B
:10939000BB6028497B691A02BB681343C1F8DC3102
:1093A000FFF776FF0346002B05D13B69FF2B07D162
:1093B0007B693B6104E03B69FF2B01D07B69FB606B
:1093C0007B6901337B617B691F2BCCD9FB68FF2B49
:1093D00005D03A69FB6813445B087B6108E03B6990
:1093E000FF2B04D03B691F335B087B6100E0FEE785
:1093F0007B68002B0CD10F4BD3F8DC3123F01F031B
:10940000BB600C49BA687B691343C1F8DC310CE0DE
:10941000084BD3F8DC3123F4F853BB6005497B6972
:109420001A02BB681343C1F8DC3100BF1837BD46D0
:1094300080BD00BF00C00F4080B485B000AF0023E6
:10944000FB6000237B601AE0134B4FF48042C3F8AB
:10945000E021114BD3F8E031BB6003E00E4BD3F8B1
:10946000E031BB60BB6803F40043002BF6D0BB685F
:10947000DBB2FA681344FB607B6801337B607B6876
:10948000092BE1D9FB68054AA2FB0323DB08184638
:109490001437BD4680BC704700C00F40CDCCCCCC4B
:1094A00080B586B000AF7860FFF7C6FF7861164BD5
:1094B000D3F8DC313B613B6903F01F037A6802FBA0
:1094C00003F27B69B2FBF3F303F01F03FB603B691C
:1094D00003F4F8537A6802FB03F27B69B2FBF3F3FF
:1094E00003F4F853BB6008493B6923F4F85323F0B5
:1094F0001F03BA681A43FB681343C1F8DC3100BF8D
:109500001837BD4680BD00BF00C00F4080B584B095
:1095100000AFC54AC44BD3F8C43043F40063C2F86B
:10952000C430C14B41F21002C3F8DC21BF4B012211
:109530001A60BE4B00229A60BD4B0122C3F8802105
:10954000BB4B0122C3F88421B94B0122C3F8882107
:10955000B74B0122C3F88C21B54B0122C3F89021EF
:10956000B34B0122C3F89421B14B0122C3F89821D7
:10957000AF4B0122C3F89C21AD4B0122C3F8A021BF
:10958000AB4B0122C3F8A421A94B0122C3F8A821A7
:10959000A74B0122C3F8AC21A54B0122C3F8B0218F
:1095A000A34B0122C3F8B421A14B0122C3F8B82177
:1095B0009F4B0122C3F8BC219D4B0122C3F8C0215F
:1095C0009B4B0122C3F8C421994B0122C3F8C82147
:1095D000974B0122C3F8CC21954B0122C3F8D0212F
:1095E000934B0122C3F8D421914B0122C3F8D82117
:1095F0008F4B0122C3F8DC218D4B0122C3F8E021FF
:109600008B4B0122C3F8E421894B0122C3F8E821E6
:10961000874B0122C3F8EC21854B0122C3F8F021CE
:10962000834B0122C3F8F421814B0122C3F8F821B6
:109630007F4B0122C3F8FC217D4B0122C3F800229D
:109640007B4B0122C3F80422794B0122C3F8082284
:10965000774B0122C3F80C22754B0122C3F810226C
:10966000734B0122C3F81422714B0122C3F8182254
:109670006F4B0122C3F81C226D4B0122C3F820223C
:109680006B4B0122C3F82422694B0122C3F8282224
:10969000674B0122C3F82C22654B0122C3F830220C
:1096A000634B0122C3F83422614B0122C3F83822F4
:1096B0005F4B0122C3F83C225D4B0122C3F84022DC
:1096C0005B4B0122C3F84422594B0122C3F84822C4
:1096D000574B0122C3F84C22554B0122C3F85022AC
:1096E000534B0122C3F85422514B0122C3F8582294
:1096F0004F4B0122C3F85C224D4B0122C3F860227C
:109700004B4B0122C3F86422494B0122C3F8682263
:10971000474B0122C3F86C22454B0122C3F870224B
:10972000434B0122C3F87422414B0122C3F8782233
:109730003F4B0122C3F87C223D4B0122C3F8382164
:109740003B4B0122C3F83C21394B0122C3F8402195
:10975000374B0122C3F84421354B0122C3F848217D
:10976000334B0122C3F84C21314B0122C3F8502165
:109770002F4B0122C3F854212D4B0122C3F858214D
:109780002B4B0122C3F85C21294B0122C3F8602135
:10979000274B0122C3F86421254B0122C3F868211D
:1097A000234B0122C3F86C21214B0122C3F8702105
:1097B0001F4B0122C3F874211D4B0122C3F87821ED
:1097C0001B4B0122C3F87C21184B4FF48942C3F88C
:1097D0000021164B40F20222C3F80421134B012250
:1097E0009A62124B01221A63104B03225A630F4BE9
:1097F00005229A630D4B0222DA630C4B03221A6492
:109800000A4B01225A64094B04229A64074B042232
:10981000DA64064B05221A65044B01225A65034B94
:1098200001229A6506E000BF00C00F4000C0092079
:1098300000C002406420FFF7EBFC1C4B40F2831297
:109840001A62C820FFF7E4FC184B40F203121A62B8
:10985000164B02225A6200237B6002E07B680133D0
:109860007B607B687F2BF9D9104B3A225A620F4BF1
:1098700083221A620E4B1B68BB600C4B00221A62DB
:109880000A4B0C4AC3F80021FFF7D6FD0346FB60E4
:109890000020FFF75DFD0120FFF75AFDFB68184629
:1098A000FFF7FEFD00BF1037BD4680BD00C0092098
:1098B000004004A08044080080B500AF00F0A2FD85
:1098C000FFF724FE0123184680BD00BF80B500AF1E
:1098D000FFF798FC01F0DEFD00BF80BD80B500AF52
:1098E0004FF4400103480DF011FA80200DF016FAF4
:1098F00000BF80BD00B80BA080B400AF024B1B6856
:109900001846BD4680BC7047C875001080B485B04D
:1099100000AF7860084B1A687B681344FB6000BF97
:10992000054B1B68FA68D31A002BF9DC00BF14370B
:10993000BD4680BC704700BFC875001080B400AF42
:10994000034B00221A6000BFBD4680BC704700BFB9
:10995000C875001080B400AF00BFBD4680BC704722
:1099600080B483B000AF78604FF0402302225A6089
:109970004FF040230022DA604FF04021154B1A6867
:10998000154BD3F8A83103F01F03B2FBF3F3134ACE
:10999000A2FB03239B09013B7A6802FB03F38B6163
:1099A0004FF04023FF221A604FF0402304225A61F7
:1099B0004FF0402301225A6000BF4FF040235B6804
:1099C00003F00103002BF8D100BF0C37BD4680BC6B
:1099D000704700BFB800001000C00F40D34D6210A8
:1099E00080B483B000AF7860396007493A681346A5
:1099F0001B019B1A9B011A46044B13440B6100BFC9
:109A00000C37BD4680BC704700800820000000A0D5
:109A100080B485B000AF78600123FB6002E0FB6892
:109A20000133FB60114B1A68FB68B2FBF3F27B68F1
:109A30009A4202D9FB683F2BF1D9FB68012B03D86E
:109A40004FF08063BB600AE0FB68023BFB60FB6891
:109A500003F01F02FB685B09DB061343BB60BB68B6
:109A600018461437BD4680BC704700BFB8000010D0
:109A700080B487B000AFF860B9607A600123FB82E0
:109A800002237B75164B1B683B6118E0144B1B6867
:109A9000FA8A0132797D01FB02F2B3FBF2F33B61FA
:109AA0003A69FB689A420AD9FB8A0133FB82FB8A36
:109AB000FF2B04D90023FB827B7D02337B753A693F
:109AC000FB689A42E2D8FB8ADAB2BB681A707B68FC
:109AD0007A7D1A7000BF1C37BD4680BC704700BF3E
:109AE000BC00001080B584B000AF0346FB711F4B73
:109AF0000222DA631D4B02221A641C4B02225A64B2
:109B00001A4B02229A6407F10E0207F10D0319465F
:109B10001748FFF7ADFF7B7B1B0243F00703BB60D9
:109B2000FB79002B02D1BB68BB6006E0FB79012BFF
:109B300003D1BB6843F0C003BB600E4ABB6813602F
:109B40000C4BBA7B1A610023FB7305E0094B9B6841
:109B5000BB60FB7B0133FB73FB7B072BF6D9054B0B
:109B600002225A6000BF1037BD4680BD00C00240CF
:109B7000C0C62D000080084080B485B000AF78607A
:109B8000396000BF114BDB6803F01203022BF9D1DF
:109B90000E4A7B681B7893607B6801337B6000BF53
:109BA0000A4BDB6803F01403042BF9D1074B9B68C5
:109BB000DBB2FB733B68013B3B603B68002BE0D1B1
:109BC00000BF1437BD4680BC704700BF008008400E
:109BD00080B400AF354B0522C3F83021334B072248
:109BE000C3F81821314B0722C3F81C212F4B072241
:109BF000C3F820212D4B0722C3F824212B4B072229
:109C0000C3F8D020294B0722C3F8D420274B0722C2
:109C1000C3F8D820254B0722C3F8DC20234B0722AA
:109C2000C3F8E020214B0722C3F8E4201F4B072292
:109C3000C3F834211D4B0722C3F8E8201B4B072231
:109C4000C3F8EC20194B0722C3F8F020174B07226A
:109C5000C3F8F420154B0722C3F80021134B072249
:109C6000C3F80421114B0722C3F808210F4B072228
:109C7000C3F80C210D4B0722C3F810210B4B072210
:109C8000C3F81421094B0022C3F86C21084A084B81
:109C90001B6843F000631360054A054B9B6943F062
:109CA0000063936100BFBD4680BC704700C00240A6
:109CB0004080092090B583B000AF684B0A221A702B
:109CC000664B14225A70654B654A5A61634B0122F8
:109CD0001A74624B06225A74604B00225A765F4B0C
:109CE0002A229A705D4B00229A735C4B00221A73F1
:109CF0005A4B00225A73594B0122DA73574B0122F7
:109D00001A76564B4FF4F0725A81544B4FF4487206
:109D10009A80524B08229A71504B0A22DA714F4BAB
:109D20000A221A724F4A4F4BD3F8C43043F0010352
:109D3000C2F8C4304C4A4C4B9B6923F00103936139
:109D40004949464B9B881B099BB2013B9A00434BF8
:109D50009B78013B1B021A43404B5B78013B1B0481
:109D60001A433E4B1B78013B1B0613430B603E49D5
:109D70003A4B5B895A1E394B1B7A013B9B021A43B3
:109D8000364BDB791B041A43344B9B791B06134378
:109D90004B60354C314B5B691846FFF739FE024684
:109DA0002E4B1B7C013B9B011A432C4BDB7BDB02C4
:109DB0001A432A4B9B7B1B031A43284B5B7B5B0399
:109DC0001A43264B9B88013B1B041343A36026497F
:109DD000224B5B7C5A00214B1B7E5B01134343F4F7
:109DE00080738B6100237B6008E01F4A7B688033AF
:109DF000002142F823107B6801337B607B687F2B56
:109E0000F3D9184B0022C3F8B821174B174A1A612F
:109E1000154A154B9B6943F001039361124A124B9B
:109E20009B6943F400639361114A114B9B6943F0B2
:109E3000006393610F4B0022C3F800210C4A0C4BC6
:109E40001B6843F001031360094A094BDB6943F0C7
:109E50000103D36100BF0C37BD4690BD5C6E00109E
:109E600040A5AE0200C00F4000800820000000A006
:109E70004080092000C0024080B584B000AF034696
:109E80000A46FB801346BB80194B4FF40022DA616F
:109E900000233B73FB88DBB27B7307F10C030221C9
:109EA0001846FFF769FE124B4FF400229A61BB88F7
:109EB0001B0A9BB2DBB23B73BB88DBB27B7307F13F
:109EC0000C0302211846FFF757FE094B4FF40022FE
:109ED000DA6100233B7322237B7307F10C03022119
:109EE0001846FFF749FE00BF1037BD4680BD00BFD2
:109EF0000080092080B500AF774A774B1B6843F09C
:109F000001031360744B01229A61744A734B1B68FE
:109F100043F40023136001210020FFF7ADFF1E2052
:109F2000FFF71EFD46F63E610320FFF7A5FF072160
:109F30000C20FFF7A1FF0E210D20FFF79DFF4FF42E
:109F400030510E20FFF798FFAE211E20FFF794FF3F
:109F50001E20FFF705FD21210720FFF78DFF64205C
:109F6000FFF7FEFC23210720FFF786FF6420FFF7A1
:109F7000F7FC33210720FFF77FFF6420FFF7F0FC99
:109F800042F63F310120FFF777FF4FF4C061022016
:109F9000FFF772FF00211020FFF76EFF1E20FFF772
:109FA000DFFC4CF2B0511120FFF766FF2820FFF7CD
:109FB000D7FCD0211520FFF75FFF00210520FFF718
:109FC0005BFF00210620FFF757FF4EF61C7116209D
:109FD000FFF752FF03211720FFF74EFF40F2332116
:109FE0000720FFF749FF45F210310B20FFF744FF30
:109FF00000210F20FFF740FF4FF460412520FFF7BD
:10A000003BFF2820FFF7ACFC00214120FFF734FF85
:10A0100000214220FFF730FF00214820FFF72CFFEE
:10A0200040F23F114920FFF727FF4FF46F414420D2
:10A03000FFF722FF00214520FFF71EFF40F23F11EE
:10A040004620FFF719FF00214A20FFF715FF0021E6
:10A050004B20FFF711FF2820FFF782FC40F2077129
:10A060003020FFF709FF4FF4C0613120FFF704FFF4
:10A0700005213220FFF700FF40F202413320FFF7B5
:10A08000FBFE40F203213420FFF7F6FE4FF401718E
:10A090003520FFF7F1FE4FF401713620FFF7ECFE9B
:10A0A00040F201413720FFF7E7FE40F202313A204B
:10A0B000FFF7E2FE4FF4A0613B20FFF7DDFE282012
:10A0C000FFF74EFC00212220FFF7D6FE2820FFF7E5
:10A0D00047FC00BF80BD00BF4080092000800920F0
:10A0E00090B58BB002AF5E4A5D4B1B6843F48013A2
:10A0F00013600120FFF7F6FCD3233B71E7237B714C
:10A100009023BB71564B4FF48012DA613B1D032143
:10A110001846FFF731FD524B4FF480129A61514BB4
:10A120001B78002B4BD1002008F029FA0346002BA6
:10A1300002D00023FB7701E00123FB77002008F029
:10A140001CFA0446002008F016FA03465B0044EAB5
:10A150000302FB7F9B001343BB60B86809F0CCFA95
:10A16000FB7F002B15D0CD23009340F666634FF4A0
:10A17000F0720021002009F0DBFA40F20B1300938B
:10A1800040F602734FF448720021012009F0D0FA22
:10A190005EE0CD23009340F666634FF448720021E1
:10A1A000012009F0C5FA40F20B13009340F6027348
:10A1B0004FF4F0720021002009F0BAFA48E0294B70
:10A1C0001B78012B0CD14FF4FA73BB6140F642634C
:10A1D0007B6140F6E4433B6140F26223FB6011E0A7
:10A1E000204B1B78022B0CD140F6AC53BB614FF4D3
:10A1F000F5737B6140F226233B6140F65843FB60D8
:10A2000000E0FEE7002008F0B6F90446002008F060
:10A21000B4F903465B001C43002008F0B0F9034684
:10A220009B002343BB60B86809F066FA7B69009322
:10A23000BB694FF448720021002009F079FAFB68ED
:10A2400000933B694FF4F0720021012009F070FA8D
:10A25000054B01221A7000BF2437BD4690BD00BFD8
:10A2600000800920786E0010846E001080B500AF69
:10A27000FFF7AEFC084B40F609421A60074B1B780B
:10A28000002B06D10020FFF72DFCFFF733FEFFF770
:10A2900011FD00BF80BD00BF88C10F40786E001067
:10A2A00080B582B000AF7860FFF7E0FF7B681A46A8
:10A2B0004FF4F0714FF4487007F0F8FD7B681A46D0
:10A2C0004FF4F0714FF4487007F0DAFD7B680549F0
:10A2D000184607F0C1FDFFF703FF00BF0837BD4672
:10A2E00080BD00BF000000A080B582B000AF1F4B52
:10A2F0001B78002B02D11E4B7B6001E01C4B7B6066
:10A30000002300221B4978680BF0C2FA00220021CA
:10A31000002007F0F5FD002008F031F90346002B7E
:10A320000ED04FF448724FF4F071002007F0BEFDDC
:10A330004FF448724FF4F071002007F0A1FD0DE0DA
:10A340004FF4F0724FF44871002007F0AFFD4FF466
:10A35000F0724FF44871002007F092FD00210020B8
:10A3600007F07AFD00BF0837BD4680BD786E00104B
:10A37000143F02004C41020080B586B000AFF86087
:10A38000B9607A60BB68012B02D0032B05D010E0C6
:10A390000020FFF785FF00230FE07B687B617B696E
:10A3A0001A687B695B6819461046FFF719FB0023A2
:10A3B00003E04FF0FF333B613B6918461837BD4659
:10A3C00080BD00BF80B400AF00BFBD4680BC7047F9
:10A3D00080B400AF00BFBD4680BC704780B400AF02
:10A3E000024B1B681846BD4680BC70477C6E00104F
:10A3F00080B400AF024B1B681846BD4680BC704756
:10A40000806E001080B400AFB34BD3F8043103F476
:10A410008073002B7BD1B04BD3F80C3103F00103D8
:10A42000002B31D1AC4BD3F8043103F01F03002BC8
:10A4300008D0A94BD3F8043103F01F03A74AB2FB9D
:10A44000F3F300E00023A64A1360A34BD3F8A8312E
:10A4500003F01F03002B08D09F4BD3F8A83103F063
:10A460001F039E4AB2FBF3F300E000239D4A1360F2
:10A47000994BD3F8003103F001030133974AB2FB43
:10A48000F3F3994A1360F7E0934BD3F8A03103F04C
:10A490004003002B09D1924B00221A60914B0022FD
:10A4A0001A60914B00221A60E6E08B4BD3F804311E
:10A4B00003F01F03002B08D0874BD3F8043103F0BF
:10A4C0001F03864AB2FBF3F300E00023844A1360C3
:10A4D000814BD3F8A83103F01F03002B08D07E4B2B
:10A4E000D3F8A83103F01F037C4AB2FBF3F300E07A
:10A4F00000237C4A1360784BD3F8003103F001034A
:10A500000133764AB2FBF3F3774A1360B4E0724B3F
:10A51000D3F8883003F48073002B09D1704B0022EC
:10A520001A60704B00221A606F4B00221A60A3E081
:10A53000694BD3F80C3103F00103002B49D1664B72
:10A54000D3F8043103F01F03002B10D0624BD3F873
:10A55000883003F01F030133604A02FB03F25E4BB5
:10A56000D3F8043103F01F03B2FBF3F300E0002340
:10A570005B4A1360584BD3F8A83103F01F03002B3C
:10A5800010D0554BD3F8883003F01F030133534AE2
:10A5900002FB03F2504BD3F8A83103F01F03B2FBC8
:10A5A000F3F300E000234F4A13604B4BD3F888309D
:10A5B00003F01F030133494A02FB03F2464BD3F871
:10A5C000003103F001030133B2FBF3F3464A136099
:10A5D00052E0414BD3F8A03103F04003002B09D1E6
:10A5E0003F4B00221A603F4B00221A603E4B002274
:10A5F0001A6041E0384BD3F8043103F01F03002BFD
:10A6000010D0354BD3F8883003F01F030133334AA1
:10A6100002FB03F2304BD3F8043103F01F03B2FB0B
:10A62000F3F300E000232E4A13602B4BD3F8A8313C
:10A6300003F01F03002B10D0274BD3F8883003F012
:10A640001F030133254A02FB03F2234BD3F8A83141
:10A6500003F01F03B2FBF3F300E00023214A136071
:10A660001F4B1A681C4BD3F8003103F00103013370
:10A67000B2FBF3F31C4A1360174BD3F8083103F411
:10A680008073002B4BD0144BD3F8083103F01F0319
:10A69000042B07D0062B05D0002B3CD1134B0022F6
:10A6A0001A6066E00C4BD3F80C3103F00103002B69
:10A6B0001ED0094BD3F8883003F01F030133074A3B
:10A6C00002FB03F2044BD3F8083103F01F03B2FB83
:10A6D000F3F3064A13604CE000C00F40001BB700C4
:10A6E000B8000010BC000010C0000010C400001032
:10A6F000224BD3F8883003F01F030133204A02FBBA
:10A7000003F21E4BD3F8083103F01F03B2FBF3F33F
:10A710001C4A13602DE01B4B00221A6029E0174BE6
:10A72000D3F8083103F40073002B1ED0134BD3F879
:10A730000C3103F00103002B0BD0104BD3F8A830E1
:10A7400003F01F0301330E4A02FB03F30D4A1360AB
:10A750000FE00A4BD3F8883003F01F030133084A97
:10A7600002FB03F3074A136003E0064B00221A6062
:10A77000FFE700BFBD4680BC704700BF00C00F4070
:10A78000001BB700C400001080B400AF364B46F287
:10A790003A021A60344B2122C3F8A02100BF324B89
:10A7A000D3F8A03103F04003002BF8D02E4B012248
:10A7B000C3F80C212C4B0922C3F884202A4B012218
:10A7C000C3F88020284BAA22C3F88C20264B5522A0
:10A7D000C3F88C2000BF244BD3F8883003F4806387
:10A7E000002BF8D0204B2322C3F8A4201E4B0122BB
:10A7F000C3F8A0201C4BAA22C3F8AC201A4B552248
:10A80000C3F8AC2000BF184BD3F8A83003F4806322
:10A81000002BF8D0144B40F20112C3F80421124B64
:10A8200040F20122C3F808210F4B0122C3F8002196
:10A830000D4B0222C3F8A8210B4B0C4AC3F8C420CD
:10A84000094B4FF48072C3F8C821074A064BD3F86E
:10A85000B03143F00303C2F8B031054B00229A60D7
:10A8600000BFBD4680BC704700C00F40DE87280493
:10A8700000ED00E080B582B000AF7860786814F039
:10A88000CAFD0246012379680020F9F795FB0346CB
:10A8900018460837BD4680BD80B582B000AF7860ED
:10A8A00079680348F8F7AAFF00BF0837BD4680BDA6
:10A8B0000040024080B588B000AF3B461846FFF725
:10A8C000EBFFFB69A3F2BC735A06BB695B051A4335
:10A8D000FB681B041A43BB68DB021A437B685B01FD
:10A8E0001A433B685B08134318462037BD4680BDBA
:10A8F000B0B586B000AF08233B615F23FB60002347
:10A900007B615CE17B693A6902FB03F3BB60B86879
:10A9100016F00AF80346B249184615F0A7FE03469A
:10A920007B60F86815F005FE04460D46786816F061
:10A9300007F802460B461046194613F045F8024642
:10A940000B462046294615F00DFB03460C461A46D9
:10A9500023464FF00000A34915F028FC03460C469F
:10A960001846214615F0A2FD034619B29E4A7B699E
:10A9700022F82310F86815F0DCFD04460D467868CF
:10A9800015F0DEFF02460B461046194614F008FD8E
:10A9900002460B462046294615F0E4FA03460C46CB
:10A9A00025461C46B86815F0C4FD02460B462046F5
:10A9B000294615F0D7FA03460C46184621464FF0B3
:10A9C00000028A4B15F056FB03460C4618462146FA
:10A9D0004FF00002834B15F0B9FC03460C461846B5
:10A9E000214615F063FD034619B27F4A7B699B003F
:10A9F00013440A465A80F86815F09BFD04460D463C
:10AA0000786815F09DFF02460B461046194612F075
:10AA1000DBFF02460B462046294615F0A3FA034603
:10AA20000C461A4623464FF000006E4915F0BEFB57
:10AA300003460C461846214615F038FD034619B268
:10AA4000694A7B692E3322F82310F86815F071FDEE
:10AA500004460D46786815F073FF02460B46104613
:10AA6000194614F09DFC02460B462046294615F077
:10AA700079FA03460C4625461C46B86815F059FD80
:10AA800002460B462046294615F06CFA03460C4652
:10AA9000184621464EA3D3E9002315F0EBFA0346EE
:10AAA0000C46184621464FF000024E4B15F04EFC66
:10AAB00003460C461846214615F0F8FC034619B229
:10AAC000494A7B692E339B0013440A465A80F86832
:10AAD00015F02FFD04460D46786815F031FF02464B
:10AAE0000B461046194612F06FFF02460B462046F1
:10AAF000294615F037FA03460C461846214636A378
:10AB0000D3E9002315F02EFA03460C461A462346D5
:10AB10004FF00000334915F049FB03460C46184638
:10AB2000214615F0C3FC034619B22F4A7B695C33FA
:10AB300022F82310F86815F0FCFC04460D467868EE
:10AB400015F0FEFE02460B461046194614F028FC8E
:10AB500002460B462046294615F004FA03460C46E9
:10AB600025461C46B86815F0E4FC02460B46204614
:10AB7000294615F0F7F903460C46184621464FF0D2
:10AB800000021B4B15F076FA03460C461846214688
:10AB90004FF00002134B15F0D9FB03460C46184644
:10ABA000214615F083FC034619B20F4A7B695C33DA
:10ABB0009B0013440A465A807B6901337B617B69A1
:10ABC0002D2B7FF69FAE00BF1837BD46B0BD00BF2E
:10ABD0000000000000C07240CDCCCCCCCCCCEC3F0F
:10ABE00035FA8E3C00005940906E0010008076408F
:10ABF0000000744090B58FB002AF786039603B6858
:10AC0000022B33D11B4B07F11C040FCB07C423804D
:10AC1000194809F00FF80AF001F8F86207F1140377
:10AC2000184601F0EEF807F10C031946786801F0B8
:10AC3000C9F8B7F914309AB2FB6A9BB213449BB2BD
:10AC40001BB23B83FF2009F023F807F11C031846D1
:10AC500014F0E1FB03461A4607F1140107F11C004A
:10AC6000064B0093134602220AF0CAFB00BF34379A
:10AC7000BD4690BD481102004C3002001002001089
:10AC800080B584B000AF786039603B681B68FB60BA
:10AC9000786801F0BDF8B860BB68B3F5087F14D0E0
:10ACA000BB68B3F5B87F10D0BB68FE2B0DD0BB6876
:10ACB000FF2B0AD0FB68002B03D0786801F029F83D
:10ACC00004E0786800F0F1FE00E000BF1037BD46F8
:10ACD00080BD00BF90B58BB002AF78604FF40871B3
:10ACE000786801F0C7F8F8614FF4B871786801F03E
:10ACF000C1F8B861474B1B6883F00103454A1360F4
:10AD0000444B1B68002B40D0786801F0B6F878619E
:10AD10004149B86904F0DAFF0B220021B86900F05C
:10AD2000F6FF0021786804F0C5F807F10C03194616
:10AD3000786901F05BF83949F86901F011F8354A92
:10AD40003749786901F0A6F8786901F01FF80446E0
:10AD5000786901F01BF80246B7F910301946B7F9C7
:10AD6000123000930B462146F86900F0AFFE2D4BE0
:10AD70001B68B7F91220693A1146184603F0D6F855
:10AD800003461A46284B1A603FE02849B86904F088
:10AD90009DFF6FF00A020021B86900F0B8FF7868E3
:10ADA00001F06BF803461B4A1D49184601F072F882
:10ADB0001A4BB3F900301846184BB3F902301C4651
:10ADC000164BB3F904301A46144BB3F90030D31ABA
:10ADD0005A1C124BB3F906301946104BB3F9023026
:10ADE000CB1A01330093134622460146F86900F05E
:10ADF0006DFE0121786804F05DF80A4B1A680A4B71
:10AE00001B681946104603F091F800BF2437BD4671
:10AE100090BD00BFC470001058110200C87000102F
:10AE200081AC00008C6E0010D07000103C1102004C
:10AE3000F0B58DB002AF78607B685B683B627B6881
:10AE40001B681D2B03D0262B00F00A81C3E24FF4B0
:10AE50000871386A01F00EF8F861FFF749FD002328
:10AE60007B621DE0BF4A7B6A52F823007B6AB822EE
:10AE700002FB03F3BC4A1A442E232E2103F0A6F949
:10AE8000B861BA4A7B6A13441B781946B86903F063
:10AE900021FAB969F86903F057FE7B6A01337B62D6
:10AEA0007B6A022BDEDD1921F86903F021FF012105
:10AEB000F86903F0F2FEAE49F86903F05AFF19236E
:10AEC00001220121232002F0C4FF0246A94B1A608F
:10AED000A84B1B686421184602F0E4FFA54B1B68D1
:10AEE000A549184603F033F8A24B1B68FF2118460A
:10AEF00003F00BF89F4B1B681946F86903F06BFED3
:10AF0000322300220221462002F0A3FF02469B4B7F
:10AF10001A609A4B1B689A49184603F018F8974B29
:10AF20001B684FF40041184602F0EFFF934B1B687B
:10AF30001946F86903F04FFE4FF49171386A00F03A
:10AF400099FFF8618F49F86904F048FC0121F8691C
:10AF500004F064FC40F22311386A00F08BFFF861C2
:10AF60008949F86904F03AFC4FF49271386A00F0AC
:10AF700081FFF8618549F86904F030FC40F2251141
:10AF8000386A00F077FFF8618149F86904F026FC1F
:10AF900040F22111386A00F06DFFF8617D49F869CF
:10AFA00004F01CFC0121F86904F038FC4FF49371A3
:10AFB000386A00F05FFFF8617749F86904F00EFC29
:10AFC00040F22711386A00F055FFF8617349F869BB
:10AFD00004F004FC4FF49871386A00F04BFFF861FC
:10AFE0000A220021F86902F04BFB0521F86902F002
:10AFF00077FA0621F86902F05FFB40F23111386AF6
:10B0000000F038FFF86114220021F86902F038FBE3
:10B010000521F86902F064FA0621F86902F04CFB98
:10B020004FF4A871386A00F025FFF86100225C49EE
:10B03000F86902F063FB01225A49F86902F05EFBED
:10B0400002225949F86902F059FB4FF4B871386A85
:10B0500000F010FFF8610121F86900F0E9FCBDE1A2
:10B060007B689B68184600F0D3FE78617B68DB68DC
:10B070003B613B69012B02D0052B0AD0AEE17B6915
:10B08000B3F5B87F00D0A5E1386AFFF723FE00BF13
:10B09000A0E17B69A3F221132F2B00F29A8101A278
:10B0A00052F823F0ADB10000D7B10000D7B10000D5
:10B0B000D7B10000D7B100005FB3000099B3000022
:10B0C000D3B30000D3B30000D3B30000D3B3000068
:10B0D000D3B30000D3B30000D3B30000D3B3000058
:10B0E00063B20000BFB20000D3B30000D3B30000CE
:10B0F000D3B30000D3B30000D3B30000D3B3000038
:10B10000D3B30000D3B30000D3B30000D3B3000027
:10B11000D3B30000D3B30000D3B30000D3B3000017
:10B12000D3B30000D3B30000D3B30000D3B3000007
:10B13000D3B30000D3B30000D3B30000D3B30000F7
:10B14000D3B30000D3B30000D3B30000D3B30000E7
:10B15000D3B30000D3B30000D3B30000D3B30000D7
:10B1600019B30000F0100200906E0010FC100200F5
:10B17000F5AB0000886E00100AD7233D8C6E0010DE
:10B180000AD7A33C6011020064110200681102009A
:10B190006C1102007011020078110200801102008F
:10B1A000881102008C110200941102004FF4087102
:10B1B000386A00F05FFEF86140F22111386A00F051
:10B1C00059FE0346184604F046FB03461946F86943
:10B1D00003F063FDFDE04FF40871386A00F04AFEA9
:10B1E000F8614FF49171386A00F044FE0346184646
:10B1F00004F031FB024613469B001344DB001C465F
:10B2000040F22311386A00F035FE0346184604F078
:10B2100022FB024613469B0013441D464FF49271D5
:10B22000386A00F027FE0346184604F014FB024675
:10B2300013469B0013441E4640F22511386A00F065
:10B2400019FE0346184604F006FB024613469B000F
:10B250001344009333462A462146F86903F06EFDF5
:10B26000B7E04FF40871386A00F004FEF8617B68BB
:10B270009B68184602F037FA024613469B001344B7
:10B280005B00FB60FB681946F86903F01EFD554B37
:10B290001B68FA681146184602F015FEFB68322B4F
:10B2A00006D0504B1B680121184602F066FE90E064
:10B2B0004C4B1B680021184602F05FFE89E04FF4FA
:10B2C0000871386A00F0D6FDF8617B689B68184603
:10B2D00002F009FA024613469B001344FB60FB6828
:10B2E0001946F86903F004FD3F4B1B68FA681146E4
:10B2F000184602F0E8FDFB68192B06D03A4B1B6894
:10B300000121184602F039FE63E0374B1B6800212B
:10B31000184602F032FE5CE04FF40871386A00F023
:10B32000A9FDF8617B689B68184602F0AEFB0346F6
:10B33000012B09D0022B0CD0002B00D049E02B4967
:10B34000F86901F03FFE09E02949F86901F03AFE89
:10B3500004E02849F86901F035FE00BF39E04FF4F8
:10B360000871386A00F086FDF8614FF49371386A0D
:10B3700000F080FD0346184604F06DFA0346002BEA
:10B3800005D04FF4FA71F86903F003FD21E00021C4
:10B39000F86903F0FEFC1CE04FF40871386A00F015
:10B3A00069FDF86140F22711386A00F063FD034639
:10B3B000184604F050FA0346002B05D04FF496715E
:10B3C000F86903F0FFFC03E00021F86903F0FAFCE0
:10B3D00000BF00BF02E0786801F050FD00BF2C37CD
:10B3E000BD46F0BD8C6E0010886E00104015020046
:10B3F000081502002415020080B483B000AF034694
:10B400000A46FB711346BB71BB79002B09D10C496D
:10B410000B4BDB69FA79012000FA02F21343CB618E
:10B4200008E00749064B9B69FA79012000FA02F20D
:10B4300013438B6100BF0C37BD4680BC704700BF13
:10B440004080092080B584B000AFF860B9607A60B0
:10B450003B60002008F01CFC3B687A68B968F8681B
:10B4600009F0DEFB6FF07F4008F012FC022008F0CC
:10B47000C9FB074808F0DEFBFB680A33BA681946C7
:10B48000B8690AF0D7F800BF1037BD4680BD00BFCD
:10B490002828020080B584B004AFF5F7D9FE304B00
:10B4A0001B683049002098472F4B0022C3F86821C1
:10B4B0002E4A2E4B1B6843F0806313602B4A2B4BA4
:10B4C0009B6943F0806393610023039300230293FD
:10B4D000002301930123009300234FF49662244933
:10B4E0002448F9F795FF00230393002302930023D8
:10B4F000019301230093002364221F491F48F9F799
:10B5000087FF002303930023029300230193032367
:10B5100000930023642218491948F9F779FF0023A2
:10B520000393002302930023019305230093002338
:10B53000642211491348F9F76BFF0023039300239A
:10B540000293002301930423009300234FF4C87255
:10B5500009490D48F9F75CFFFAF748F8FEE700BF24
:10B56000E47400109811020000C0024040800920DD
:10B57000C01102008DB50000D0110200E9B7000033
:10B580000DBA000029B800004DB80000B0B5ADF507
:10B590007E7D04AF3B1D18600AF01EFB002000F00A
:10B5A000D1FA0AF0EBFA6FF07F4008F06FFB0AF077
:10B5B00093FA28230193002300930023754A112155
:10B5C000754804F0A9F8002274497548FCF7C4FFD7
:10B5D0000346002B40F0A9807248F5F79FF907F564
:10B5E000277319467048FDF7BFFC0346002B0CD0AB
:10B5F0006E48FDF7F3FC034687F8E73397F8E73327
:10B6000019466B48F5F78AF902E06A48FFF732F904
:10B6100007F17403012268491846FCF7E1FF03466D
:10B62000002B47D107F1700307F174002022634912
:10B63000FDF75EF9034687F8E73307F17403184610
:10B64000FDF772FC5D4B1B8819465C4B5B88184606
:10B650005A4B1B791C46594B9B68594A01920093DF
:10B66000234602465748F5F759F907F174030222B9
:10B6700051491846FCF7B4FF0346002B50D14F4BFD
:10B680009B6801334D4A936007F1700307F1740022
:10B6900020224A49FDF760FA034687F8E73307F1AD
:10B6A00074031846FDF7C2FB07F174031846FDF753
:10B6B0003BFC35E007F1740306223F491846FCF7CE
:10B6C0008FFF0346002B28D13C4B40F2D2421A8018
:10B6D0003A4B41F22E625A80384B36221A71374B60
:10B6E00000229A60384A1421354812F0CFFE07F143
:10B6F000700307F1740020223049FDF72DFA03464C
:10B7000087F8E73307F174031846FDF78FFB07F15D
:10B7100074031846FDF708FC02E02C48F5F7FEF824
:10B7200000221E490020FCF717FF09F0ABFA284B56
:10B730001B889BB21D46274B1B889BB21A46264B83
:10B740001B889BB21946254B1B889BB21C46244B79
:10B750001B889BB207F56D700393029401910092D0
:10B760002B46204A322112F091FE07F56D730093AB
:10B7700028234FF4487200210020FFF763FE144B8A
:10B780001B889BB201339AB2114B1A806420F9F7DF
:10B79000E7FECAE731AE00002C130200DC11020004
:10B7A000CC750010E0110200FC110200081202002A
:10B7B0001412020030120200481202003C7A0010FB
:10B7C000487A00105C120200901202009C120200E3
:10B7D000B8700010BA700010C0700010BC7000107B
:10B7E000BE700010B412020080B584B000AF786063
:10B7F0000023FB73FB7B19461A20FFF7FDFDFB7B43
:10B80000002B0CBF01230023DBB2FB73054B1B880D
:10B810009BB201339AB2034B1A804FF49670F9F73A
:10B820009FFEE7E7BA70001080B582B000AF786085
:10B83000054B1B889BB201339AB2034B1A800A2036
:10B84000F9F78EFEF4E700BFBC70001090B5ADF5BF
:10B85000717D02AF3B1D186000225E495E48FCF717
:10B860007BFE0346002B40F0A9805C48F5F756F8B4
:10B8700007F5277319465A48FDF776FB0346002B58
:10B880000CD05848FDF7AAFB034687F8B73397F862
:10B89000B73319465448F5F741F802E05348FEF72C
:10B8A000E9FF07F17403012251491846FCF798FE9D
:10B8B0000346002B47D107F1700307F174002022E3
:10B8C0004C49FDF715F8034687F8B73307F17403C1
:10B8D0001846FDF729FB474B1B881946454B5B88EB
:10B8E0001846444B1B791C46424B9B68424A0192C6
:10B8F0000093234602464148F5F710F807F1740318
:10B9000002223B491846FCF76BFE0346002B50D140
:10B91000384B9B680133374A936007F1700307F196
:10B92000740020223349FDF717F9034687F8B7332F
:10B9300007F174031846FDF779FA07F17403184606
:10B94000FDF7F2FA35E007F174030622284918469C
:10B95000FCF746FE0346002B28D1264B40F2D2428C
:10B960001A80244B41F22E625A80224B36221A71E1
:10B97000204B00229A60224A14211F4812F086FDB3
:10B9800007F1700307F1740020221A49FDF7E4F86B
:10B99000034687F8B73307F174031846FDF746FAF4
:10B9A00007F174031846FDF7BFFA02E01548F4F7F3
:10B9B000B5FF002207490020FCF7CEFD124B1B8883
:10B9C0009BB201339AB2104B1A800A20F9F7C8FDD6
:10B9D000F4E700BFE0120200CC750010E412020090
:10B9E000001302000C1302001412020030120200B5
:10B9F000181302003C7A0010487A00105C12020012
:10BA0000901202009C120200BE70001080B582B03D
:10BA100000AF7860054B1B889BB201339AB2034B91
:10BA20001A800A20F9F79CFDF4E700BFC0700010EF
:10BA300070B50D460446C8B10BF0E6F8836A03F012
:10BA400008021DB132B943F0080202E012B123F03E
:10BA500008028262826A9A4208D0204600F08EF97B
:10BA600001462046BDE8704000F02FBA70BD08B511
:10BA700028B10BF0C9F8806AC0F3C00008BD08BD4A
:10BA800038B5044680B100F05FFE204600F0D0F9E2
:10BA9000044607E020460BF0B7F805462046FFF7BE
:10BAA000EFFF2C6A002CF5D138BD10B5044660B10B
:10BAB0000BF0AAF8836A13F0020F06D143F00203D9
:10BAC00083622046BDE81040DAE710BD70B50D4630
:10BAD00014461946049A064600F007F830462946EF
:10BAE0002246BDE8704000F013B970B50D4614460B
:10BAF0000646A0B10BF088F8B0F90030B0F9041098
:10BB0000B0F90620C91AB0F90230C943D31ADB4391
:10BB100030466918E218BDE8704000F01BB870BDEF
:10BB200010B539B9054B1C681860054B186800F052
:10BB30000BFE01E06FF07044204610BD807A0010CB
:10BB4000647A0010014B597CEAE700BFB87E001010
:10BB50000021E5E7F0B552EA010389B005460E463B
:10BB600017466AD0002868D00BF04EF806AB04AA3E
:10BB7000044603C883E8030082E803007EB1A36A99
:10BB800003F42073802B05D1BDF810309E1BADF857
:10BB9000106004E0BDF81430F618ADF8146087B1F9
:10BBA000A36A03F4A063B3F5807F05D1BDF812301A
:10BBB000DF1BADF8127004E0BDF81630FF18ADF8C9
:10BBC0001670A36A13F4803F02D0284600F05AFC96
:10BBD000A36A04AA13F0020F92E8030084E80300AA
:10BBE00008D002A806A908F0B7FF02A8A169226A36
:10BBF00000F02BFDBDF916C0BDF91E00BDF910E027
:10BC0000BDF91810BDF91270BDF91A20BDF9146004
:10BC1000BDF91C30C0EB0C00C1EB0E010090BA1A4C
:10BC20002046F31A0BF07AFA04F10800214607F0D7
:10BC300061FB2846052100F035FD09B0F0BDF8B5DF
:10BC400004460E46154617E020460AF0DDFF314651
:10BC500007462A4608F070FF07F1080031462A46D9
:10BC600008F06AFFF86931462A46FFF7E8FF2046E8
:10BC7000032100F017FD3C6A002CE5D1F8BD2DE949
:10BC8000F3410E461546074600282CD001B952B3A1
:10BC900038460AF0B9FFE84604462A4603C888E851
:10BCA00003002046314608F047FF04F10800314602
:10BCB0002A4608F041FFE06931462A46FFF7BFFFF8
:10BCC000A36A13F0020F0AD0A16941B12046226A8B
:10BCD00000F0CDFC6846A169226A00F0C8FC384635
:10BCE000032100F0DFFCBDE8FC8170B50D46144671
:10BCF000064658B10AF088FFB0F90010B0F90230DA
:10BD0000691A3046E21ABDE87040B8E770BDB6E780
:10BD1000EBE710B570B10AF077FF826A12F0020FFC
:10BD200008D022F0020282628169026ABDE81040F6
:10BD300000F08BBC10BDFFFF10B5044658B1064B98
:10BD4000186808B9054BD86B0AF05EFF0822014657
:10BD5000204611F0E8FD10BD607A0010B87E00109A
:10BD600010B50C4648B141B10AF04EFF034620B170
:10BD700020461946082211F0D6FD10BD08B503462D
:10BD800010B10AF041FF8369184608BD08B520B11B
:10BD90000AF03AFFB0F9000008BD08BD08B520B1AF
:10BDA0000AF032FFB0F9020008BD08BD014BD86BA4
:10BDB000ECE700BFB87E0010014BD86BEEE700BF88
:10BDC000B87E001010B50C4670B10AF01DFF034696
:10BDD000806A10F0200007D0204603F108010822F5
:10BDE00011F0A1FD012010BD10BDFFFF1FB51423F0
:10BDF000039104A941F8103D694600F04FFC05B0DD
:10BE000000BD024B0146D86BF0E700BFB87E0010C2
:10BE10001FB5044600211022684611F088FD152345
:10BE200020466946009300F039FC039804B010BD29
:10BE300008B5034610B10AF0E7FEC369184608BD0D
:10BE400038B50D460AF0E0FEC4690DE02046FFF764
:10BE5000DFFFA8420CD020462946FFF7F1FF30B99A
:10BE600020460AF0D1FE046A002CEFD100E004461F
:10BE7000204638BD00B1E3E770471FB500230393A8
:10BE800004A9173341F8103D694600F007FC0398F8
:10BE900005B000BD0BF0FEB970B50446A0B10AF0C4
:10BEA000B3FE856985B1204600F0D1FB28460AF033
:10BEB000ABFEB0F90010B0F90220494220465242D0
:10BEC000BDE87040FFF723BF70BD2DE9F041044687
:10BED0000E46F1B181421CD00AF096FE074630466C
:10BEE0000AF092FEBB690546B34212D02046FFF726
:10BEF000D3FF2046314600F015FA2046B5F9001070
:10BF0000B5F90220FFF703FF2046BDE8F04100F03D
:10BF10001BBCBDE8F0812DE9F041044617461E46E2
:10BF20000D46FFF7B9FF204639463246FFF7F0FECF
:10BF300020462946BDE8F041C7E7FFFF8B6A10B5F0
:10BF4000044A054C03F48033002B0CBF23461346F0
:10BF5000984710BDC9FF000015CC0000094A002316
:10BF600013705360084A1360084A1360084A13604C
:10BF7000084A1360084A1360084A1360084A1360AD
:10BF8000704700BFD4700010847A00106C7A0010E3
:10BF90008C7A0010907A0010607A00107C7A001081
:10BFA000887A00102DE9F843164C0646E06B0D46E2
:10BFB0000AF02AFE00F108094846294608F078FCF4
:10BFC000E8B14A46294605F10800D4F84080676C7C
:10BFD00007F05EF9B5F90030DFF82C902364B5F96D
:10BFE00002303046C9F8006029466364FFF7A6FFB7
:10BFF0000023C9F80030C4F8408067640120BDE820
:10C00000F88300BFB87E0010607A00102DE9F84F69
:10C010008B6A074613F0020F0C4636D0CD6932E02A
:10C0200028460AF0F1FD836A064603F00303032B5A
:10C0300028D104F1080108F03BFC18B3284631462A
:10C04000B4F808B0B4F80AA0B4F80C90B4F80E80B4
:10C05000FFF7A8FF70B128460AF0D6FD0146284632
:10C06000FFF7D4FF28460AF0CFFD064638460AF00F
:10C07000CBFD0446A4F808B0A4F80AA0A4F80C90DC
:10C08000A4F80E80356A002DCAD1BDE8F88F2DE9DD
:10C09000F3410D46164641E00AF0B6FD876A0446B4
:10C0A00017F0020F39D06B462EB168462146324652
:10C0B00007F0EEF802E003C883E80300284669466B
:10C0C00008F0F6FB48B317F0010F15D1B4F90220C0
:10C0D000B5F902309A42B5F9062006DDBDF8023006
:10C0E00019B28A4219DB013B04E0BDF8063019B2EF
:10C0F0008A4212DDEB8010E0D4F81C800AE0404652
:10C100000AF082FD294607466A464046FFF7BFFF10
:10C11000D7F82080B8F1000FF1D1206A0028BBD1F8
:10C12000BDE8FC812DE9F7430E461746002535E0B2
:10C130000AF06AFDD0F82880044618F0020F2CD0CF
:10C140006B462FB1684621463A4607F0A1F802E057
:10C1500003C883E803003046694608F0A9FBE0B154
:10C1600018F0010F05D1BDF80430012501333380EB
:10C1700013E0D4F81C900DE048460AF045FD314626
:10C1800080466A464846FFF7CDFFD8F82090002841
:10C1900018BF0125B9F1000FEED1206A0028C7D1E0
:10C1A0002846BDE8FE832DE9F3410D46164630E0F2
:10C1B0000AF02AFD876A044617F0020F28D06B4662
:10C1C0002EB168462146324607F062F802E003C805
:10C1D00083E803002846694608F06AFBC0B117F0FF
:10C1E000010F04D1BDF80030013BAB8010E0D4F862
:10C1F0001C800AE040460AF007FD294607466A46C9
:10C200004046FFF7D0FFD7F82080B8F1000FF1D1FA
:10C21000206A0028CCD1BDE8FC8138B504460AF07C
:10C22000F3FC826A40F6010302EA0303012B014694
:10C2300006D02046FFF782FE20460AF0E5FC0146C4
:10C24000164B1B6843B32046FFF7E0FE20460AF07A
:10C25000DBFC8569046A1DE020460AF0D5FC836A90
:10C26000014603F00303032B06D12046FFF79AFE95
:10C2700020460AF0C9FC01462046FFF7C7FE2046CB
:10C280000AF0C2FC046A002CE6D128460AF0BCFC85
:10C29000046A8569002DF6D138BD00BF907A001080
:10C2A0002DE9F8430F4C8146E06B0AF0ADFC04F138
:10C2B000080200F10803B0F8088047898689C5891B
:10C2C00092E8030083E80300D9F80000FFF7A5FF18
:10C2D000E06B0AF099FCA0F8088047818681C5814F
:10C2E000BDE8F883B87E001070B506460C4600E045
:10C2F0001C4620460AF088FC0546806A10F00200C1
:10C300000CD03046294606F0F5FFAB69002BEFD183
:10C31000034B1868231A584240EB030070BD00BF5E
:10C32000647A00102DE9F84304460E46002933D004
:10C330000AF06AFC002303620546866130460AF073
:10C3400063FCD0F81C800746AB6AB8F1000F0ED032
:10C35000404603F008090AF057FC0646B9F1000F01
:10C3600009D1836A13F0080F05D0C5F82080FC615D
:10C37000BDE8F8830646376A17B93462BDE8F8832A
:10C3800038460AF041FCB9F1000FF3D1836A13F08B
:10C39000080FEFD034622F62BDE8F88370B506460F
:10C3A0000AF032FC04468069A8B10AF02DFC05466B
:10C3B000C069B0420DD10AF027FC036AEB6170BD81
:10C3C0000AF022FC0346006AB04202D1226A1A62D5
:10C3D00070BD0028F4D170BD0346B3F902200846B1
:10C3E000B3F9001008F0A8BB37B50C4C0546A16B9B
:10C3F00089B16846082211F096FA094B186800B90D
:10C40000E06B0AF001FC6946FFF7E6FF6846294643
:10C4100006F070FF684605F0F7FC3EBDB87E0010E0
:10C42000607A001013B50B4B93F848200AB10A4804
:10C430000DE0D86B0AF0E8FB084B6C4603C884E8B3
:10C440000300196811B16846FFF74EFF6846FFF711
:10C45000CBFF1CBDB87E0010E4700010607A0010A5
:10C46000074B10B50446186804E0A04205D00AF056
:10C47000CBFB40690028F8D110BD012010BD00BFE2
:10C48000747A001038B50546D0B10AF0BDFB836A56
:10C49000044613F0020F13D0406A18B104F097FD60
:10C4A000002363622846FFF7C3FC044606E02046EB
:10C4B000FFF7E8FF20460AF0A7FB046A002CF6D13C
:10C4C00038BD38B5094B054618680BE00AF09CFBEF
:10C4D00004464069A84205D128460AF095FB436905
:10C4E000636138BD0028F1D138BD00BF747A0010F7
:10C4F000B0F90020B0F904309A4208DCB0F902200B
:10C50000B0F906309A42CCBF0020012070470020CD
:10C510007047F7B50F4616460AF076FB856A044663
:10C5200015F0020F2DD03846FFF7E2FF48B340F672
:10C53000010305EA0303012B23D06846394622464E
:10C5400006F0A6FE68466D46FFF7D2FFC8B1A26AA4
:10C5500044F2200102EA010104F1080329B118465E
:10C5600019466A4608F0F8FA0BE095E8030083E8FC
:10C570000300044B16431A88A66201321A8006F0A3
:10C58000F1FEFEBD707A001073B50E4615460446E6
:10C5900000B30AF039FB836A024613F0020F19D088
:10C5A0006846314606F074FEA0B1204669462A4628
:10C5B000FFF7AFFF2046FFF73BFC044608E02046AC
:10C5C00069462A46FFF7E0FF20460AF01DFB046A91
:10C5D000002CF4D17CBD2DE9F743074616461D46D5
:10C5E000884600292FD008460AF00EFBD0F8289084
:10C5F000044619F0020F26D068463946224606F056
:10C6000047FE00B340F6010309EA0303012B06D1FC
:10C610006846A169226A2B46FFF7DDFF04E0404629
:10C6200069462A46FFF775FFE4690AE0B4420AD07A
:10C63000204669462A46FFF7A7FF20460AF0E4FA9B
:10C64000046A002CF2D1BDE8FE832023C3E738B58D
:10C6500005460AF0D9FA8169044639B1026AFFF742
:10C66000F4FF2846FFF79AFE0023A36138BD70B59A
:10C67000044608460D4616460AF0C6FA836A29465D
:10C6800003F4803320463246002B0CBF20234FF4A6
:10C690008043BDE870409EE720223AE708B10AF0E7
:10C6A000BBBD70471FB504AB43F8101D6946019030
:10C6B0000AF0B2FD05B000BD00230B8082884B80DC
:10C6C0000388D31A8B80C2884388D31ACB807047E3
:10C6D000F0B50F4685B00546002833D00AF094FA2D
:10C6E000866A044616F0020F2CD06B4616F4803F83
:10C6F00003C883E8030002D02846FFF7C3FE67B1F2
:10C700003946082202A811F00EF9204602A9FFF7C7
:10C7100063FE684602A906F0EDFD68462946FFF76C
:10C72000E3FD78B140F6010306EA0303012B05D1CE
:10C730006846A169226AFFF788FF03E02846694638
:10C74000FFF7AAFF05B0F0BD0021C1E770B5094CA5
:10C75000E56B08B9084B1868E0630AF055FA06461D
:10C7600006F0D0FBB6F9003028462364B6F9023053
:10C77000636470BDB87E0010747A001070B5044612
:10C78000002857D0FFF76CFE002853D00B2120461D
:10C79000FFF788FF20460AF083FF20460AF034FAAC
:10C7A0000546406A08B104F012FC234B00221A62CD
:10C7B000224B1968A14208BF1A60214B1A68A24295
:10C7C00001D100221A601F4B04E05A68A24201D135
:10C7D00000225A601B68002BF7D1204607210BF07E
:10C7E000E1F905F11C063068FFF7C8FF3368002B3C
:10C7F000F9D12046FFF72BFF2046FFF762FEAB6A18
:10C8000013F0010F03D0104A11680139116013F0C1
:10C81000200F03D00D4B1A88013A1A800C4B20468A
:10C820001A88013A1A800AF08FFA0A4B1868BDE894
:10C8300070408BE770BD00BFD47000106C7A0010A0
:10C840008C7A0010847A0010907A0010707A0010B0
:10C850005C7A0010647A00102DE9F84FDDF828A00A
:10C860009B46454B04460D4691461F68BAF1000FA2
:10C8700005D1424B1B8833B3414BD3F800A0BAF12A
:10C88000FF3F1ED0BAF1000F1DD050460AF0BCF990
:10C89000B0F90020B0F90230A418ED18B9F1000F7A
:10C8A00005D1B0F9049009F10109C2EB0909BBF106
:10C8B000000F08D1B0F906B00BF1010BC3EB0B0B65
:10C8C00001E04FF0000A0D982C3009F0B7FE064643
:10C8D00000284DD00B9B43EA0708284B1A880132E9
:10C8E0001A800AF091F90C9B826A0361254B04803F
:10C8F00008EA030342EA0303458083624C445D4433
:10C90000214B013C013D07468480C580186848B131
:10C910000AF07AF9044630460AF076F96369436111
:10C92000666100E01E6030465146FFF7FBFC18F0E0
:10C93000200F02D03046FFF709FF18F0010F03D097
:10C94000124B1A6801321A6018F0400F02D03046BC
:10C950000BF0C2FA18F0020F06D0BB6A304643F063
:10C960000203BB62FFF7F0FE30460121FFF79AFE9B
:10C970003046BDE8F88F00BF7C7A00105C7A00106A
:10C98000647A00109F3F0100747A0010907A0010C2
:10C990001FB500240094069C0194079C0294089CF7
:10C9A0000394FFF759FF04B010BD014BD86B7047DB
:10C9B000B87E00102DE9F743554B93F84800984690
:10C9C000002800F0A280534BDA691C46012A02DDE0
:10C9D000013ADA6198E09B696A46013304F1100577
:10C9E00095E80300A36182E8030023B92389ADF829
:10C9F000003063890EE0A38AB4F90C2001339BB2A6
:10CA0000ADF800301BB29A4206DA2389ADF8003047
:10CA1000E38A0133ADF80230BDF90220B4F90E30DB
:10CA20003C4E9A426DDCD8F83C000AF0EDF8BDF9B6
:10CA30000020B6F9083007469A4218D1F389B68922
:10CA4000ADF80630324BADF80460DA6B09E0104601
:10CA50000AF0DAF8002206466946006AFFF717FB7B
:10CA6000B269002AF3D1F8696946FFF710FBBDF8F7
:10CA70000030D8F83C20ADF804300CE010460AF045
:10CA8000C3F8694681460022006AFFF74BFB002885
:10CA9000EDD1D9F818206E46002AEFD1F869694621
:10CAA000FFF740FB0028E2D1A389BDF90020ADF8D3
:10CAB00004301BB29A4204DD96E8030085E80300C7
:10CAC000A3E7D8F83C200AE010460AF09DF80022BF
:10CAD00080466946006AFFF766FBD8F818206E4664
:10CAE000002AF1D1F8696946FFF75DFBA369C82BFD
:10CAF00007DC96E8030085E80300FFF793FC0120BC
:10CB000003E0E369013BE3610020BDE8FE8300BF71
:10CB1000B87E0010D47000102DE9FF41334E074657
:10CB200096F8483013B9FFF77DFC5AE0DFF8CC8067
:10CB3000D8F81C3044460133012BC8F81C3050DCB7
:10CB4000F06B0AF061F84FF0FF33A361284B054604
:10CB50001B782BB100F1080202AB92E8030006E05B
:10CB6000806A10F0020006D002AB95E8030083E86B
:10CB7000030037B909E0D8F81C30013BC8F81C3075
:10CB800030E002A8394606F0B5FBB16B194F81B110
:10CB90006846082210F0C7FE386810B10AF034F871
:10CBA00000E028466946FFF717FC02A8694606F030
:10CBB000A1FB396819B102A8FFF796FB28B102ADB5
:10CBC0002846F16BFFF790FB18B9E369013BE3617D
:10CBD00008E0094B95E8030083E80300FFF7EAFE4D
:10CBE00000E0012004B0BDE8F08100BFB87E001075
:10CBF000797A0010607A0010DC700010D470001098
:10CC000008B507F021F8024B00229A6308BD00BF67
:10CC1000B87E001070B50B6986B004468E6A002B92
:10CC200038D016F0020F35D02E210AF033FF2046FF
:10CC300009F0EAFF184D08302B78013316F4805FB5
:10CC40002B700AD00F23039001940093FFF7D8FFB5
:10CC5000204669460AF0E0FA15E004AB03C883E811
:10CC600003001846FFF758FF68B10F23009304AB89
:10CC700003930194FFF7C4FF204669460AF0CCFAFB
:10CC8000FFF798FEF0E72B782046013B2F212B7011
:10CC90000AF000FF06B070BD797A001030B585B09B
:10CCA000039009F0B1FF826A44F2200302EA030311
:10CCB0000446002B3CD003691BB300F1080528464D
:10CCC0000399FFF711FBF0B10398FFF73FFDA36A4B
:10CCD00013F0040F10D0A26922B103F0010383F016
:10CCE000010300E0012300932846134903AA00230F
:10CCF00003F048FB002407E00398FFF78EFA0124B5
:10CD000002E01C4600E00446039809F07DFF826AB9
:10CD100022F4804323F0200312F4005F83621CBFDF
:10CD200043F004038362054B1A88013A1A8000E03D
:10CD30001C46204605B030BDA1C20000707A00102C
:10CD400008B509F061FF836A012243F4004383625E
:10CD5000014B5A6008BD00BFD47000102DE9F043AC
:10CD6000324D9BB06B688BB1314B1C680BE0204699
:10CD700009F04AFF836A466913F4004F02D0204647
:10CD8000FFF7FCFC3446002CF1D16C60294B1B688A
:10CD900003B19847284B1B6813B19847002841D12D
:10CDA000264E96F848301BB107F0A4FE002839D172
:10CDB00096F84800002836D0214B1888002832D039
:10CDC0002C6A0CB91A4B1C68684607F05FFD376B7C
:10CDD000766BECB11B4A1368904613B11B689847F9
:10CDE00002E0012006F04EFA2046FFF757FF814689
:10CDF000204609F009FF446914B1B9F1000FF3D0DE
:10CE0000D8F8000010B14368984701E006F03AFAFC
:10CE100038462C6206F03CFF304606F037FF684685
:10CE200007F03CFD01201BB0BDE8F083D47000107A
:10CE3000747A0010687A0010247F0010B87E001009
:10CE4000707A0010887A001010B5002400E00124E8
:10CE5000FFF784FF0028FAD1204610BD024B0122C3
:10CE600083F84820704700BFB87E0010024B0022B4
:10CE700083F8482006F046B8B87E001070B54568C3
:10CE80000446C668284609F0BFFE2368172B0ED05B
:10CE900004DC0E2B0DD0142B18D104E0222B0ED065
:10CEA000282B13D10EE03146FFF706FC0EE0E560BB
:10CEB00070BD28462146BDE870400AF0DDBD6FF028
:10CEC000704304E02846BDE870403DE40023E36081
:10CED00070BD036810B50E2B044602D00F2B13D182
:10CEE00008E0C3685A68012A12D11868BDE81040EA
:10CEF00007F0D8BD074B18686FF07043984203D015
:10CF000006F0C4FE08F03AFE2046BDE81040B5E742
:10CF100010BD00BF807A001030B51E4C85B020785F
:10CF2000002834D11C4B40F6FF7218601B4B0146A1
:10CF300098631B4B206218801A4B1B4D18800223EC
:10CF400000931A4B029001931346FFF721FD184BF3
:10CF50006FF070421A602860FFF7F6FB15480AF080
:10CF60003FFF15480AF03CFF14480AF039FF2868D3
:10CF7000FFF7ECFBFFF772FF01232370104B2046F5
:10CF800040F8243F05B0BDE8304008F007BE05B0CA
:10CF900030BD00BFD4700010747A0010B87E00104D
:10CFA000707A00105C7A0010647A0010D3CE000012
:10CFB000807A0010407F0010387F0010307F001012
:10CFC0005DBF00001FB50023029303914FF440732F
:10CFD00069460093FFF762FB05B000BD10B59AB03B
:10CFE0000446684607F052FC094B186806F02CF816
:10CFF000B4F90000B4F90210B4F90420B4F9063011
:10D0000009F06AFF684607F049FC1AB010BD00BF7E
:10D010000071001010B59AB00446684607F036FC5F
:10D02000094B186806F010F8B4F90000B4F90210C2
:10D03000B4F90420B4F9063009F04EFF684607F051
:10D040002DFC1AB010BD00BF0071001007B5684676
:10D050000AF0AAFE6846FFF7C1FF0EBD07B5684695
:10D060000AF0A2FE6846FFF7D5FF0EBD08B9014BD6
:10D07000196070470071001010B9024B18687047B2
:10D080000020704700710010012070477047704702
:10D09000704770477047FFFF2DE9F74F284C058810
:10D0A000B0F802808788C688206805F0CDFF2DB2D1
:10D0B0003FB20FFA88F8A06805F0C6FF08F1010A30
:10D0C00036B2404629463A4608F0C6F8514632463E
:10D0D000284607F0E1FD05F1010907F1FF3B206853
:10D0E00005F0B2FF504649465A4608F0B5F808F137
:10D0F000020306F1FF38194642464846019307F0FD
:10D10000CBFD206905F0A0FF304649463A4608F0BD
:10D11000A3F851463246384607F0BEFDE06805F0F8
:10D1200093FF4046A91C5A4608F096F8019B5846C2
:10D130001946424603B0BDE8F04F07F0ADBD00BF51
:10D14000C800001007B568460AF02EFE6846FFF7D3
:10D15000A3FF0EBD2DE9F0471A4EB0F800804788B6
:10D160008588C4882DB224B230680FFA88F83FB29F
:10D1700005F06AFF234639462A46404609F0ACFED0
:10D18000013708F10108306905F05EFFA4F10209DA
:10D19000AA1E3846414608F05FF839464A464046DE
:10D1A00007F07AFD013D706805F04EFF601E4146B4
:10D1B0002A4608F051F8284639464A46BDE8F04765
:10D1C00007F06ABDC800001007B568460AF0ECFD1C
:10D1D0006846FFF7BFFF0EBD04289CBF014B43F814
:10D1E00020107047C800001004289ABF024B53F863
:10D1F00020000020704700BFC800001005207047C5
:10D20000F0B587B0B0F90C60B0F90E50B0F910402D
:10D21000B0F90A70009102210191418A0291B0F99E
:10D2200008100391416804918169D01905912A463B
:10D230009919234600F046F807B0F0BD37B54568A8
:10D240000446214628460AF061FF002839D02368A9
:10D250000B2B2BD00F2B31D1284609F0E1FC0446D3
:10D26000806B05F0F1FE606B06F0E4FC28460AF0E6
:10D27000BBFA20B9E06B05F0DFFE08F07FFC636CC1
:10D280008BB1022006F0BEFC68460AF08DFD606C92
:10D2900009F0C6FC6946B4F9482094F8403008F01B
:10D2A0000BF809F0C5FC09F0C3FC0AE0284609F0B8
:10D2B000B7FC443009F068FD09F0BAFC2046FFF7DE
:10D2C000DDFD3EBD7FB5089D0C9C0095099D45F098
:10D2D00001050195184D02950D9D20350395FFF729
:10D2E000BBFA054628B37CB1204612F094F8013011
:10D2F00009F0A4F9064640B109F092FC214612F06B
:10D3000069F809F095FC00E02646284609F088FCFB
:10D310000B99002204460AF0F1FEBDF8283066643D
:10D32000A4F84830054B34340FCB84E80F0009F0E3
:10D330007FFC284604B070BD3DD20000DC00001028
:10D3400010B586B0089C0094099C01940A9C029434
:10D350000B9C03940C9C049400240594FFF7B2FFEB
:10D3600006B010BD4C2309F0CBBF4C2309F0B3BF6E
:10D37000F0B587B0B0F90C60B0F90E50B0F91040BC
:10D38000B0F90A70009100210191418A0291B0F92F
:10D39000081003918169D01904912A4699192346EE
:10D3A00000F002F807B0F0BDF0B585B00A9C00941B
:10D3B0000B9C44F001040194194C02940E9C3834E7
:10D3C0000394FFF749FA064638B309F029FC0C9A92
:10D3D000144C02F0080205460D99002A14BF1822C9
:10D3E00010220AF08BFE05F13407A646BEE80F00B6
:10D3F0000FC7DEF800303B606369AB640823A5F813
:10D40000603064232B65643BEB64013BEB6509F002
:10D410000FFC636930465B689847304605B0F0BD45
:10D4200027D50000EC00001010B586B0089C0094D1
:10D43000099C01940A9C02940B9C0394002404947C
:10D44000FFF7B2FF06B010BD10B50446002816D095
:10D4500009F0E6FB436DC26C93420CDD013B436572
:10D460002046FFF771F909F0E3FB20460521BDE8EE
:10D4700010400AF097BBBDE8104009F0D9BB10BDC1
:10D4800010B50446002816D009F0CAFB436D026DA2
:10D4900093420CDA013343652046FFF755F909F052
:10D4A000C7FB20460521BDE810400AF07BBBBDE864
:10D4B000104009F0BDBB10BD70B50C46054670B1FB
:10D4C00009F0AEFBB0F96030A34204D0A0F8604090
:10D4D0002846FFF739F9BDE8704009F0A9BB70BDD7
:10D4E00070B50D46044600281CD009F099FBC36CAA
:10D4F0009D42B8BF1D46036D9D42A8BF1D46436DAA
:10D50000AB420BD045652046FFF71EF909F090FBB2
:10D5100020460521BDE870400AF044BBBDE87040DC
:10D5200009F086BB70BD2DE9F14F446805462946D8
:10D5300020460AF0EBFD002800F09F802B680E2BA0
:10D5400000F085800F2B03D00C2B40F090800CE076
:10D55000204609F065FB836C1D6809F069FB002D0E
:10D5600000F08B802046A84787E0D5F80C90B9F1F1
:10D57000000F7CD0204609F053FBC66CD0F850A0B9
:10D58000B0F860B0478EB0F8288009F051FB99F8E8
:10D590000830002B4BD00FFA8BFB17F0080F0BEB6A
:10D5A000DB7B14BFD9F80430D9F800304FEA6B0B9D
:10D5B0000BF1010BCBEB030920460AF048FDB9F152
:10D5C000000F17DD4FEA4B0BCBEB000BD94510DA00
:10D5D000C6EB0A0A0AFB09F9BBF1000F08BF4FF0BE
:10D5E000010B0BEBDB7309EB6309B9FBFBFB5E443F
:10D5F00000E0564620460AF016FB10B120460AF01D
:10D600007FF9012120460AF023FA20463146FFF730
:10D6100067FF17F4807F2AD120464FF480710AF00B
:10D6200044FD18F0020F22D0204601210CE017F42F
:10D63000807F1CD020464FF480710AF04BFD18F01B
:10D64000020F14D0204602210AF0ACFA0FE0EA687B
:10D6500013685268002A0ADD102B05D0122B06D160
:10D660002046FFF70DFF02E02046FFF7EDFE2846BB
:10D6700001B0BDE8F04FFFF701BC01B0BDE8F08F8D
:10D6800070B50C4616460546A8B109F0C9FA436DB7
:10D69000A642B8BF2646A342B8BF4465436DC464E2
:10D6A000B3420665C8BF466509F0C2FA2846BDE820
:10D6B0007040FFF749B870BD70B50C46054658B1CB
:10D6C000002909DB09F0ACFAC46509F0B1FA284673
:10D6D000BDE87040FFF738B870BD642309F010BE94
:10D6E000642309F0F8BD10B5044620B109F098FA9A
:10D6F000446D09F09DFA204610BD00BF2DE9F041B0
:10D700000D4616460446C8B109F08AFAB0F864809E
:10D71000C76D09F08DFA464510D225B1284605F0AF
:10D720009BFC431C00E02B46384631462A4600F05D
:10D730005AFA2046BDE8F041FFF706B8BDE8F0818F
:10D74000F0B589B04769B0F90C60B0F90E50B0F986
:10D750001040B0F90AE00091418A01910021029144
:10D76000B0F90810039107F0FF013F1207F0FF071F
:10D7700004910597816902EB0E0006912A469919DA
:10D78000234600F033F809B0F0BDFFFF30B589B093
:10D79000054609F045FA836D9C6809F049FA17239C
:10D7A0000193009563686846984709B030BD70B52D
:10D7B0000D46044609F034FAB0F864309D42A8BF23
:10D7C0005D1EB0F960309D420CD0A0F8605020463C
:10D7D000FEF7BAFF09F02CFA20460521BDE870409B
:10D7E0000AF0E0B9BDE8704009F022BA2DE9FF4720
:10D7F000314C109E119F2569DDF830A0B5F802E08C
:10D80000002FD8BF1427002ED8BF022623B90EF14F
:10D81000040E731E07FB03E30AB92A8804320D9D28
:10D82000CDF800A045F001050195244D0295129D0B
:10D830003C350395FFF710F88046002838D000F0FB
:10D8400033FA00258146002148460A46013500F09A
:10D8500066F9B542F7DB404609F0E2F90E9AC0F8E6
:10D860005C9002F480720F9942F0100205460AF0B3
:10D8700045FC636A05F1340EA446AB65BCE80F00B5
:10D88000AEE80F00BCE80F00AEE80F00DCF8003097
:10D890005046CEF800300AF093FAA5F86460686349
:10D8A000A5F8627009F0C4F9636A40465B6898475E
:10D8B000404604B0BDE8F087040100104BD90000D9
:10D8C00010B588B00A9C00940B9C01940C9C0294A7
:10D8D0000D9C03940E9C04940F9C059400240694C4
:10D8E000FFF784FF08B010BD70B50C46054698B12F
:10D8F00009F096F990F8666009F09AF936B1074B8D
:10D900001B681BB128462146984770BD284624EA6B
:10D91000E471BDE870404AE770BD00BF947A001022
:10D9200070B50D46064650B109F07AF9B0F960407D
:10D9300009F07EF930462919BDE87040D4E770BD82
:10D940000121EDE74FF0FF31EAE72DE9F0474468A8
:10D950000546294620460AF0D9FB002800F08D80B4
:10D960002B680E2B68D004DC0B2B79D00C2B7FD1CD
:10D970001BE00F2B02D02B2B7AD10CE0204609F0B4
:10D980004FF9836D1D6809F053F9002D75D02046BD
:10D99000A847BDE8F087204609F042F990F86630C4
:10D9A000EB60BDE8F04709F043B92046D5F80CA07C
:10D9B00009F036F990F866300646B0F8629043B147
:10D9C000B0F90680B0F9023008F10108C3EB08088D
:10D9D00006E0836D20469B681B68984700F10408A9
:10D9E000378E09F025F9EE68B6B19AF80830ABB178
:10D9F000DAF8043093FBF9F109FB1139C14502DC77
:10DA00002046FFF771FF20460AF00DF948B1204685
:10DA100009F076FF002605E0032104E0012602213B
:10DA200001E00646012120460AF0BCF8012E1FD174
:10DA300038B207F037F81BE0EB685A68002A17DDA8
:10DA40001B68103B032B13D8DFE803F00606020225
:10DA50002046FFF775FF0BE02046FFF773FF07E056
:10DA6000204609F0DDF8C06D00F097F809F0E0F805
:10DA70002846BDE8F047FFF701BABDE8F087682304
:10DA800009F03EBC682309F026BC10B5044628B155
:10DA900009F0C6F8B0F9604009F0CAF8204610BD98
:10DAA000038870B599420C4616460ED2406870B194
:10DAB00009F0B6F8054600EB840009F065F945F871
:10DAC000246009F0B5F8002070BD012070BD012070
:10DAD00070BD38B503880D46994208D2406840B100
:10DAE00009F09EF850F8254009F0A2F802E0002461
:10DAF00000E00446204638BD10B5FFF7EAFF18B134
:10DB0000BDE8104009F08CB810BD10B5044620B136
:10DB100009F086F8048809F08BF8204610BD2DE93D
:10DB2000F0410546002832D04AB10846114608F0B7
:10DB300093FDD0F10104064638BF002401E01446ED
:10DB40001646284609F06CF80788D0F8048009F0DA
:10DB50006FF8F4B9791C4046890006F0C8FE80468B
:10DB600020B9304609F0F0F8013413E009F058F814
:10DB700040F8276009F05CF8284609F051F803885E
:10DB8000C0F804800133038009F052F802E0044633
:10DB900000E001242046BDE8F0812DE9F041074670
:10DBA000F8B109F03DF80446406898B109F038F83A
:10DBB0000025064604E0304609F0E6F80135043653
:10DBC00023889D42F7DB09F033F8201D09F0DCF8CB
:10DBD0000023238009F02CF83846BDE8F04109F015
:10DBE000B3B8BDE8F0812DE9F8430D4617461E464F
:10DBF0000446002839D009F013F80488D0F80480CE
:10DC000009F016F8A5422DD2B8F1000F2CD04046ED
:10DC100009F006F850F825404FEA850909F008F8A0
:10DC200024B1204609F084F8B0420FD0304608F005
:10DC300005FD044650B1404608F0F2FF80464844D6
:10DC400009F0A2F848F8254008F0F2FF6FB164B17E
:10DC5000204608F0E5FF394632460FF064FE08F032
:10DC6000E7FF02E0002400E044462046BDE8F883D8
:10DC700038B50D46044638B108F0D2FF2946FFF703
:10DC800028FF044608F0D4FF204638BD38B50D46BD
:10DC9000044638B108F0C4FF2946FFF72DFF0446BB
:10DCA00008F0C6FF204638BD082008F0C7BCFFFFBB
:10DCB0002DE9F04F85B08A4608F0B2FF04460069AE
:10DCC00005F0B8FFE06805F0E3FF022005F09AFFD9
:10DCD000A78CE36917F001075AD0002B00F0B4803D
:10DCE000A06808F09DFFC36A62691B68064602EBE4
:10DCF0000308FEF75BF8A36940443BB1012B0AD14E
:10DD0000BAF90030834200F39D8004E0BAF9043090
:10DD10008342C0F29780A06802A909F0D7FFB76DCF
:10DD2000356E06F07BFFBDF90AA0236ABA44BDF93F
:10DD30000E7000EBD0707F1BD6F880504FEA600960
:10DD4000ED1AED1901E0E369ED18BD42FBDB1CE0C3
:10DD5000BD4218DCA06905F05DFF236AD6F880009B
:10DD6000C01AC019401B12F0DFFDA16A12F07EFC40
:10DD7000C9EB05018346404606F026FF584694F855
:10DD80002C1005F0FFFBE369ED1A5545E0DA59E088
:10DD9000002B59D0A06808F043FFC36A0546D3F8AA
:10DDA000008006F03BFF63690646C8EB0309FEF7F7
:10DDB00003F8BAF90220484486199642BAF80630A8
:10DDC00040DB1BB298423DDCA06802A909F07EFF4F
:10DDD000BDF90C20EB6DD5F854A0D31AB5F8782016
:10DDE000BDF9086012F0010F08BFD5F88C70256AE4
:10DDF00056447519ED1901E0E269AD1AB542FBDC34
:10DE00001EE0B5421ADDA069019305F003FF206A08
:10DE1000281ACAEB0000C8EB0000C01B12F084FDFA
:10DE2000A16A12F023FC49468346284606F0CCFE40
:10DE3000584694F82C1005F0A5FB019BE269AD183B
:10DE40009D42DEDD08F0F4FE08F0F2FE05B0BDE80C
:10DE5000F08F2DE9F041044630200D4617469846D4
:10DE600008F0ECFB0646A0B108F0DAFE4FF07E5356
:10DE70000949836200F10C0302464461856187848D
:10DE8000C0F81C8003C983E80300044B136008F04A
:10DE9000CFFE3046BDE8F0812C010010B1DC00005F
:10DEA00008F052BF38B50D46044650B108F0B8FE30
:10DEB000046AAC4203D005628068FEF745FC08F0B6
:10DEC000B7FE204638BD38B50D46044650B108F0BF
:10DED000A7FEC469AC4203D0C5618068FEF734FC7C
:10DEE00008F0A6FE204638BD38B50D46044650B1B0
:10DEF00008F096FE0469AC4203D005618068FEF725
:10DF000023FC08F095FE204638BD38B50D46044682
:10DF100050B108F085FEC468AC4203D0C56080688B
:10DF2000FEF712FC08F084FE204638BD38B50D46D9
:10DF3000044650B108F074FE4469AC4203D0456118
:10DF40008068FEF701FC08F073FE204638BD70B50E
:10DF50000E4678B108F064FE846A054631462046D4
:10DF600012F00AFD18B9AE62A868FEF7EDFB08F0E2
:10DF70005FFE00E00024204670BD38B50D46044623
:10DF800050B108F04DFEC46AAC4203D0C56280684F
:10DF9000FEF7DAFB08F04CFE204638BD70B50546AA
:10DFA00008F03EFE0446006A18B108F0CDFE0023DA
:10DFB000236208F03DFE2846BDE8704008F0C4BE6C
:10DFC0002DE9F04F95B0064608F02AFE0446006A97
:10DFD000002800F0F38008F023FE0590A06808F008
:10DFE0001FFE10A9D0F854A0D0F85890D0F85C804B
:10DFF000076E0546A06809F069FEBDF8403060690B
:10E000009A44BDF842301FFA8AFA9944BDF8443068
:10E01000ADF840A0C8EB0308BDF846300FFA8AFA05
:10E02000DF1BA369BFB253440293E369ADF84670A6
:10E030003FB2FB1A0393ADF84290ADF8448005F06F
:10E0400027FE94F8290006F005FD94F82A0005F053
:10E05000E9FD94F8283013F0020F74D0D5F88C3015
:10E06000029A304602EB030AD5F88030039A1396E1
:10E0700002EB030B08F0D4FD0746006A08F0D0FD60
:10E080007B6A814603F1FF38FB6AFE684FEA580855
:10E09000CBB10123099313AB0F934FF0000839F96B
:10E0A000083008A853440B9309EB0803B3F9023076
:10E0B000013EC3EB0B030C93FB6A9847002E08F15B
:10E0C0000408ECDC3BE0404A1846116C526C5144A9
:10E0D0005A44019306910792FEF71EFD019B00280A
:10E0E0002DD09A46274601E00AF1040A39F90AC000
:10E0F000069B079A9C4409EB0A03B3F90240C8EB5C
:10E100000C0B141BC8EB0403C44444441946624678
:10E11000049358462346CDF804C007F025F8DDF8EF
:10E1200004C0584621466246049B013E07F01CF895
:10E13000002ED9DCFEF73EFC0028D5D13C4608F085
:10E1400077FD08F075FD94F8283013F0010F31D0F9
:10E150001D4BD5F88C601A6CD5F880705B6CB618C6
:10E16000FF18029A039B0020E4681290B618FF186B
:10E17000FEF7D2FCF0B1DDF814802546B8F90000B6
:10E18000B8F902103018791A08F098FE444609E0F0
:10E19000B4F90400B4F906103018791A12AA07F07D
:10E1A00023F80434013D002DA046F1DCFEF702FC0B
:10E1B0000028E3D108F03CFD08F03AFD08F038FDF6
:10E1C00015B0BDE8F08F00BFB87E00102DE9F84310
:10E1D000054630200C4691461F4608F02FFA0646A9
:10E1E00028B3A00008F02AFA804658B1B9F1000F10
:10E1F00008D03FB108F014FD4946BA000FF093FB78
:10E2000008F016FD304608F00BFD012380F8293098
:10E2100080F82830074B05220360074BC0F82080A8
:10E22000426245610461C760436008F001FD304609
:10E23000BDE8F883C1DF00009DDF0000AEE670B5E9
:10E240000C4688B108F0ECFC0546006A08F0E8FCD2
:10E25000224601460423284600F00AFC08F0E8FCA8
:10E26000BDE8704008F0E4BC70BD10B50C4660B16C
:10E2700008F0D6FC8369A34203D084618068FEF76E
:10E2800063FABDE8104008F0D3BC10BD10B50C46D1
:10E2900060B108F0C5FCC369A34203D0C4618068C3
:10E2A000FEF752FABDE8104008F0C2BC10BD10B530
:10E2B0000C4670B108F0B4FC90F82930A34204D0A9
:10E2C00080F829408068FEF73FFABDE8104008F06A
:10E2D000AFBC10BD10B50C4670B108F0A1FC90F8B1
:10E2E0002A30A34204D080F82A408068FEF72CFA36
:10E2F000BDE8104008F09CBC10BD10B5044638B114
:10E3000008F08EFC90F8284004F0010408F090FC1E
:10E31000204610BD10B5044638B108F081FC90F8D5
:10E320002840C4F3400408F083FC204610BD38B5F3
:10E330000D460446B0B108F073FC90F82830012D6A
:10E3400003F0010403D15CB943F0010303E03DB9DC
:10E3500034B123F0010380F828308068FEF7F4F927
:10E3600008F066FC204638BD38B50D460446C0B1FD
:10E3700008F056FC90F82830012D03F00202C3F398
:10E38000400403D15AB943F0020303E03DB932B16E
:10E3900023F0020380F828308068FEF7D5F908F0F2
:10E3A00047FC204638BD10B550B108F039FC0023B9
:10E3B000C3608068FEF7C8F9BDE8104008F038BCBB
:10E3C00010BD10B50C4648B108F02AFCC462806844
:10E3D000FEF7BAF9BDE8104008F02ABC10BD10B530
:10E3E0000C4648B108F01CFC44628068FEF7ACF9AA
:10E3F000BDE8104008F01CBC10BD00BFF0B587B0F0
:10E40000B0F90C60B0F90E50B0F91040B0F90A70D4
:10E41000009100210191418A0291B0F90810039105
:10E420008169D01904912A469919234600F045FBC9
:10E4300007B0F0BD10B5446D0C60816D1160C26D08
:10E440001A60026E029B1A60C36A1A68039B1A6004
:10E4500010BDF0B591B0044609A909F037FC20467B
:10E4600008F0DEFB0CAB00930BAB0EAA0FA90193D7
:10E470000DAB0546FFF7DEFFBDF92630BDF92A607A
:10E480006D6FF61A0E9BF61A0C9BF61AB542D4BFA6
:10E490000025012508F0CCFB2946204609F0CEF9DD
:10E4A000204608F0BDFB436FBDF92850C367BDF996
:10E4B0002430C0F88460ED1A0F9B066FED1A0D9B97
:10E4C000ED1AAE42D4BF0026012608F0B1FB31465A
:10E4D000204609F0B2F9204608F0A2FB036FC0F80D
:10E4E0009050074600F17C05C0F8883088372846F0
:10E4F00009F098FC384609F095FC95E8070006AE4F
:10E5000003AD86E8070097E8070085E8070008F0F4
:10E510008FFB204631462A4609F08BFE11B0F0BD34
:10E5200010B58AB0044608F07BFB06AB009305AB40
:10E5300008AA09A9019307ABFFF77CFF08F078FB55
:10E54000204603A909F0C2FBBDF80C30099A204609
:10E55000D318ADF80C30089ABDF80E3003A9D318C3
:10E56000ADF80E30BDF81020079BD31AADF810306F
:10E57000BDF81220069BD31AADF81230FEF7A8F8AA
:10E580000AB010BD2DE9F0410F46044608F048FBE3
:10E590000546384609F0E0FF06463846FDF738FCE8
:10E5A000FE280CBFC5F88060C5F88C602046FEF7D9
:10E5B000CBF8BDE8F04108F03BBB2DE9F04F4568D2
:10E5C0000446066895B02846214609F09FFDB6F539
:10E5D000407F074602D12846FFF73BFF002F00F09F
:10E5E000448223680B2B00F0EC8103DC052B40F008
:10E5F000398205E00F2B07D0262B40F033821EE234
:10E600002846FFF726FF2DE22846D4F80C8008F0B4
:10E6100007FB10AB00930FAB12AA0DAE13A9019329
:10E6200011AB0446FFF706FF304609F0BDFB31464B
:10E63000204609F098FE96E803000BAB83E8030040
:10E640001298BDF82E10BDF83C2041185118ADF8B5
:10E650002E1010985142BDF8326089B2081A801904
:10E66000ADF83200BDF82C00121813981218ADF84E
:10E670002C20119A1846891ABDF830208918ADF857
:10E68000301009F071F8606B05F000FB07F076FAC6
:10E69000D4F8943013B128460021984794F86C3090
:10E6A000002B00F090801298119902900391284657
:10E6B00009A9DDF84CB0DDF840A009F007FBE36ADA
:10E6C000BDF928101B6802980493039B676CC3F183
:10E6D0000102BDF92430CBEB0202CB1AD318BDF9ED
:10E6E0002A100593BDF92630CAF10102121ACB1A7D
:10E6F000D318206C0693D4F8489005F0C9FA06F0B8
:10E7000087FA079077B3B4F87830E66C13F0010F0E
:10E7100008BFD4F88C303E4418BF0023F61800E040
:10E72000F61BBE42FCDA94F87A0005F07BFA16E09C
:10E730000499029B01EB0B00BDF9261094F87A2096
:10E74000C918BDF92A308019CAEB03031AB1024671
:10E7500006F015FD02E01A4606F09EFAF619059835
:10E760008642E5DBB9F1000F2AD0266DD4F880305F
:10E770004E44F61A01E0C9EB06064E45FBDA94F862
:10E780007B0005F04FFA18E00398BDF92820BDF989
:10E790002A10BDF92430121A94F87B00CAEB01014B
:10E7A000891B5B4420B118460B4606F0E8FC03E0E9
:10E7B0000846194606F050FD4E4406998E42E3DBAA
:10E7C000079805F02FFA0BA80DA90F9A04F0DAFCB0
:10E7D0000BA808F0C9FF94F83B30FF2B00F0A48091
:10E7E000DDF84CB0129FDDF84490109EBBF1000F95
:10E7F00006D12FB9B9F1000F02D1002E00F094809C
:10E80000E36A09A92846D3F800A009F05FFAFDF7EA
:10E81000CDFA0690FDF7D0FABDF9243007905B449D
:10E820000293BDF92630A06BDB190393BDF92830A4
:10E83000C9EB03030493BDF92A309B1B059305F034
:10E8400025FAE06B05F024FABBF1000F1BD0B8F9F4
:10E85000003006980BF1FF3B0BEB0A021B1A9342A8
:10E8600011DCBDF92A30BDF924009B1B0AEB07011E
:10E87000013307F055F90299039B481E591E059B69
:10E880005A1C06F009FABFB1B8F9022007987B1E9E
:10E890005344121A9A420FDCBDF92400BDF9261028
:10E8A000BDF9282007F03CF90399029B481E591E28
:10E8B000049B5A1C06F0D0FCB9F1000F1BD0BDF927
:10E8C0002820B8F904300699C9EB020909F10100C2
:10E8D0005B1A83420FDBBDF92A300AEB07019B1B51
:10E8E000013307F01DF9049B581C039B591E059B1F
:10E8F0005A1C06F0D1F9BEB1BDF92A30B8F906208C
:10E9000007989E1B711C121A8A420DDBBDF9240068
:10E91000BDF9282007F004F90599029B481C591EEF
:10E92000049B5A1C06F098FCD4F8943013B1284686
:10E9300001219847606EFFF7E8F80026074615E0CA
:10E940003146606EFFF794F908F06AF968B1D0F8C3
:10E950000090484608F064F928B1036841464846EB
:10E96000984708F065F908F063F90136BE42E7D32D
:10E97000A06EFFF7CAF80026074615E03146A06EE4
:10E98000FFF776F908F04CF968B1D0F800904846E6
:10E9900008F046F928B1036841464846984708F010
:10E9A00047F908F045F90136BE42E7D3002008F0E8
:10E9B000DBFED4F89430002B3ED028460221984745
:10E9C0003AE0284608F02CF90446406EFFF79DF81F
:10E9D0000025064613E02946606EFFF749F908F066
:10E9E0001FF958B10768384608F01AF920B1436892
:10E9F0003846984708F01CF908F01AF90135B54275
:10EA0000E9DBA06EFFF781F8002506460CE02946F9
:10EA1000A06EFFF72DF908F003F920B1006808F0A7
:10EA200093F908F005F90135B542F0DB606EFFF7A8
:10EA3000B4F8A06EFFF7B1F808F0FAF815E0E36853
:10EA4000052B0FD12846A66809F035F9864205D076
:10EA50002846A66809F02CF9864203D16068A168AF
:10EA6000FFF790FD2046FEF709FA15B0BDE8F08FDC
:10EA70002DE9F0411F46836804460D461646D3B182
:10EA8000C26803699A420AD1013A08467A43C91911
:10EA90000EF04BFFE068013800FB075003E0531C09
:10EAA000C36002FB071031463A460EF03EFFA068F5
:10EAB000BDE8F04134E5BDE8F081F0B585B00A9CD1
:10EAC00000940B9C0194164C02940E9C6C3403949D
:10EAD000FDF7C2FE054600B3FFF7E6F80746FFF76D
:10EAE000E3F80646284608F09BF8044647660D4FB3
:10EAF00086660D99002204F1340609F0FFFA0FCF63
:10EB00000FC60FCF0FC697E80F0086E80F00BDF8BD
:10EB10003030A4F8783008F08BF8284605B0F0BD06
:10EB2000BBE500003401001010B586B0089C0094CD
:10EB3000099C01940A9C02940B9C03940024049465
:10EB4000FFF7BBFF06B010BD73B504460191A0B13D
:10EB500008F066F802AD466E08F06AF855F8040D44
:10EB600008F05EF8846008F063F830462946042215
:10EB7000FEF7D5FF2046FDF7E7FD7CBD2DE9F04708
:10EB800088460646002824D008F04AF8456E08F06A
:10EB90004FF82846FEF7B9FF0024074612E0284642
:10EBA0002146FFF765F860B108F03AF8D0F8009018
:10EBB00008F03EF8C14504D1284621460AF0D2F8B3
:10EBC00002E00134BC42EADB3046BDE8F047FDF725
:10EBD000BBBDBDE8F08773B504460191A0B108F054
:10EBE0001FF802AD866E08F023F855F8040D08F002
:10EBF00017F8846008F01CF8304629460422FEF716
:10EC00008EFF2046FDF7A0FD7CBD2DE9F04788462C
:10EC10000646002824D008F003F8856E08F008F8AE
:10EC20002846FEF772FF0024074612E028462146D8
:10EC3000FFF71EF860B107F0F3FFD0F8009007F07F
:10EC4000F7FFC14504D1284621460AF08BF802E0BF
:10EC50000134BC42EADB3046BDE8F047FDF774BD45
:10EC6000BDE8F08770B50C461546064690B107F032
:10EC7000D7FF032D0AD80C3500EB85004568A54267
:10EC800005D044603046FDF75FFD00E0002507F049
:10EC9000CFFF00E00546284670BD70B50E4605461C
:10ECA00080B107F0BDFF90F86C40B44207D0003E41
:10ECB00018BF012680F86C602846FDF745FD07F077
:10ECC000B7FF00E00446204670BD70B50E4605460D
:10ECD00058B107F0A5FF446CB44203D046642846FF
:10ECE000FDF732FD07F0A4FF00E00446204670BDAA
:10ECF00070B50E46054658B107F092FF846CB442D9
:10ED000003D086642846FDF71FFD07F091FF00E061
:10ED10000446204670BD70B50E46054658B107F052
:10ED20007FFF046DB44203D006652846FFF7F8FB69
:10ED300007F07EFF00E00446204670BD2DE9F0415B
:10ED4000069F0C4615469846064680B107F068FFB8
:10ED500044658565C0F85C80076607F069FF30464A
:10ED6000FFF777FB3046BDE8F041FDF7EDBCBDE8AD
:10ED7000F08170B50D46044650B107F051FFC0F860
:10ED8000945007F055FF2046BDE87040FDF7DCBC0D
:10ED900070BD70B50E46054688B107F041FF046F9F
:10EDA000B44209D0066707F043FF2846FFF751FB3E
:10EDB0002846FDF7C9FC03E007F03AFF00E00446EF
:10EDC000204670BD70B50E46054688B107F028FF95
:10EDD000446FB44209D0466707F02AFF2846FFF780
:10EDE00038FB2846FDF7B0FC03E007F021FF00E008
:10EDF0000446204670BD70B50E460546E0B107F0EA
:10EE00000FFFB0F8783003F00104002E14BF002289
:10EE100004F0010212B123F0010305E084F00102C5
:10EE2000324206D043F00103A0F878302846FDF7BF
:10EE30008BFC07F0FDFE00E00446204670BD70B577
:10EE40000E46054668B107F0EBFE90F87B40B442F1
:10EE500004D080F87B602846FDF776FC07F0E8FEDA
:10EE600000E00446204670BD70B50E46054668B108
:10EE700007F0D6FE90F87A40B44204D080F87A6069
:10EE80002846FDF761FC07F0D3FE00E0044620466B
:10EE900070BD70B505460C46FFF7E6FF28462146D3
:10EEA000BDE87040CBE7982308F02ABA982308F011
:10EEB00012BA00BF2DE9F0470D460646002849D09A
:10EEC00007F0AEFE0446438E15B143F0200701E083
:10EED00023F02007BB4239D06786304600F0C8F9DE
:10EEE000E5691FE0284607F09BFEB4F90230B0F94F
:10EEF0000290D0F82080C3EB090907F099FEB4F91D
:10EF0000563099450DD1A36E9D420AD0638E13F001
:10EF1000200F03D02846FCF7C8FD02E02846FCF786
:10EF2000F8FE4546002DDDD1B4F87C3013F0400FDB
:10EF300009D017F0200F03D03046FCF7B6FD02E0F1
:10EF40003046FCF7E6FE3046FDF7FEFBBDE8F04735
:10EF500007F06EBEBDE8F087F0B589B0B0F90C607F
:10EF6000B0F90E50B0F91040B0F90A7000910021CC
:10EF70000191418A0291B0F908100391416804910E
:10EF80000E9905918169D01906912A46991923464F
:10EF900000F0BDF909B0F0BD70B504460D4607F0AC
:10EFA0003FFEB0F87C302DB113F0080F0CD143F0C8
:10EFB000080304E013F0080F06D023F00803A0F8BC
:10EFC0007C302046FDF7C0FBBDE8704007F030BE46
:10EFD00070B588B004460D4607F022FEC36D9E68EA
:10EFE00007F026FE0094032D0BD8DFE805F002049D
:10EFF0000608162304E0142302E0132300E015237F
:10F00000019373686846984708B070BD2DE9F043D6
:10F01000446885B007462046FCF7B0FE064607F078
:10F02000FFFD456ED0F84880D0F8809007F000FED4
:10F030003B680E3B142B4CD8DFE803F02F0B4B4BF7
:10F040004B4B50504B504B4B4B4B4B4B1E2A4B4B4F
:10F0500048006FF07043984504D0404603F0ECFF41
:10F0600006F08CFD002D3CD06E4697E80F0086E838
:10F070000F00019468462FE0FB68002B31D0B9F1F6
:10F08000000F1FD0A1451DD0484608F039FC28E0EC
:10F090003046394609F03AF823E0FB685A68002AFE
:10F0A00017DD1B68092B0DD00A2B12D1204608F062
:10F0B000D3FB0446304607F0B3FDC0F8804007F0AC
:10F0C000B7FD0EE0204608F0F6FBF2E7C7F80C802B
:10F0D00007E01DB17E603846A84702E03846FDF7DC
:10F0E000CDFE05B0BDE8F08308B50346408E10F0B4
:10F0F000200006D0B3F9540018B9586B05F070FD24
:10F10000023008BD2DE9F84304460D46164607F0C7
:10F1100087FDC36DB0F80080D3F80890478807F0EA
:10F1200087FDD9F8003020460021984781462046C7
:10F13000FCF77EFE25E0204607F072FDB0F902E004
:10F140003AB2C2EB0E024A450188838814D1806A24
:10F150000FFA88F210F0800F07D00BB29A1A3368BA
:10F160009A4209DC013A326006E01BB29B1A2A6817
:10F17000934201DB01332B6007F05AFD204608F073
:10F180009DFD04460028D6D1BDE8F8832DE9F04F57
:10F1900087B006460C4607F043FDC36D0546D3F81D
:10F1A00008900121D9F8003030469847D9F800304E
:10F1B0000321804630469847D9F80030022107469F
:10F1C00030469847D9F800300021019030469847E2
:10F1D0008146284608F04EFD0290284608F051FD71
:10F1E000B5F832A003901AF0200A284618BFB5F9E6
:10F1F00058A0FFF779FF8346E86E08B108F050FD8C
:10F200000299A4F800B04B1E03991FFA8BFBDF1B79
:10F21000DA441FFA89F34A1E01999A44013B521AB3
:10F220009B4460801FFA88F8BFB250446281A4F802
:10F2300004802781E080A4F80C802782A4F80E9037
:10F24000A4F812B007F0F4FCB4F90C3004AA05934A
:10F25000B4F91030304605A90493FFF753FFBDF809
:10F260001420BDF81030A281238207B0BDE8F08FD2
:10F2700070B586B0064607F0D3FC846EC56E07F005
:10F28000D7FC04B92DB3304601A9FFF77FFFACB11D
:10F290002046BDF90810BDF90A2008F08CFCBDF924
:10F2A0000C60BDF90E20BDF90810BDF90A30013619
:10F2B00001322046711AD21AFCF717FC4DB1BDF984
:10F2C0000A20BDF906302846BDF90810D21A08F008
:10F2D00072FC06B070BD73B50E460446B0B107F0BF
:10F2E0009FFC036F02AD45F8043D07F0A1FC2846E2
:10F2F000314603F0BDFE48B1204607F091FC019B6A
:10F30000036707F095FC2046FDF71EFA7CBD2DE94A
:10F31000F0418AB0109C119F0094354C47F48057FF
:10F320000294169C019760340394FDF795FA044605
:10F33000002859D007F074FC2E4D06461399302250
:10F3400008F0DCFE06F1340EAC46BCE80F00AEE877
:10F350000F00BCE80F00AEE80F009CE80300159B0F
:10F360004FF000087366BDF848308EE80300A6F839
:10F370007C30AB6AC6F88080F365C6F86C80C6F84E
:10F38000888007F055FC204605A9FFF7FFFEBDF970
:10F390001C20BDF91E30BDF91A10BDF9180041F24C
:10F3A000827601960132144E01335B1A121A0296CC
:10F3B0000094CDF80C80FDF74FFAAB6A06465B6807
:10F3C00020469847204607F02BFC866607F030FC65
:10F3D00042F2040307EA030313B9204608F016FCBF
:10F3E00020461499FFF777FF20460AB0BDE8F08168
:10F3F0007BF40000640100100DF0000010B588B02F
:10F400000A9C00940B9C01940C9C02940D9C039408
:10F410000E9C04940F9C059400240694FFF777FF3C
:10F4200008B010BD70B50C46054670B107F0F8FB8A
:10F43000B0F95A30A34204D0A0F85A402846FDF74C
:10F4400083F9BDE8704007F0F3BB70BD10B50C4602
:10F4500078B107F0E5FBB0F87C3014B143F010034D
:10F4600001E023F01003A0F87C30BDE8104007F065
:10F47000DFBB10BD00B18FE570472DE9F047446850
:10F480008AB00546204607F0CBFBC36DD0F88870E4
:10F49000D0F88060D0F86880B0F87C900BB1D3F8D9
:10F4A00000A007F0C5FB06E07B68284698470028C7
:10F4B00040F0F8803F68002FF6D12B680B3B1F2BE4
:10F4C00000F2E880DFE813F0DE003E00B600E60060
:10F4D0003B00E6002000E600E6007100E600E600E2
:10F4E0007B00E600E600E600E600E600E6008B00B2
:10F4F000E600C200E600E600E600E600E6007E0068
:10F50000E600E600E6002F00EE68204607F088FBE4
:10F510003389012B40F0BC80B0F87C3043F4807319
:10F52000A0F87C30B4E0204607F07AFBEB6813B11A
:10F53000C0F8843036E0D0F88430EB6032E020460A
:10F54000D047A7E02046EF6807F06AFBB0F87C6080
:10F5500007F06EFBEB68002B00F0A4803B7AC3B190
:10F5600016F0080F02D1204608F0CAF9204608F02C
:10F570008BFC06F48873B3F5887F40F0938016F017
:10F58000800340F08F8020463946052208F000FABB
:10F5900088E0204607F044FBB0F87C3023F4807309
:10F5A000A0F87C3007F044FB7CE0204601A9FFF77F
:10F5B000EDFDE86802A908220EF0B5F972E0C5F881
:10F5C0000C806FE0EB68022B6CD109930AA92533FC
:10F5D00041F8103DA868089407F01EFE62E0EF684D
:10F5E000012F22D1304608F01CFB58B1304608F0FC
:10F5F00087F9304608F026FB78B13046394608F0E6
:10F6000054FD0AE0404608F056F90646204607F049
:10F6100007FBC0F8806007F00BFB20460121FFF7D5
:10F6200029FF002E3ED1EE603CE020460021FFF78E
:10F6300021FF37E019F0080F2CD1EB68DB684BB3E2
:10F640001B7A3BB3204608F05BF923E0EE680EB36B
:10F650002146706807F019FE014620B120460121BD
:10F66000FFF79AFC16E02046FFF796FC306821462B
:10F6700007F0FBFD70B1204607F0D2FA3368C0F8FE
:10F68000803005E0204607F0CBFA703007F07CFBB5
:10F6900007F0CEFA2046294608F038FD10B128467A
:10F6A000FDF7ECFB0AB0BDE8F0878C2307F028BE1D
:10F6B0008C2307F010BE00BF014B1868704700BFD5
:10F6C00090010010024B1A6818601046704700BF86
:10F6D0009001001030B585B004460D466846002103
:10F6E00010220EF024F92A23204669460093039540
:10F6F000FCF7D4FF05B030BD1FB504460021102231
:10F7000068460EF014F92A23204669460093FCF758
:10F71000C5FF039804B010BD2DE9F34100920468C1
:10F720000E46089A1946099B0546A047044630B381
:10F73000FCF7A3FB698A8046204608F0B6FC204609
:10F74000FCF7B3F940460EE055F81C7F002200920A
:10F75000284641461346B847074620B92046FDF7DC
:10F760000DF83C460BE0013EFCF79FF9002EEBDC68
:10F7700040461D2108F08EF9204608F09CF82046EE
:10F78000BDE8FC8170B504460D46FFF7B5FF10B12A
:10F790000123456003602046BDE87040FDF7D0BA04
:10F7A00007B50023694600930193FFF793FF04E038
:10F7B00005F068FA08B903F0DDFD009B002BF7D0D7
:10F7C00001980EBD13B5049C0094059C0194FFF7AD
:10F7D000A3FF02B0BDE81040E2E700BFF7B50F4657
:10F7E0000446D0B1C9B107F01BFA856F02AE46F8E6
:10F7F000045D07F01DFA3046394603F039FC60B16C
:10F80000019BAB4206D0204607F00AFA019B8367B2
:10F8100007F00EFA2046FCF797FFFEBD70B50D46C7
:10F820000446002816D007F0FBF990F874309D428A
:10F830000CD880F8755007F0FBF92046FCF784FFE0
:10F8400020460521BDE8704008F0ACB9BDE8704025
:10F8500007F0EEB970BD08B500F006F8A0F101039D
:10F86000584240EB030008BD10B5044628B107F02C
:10F87000D7F990F8754007F0DBF9204610BDF0B5D8
:10F8800087B0B0F90C60B0F90E50B0F91040B0F983
:10F890000A70009100210191418A0291B0F908108B
:10F8A00003918169D01904912A469919234600F0E1
:10F8B0009DF807B0F0BDFFFF00B589B06846002194
:10F8C00020220EF034F817230193044B68461B687E
:10F8D0009B685B68984709B000BD00BF94010010A9
:10F8E0002DE9F047446805462946204608F00EFCFD
:10F8F000002879D02B680B3B042B70D8DFE803F08D
:10F90000672E6F032100204607F08AF990F8746093
:10F9100090F8757007F08CF9204607F09BFC0028E2
:10F920005DD0EB685A68002A59DD1B68202B56D140
:10F93000013797FBF6F1204606FB1171FFF76EFFCA
:10F940004DE0204607F06CF9036F1D6807F070F971
:10F95000002D49D02046A847BDE8F087204607F093
:10F960005FF990F8747090F87590B0F8308007F0F7
:10F970005FF9D5F80CA0BAF1000F16D0204608F0B8
:10F980006BF90646A0B99AF80830A3B120460121C8
:10F9900009F1010908F05CF899FBF7F107FB1191F7
:10F9A0002046FFF73BFF012107E05646032104E014
:10F9B0000026314601E001260221204608F0F2F837
:10F9C000012E0CD10FFA88F005F06CF807E0204604
:10F9D00007F026F9783007F0D7F907F029F928461B
:10F9E000BDE8F047FDF74ABABDE8F0872DE9F043DE
:10F9F00085B005460F461E46DDF834909046264CED
:10FA000022B923689B681B689847804626B92368FB
:10FA10009B681B689847064622696FF070439A42BC
:10FA20000C9B08BF49F0010900931C4B2846029328
:10FA3000109B39465033039342463346CDF8049029
:10FA4000FCF70AFF064610B307F0EAF80F991022F8
:10FA5000054608F053FBDFF848E005F13407BEE83F
:10FA60000F000FC7BEE80F000FC7BEE80F000FC79B
:10FA700023689EE807002B67022385F8743087E827
:10FA8000070007F0D5F8236830465B689847304692
:10FA900005B0BDE8F08300BF94010010E1F800005C
:10FAA0009801001010B586B0089C0094099C019440
:10FAB0000A9C02940B9C039400240494FFF796FF85
:10FAC00006B010BD7C2307F01BBC7C2307F003BCF1
:10FAD000F0B587B00446B0F90A0000910021019109
:10FAE000618AB4F910500291B4F90810B4F90C709D
:10FAF000B4F90E600391A169101804913246D91926
:10FB00002B4600F09FF86168054600F0DFF82846B4
:10FB100007B0F0BD70B54FF48071044608F0C5FA27
:10FB2000204607F07DF8058D07F082F815F0020FEA
:10FB300005D020460121BDE8704008F033B870BD03
:10FB40002DE9F04105460C464FF4807108F0C2FAE9
:10FB5000284607F065F8068D078E07F069F8022C35
:10FB600002D1384604F09EFF16F0020F05D0284659
:10FB70002146BDE8F04108F015B8BDE8F08170B548
:10FB80000E46044607F04CF8458E07F051F8F3682E
:10FB900063B11B7A05F4807523B165B92046BDE8D1
:10FBA0007040B7E73DB12046022101E02046032125
:10FBB000BDE87040C4E770BD70B50E46044607F05E
:10FBC0002FF8458E07F034F8F3685A7A42B91A7A5A
:10FBD00032B115F4807F0FD12046BDE8704099E71F
:10FBE0001B89B3F5807F07D115F4807F04D02046B0
:10FBF0000221BDE87040A3E770BD70B50E46044613
:10FC000007F00EF8458E07F013F8F36823B11B7A5E
:10FC10003BB915F4807F04D020460321BDE8704035
:10FC20008EE770BD034A044B1A60044A044B1A6005
:10FC3000704700BFFBFB0000D4010010B9FB0000BF
:10FC400004710010F0B585B00A9C00940B9C0194DF
:10FC5000144C02940E9C4C340394FCF7FDFD0546B5
:10FC6000E8B106F0DDFF104C06460D99102208F0B1
:10FC700045FA06F1340704F1040EBEE80F000FC781
:10FC8000BEE80F000FC79EE80F0087E80F00636B08
:10FC9000736606F0CDFF636B28465B68984728467D
:10FCA00005B0F0BD3FFD0000D401001010B586B0D6
:10FCB000089C0094099C01940A9C02940B9C039458
:10FCC00000240494FFF7BEFF06B010BDF7B50F4641
:10FCD0000446C8B106F0A4FF856E02AE46F8045D86
:10FCE00006F0A6FF3046394603F0C2F960B1019B29
:10FCF000AB4206D0204606F093FF019B836606F0D8
:10FD000097FF2046FCF720FDFEBD70B50D4604466A
:10FD100048B106F085FF456506F08AFF2046BDE83C
:10FD20007040FCF711BD70BD08F0A5B919B14FF4D2
:10FD3000807108F0BAB94FF4807108F0CBB970B592
:10FD4000446805462946204608F0E0F9002857D0C7
:10FD50002B680E2B31D004DC0B2B1FD00C2B4AD17F
:10FD60000AE0112B04D0282B40D00F2B43D109E0FF
:10FD7000244B1B6813B943E0234B1B6820462946DC
:10FD8000984770BD204606F04BFF436E1D6806F095
:10FD90004FFF002D34D02046A84770BD204606F006
:10FDA0003FFF0446683006F0EFFF04F16C000321CA
:10FDB00006F0F2FF06F03CFF1DE0EA6853681268A7
:10FDC0000D2A02D0202A11D105E0002B0EDD20469D
:10FDD000FFF7A0FE05E0002B03DD2046BDE87040E4
:10FDE00098E620460221BDE87040A9E6E96811B90D
:10FDF0002046FFF79BFF2846BDE87040FDF73EB860
:10FE000070BD00BF04710010D401001011B11021A9
:10FE100008F04BB9102108F05DB970B50C461646D4
:10FE2000054660B106F0FCFEA0F85E40A0F86060F8
:10FE300006F0FEFE2846BDE87040FCF785BC70BDAC
:10FE4000782307F05DBA782307F045BA2DE9FF471C
:10FE5000B1F90450B1F900900135C9EB0505002D49
:10FE60000646B1F80280CC886CDD24B201340FFA6A
:10FE700088F8C8EB0404002C64DD4F6A97B138465B
:10FE800006F0CEFEB0F90450C48806F0D1FE4D4510
:10FE900002D124B2444556D038464946424600F085
:10FEA0000DFA50E007F06EFF864212D102F069FBB6
:10FEB000074602F06BFBBD4202DC844209DD00E034
:10FEC0003D468442A8BF0446294630462246FBF7F9
:10FED0000CFE1F4B414601931E4B2A4602934FF0E6
:10FEE000010A23464846CDF800A000F0ECFF074683
:10FEF000304606F089FE8046476227B930464146C3
:10FF0000FCF788FE1FE0836A6C4343F4803383620E
:10FF1000384601F0ABF88146504604F0FDFB384608
:10FF200000F01CFA0C4BA200197803F039F93046A6
:10FF30004146FCF76FFE002004F0EEFB484601F05E
:10FF400095F800E00027384604B0BDE8F08700BF10
:10FF50005C1502001C4102000C02001037B505467A
:10FF600006F052FE836A044613F0020F28D003699C
:10FF700033B36B4603C883E8030068462946FCF7A1
:10FF8000B3F9E8B1FCF73CFE2846FCF7DFFB0020A4
:10FF9000014604F019FE21462846FFF757FF284680
:10FFA00006F032FE074BFF221A70C46906E02046B5
:10FFB000FFF7D4FF204606F027FE046A002CF6D196
:10FFC0003EBD00BF0C02001010B5FFF73FFF18B197
:10FFD000BDE8104009F0F8BD10BD024BFF221A70B9
:10FFE000BCE700BF0C02001008B518B106F00CFE0B
:10FFF000406A08BD08BD2DE9F04F91B00790099106
:020000021000EC
:1000000006F002FE836A069013F0020F00F04481AE
:100010000369002B00F040810EAB03C883E80300A6
:1000200018460799FCF760F9002800F03581099A15
:100030001568002D31D107980CA9FBF791FEBDF989
:100040003460BDF93640964BBDF93000BDF9321031
:1000500001930136934B0134361A641A02933246E7
:100060002346009500F07FF90546002800F0FB804C
:10007000099B18600798FFF7B7FF0590002800F06C
:10008000F28000F06BF974430746284600F066F9E9
:100090003946A2000DF047FCF3E00798FFF7A4FFF4
:1000A0000590002800F0DF8000F034F982460598C2
:1000B00000F024F90646059800F050F984460598AA
:1000C000CDF810C000F032F98046059800F03AF9FA
:1000D0000446284600F01EF98346284600F00EF933
:1000E0000890284600F03AF90A90284600F01EF9D8
:1000F0008146284600F026F90BEB090101398845B5
:10010000DDF810C000F3BD800AEB080E0EF1FF3ED3
:10011000CE45C0F2B680089A1318013B9C4200F30A
:10012000B0803219013A8242C0F2AB80C1456746C5
:10013000C4BFC8EB09070CEB8707A04204DD051B11
:100140000AFB05F507EB8507C8450A9DC4BFC9EB47
:10015000080C05EB8C05844205DDC0EB040C0BFBA1
:100160000CFC05EB8C05C14506DB71450BDBC9F1C9
:10017000010909EB0E0C09E0714506DAC8F1010826
:1001800008EB010C02E0DC4600E0D446A04205DBAF
:10019000934209DBC0F10106B61806E0934204DA87
:1001A000C4F10106F61800E0089E4FEA8A0A4FEAF9
:1001B0008B0BCDF828A0CDF820B0B246CDF82CC0DE
:1001C0000B9C2B463946BB46A9460A46002752F8E7
:1001D000040B000EFF2802D10137BC42F7D1E41B0B
:1001E00035D0BF00CE193246002552F8041B090E47
:1001F00002D10135AC42F8D1DF1925B34FEA8508A9
:100200003846314642460DF08EFB46444744641B57
:1002100019E056F8040B020E551EEDB2FD2DD4D890
:1002200057F8041B0D0EFF2D02D147F8040C09E00E
:10023000D243D2B202F046FF20F07F4040EA05658B
:1002400047F8045C013C3B463146002CE1D1BAF151
:10025000010A5F464D4614D0089B0A9A09EB030534
:100260000BEB0207ACE7069BDC6907E02046099927
:10027000FFF7C1FE204606F0C7FC046A002CF5D14A
:100280000AE0059800F0A3FE079806F0C9FC0023D9
:10029000436206F0CDFCE6E711B0BDE8F08F00BF89
:1002A0005C1502001C41020007B5002302A941F8B9
:1002B000043DFFF7A0FE01980EBD704770B50C46D7
:1002C000164610B90C4B586DA0B106F09DFCB6B2A5
:1002D000A4B20546C680848002F014FE686948B165
:1002E00006F092FC2B89838023B16B89C3800BB10C
:1002F0000480468070BD00BFB87E001008B510B9FC
:10030000034B586D18B106F07FFCB0F90A0008BD28
:10031000B87E001008B510B9034B586D18B106F03F
:1003200073FCB0F9080008BDB87E001008B510B91C
:10033000034B586D18B106F067FCB0F9040008BD16
:10034000B87E001008B510B9034B586D18B106F00F
:100350005BFCB0F9060008BDB87E001008B506F0D9
:1003600053FC183008BD70B5069C049E059D1CB159
:10037000BDE8704000F0A7BD204670BD8142B8BF07
:10038000084670472DE9F04F87B0029193461F460B
:100390008046424C78B304A905A804F037FC607C81
:1003A000B8F90490B8F90060B8F90250DDF814A06B
:1003B00002F0D5F80AF1FF3A0AEB00014846FFF7D0
:1003C000DDFF8146607CB8F90680DDF810A002F000
:1003D000C8F80AF1FF3A0AEB00014046FFF7CEFFEA
:1003E00026EAE67625EAE575C6F10103C5F10104C2
:1003F0009944241809E0607C02F0B1F88146607CE1
:1004000002F0AFF845460446464607B96742B9F1DF
:10041000000F3FDD002C3DDD109B30460093294648
:100420003B464A4600F0F0FD074620B95846029B7D
:10043000984701202FE0FFF761FF8246384600F021
:1004400015FECAF100030393A1464FF00008D14501
:1004500003DA3846494609F0B7FCB8F1000F08D076
:100460003846314608EB0502FFF728FF384609F009
:10047000BBFC029B58469847384600F067FED044C4
:10048000039BA0459944E2DB384600F0A0FD002024
:1004900000F0ECFD002007B0BDE8F08FB87E001042
:1004A0000248012918BF0020704700BF5C150200F8
:1004B0000248162918BF0020704700BF3D9A01006E
:1004C00008290CBF202000207047006808B5C368C9
:1004D0001B6A984708BD10B580680C4606F094FB6F
:1004E0008288018922805218013AC388A2804289F9
:1004F00063809B18013BE38010BD38B5094B04466F
:10050000586D0D4606F080FBB0F9062000F1180387
:10051000AD1AC26802FB0535B0F90430E41A05EBE8
:10052000840038BDB87E001008B508461146FFF7B4
:10053000E4FF006808BD134B2DE9F041586D1746E4
:100540000C4606F061FB3946054646692046FFF732
:10055000D4FF2B6880461B699B689847D8F8003009
:100560004340C8F8003056B1304606F04DFB836872
:1005700030461D6806F048FB21463A46A847BDE8CC
:10058000F08100BFB87E0010F8B51E460C4B0C463B
:10059000586D154606F038FB294647692046FFF797
:1005A000ACFF066057B1384606F02EFB836838462C
:1005B0001E6806F029FB21462A46B047F8BD00BF59
:1005C000B87E00102DE9F74F294D8A46686D144614
:1005D000994606F019FB4669804626B1304606F07A
:1005E00013FB074600E0374650462146FFF785FFDC
:1005F000204B1F4A1B680546D3F800B0137CD8F87F
:100600000CC013F0010F17D0D8F800301B699B689D
:10061000984783462EB1BB6838461B685146224630
:1006200098472B68013483EA0B034C452B60D8F8BC
:100630000C301BDCED18EDE786B1BB6822461B6869
:100640003846CDF804C0514698470134DDF804C05F
:100650004C45C5F800B06544EFDD07E0C4EB090484
:100660000134013CC5F800B06544FAD1BDE8FE8F05
:10067000B87E00101C0200102DE9F74FDFF89490AF
:100680008846D9F854001D46144606F0BDFA2146A6
:1006900007464046FFF731FFC8F101035D191C4BC7
:1006A00006461B687869D7F80CB0D3F800A048B3A9
:1006B00006F0AAFA0C9AC4F101039B180093414674
:1006C00022462B4609F06BFB1CE099F8103013F022
:1006D000010F0DD03B681B699B68984732462B463B
:1006E0001168013B80EA010142F8041BF8D107E0E0
:1006F000002D05DD2B463246013B42F804ABFBD111
:100700005E4401340C9B9C42DFDDBDE8FE8F00BFE0
:100710001C020010B87E001007B50092FFF7ACFF76
:100720000EBD2DE9F04F864C93B00A90606D0E46D9
:1007300005929A461F9D219F06F066FA0D9040692A
:1007400008B106F061FA04460D982099C0688E1928
:100750000C90079664B17A4A137C13F0020F07D10C
:100760001C9B204600933146059A534609F017FB1F
:1007700007980599FFF7C1FE06461D98172858DD12
:100780004FEA8A01002208910492B346CDF818A0DE
:100790004AE02E4654B1A368DDF814E05F68049B7C
:1007A000204603EB0E020799069BB8470A98036997
:1007B000DB682BB158462946089A0DF0B4F82CE0B6
:1007C000DDF818A05F46A1463346002453F8042BF9
:1007D000120E01D07CB102E00134A245F6D14FEAFD
:1007E00084083846314642460DF09DF84744464459
:1007F000C4EB0A0A0DE03068020EFF2A05D0D2438E
:100800003968D2B202F05EFC3860043704360AF16F
:10081000FF3ABAF1000FD7D14C46049B1E990C9AAF
:1008200001336D189344049304991C988142B0DB02
:1008300030E31D9A102A38D14FF00008374630E0D7
:10084000059B0A98434410300693089034B1A3687E
:1008500020465E680799069A5346B047079EB946F8
:10086000C346CDF810A0B8462F46089937F8020BBA
:100870000B685B68984749F8040B2CB1A3682046C5
:100880001B683146069A9847049A013A049201D0AF
:100890000136EAE71E9B0C984746ED183F180BF10E
:1008A00001081C998845CBDBF4E21D9A082A75D112
:1008B0000023DDF8148005936BE0002F31D0204831
:1008C000037C13F0030302D0022B59D10BE029461D
:1008D0003246534611F8010B013B57F8200042F80D
:1008E000040BF7D14CE0DDF81CB0B1460696CDF80C
:1008F00010A02E4615F8013B53B157F82330C9F824
:1009000000302CB1A36820461B68594642469847E0
:1009100004990139049131D00BF1010B09F104095B
:10092000E8E7074A137C13F0030302D0022B27D118
:1009300008E03046294652460CF0F5FF20E000BFA3
:10094000B87E0010DDF81CB0B1460696CDF810A0B8
:100950002E4615F8013B43B1C9F800302CB1A3680D
:1009600020461B68594642469847049B013B049326
:1009700004D00BF1010B09F10409EAE73546069EA4
:10098000059A1E980C9901322D187618059208F1D7
:10099000010805981C9B98428FDB7BE2A74B2099AE
:1009A000209A002F08BF1F464900920000230F9194
:1009B00010920A93CDF818A067E21D98022800F063
:1009C000B280042800F06D81012840F054822B7819
:1009D0009B4A9C4812F80380037C209903F0030390
:1009E000022BDDF81890C1F1080B48FA01F825D068
:1009F000032B6DD0012B6BD029463346A446D94535
:100A000038BFCB46CBEB09095A46184608F001041B
:100A100057F82440013A40F8044B4FEA5808F5D102
:100A200003EB8B03B9F1000F00F01A8211F8012FCC
:100A300083484FF0080B10F80280E0E77968DDF892
:100A40001CC02B463A46099567463546B4460B917D
:100A500046469A469046D94538BFCB46CBEB090966
:100A6000D4B11EB905EB8B055F4424E016F0010FED
:100A70000BD0A368059A1B682046CDF80CC03946F8
:100A800098470B9ADDF80CC02A6001370435BBF19A
:100A9000010B10D07608E4E716B905EB8B050AE0E8
:100AA00016F0010F1CBF0B9B2B600435BBF1010B33
:100AB00001D07608F0E7B9F1000F00F0D381099872
:100AC0005F4910F8013F4FF0080B0990CE5CC2E778
:100AD0000D9A13681B699B689847334682462846DF
:100AE000D94538BFCB46CBEB0909DC46002218F0CC
:100AF000010F03D0995881EA0A0199500432BCF1E0
:100B0000010C02D04FEA5808F1E703EB8B03B9F16F
:100B1000000F00F0B08110F8012F49494FF0080B89
:100B200011F80280DCE70F9B95F80090454809FA20
:100B300003F9037C209A03F00303C2F10408012B9C
:100B40005FFA88F85FFA89F97ED0022B2DD0002B4E
:100B500040F09181069BA44632462C46AA46984511
:100B6000C8BF5FFA83F8C8EB0303414610464FEA5B
:100B7000991557F8255001394FEA8909C9B240F84B
:100B8000045B5FFA89F90029F1D108F1FF385FFAB7
:100B900088F808F1010802EB8802002B00F066815A
:100BA00014F8019F4FF00408D9E70799DDF818A061
:100BB0000E950B9609911196AC46D045C8BF5FFAC9
:100BC0008AF80B9EDDF824B0C8EB0A0A454619F0F6
:100BD000C00F0FD04FEA991357F8233033604CB150
:100BE000A36820461B685946CDF80CC0059A984763
:100BF000DDF80CC0013DEDB204360BF1010B25B15F
:100C00004FEA89095FFA89F9E1E708F1FF380B9AA1
:100C1000099B5FFA88F808F1010802EB8802434457
:100C20000B920993BAF1000F00F023810E984FF058
:100C3000040810F8019F0E90BFE700BF9015020056
:100C4000683F0200B87E0010069BAC4632469845CD
:100C5000C8BF5FFA83F8C8EB03034046002119F0D0
:100C6000C00F05D052F801A08AF0FF0A42F801A097
:100C70000138C0B2043120B14FEA89095FFA89F91D
:100C8000EDE708F1FF385FFA88F808F1010802EB98
:100C90008802002B00F0EF801CF8019F4FF0040841
:100CA000D5E795F8008010997C4A08FA01F8137C82
:100CB0005FFA88F803F00303012B00F0A480022BF5
:100CC00038D0002B40F0D780209B6BB14FEA18182A
:100CD00057F828203346069843F8042B05F10109FC
:100CE000421E95F8018002E0069A3346A946012A81
:100CF00017DD4FEA620C604602F0010219469A467F
:100D00004FEA181357F8233008F00F080B6057F814
:100D100028304B600831013819F8018FF0D10AEB07
:100D2000CC03002A00F0A7804FEA181857F82820B3
:100D30001A60A0E02099D1B118F0F00F0BD04FEA63
:100D4000181857F8283033602CB1A36820461B6868
:100D50000799059A9847069B079A03F1FF3B06F10E
:100D6000040902F1010A6B1C95F8018005E0DDF829
:100D700018B0DDF81CA0B1462B4609932B464D4612
:100D8000B1461E4625E018F0F00F0BD04FEA1813BD
:100D900057F823302B602CB1A36820461B685146BE
:100DA000059A984718F00F080AD057F828306B605A
:100DB00034B1A36820461B680AF10101059A9847DF
:100DC0000998083510F8018F0AF1020AABF1020BFD
:100DD0000990BBF1010FD6DC33464E46A9461D46AD
:100DE000BBF1000F47D05FEA181844D057F82830FD
:100DF000C9F80030002C3ED0A36820461B6851463D
:100E0000059A984737E02099069AC1F10203DBB2B0
:100E1000A94631469342C8BFD3B2D21A9C4600209D
:100E200018F0C00F05D051F800A08AF0FF0A41F871
:100E300000A00CF1FF3C5FFA8CFC0430BCF1000F09
:100E400004D04FEA08185FFA88F8E9E7013BDBB203
:100E5000013301EB830172B119F8018F0223D9E745
:100E6000644608E066465546474604E064465546F3
:100E700001E0119E65460A9805991E9A0C9B013067
:100E80000131AD18F6180A9005910A9B1C9A9342FD
:100E9000FFF693AD13B0BDE8F08F00BFB87E001031
:100EA00070B50C461646054605F0AEFE03681621E1
:100EB000DB6800205B6A9847034618B12846214644
:100EC0003246984770BD2DE9F04F394F85B08246C4
:100ED0008B4616461D460F98109900227B7C04F025
:100EE00057FC044600285DD003699B68984701F0D1
:100EF00010FC06FB00F8814605F0E2FE0E9A08F1B0
:100F0000070812F001074FEAD80805D10028B8BF3A
:100F10000330801000EB4000002D06DC18386D42D5
:100F2000B0FBF8F0A842B8BF054647B9504659464D
:100F300032462B46009708F0F7FE039001E00023AD
:100F40000393002D04DC204604F020FC00272AE057
:100F500008FB05F0183017B105F0F2FD01E005F0CF
:100F60006DFB074640B9204604F010FC039AD2B14D
:100F7000104605F0E9FE16E005F046FE039B109AC8
:100F80000460A0F804A0A0F806B006814581C0F86E
:100F90000C80C0F8109043612261054AA760537C21
:100FA000A36100E00746384605B0BDE8F08F00BFFA
:100FB000B87E001010B548B105F026FE03681B6925
:100FC0009B689847BDE8104001F0A3BB10BD70B509
:100FD0000446A8B10B4B5B6D834201D103F012FCB8
:100FE000204605F011FE0546406908B108F0C8FE2C
:100FF000286804F0CBFB2046BDE8704005F0A4BE95
:1010000070BD00BFB87E0010F0B51E46134B0546FC
:10101000587C87B003EB8003DB6C0C461746DA681C
:101020001268042A05D01B68002BF8D104F09CFB41
:101030000346DA681846D26A012105939047059B5A
:1010400050B10C9A019000921B69284602932146E8
:101050003A463346FFF737FF07B0F0BDB87E0010C1
:1010600013B500240094FFF7CFFF1CBDF8B5114E57
:101070000446756D10B903F0C5FB19E00DB103F01E
:10108000C1FB204605F0C0FD0746FBF7EFFE736D80
:1010900033B9094BA3F1500292E8030083E803003F
:1010A0003868746504F0B2FB00F09EFE01F02AFF80
:1010B0002846F8BDB87E0010107F00102DE9F743D8
:1010C0000C4615460646002839D0002002F0BAFD2D
:1010D0001C4B07463046D3F8548005F095FD8146F9
:1010E00003F090FB184BB9F808209C4204BFB9F9F3
:1010F0000440B9F90650A3B2013AADF80030D31854
:10110000B9F80A20ADF80430013AABB2ADF80230BC
:10111000D318ADF80630FBF7A1FE6846FBF7FCFCE0
:1011200038B1304621462A4608F04AF9FBF742FC1E
:10113000F6E74046FFF79AFF384602F083FDBDE828
:10114000FE8300BFB87E001001F0FFFF01490A4690
:10115000B4E700BF01F0FFFF2DE9F341DDF8208087
:101160000D4614461E46C0B105F05AFD476905F00C
:101170005FFD97B1384605F053FDC4F101024244CA
:10118000C5F101030092294622469B1908F007FE8B
:1011900002B0BDE8F04105F04BBD02B0BDE8F08102
:1011A000836800220A804A805A699B69013A013BA0
:1011B0008A80CB80704710B58068C469006804FBE2
:1011C000021220F8123010BD8368D8691B6800FB3A
:1011D000021233F8120070472DE9F04104460E4622
:1011E0001546FFF7F1FF236907469B68984731468C
:1011F00080EA07032A462046BDE8F041DBE7F8B560
:101200001F462E4B06461B7C0C4613F0010F15465D
:1012100009D005E0214630462A46FFF7DDFF0134BC
:10122000BC42F7DDF8BD264B62081B683F1B1868FF
:10123000B368D969491001FB05251A6814F0010F3C
:1012400002EB850301D1013706E032F825100433A3
:1012500041EA004142F8251001040F2F014415DD39
:10126000A7F110052C461A46116051609160D160BB
:10127000116151619161D1612032103CF4D5103F70
:101280003A09170101325201EF1B9B18012F0DDDA6
:101290003A461C46023A012A44F8041BFADC023F93
:1012A0007A08511C520003EB8103BF1A012F04D1AD
:1012B0005A8880B240EA02401860F8BDB87E00103B
:1012C0001C0200102DE9F0411F46114B05461B7C06
:1012D0000E4613F0010F14460AD005E022462846B8
:1012E0003146FFF779FF0134BC42F7DDBDE8F081FC
:1012F000084B1B68D3F8008006E02246284631469A
:101300004346FFF758FF0134BC42F6DDBDE8F081EB
:10131000B87E00101C0200102DE9F74305468068D6
:101320000F46066B14469846DDF828907EB10A48B1
:10133000CDF80090006800680190A869B04708E007
:101340002246284639464346FFF759FF01344C45AB
:10135000F6DDBDE8FE8300BF1C0200100139836882
:101360000D2914D8DFE801F0090B0D0F1313130733
:1013700016111116161610207047D8687047186994
:1013800070475869704798697047012070474FF05F
:10139000FF307047002070470248012918BF002025
:1013A000704700BFD04202002DE9F0478668089CD4
:1013B000F56909984FEA450805FB0215D6F8009033
:1013C0006D00C1F1010C9C4407466646C0EB090A5A
:1013D000BA443AF805A0013E27F802ABF6D1A24282
:1013E00000EB4C00454401DA0132EAE7BDE8F08742
:1013F0000139202938D8DFE801F0351B1719371DCE
:1014000037371113151F3721233737372527292F52
:1014100037372B3737373737372D31001348704779
:101420001348704713487047134870471348704774
:101430001348704713487047134870471348704764
:101440001348704713487047134870471348704754
:1014500013487047134870471348704703689B68E8
:10146000D86B70471148704700207047BD160100C7
:10147000751701003517010091160100EB150100E9
:101480006B160100451601002B160100F114010036
:10149000E7140100D5140100C3140100B1140100C8
:1014A000E516010007160100B3150100A91301009C
:1014B00007B58069009101920D216A46F8F75CFF3B
:1014C0000EBD07B502AA42F8041D80690C21F8F789
:1014D00053FF0EBD07B502AA42F8041D80690B2117
:1014E000F8F74AFF0EBD806906210022F8F744BFD5
:1014F000806905210022F8F73FBF2DE9F74300235B
:101500000446866880690D4617460093019301F0F2
:1015100032F88046A06901F030F88146A06901F0F8
:101520002EF8800040EA490949EA0808B8F1070F97
:1015300026D8DFE808F008040F0B19151F1B726985
:10154000F368D31A5D1B0095019719E07269F3687F
:10155000D31A5D1BB26933690095D31ADF1BF3E719
:10156000B2693369D31ADF1B009708E0B2693369A7
:10157000D31ADF1B7269F3680097D31A5D1B0195BC
:10158000A06903216A46F8F7F7FEBDE8FE8338B587
:10159000056804463DB9402005F084FA29462060DC
:1015A000402201F0FDFD2068D0F1010038BF00208D
:1015B00038BD70B5044608300D461646FFF7E7FF04
:1015C000A3688BB1173D0A2D0ED8DFE805F0080A95
:1015D000060D0D0D0D0D0D0D0C005E6370BD1E632F
:1015E00070BD9E6370BDDE6370BD70B5044608308B
:1015F0000D461646FFF7CBFFA3681BB11A6A2A6097
:101600005B6A336070BD37B5002304460830019330
:101610000D46FFF7BCFFA36833B102AA42F8045D90
:10162000A0690E21F8F7A8FE3EBD38B50546083082
:10163000FFF7ADFF012104460022A869F8F79CFEE0
:10164000204338BD37B500230446083001930D46CA
:10165000FFF79DFFA3683BB102AADD6242F8045D7B
:10166000A0690921F8F788FE3EBD37B5002304467E
:10167000083001930D46FFF78AFFA3683BB102AA29
:101680009D6242F8045DA0690A21F8F775FE3EBD2F
:1016900073B5002304460830009301930D461646A7
:1016A000FFF775FFA36843B11D625E62A069082160
:1016B0006A4600950196F8F75FFE7CBD37B50023BA
:1016C0000446083001930D46FFF761FFA36843B15C
:1016D00002AA1D605D6042F8045DA0690221F8F76E
:1016E0004BFE3EBD2DE9F041054608300E469046C2
:1016F000FFF74DFFAC68DCB1464519D0EB68082117
:101700009B6A284698472369E26861685A434243C6
:10171000636BD21008FB021723B1A8693146424619
:10172000984704E0384606FB02110CF0FCF82760ED
:10173000BDE8F081F7B50023044608300D46174692
:1017400000930193FFF723FFA66896B1F3693BB9B5
:10175000A06900F014FF00280CBF28463846F0614D
:10176000F5603761A06907216A4600950197F8F78F
:1017700003FEFEBDF8B5044608300D461746FFF7D8
:1017800006FFA66856B1A06900F0F9FE18B17561B0
:10179000B761F761F8BD7561B761F561F8BD2DE915
:1017A000F04F89B01E46139B0746013B06910792F6
:1017B000159CDDF85890179D0F2B00F21283DFE87F
:1017C00013F01E0018001003120010031003100382
:1017D0001000100310031003100310031003100374
:1017E00022000020DFE20021BB460391B0462F46D5
:1017F0003EE20022BB460392B0462F4663E14FF023
:10180000000B2B4690E076000025E7E25868BD68A3
:101810000699DDF81CA0D3F800C00390E86909EB35
:1018200001020BEB0A0100FB01212278A948C9F152
:10183000080A10F80280A84A48FA09F8127C02F057
:101840000302022A24D0032A40D0012A3ED02A686B
:101850002046023A02EB410104933246039D08F010
:101860000103002B08BF6546BAF1010A21F8025FA7
:1018700002D04FEA580807E0DFF858A210F8015FDD
:101880001AF805804FF0080A013AE7D1049B47E0B7
:10189000490032462046029318F0010F04D0039B02
:1018A000D5F800C021F80C30BAF1010A02D04FEA95
:1018B000580807E0DFF81CA210F801CF1AF80C80D6
:1018C0004FF0080A0231013AE6D128E03A699268FD
:1018D0000191009390470199009B04904900324682
:1018E0002046029318F0010F08D02B6831F803C08E
:1018F000049B8CEA030C2B6821F803C0BAF1010A9F
:1019000002D04FEA580807E0DFF8C8A110F801CF6D
:101910001AF80C804FF0080A0231013AE2D1029B1A
:1019200014980BF1010B241812998B45FFF66EAF3A
:1019300057E2079B039ADDF818A0D218664B049271
:101940001B7C267813F0030309EB0A0503D0022B56
:1019500040F0B1805CE067B3C44602942946CA46B1
:101960004546A046644600E06146CAF103025200C3
:10197000C020C2F1060350FA03F33340D34001F113
:10198000010C57F823305846049A0AF1010ACDF8A1
:1019900004C0FFF710FCBAF1040FDDF804C005D154
:1019A0000298AAF1040A10F8016F0290013CDBD101
:1019B0002BE0C44602942946CA464546A0466446E2
:1019C00000E06146CAF1030E4FEA4E0EC022CEF18E
:1019D000060352FA03F3334001F1010C5846049A0E
:1019E00023FA0EF30AF1010ACDF804C0FFF7E3FB76
:1019F000BAF1040FDDF804C005D10299AAF1040A76
:101A000011F8016F0291013CDBD14446A84652E037
:101A10003FB9C4460294CDF81480CA46A046644635
:101A200027E0C4460294CDF81480CA46A046644616
:101A3000CAF103025200C021C2F1060351FA03F3B6
:101A40003340D34006D058462946049A57F82330ED
:101A5000FFF7B1FB0AF1010ABAF1040F05D1029AAE
:101A6000AAF1040A12F8016F0292013C20D001355C
:101A7000DEE7CAF103025200C021C2F1060351FAA7
:101A800003F33340D34004D058462946049AFFF765
:101A900092FB0AF1010ABAF1040F05D1029BAAF1E7
:101AA000040A13F8016F0293013C01D00135E0E70D
:101AB0004446DDF81480DDF80CA0149D0AF1010AFB
:101AC0006419CDF80CA0039912988142FFF631AF4A
:101AD00087E100BF683F0200B87E0010079B039AB1
:101AE000DDF818A0D218B24B04921B7C267813F0B4
:101AF000030309EB0A0503D0022B40F0B1805CE040
:101B000067B3C44602942946CA464546A046644681
:101B100000E06146CAF101029200F020C2F1040324
:101B200050FA03F33340D34001F1010C57F823304E
:101B30005846049A0AF1010ACDF804C0FFF73BFBAE
:101B4000BAF1020FDDF804C005D10298AAF1020A29
:101B500010F8016F0290013CDBD12BE0C4460294E7
:101B60002946CA464546A046644600E06146CAF199
:101B7000010E4FEA8E0EF022CEF1040352FA03F367
:101B8000334001F1010C5846049A23FA0EF30AF18E
:101B9000010ACDF804C0FFF70EFBBAF1020FDDF821
:101BA00004C005D10299AAF1020A11F8016F02914D
:101BB000013CDBD14446A84652E03FB9C4460294FA
:101BC000CDF81480CA46A046644627E0C446029475
:101BD000CDF81480CA46A0466446CAF101029200BC
:101BE000F021C2F1040351FA03F33340D34006D08D
:101BF00058462946049A57F82330FFF7DCFA0AF1D1
:101C0000010ABAF1020F05D1029AAAF1020A12F8EA
