:1000000000000110450100000D0100000F0100007B
:1000100011010000130100001501000000000000A4
:10002000000000000000000000000000AD01000022
:1000300017010000000000005D02000099020000AE
:100040001901000019010000190100001901000048
:100050001901000019010000190100001901000038
:100060001901000019010000190100001901000028
:100070001901000019010000190100001901000018
:100080001901000019010000190100001901000008
:1000900019010000190100001901000019010000F8
:1000A00019010000190100001901000019010000E8
:1000B00019010000190100001901000019010000D8
:1000C00019010000190100001901000019010000C8
:1000D00019010000190100001901000019010000B8
:1000E0001901000098B4010000000010F4010000A4
:1000F00098B401000000002000000000F80100108A
:10010000585C00000000002000000000FEE7FEE751
:10011000FEE7FEE7FEE7FEE7FEE70B4610B5401AF6
:100120005C1AA24203D9C45843F8044BF8E710BD47
:10013000034610B500241A1A914202D943F8044B21
:10014000F9E710BD38B50E4C0E4DAC4207D294E81D
:1001500003000C3454F8042CFFF7DFFFF5E70A4DD9
:10016000AC4206D254F8080B54F8041CFFF7E0FF29
:10017000F6E701F0C5F900F069FC13F044FEFEE774
:10018000E4000000FC0000000C010000FEE7FEE7B8
:10019000FEE700BF4FF0807300E90A00002340F83B
:1001A0000C3C40F8202C40387047FFFF064B196884
:1001B0000868B0E8F00F80F309884FF0000080F382
:1001C00011884EF00D0E7047B452001002480068BE
:1001D000006880F3088800DF08ED00E008B50C4BEC
:1001E00000201A68A3F60C5342F47802C3F80C2DD1
:1001F000D3F80C2D42F07842C3F80C2D054A1A6052
:10020000072243F8042C044B1860FFF7DFFF08BDFA
:1002100020ED00E0BFD4010000000010024B4FF0C1
:1002200080521A60704700BF04ED00E04FF02800D4
:1002300080F31188024A136801331360704700BFCE
:1002400000000010044A1368013B13601BB94FF013
:10025000000080F31188704700000010EFF3098060
:100260000C4B1A6820E9F00F10602DE908404FF0A0
:10027000280080F3118800F003FB4FF0000080F3AA
:100280001188BDE8084019680868B0E8F00F80F3ED
:1002900009887047B452001008B5074B4FF08052E0
:1002A0001A604FF0280080F3118800F0BDF94FF07C
:1002B000000080F3118808BD04ED00E070B504462D
:1002C00000F0AAF92548016861B9254A254B51601B
:1002D0001360254A4FF4A04582E8220083E82400F9
:1002E000012303602CB1103463071CBF24F0070402
:1002F000083444F6FE73621E9A4229D8184A1368DD
:1003000059688C4203D81848834206D120E0186807
:100310000028F8D01A460346F2E7186815681060FE
:100320000A1B202A05F110050CD919194A605C60D6
:100330004E680B4A10684468A64201D90246F9E7A4
:100340000860116009495B680A68D21A0A6000E017
:10035000002500F0C1F9284670BD00BFF80100106B
:10036000005200100002001008520010040000109B
:1003700038B50446B8B1A0F1100500F04DF954F8B5
:100380000C3C094A11684868834201D90A46F9E7DA
:1003900044F8101C1560054A11680B441360BDE851
:1003A000384000F099B938BD005200100400001028
:1003B00000F108034FF0FF3282604360C3600361C5
:1003C00000230360704700230361704743685A6845
:1003D0008B604A605A6891605960036841600133DC
:1003E0000861036070470A6810B5531C01D10369A6
:1003F00007E000F108035C682468A24201D35B684F
:10040000F9E75A684A6091608B6059600368086137
:100410000133036010BD436882689A60826853604C
:1004200003695968884208BF5A60002202611A684D
:10043000013A1A607047FFFF2DE9F84F80460AAE77
:1004400044208A4696E8C00815469946FFF736FFCD
:100450000446002800F09980BBF1000F03D1A800EA
:10046000FFF72CFF00E05846206318B92046FFF73D
:100470007FFF8AE0B346AD002A46A52113F0D1FCE8
:10048000236B51460C22043D04F134001D4415F049
:1004900031FA042E28BF4FF0040B002304F1040AA4
:1004A00084F83F305046C4F82CB0C4F840B0FFF791
:1004B0008AFF04F11800FFF786FF25F00705CBF14E
:1004C00005032461A36164624A4641462846FFF75A
:1004D00061FE206007B13C60FFF7A8FE2D4B2E4D5A
:1004E0001A68DFF8E08001321A602F6817BB2C60B1
:1004F0001B68012B26D108EB07001437FFF758FFC4
:10050000642FF8D1DFF8C090244F4846FFF750FF22
:100510003846FFF74DFF2248FFF74AFF2148FFF713
:1005200047FF2148FFF744FF204BC3F80090204BC2
:100530001F6007E01F4B1B6823B92B68DB6A9E42D4
:1005400028BF2C601C4AE36A116814208B421B49A7
:1005500088BF13600A6800FB038001320A60184AF2
:1005600011688B42514688BF1360FFF72FFFFFF7DA
:1005700069FE104B1B682BB12B68DB6A9E4201D9C8
:10058000FFF74CFE0120BDE8F88F4FF0FF30BDE8CB
:10059000F88F00BF08530010B4520010F052001042
:1005A000B852001024520010385200101852001097
:1005B000D05200101C5200100C530010D8520010E2
:1005C000D45200104C520010DC5200101FB5002411
:1005D0002346039402940194009464220A490B4830
:1005E000FFF72AFF012803460CD14FF0280080F3C3
:1005F0001188074A1360074B1C6004B0BDE8104027
:10060000FFF7ECBD04B010BD306F0100F90700002A
:100610001C520010CC520010024A136801331360C0
:10062000704700BFB0520010234B2DE9F0471B6804
:10063000002B3AD1214B224E1A681D4601321A6016
:100640001A6842B91F4B3268196831601A601E4A35
:10065000136801331360DFF868901C4FDFF874A053
:1006600033681B682BB3D9F80030DB68DC68D4B181
:100670002B6862689A421CD804F104084046FFF7D0
:10068000CAFEA36A1BB104F11800FFF7C4FEE36AB7
:100690003A6814209342414600FB03A088BF3B60A8
:1006A000FFF794FEDCE7BDE8F087094A13680133E1
:1006B0001360BDE8F08700BFB0520010CC520010AC
:1006C00018520010D052001014520010D4520010D2
:1006D000105200104C5200102DE9F843FFF7A6FD10
:1006E000284B1A68013A1A601C680CB1002444E0D7
:1006F000254B1B68002BF9D0244E254FDFF8A09026
:10070000336823B9234D2B684BB32C461FE0F368A5
:10071000DD68002DF6D005F1180005F10408FFF79B
:100720007AFE4046FFF777FEEB6A3A681420934260
:1007300000FB0390414688BF3B60FFF747FE164B26
:10074000EA6A1B68DB6A9A4228BF0124D8E72B6853
:100750003BB1FFF769FF2368013B2360F7E7012CFA
:1007600006D10E4B00221A600124FFF757FD04E06A
:100770000A4B1B68012BB9D1F3E7FFF763FD204655
:10078000BDE8F883B052001008530010B8520010B2
:10079000D452001010520010B45200100453001034
:1007A0004C52001070B518B9BDE87040FFF736BD67
:1007B000FFF732FF0C4E0D4C3368C518206804302B
:1007C000FFF729FE23685D6033689D4234BF084B04
:1007D000084B186821680431FFF705FEFFF77CFF1E
:1007E0000028E1D070BD00BFCC520010B452001000
:1007F000D05200101852001080B51E4FDFF87C80D8
:100800003E463B681B4D002BFBD0FFF705FFD8F899
:100810000040DFF868A0FFF75FFF002CF1D0FFF782
:1008200005FDDAF80090144CB9F1000F14D0DAF895
:100830000C30DD68281DFFF7EEFD2368013B2360C7
:100840003368013B3360FFF7FDFC286BFFF790FD39
:100850002846FFF78DFDD4E70420FFF7DCFD236871
:10086000013B23602B68013B2B60FFF7EBFCD9F8C1
:100870003030FFDE205200100853001024520010C8
:10088000144B10B51B680BBB134A1448142413688F
:1008900012496343C3581BB91368013B1360F6E761
:1008A0000D4B1A6814235343C8184468083364680E
:1008B0000B449C4208BF6368446008BF4360142334
:1008C00003FB02125368DA68054B01E0054B012275
:1008D0001A6010BDB0520010D45200104C520010DB
:1008E000B4520010045300104FF0402302225A600B
:1008F0000022DA600C4A0D49D2F8A821096802F0FA
:100900001F02B1FBF2F24FF47A71B2FBF1F2013A3D
:100910005043FF2298611A6004225A6101225A60F2
:100920005A68D207FCD4704700C00F401400001072
:100930002DE9F047FF252B46344F0022D7F8DC1174
:1009400030B921F01F011143C7F8DC11002604E083
:1009500021F4F85141EA0221F6E706F5201E1FFABC
:1009600086FC4FEA8E2E00210CF101088CB204EBBC
:100970000C0A1FFA8AFA0EEB81092EF821A04444D2
:100980000131A4B2B1F5807FA9F80240EED1013661
:10099000802EE2D101244FF020462146B64604F5D0
:1009A000807CDEF8008001F1FF3E4EEA014EF0450A
:1009B00006F1040625D101316145B646F1D1013475
:1009C000812CEAD1FF2B08BF13460132202AB5D172
:1009D000FF2D01D02B4402E0FF2B09D01F330B4920
:1009E0005B08D1F8DC2120B922F01F02134304E098
:1009F000FEE722F4F85242EA0323C1F8DC31BDE8F5
:100A0000F087FF2B18BF1546DFE700BF00C00F407F
:100A10000C4830B505460A2100224FF48044C0F846
:100A2000E041D0F8E03113F4004F02D1D5F8E031C5
:100A3000F9E7DBB201391A44F1D10A20B2FBF0F038
:100A400030BD00BF00C00F4000F068BC7FB500F0B3
:100A500065FC8B4B8B4CD3F8C420002542F400621C
:100A6000C3F8C42041F21002C3F8DC21864A0123F6
:100A70002360A560C2F88031C2F88431C2F88831A1
:100A8000C2F88C31C2F89031C2F89431C2F8983172
:100A9000C2F89C31C2F8A031C2F8A431C2F8A83122
:100AA000C2F8AC31C2F8B031C2F8B431C2F8B831D2
:100AB000C2F8BC31C2F8C031C2F8C431C2F8C83182
:100AC000C2F8CC31C2F8D031C2F8D431C2F8D83132
:100AD000C2F8DC31C2F8E031C2F8E431C2F8E831E2
:100AE000C2F8EC31C2F8F031C2F8F431C2F8F83192
:100AF000C2F8FC31C2F80032C2F80432C2F808323F
:100B0000C2F80C32C2F81032C2F81432C2F81832ED
:100B1000C2F81C32C2F82032C2F82432C2F828329D
:100B2000C2F82C32C2F83032C2F83432C2F838324D
:100B3000C2F83C32C2F84032C2F84432C2F84832FD
:100B4000C2F84C32C2F85032C2F85432C2F85832AD
:100B5000C2F85C32C2F86032C2F86432C2F868325D
:100B6000C2F86C32C2F87032C2F87432C2F878320D
:100B7000C2F87C32C2F83831C2F83C31C2F8403198
:100B8000C2F84431C2F84831C2F84C31C2F8503191
:100B9000C2F85431C2F85831C2F85C31C2F8603141
:100BA000C2F86431C2F86831C2F86C31C2F87031F1
:100BB000C2F87431C2F87831C2F87C314FF48942FE
:100BC000C4F8002140F202220321C4F804210226C5
:100BD0000522A36223636163A263E66321640421A7
:100BE00063646420A164E16422656365A365FFF723
:100BF0007BFE40F28313C8202362FFF775FE40F2AC
:100C00000313236266620395039B7F2B03D8039B28
:100C100001330393F8E73A236362832323621B4B78
:100C200000251B6802931A4B2562C4F80031FFF7B8
:100C3000EFFE01902846FFF77BFE0120FFF778FECC
:100C4000019CFFF7E5FE0E49D1F8DC3103F4F855BD
:100C500003F01F0262436C43B2FBF0F2B4FBF0F40A
:100C600002F01F0204F4F85423F4F85342EA04009B
:100C700023F01F031843C1F8DC01012004B070BD4C
:100C800000C00F4000C0092000C00240004004A086
:100C90008044080008B5FFF7D7FEBDE8084001F022
:100CA000E7B8FFFF08B505484FF440010CF0A8FA7B
:100CB000BDE8084080200CF0ABBA00BF00B80BA024
:100CC000014B1868704700BF60590010034B1A6849
:100CD00010441A68821A002AFBDC70476059001021
:100CE000014B00221A607047605900107047FFFFE7
:100CF0004FF0402302225A600022DA600C4A0D496C
:100D0000D2F8A821096802F01F02B1FBF2F24FF4F9
:100D10007A71B2FBF1F2013A5043FF2298611A60F6
:100D200004225A6101225A605A68D207FCD47047E3
:100D300000C00F401400001037B50C4A014414469F
:100D40001546D36803F01203022BFAD110F8013BC9
:100D5000A360EB6803F01403042BFAD1A36881426B
:100D6000DBB28DF80730ECD103B030BD0080084015
:100D7000F7B50F46114C4FF40025E56100268DF8BC
:100D80000500022101A88DF80460FFF7D5FFA561D9
:100D90003B0A01A802218DF804308DF80570FFF799
:100DA000CBFFE5612223022101A88DF804608DF8B4
:100DB0000530FFF7C1FF03B0F0BD00BF0080092080
:100DC0001D4A022373B5D3631364536493641B4AAF
:100DD0001B4C156819462A460123A2420DD95E1CF8
:100DE00001FB06F2B5FBF2F2A242F6D9B3B2FF2B39
:100DF00082BF8B1CD9B20023EFE7DBB21B0243F0AA
:100E00000703019308B9019B04E0012803D1019B6A
:100E100043F0C0030193019B0A4A13601161082348
:100E20009168013B13F0FF030191F9D1054B0222B8
:100E30005A6002B070BD00BF00C002401000001038
:100E4000C0C62D0000800840002310B51A4617497F
:100E500017480AF097FF00221146104607F0CAFA19
:100E6000002007F006FE044660B14FF448724FF4CC
:100E7000F071002007F094FA4FF448724FF4F071CB
:100E800000200AE04FF4F0724FF4487107F088FA3E
:100E900020464FF4F0724FF4487107F06BFABDE84A
:100EA00010400021084607F051BA00BF289E0100FB
:100EB000F09B010001292DE9FF410D460BD00329CC
:100EC00040F00C825268AB4B4FF4707101FB02335F
:100ED000A94A136100E240F60942A84B0724002604
:100EE000A74F4FF00508C3F83081C3F81841C3F885
:100EF0001C41C3F82041C3F82441C3F8D040C3F8D3
:100F0000D440C3F8D840C3F8DC40C3F8E040C3F88D
:100F1000E440C3F83441C3F8E840C3F8EC40C3F8F8
:100F2000F040C3F8F440C3F80041C3F80441C3F8EB
:100F30000841C3F80C41C3F81041C3F81441C3F889
:100F40006C613B68304643F000633B60BB6943F033
:100F50000063BB618B4B1A60FFF732FF3B688A4A24
:100F600043F001033B60BD611368294643F400234D
:100F700013603046FFF7FCFE1E20FFF7B9FE46F671
:100F80003E610320FFF7F4FE21460C20FFF7F0FE40
:100F90000E210D20FFF7ECFE4FF430510E20FFF72D
:100FA000E7FEAE211E20FFF7E3FE1E20FFF7A0FEA6
:100FB00021212046FFF7DCFE6420FFF799FE232164
:100FC0002046FFF7D5FE6420FFF792FE332120462E
:100FD000FFF7CEFE6420FFF78BFE42F63F31284636
:100FE000FFF7C6FE4FF4C0610220FFF7C1FE314695
:100FF0001020FFF7BDFE1E20FFF77AFE4CF2B05125
:101000001120FFF7B5FE2820FFF772FED021152032
:10101000FFF7AEFE31464046FFF7AAFE31460620F6
:10102000FFF7A6FE4EF61C711620FFF7A1FE032166
:101030001720FFF79DFE40F233212046FFF798FE70
:1010400045F210310B20FFF793FE31460F20FFF7DA
:101050008FFE4FF460412520FFF78AFE2820FFF71E
:1010600047FE31464120FFF783FE31464220FFF71D
:101070007FFE31464820FFF77BFE40F23F114920BA
:10108000FFF776FE4FF46F414420FFF771FE3146C3
:101090004520FFF76DFE40F23F114620FFF768FE46
:1010A00031464A20FFF764FE31464B20FFF760FED1
:1010B0002820FFF71DFE40F207713020FFF758FE91
:1010C0004FF4C0613120FFF753FE41463220FFF755
:1010D0004FFE40F202413320FFF74AFE40F2032167
:1010E0003420FFF745FE4FF401713520FFF740FE35
:1010F0004FF401713620FFF73BFE40F201413720EB
:10110000FFF736FE40F202313A20FFF731FE4FF48E
:10111000A0613B20FFF72CFE2820FFF7E9FD3146B8
:101120002220FFF725FE2820FFF7E2FD174AD2F81C
:10113000C43043F00103C2F8C4300F4B9A6922F067
:1011400001029A61124A1A60124A5A60124B134AFB
:101150001B68B3FBF5F1914203D9402D03D0013553
:10116000F7E7012D1CD0023D6B0905F01F0545EA8C
:10117000C36517E0000000A00080082000C0024006
:101180004080092088C10F400080092000C00F4026
:10119000C4291309DF250A081400001040A5AE0277
:1011A0004FF08065504B45F0477545F442354FF49C
:1011B00096729D609A6100221946154602F18000E0
:1011C0000132802A484B4FF0000441F82050F5D1FD
:1011D000464D474A4FF4F071C2F8B8411D619A6913
:1011E0004FF4487042F001029A619A694FF48016F8
:1011F00042F400629A61BB69224643F00063BB611E
:101200003C4BC3F800413B6843F001033B60FB6982
:1012100043F00103FB6107F0C3F822464FF4F0717D
:101220004FF4487007F0A6F82946334D204607F0E2
:101230008DF82B68012043F480132B60FFF7C0FD6D
:10124000D3238DF80C30E7238DF80D3090238DF8E3
:101250000E300321EE6103A8FFF76EFDAE6120465C
:1012600007F007FC0546204607F001FC064620462D
:1012700007F0FBFBB5FA85F346EA40005B0940EA5C
:10128000830008F0B3FCCD23009340F666637DB97C
:101290004FF4F0722946284608F0C4FC40F20B13C4
:1012A0004FF448720093294640F6027301200EE085
:1012B0004FF448722146012008F0B4FC40F20B13B1
:1012C00021460093204640F602734FF4F07208F076
:1012D000A9FC0A4B01221A70002001E04FF0FF30F8
:1012E00004B0BDE8F08100BF00800820000000A02D
:1012F00000C00F4000C002400080092018530010B9
:1013000070477047014B1868704700BF10530010BA
:10131000014B1868704700BF14530010724B30B572
:10132000D3F80421714C12F4807F7148714930D197
:10133000D3F80C21D20708D5D3F8A021550604D440
:101340000023236003600B6096E0D3F8042112F0C1
:101350001F021FBFD3F80421674B02F01F02B3FB2B
:10136000F2F22260604AD2F8A83113F01F031FBFC7
:10137000D2F8A83103F01F045F4BB3FBF4F3036012
:10138000D2F800315C4A03F001030133B2FBF3F3FE
:10139000D9E7D3F88820D205D2D5D3F80C21D507C8
:1013A00036D4D3F8042112F01F020CD0D3F88820D1
:1013B000D3F8043102F01F054F4A03F01F0305FB69
:1013C0000222B2FBF3F22260474AD2F8A83113F0AE
:1013D0001F030CD0D2F88830D2F8A82103F01F04E4
:1013E000454B02F01F0204FB0333B3FBF2F33E4A0A
:1013F0000360D2F88830D2F8002103F01F003E4B82
:1014000002F0010200FB03330132B3FBF2F39AE76F
:10141000D3F8A021520693D5D3F8042112F01F026D
:101420000CD0D3F88820D3F8043102F01F05324ADB
:1014300003F01F0305FB0222B2FBF3F222602A4CE9
:10144000D4F8A83113F01F030CD0D4F88830D4F8A6
:10145000A84103F01F05284B04F01F0405FB0333CC
:10146000B3FBF4F30360204BD3F8003103F0010326
:101470000133B2FBF3F20A601B4A2049D2F808316B
:10148000104613F4807FD2F808311AD003F01F03FE
:10149000042B04D0062B02D023B3002322E0124AEF
:1014A000D0F80C31D2F88800134B00F01F0000FB7D
:1014B0000333D2F8082102F01F02B3FBF2F30B60F2
:1014C00030BD13F400730DD0D2F80C3113F0010FBE
:1014D00014BFD2F8A820D2F88820074B02F01F02D0
:1014E00002FB03330B6030BD00C00F40140000103E
:1014F000100000100C000010001BB70008000010C6
:1015000046F23A02264B1A602122C3F8A0211A465D
:10151000D2F8A011224B4906FAD501220921C3F8BD
:101520000C21C3F88410C3F88020AA22C3F88C20B1
:101530005522C3F88C20D3F88810194A4805FAD5EB
:101540002323C2F8A4300123C2F8A030AA23C2F892
:10155000AC305523C2F8AC30D2F8A810104B490576
:10156000FAD540F20112C3F8042140F20122C3F877
:1015700008210122C3F800210222C3F8A821094A48
:10158000C3F8C4204FF48072C3F8C821D3F8B02147
:1015900042F00302C3F8B021034B00229A60704767
:1015A00000C00F40DE87280400ED00E008B5044CC1
:1015B00023880A2001339BB22380FFF7F3F8F7E773
:1015C0002A53001008B5044C23880A2001339BB22B
:1015D0002380FFF7E7F8F7E72C53001008B5044C19
:1015E00023880A2001339BB22380FFF7DBF8F7E75B
:1015F00028530010FFFFFFFF2DE9F04F90E818007F
:101600001D2B87B0064603D0262B00F082811DE3F8
:101610004FF40871204600F0A7FE8246C84D4FF0F7
:10162000000BBBF5B87F05F1040500F09E8058461D
:1016300015F066FBC34915F001FA15F079FB064673
:101640000F4612F039FCB8A3D3E9002314F016FEBC
:1016500002460B460020BC4914F04AFF15F0F4F88E
:10166000394625F8060C304614F0E4F8CDE90201BD
:10167000584615F02BF9ACA3D3E9002380468946E0
:10168000DDE9020114F0FAFD42464B4614F0F6FD86
:101690000022AE4B14F082FE0022AB4B15F010F886
:1016A00015F0D2F8394625F8040C304612F004FC47
:1016B0009DA3D3E9002314F0E1FD02460B46002070
:1016C000A14914F015FF15F0BFF83946A5F8B2008E
:1016D000304614F0AFF894A3D3E9002314F0CEFD04
:1016E00042464B4614F0CAFD91A3D3E9002314F0FF
:1016F00055FE0022944B14F0E3FF15F0A5F839468F
:10170000A5F8B400304612F0D7FB87A3D3E9002335
:1017100014F0B4FD88A3D3E9002314F0AFFD024612
:101720000B460020884914F0E3FE15F08DF8394689
:10173000A5F86A01304614F07DF87BA3D3E90023B5
:1017400014F09CFD42464B4614F098FD0022804B5D
:1017500014F024FE00227C4B14F0B2FF15F074F854
:101760000BF1080BA5F86C015BE7DFF82892DFF8B6
:101770002882784F00252E23B82202FB05921946B5
:1017800058F8250002F09CFF0646795D03F01CF82E
:1017900001353146504603F051FC032DEBD11921A0
:1017A000504603F01FFD0121504603F0F0FC504667
:1017B000694903F058FD012211461923232002F044
:1017C000C2FD664D6421286002F0E6FD6449286888
:1017D00002F037FEFF21286802F011FE296850460A
:1017E00003F073FC322300220221462002F0ABFDFD
:1017F0005C4D5D49286002F024FE4FF400412868EA
:1018000002F0FDFD2968504603F05FFC4FF4917132
:10181000204600F0A9FD0546544904F059FA28462F
:10182000012104F075FA40F22311204600F09CFDDE
:101830004F4904F04DFA4FF49271204600F094FDA8
:101840004C4904F045FA40F22511204600F08CFD89
:10185000494904F03DFA40F22111204600F084FD90
:101860000546464904F034FA2846012104F050FAAE
:101870004FF49371204600F077FD414904F028FAB7
:1018800040F22711204600F06FFD3E4904F020FA97
:101890004FF49871204600F067FD05460A220021AA
:1018A00002F068F92846052102F094F8284606213E
:1018B00002F07CF940F23111204600F055FD05465A
:1018C0001422002102F056F92846052102F082F880
:1018D0002846062102F06AF94FF4A871204600F06C
:1018E00043FD05460022284902F082F928460122DC
:1018F000264902F07DF902222846254902F078F9AE
:101900004FF4B871204600F02FFD012100F00AFBD2
:101910009EE1806800F0F6FCF7680546012F3DD097
:10192000052F00F0BB8093E10000000000C057408D
:101930000000000000C07240CDCCCCCCCCCCEC3F41
:101940003E53001035FA8E3C00005940008076402E
:101950000000744004700100B91C000038530010EE
:101960000AD7233D245300100AD7A33C356F01004A
:10197000376F0100396F01003B6F01003D6F0100BF
:10198000426F01004A6F0100526F0100556F010064
:101990005A6F01003C530010F86F0100B0F5B87F9A
:1019A00040F056814FF40871204600F0DDFC2946D6
:1019B0000646204600F0D8FCDFF8C0B28246DBF8CD
:1019C0000030A54D83F00109CBF80090DFF8B0821C
:1019D000B9F1000F37D0204600F0C9FC07469F49F7
:1019E000504604F0EDFB0B220021504600F009FCAC
:1019F0002046002103F0D8FC04A9384600F070FC12
:101A00009749304600F026FC5A469649384600F081
:101A1000BBFC384600F034FC0446384600F030FC8D
:101A2000BDF91620BDF91430009221460246304619
:101A300000F0C6FABDF916102868693902F0F0FC0A
:101A4000C8F8000004E1884904F0BAFB49466FF089
:101A50000A02504600F0D5FB204600F088FC5A46AA
:101A6000804900F091FC7E48B0F90220B0F90010E6
:101A7000B0F90430B0F906005B1A801A013000900A
:101A80000133304600F09CFA3946204603F08CFCC6
:101A9000D8F80010286802F0C3FCD9E0B0F5937FB5
:101AA00000F0AB803ADC40F22113984247D0B0F509
:101AB000907F40F3CD804FF40871204600F054FC35
:101AC0004FF491710746204600F04EFC04F03DF9BA
:101AD00040F223118046204600F046FC04F035F920
:101AE0004FF492710546204600F03EFC04F02DF9BB
:101AF00040F225110646204600F036FC04F025F998
:101B0000282100EB8000009006EB860305EB8502A0
:101B100001FB08F1384603F08BFB99E0B0F5987FA4
:101B20001ED004DC40F2271398427AD090E040F2B5
:101B30003113984230D0B0F5A87F47D088E04FF4F9
:101B40000871204600F010FC29460646204600F0A9
:101B50000BFC04F0FAF80146304603F018FB77E07E
:101B60004FF40871204600F0FFFB0546B06802F014
:101B700034F80A2444432846374D214603F01FFB1E
:101B80002146286802F019FC322C286814BF012174
:101B9000002102F06CFC5BE04FF40871204600F07D
:101BA000E3FB0446B06802F018F800EB800520461D
:101BB0002E4C294603F016FB2946206802F0FDFB57
:101BC000192D14BF012100212068E2E74FF40871AC
:101BD000204600F0C9FB0446B06802F0D0F90128A5
:101BE00004D0022804D098BB214902E0214900E03A
:101BF0002149204601F060FC2AE04FF4087120469C
:101C000000F0B2FB29460646204600F0ADFB04F08A
:101C10009CF8014608B14FF4FA71304603F033FBEB
:101C200016E04FF40871204600F09EFB2946064658
:101C3000204600F099FB04F088F810B14FF496713B
:101C400000E00021304603F037FB01E001F090FB9B
:101C500007B0BDE8F08F00BF245300105C6F010097
:101C60001A530010851C0000616F010038530010EA
:101C70001C720100E4710100007201006455001043
:101C80003053001038B504460D6800F03BFBB0F54A
:101C9000087F0FD0B0F5B87F0CD0FE38012809D9E5
:101CA00020461DB1BDE8384000F0ADBABDE838406F
:101CB00000F075B938BDFFFFF0B502298BB00646BC
:101CC00030D106AA1546184B03F1080714461868C8
:101CD0005968083303C4BB422246F7D118689B8871
:101CE0002060A380114808F01FFA09F011FA044699
:101CF00002A800F000FB04A9304600F0DDFABDF8B0
:101D000008002044ADF80C00FF2008F03BFA2846FC
:101D100013F0CBFD064B0222009302A9034628468E
:101D200009F0E8FD0BB0F0BD6D6F0100288D0100DA
:101D300060010010064A012321B9D16983400B4399
:101D4000D3617047916983400B439361704700BF33
:101D50004080092038B5084D002421461A20FFF79D
:101D6000E9FF2B884FF4967001339BB284F0010495
:101D70002B80FEF717FDF0E7225300102DE9F0410C
:101D800004460D46174698460020069E08F0FAF9CC
:101D90003A4629464346204609F0BCF96FF07F4099
:101DA00008F0F0F9022008F0A7F9054808F0BCF99E
:101DB0002A4604F10A013046BDE8F04109F0B4BEFC
:101DC000048501002DE9F04192B00AF07FF900206E
:101DD00000F032F90AF04CF96FF07F4008F0D0F9CA
:101DE0000AF0F4F82823019300230093184A1121E4
:101DF000184803F00BFF184C184E194D09F0BCF9A8
:101E0000184F194823883288298800883F880DF1A7
:101E1000140892B289B280B2BFB2029001910092CE
:101E200003979BB2114A3221404612F0A7FD0021D0
:101E30000846CDF8008028234FF44872FFF79EFF34
:101E40002388642001339BB22380FEF7ABFCD5E7E7
:101E5000F9150000087001003453001022530010DF
:101E6000285300102A5300102C5300107B6F0100E0
:101E70001FB5234B0024C3F86841224B01251A6883
:101E8000214942F080621A609A69204842F08062DB
:101E90009A6123464FF4966203940294019400954C
:101EA000FEF7CAFA23466422194903940294019466
:101EB00000951848FEF7C0FA0323009364222346D6
:101EC00013490394029401941348FEF7B5FA0523CD
:101ED0000093642223460E490394029401940F4810
:101EE000FEF7AAFA042300936422234608490394C8
:101EF000029401940A48FEF79FFAFEF767FBFEE79B
:101F000000C0024040800920A66F0100C51D0000EE
:101F1000B36F0100551D0000DD150000C515000060
:101F2000AD15000070B50D460446C8B10BF0E6F8DB
:101F3000836A03F008021DB132B943F0080202E0DF
:101F400012B123F008028262826A9A4208D02046C7
:101F500000F08EF901462046BDE8704000F02FBA2F
:101F600070BD08B528B10BF0C9F8806AC0F3C00095
:101F700008BD08BD38B5044680B100F05FFE2046BC
:101F800000F0D0F9044607E020460BF0B7F805460C
:101F90002046FFF7EFFF2C6A002CF5D138BD10B5B5
:101FA000044660B10BF0AAF8836A13F0020F06D161
:101FB00043F0020383622046BDE81040DAE710BD1B
:101FC00070B50D4614461946049A064600F007F807
:101FD000304629462246BDE8704000F013B970B57E
:101FE0000D4614460646A0B10BF088F8B0F9003053
:101FF000B0F90410B0F90620C91AB0F90230C9438B
:10200000D31ADB4330466918E218BDE8704000F08F
:102010001BB870BD10B539B9054B1C681860054B6D
:10202000186800F00BFE01E06FF07044204610BD10
:10203000885900106C590010014B597CEAE700BF29
:10204000C05D00100021E5E7F0B552EA010389B058
:1020500005460E4617466AD0002868D00BF04EF8A9
:1020600006AB04AA044603C883E8030082E8030021
:102070007EB1A36A03F42073802B05D1BDF8103024
:102080009E1BADF8106004E0BDF81430F618ADF8F2
:10209000146087B1A36A03F4A063B3F5807F05D110
:1020A000BDF81230DF1BADF8127004E0BDF8163039
:1020B000FF18ADF81670A36A13F4803F02D02846CB
:1020C00000F05AFCA36A04AA13F0020F92E803007E
:1020D00084E8030008D002A806A908F0B7FF02A808
:1020E000A169226A00F02BFDBDF916C0BDF91E00E2
:1020F000BDF910E0BDF91810BDF91270BDF91A2034
:10210000BDF91460BDF91C30C0EB0C00C1EB0E0131
:102110000090BA1A2046F31A0BF07AFA04F108007C
:10212000214607F061FB2846052100F035FD09B086
:10213000F0BDF8B504460E46154617E020460AF0F5
:10214000DDFF314607462A4608F070FF07F1080018
:1021500031462A4608F06AFFF86931462A46FFF7F9
:10216000E8FF2046032100F017FD3C6A002CE5D172
:10217000F8BD2DE9F3410E461546074600282CD040
:1021800001B952B338460AF0B9FFE84604462A4678
:1021900003C888E803002046314608F047FF04F1F1
:1021A000080031462A4608F041FFE06931462A46D8
:1021B000FFF7BFFFA36A13F0020F0AD0A16941B174
:1021C0002046226A00F0CDFC6846A169226A00F030
:1021D000C8FC3846032100F0DFFCBDE8FC8170B587
:1021E0000D461446064658B10AF088FFB0F90010B3
:1021F000B0F90230691A3046E21ABDE87040B8E71B
:1022000070BDB6E7EBE710B570B10AF077FF826AF0
:1022100012F0020F08D022F0020282628169026A83
:10222000BDE8104000F08BBC10BDFFFF10B50446A8
:1022300058B1064B186808B9054BD86B0AF05EFF19
:1022400008220146204611F0E8FD10BD6859001033
:10225000C05D001010B50C4648B141B10AF04EFF08
:10226000034620B120461946082211F0D6FD10BDC4
:1022700008B5034610B10AF041FF8369184608BD4E
:1022800008B520B10AF03AFFB0F9000008BD08BD5A
:1022900008B520B10AF032FFB0F9020008BD08BD50
:1022A000014BD86BECE700BFC05D0010014BD86B51
:1022B000EEE700BFC05D001010B50C4670B10AF02B
:1022C0001DFF0346806A10F0200007D0204603F16E
:1022D0000801082211F0A1FD012010BD10BDFFFF73
:1022E0001FB51423039104A941F8103D694600F07D
:1022F0004FFC05B000BD024B0146D86BF0E700BFB4
:10230000C05D00101FB5044600211022684611F080
:1023100088FD152320466946009300F039FC039898
:1023200004B010BD08B5034610B10AF0E7FEC3695A
:10233000184608BD38B50D460AF0E0FEC4690DE048
:102340002046FFF7DFFFA8420CD020462946FFF7C2
:10235000F1FF30B920460AF0D1FE046A002CEFD11B
:1023600000E00446204638BD00B1E3E770471FB5E2
:102370000023039304A9173341F8103D694600F088
:1023800007FC039805B000BD0BF0FEB970B504461C
:10239000A0B10AF0B3FE856985B1204600F0D1FBFB
:1023A00028460AF0ABFEB0F90010B0F9022049420D
:1023B00020465242BDE87040FFF723BF70BD2DE9B3
:1023C000F04104460E46F1B181421CD00AF096FE5F
:1023D000074630460AF092FEBB690546B34212D06A
:1023E0002046FFF7D3FF2046314600F015FA20467D
:1023F000B5F90010B5F90220FFF703FF2046BDE84C
:10240000F04100F01BBCBDE8F0812DE9F04104462D
:1024100017461E460D46FFF7B9FF2046394632469D
:10242000FFF7F0FE20462946BDE8F041C7E7FFFF71
:102430008B6A10B5044A054C03F48033002B0CBFA3
:1024400023461346984710BDBD64000009310000C3
:10245000094A002313705360084A1360084A136046
:10246000084A1360084A1360084A1360084A136058
:10247000084A1360704700BF685500108C5900105F
:1024800074590010945900109859001068590010A0
:1024900084590010905900102DE9F843164C064657
:1024A000E06B0D460AF02AFE00F10809484629466D
:1024B00008F078FCE8B14A46294605F10800D4F84E
:1024C0004080676C07F05EF9B5F90030DFF82C90BA
:1024D0002364B5F902303046C9F8006029466364C8
:1024E000FFF7A6FF0023C9F80030C4F840806764F6
:1024F0000120BDE8F88300BFC05D001068590010DE
:102500002DE9F84F8B6A074613F0020F0C4636D0C0
:10251000CD6932E028460AF0F1FD836A064603F0F1
:102520000303032B28D104F1080108F03BFC18B386
:1025300028463146B4F808B0B4F80AA0B4F80C90B4
:10254000B4F80E80FFF7A8FF70B128460AF0D6FD58
:1025500001462846FFF7D4FF28460AF0CFFD06467D
:1025600038460AF0CBFD0446A4F808B0A4F80AA047
:10257000A4F80C90A4F80E80356A002DCAD1BDE8ED
:10258000F88F2DE9F3410D46164641E00AF0B6FDFD
:10259000876A044617F0020F39D06B462EB16846A1
:1025A0002146324607F0EEF802E003C883E8030054
:1025B0002846694608F0F6FB48B317F0010F15D11D
:1025C000B4F90220B5F902309A42B5F9062006DDC9
:1025D000BDF8023019B28A4219DB013B04E0BDF8B4
:1025E000063019B28A4212DDEB8010E0D4F81C806C
:1025F0000AE040460AF082FD294607466A46404600
:10260000FFF7BFFFD7F82080B8F1000FF1D1206AA3
:102610000028BBD1BDE8FC812DE9F7430E461746E3
:10262000002535E00AF06AFDD0F82880044618F04D
:10263000020F2CD06B462FB1684621463A4607F070
:10264000A1F802E003C883E803003046694608F0B9
:10265000A9FBE0B118F0010F05D1BDF80430012548
:102660000133338013E0D4F81C900DE048460AF0A3
:1026700045FD314680466A464846FFF7CDFFD8F80B
:102680002090002818BF0125B9F1000FEED1206A73
:102690000028C7D12846BDE8FE832DE9F3410D4649
:1026A000164630E00AF02AFD876A044617F0020F4A
:1026B00028D06B462EB168462146324607F062F8B4
:1026C00002E003C883E803002846694608F06AFB75
:1026D000C0B117F0010F04D1BDF80030013BAB8051
:1026E00010E0D4F81C800AE040460AF007FD2946B5
:1026F00007466A464046FFF7D0FFD7F82080B8F17A
:10270000000FF1D1206A0028CCD1BDE8FC8138B59A
:1027100004460AF0F3FC826A40F6010302EA03036E
:10272000012B014606D02046FFF782FE20460AF024
:10273000E5FC0146164B1B6843B32046FFF7E0FE5D
:1027400020460AF0DBFC8569046A1DE020460AF099
:10275000D5FC836A014603F00303032B06D1204610
:10276000FFF79AFE20460AF0C9FC01462046FFF713
:10277000C7FE20460AF0C2FC046A002CE6D12846B7
:102780000AF0BCFC046A8569002DF6D138BD00BF93
:10279000985900102DE9F8430F4C8146E06B0AF080
:1027A000ADFC04F1080200F10803B0F80880478985
:1027B0008689C58992E8030083E80300D9F8000000
:1027C000FFF7A5FFE06B0AF099FCA0F808804781AD
:1027D0008681C581BDE8F883C05D001070B50646EE
:1027E0000C4600E01C4620460AF088FC0546806A3C
:1027F00010F002000CD03046294606F0F5FFAB6918
:10280000002BEFD1034B1868231A584240EB03000A
:1028100070BD00BF6C5900102DE9F84304460E4608
:10282000002933D00AF06AFC002303620546866162
:1028300030460AF063FCD0F81C800746AB6AB8F15A
:10284000000F0ED0404603F008090AF057FC064678
:10285000B9F1000F09D1836A13F0080F05D0C5F84C
:102860002080FC61BDE8F8830646376A17B93462F8
:10287000BDE8F88338460AF041FCB9F1000FF3D106
:10288000836A13F0080FEFD034622F62BDE8F8833B
:1028900070B506460AF032FC04468069A8B10AF019
:1028A0002DFC0546C069B0420DD10AF027FC036A31
:1028B000EB6170BD0AF022FC0346006AB04202D10F
:1028C000226A1A6270BD0028F4D170BD0346B3F9C4
:1028D00002200846B3F9001008F0A8BB37B50C4C2D
:1028E0000546A16B89B16846082211F096FA094B9A
:1028F000186800B9E06B0AF001FC6946FFF7E6FFD3
:102900006846294606F070FF684605F0F7FC3EBDB4
:10291000C05D00106859001013B50B4B93F84820A8
:102920000AB10A480DE0D86B0AF0E8FB084B6C4688
:1029300003C884E80300196811B16846FFF74EFF29
:102940006846FFF7CBFF1CBDC05D00107855001036
:1029500068590010074B10B50446186804E0A042FF
:1029600005D00AF0CBFB40690028F8D110BD01204A
:1029700010BD00BF7C59001038B50546D0B10AF033
:10298000BDFB836A044613F0020F13D0406A18B1EE
:1029900004F097FD002363622846FFF7C3FC04465A
:1029A00006E02046FFF7E8FF20460AF0A7FB046A8E
:1029B000002CF6D138BD38B5094B054618680BE038
:1029C0000AF09CFB04464069A84205D128460AF05B
:1029D00095FB4369636138BD0028F1D138BD00BF64
:1029E0007C590010B0F90020B0F904309A4208DC9C
:1029F000B0F90220B0F906309A42CCBF0020012085
:102A0000704700207047F7B50F4616460AF076FB70
:102A1000856A044615F0020F2DD03846FFF7E2FF15
:102A200048B340F6010305EA0303012B23D06846AF
:102A30003946224606F0A6FE68466D46FFF7D2FFED
:102A4000C8B1A26A44F2200102EA010104F10803BC
:102A500029B1184619466A4608F0F8FA0BE095E8DD
:102A6000030083E80300044B16431A88A662013270
:102A70001A8006F0F1FEFEBD7859001073B50E46BF
:102A80001546044600B30AF039FB836A024613F088
:102A9000020F19D06846314606F074FEA0B12046F8
:102AA00069462A46FFF7AFFF2046FFF73BFC044686
:102AB00008E0204669462A46FFF7E0FF20460AF074
:102AC0001DFB046A002CF4D17CBD2DE9F7430746B9
:102AD00016461D46884600292FD008460AF00EFBF0
:102AE000D0F82890044619F0020F26D068463946DF
:102AF000224606F047FE00B340F6010309EA03034D
:102B0000012B06D16846A169226A2B46FFF7DDFF3B
:102B100004E0404669462A46FFF775FFE4690AE08B
:102B2000B4420AD0204669462A46FFF7A7FF20464E
:102B30000AF0E4FA046A002CF2D1BDE8FE832023F7
:102B4000C3E738B505460AF0D9FA8169044639B1B8
:102B5000026AFFF7F4FF2846FFF79AFE0023A361FD
:102B600038BD70B5044608460D4616460AF0C6FA4A
:102B7000836A294603F4803320463246002B0CBF7B
:102B800020234FF48043BDE870409EE720223AE7BF
:102B900008B10AF0BBBD70471FB504AB43F8101D68
:102BA000694601900AF0B2FD05B000BD00230B801C
:102BB00082884B800388D31A8B80C2884388D31ABB
:102BC000CB807047F0B50F4685B00546002833D05E
:102BD0000AF094FA866A044616F0020F2CD06B466F
:102BE00016F4803F03C883E8030002D02846FFF7AD
:102BF000C3FE67B13946082202A811F00EF920463B
:102C000002A9FFF763FE684602A906F0EDFD6846DB
:102C10002946FFF7E3FD78B140F6010306EA030316
:102C2000012B05D16846A169226AFFF788FF03E0FE
:102C300028466946FFF7AAFF05B0F0BD0021C1E7AD
:102C400070B5094CE56B08B9084B1868E0630AF0E9
:102C500055FA064606F0D0FBB6F900302846236444
:102C6000B6F90230636470BDC05D00107C5900107D
:102C700070B50446002857D0FFF76CFE002853D0EB
:102C80000B212046FFF788FF20460AF083FF2046ED
:102C90000AF034FA0546406A08B104F012FC234BEE
:102CA00000221A62224B1968A14208BF1A60214B08
:102CB0001A68A24201D100221A601F4B04E05A6830
:102CC000A24201D100225A601B68002BF7D1204696
:102CD00007210BF0E1F905F11C063068FFF7C8FF8A
:102CE0003368002BF9D12046FFF72BFF2046FFF772
:102CF00062FEAB6A13F0010F03D0104A116801396C
:102D0000116013F0200F03D00D4B1A88013A1A807E
:102D10000C4B20461A88013A1A800AF08FFA0A4BA7
:102D20001868BDE870408BE770BD00BF68550010A3
:102D300074590010945900108C59001098590010C3
:102D400078590010645900106C5900102DE9F84FA3
:102D5000DDF828A09B46454B04460D4691461F686A
:102D6000BAF1000F05D1424B1B8833B3414BD3F866
:102D700000A0BAF1FF3F1ED0BAF1000F1DD050469F
:102D80000AF0BCF9B0F90020B0F90230A418ED182F
:102D9000B9F1000F05D1B0F9049009F10109C2EBB6
:102DA0000909BBF1000F08D1B0F906B00BF1010B16
:102DB000C3EB0B0B01E04FF0000A0D982C3009F02B
:102DC000B7FE064600284DD00B9B43EA0708284B68
:102DD0001A8801321A800AF091F90C9B826A036109
:102DE000254B048008EA030342EA0303458083621B
:102DF0004C445D44214B013C013D07468480C58025
:102E0000186848B10AF07AF9044630460AF076F9B3
:102E100063694361666100E01E6030465146FFF71A
:102E2000FBFC18F0200F02D03046FFF709FF18F026
:102E3000010F03D0124B1A6801321A6018F0400FCC
:102E400002D030460BF0C2FA18F0020F06D0BB6A6F
:102E5000304643F00203BB62FFF7F0FE304601212B
:102E6000FFF79AFE3046BDE8F88F00BF8459001086
:102E7000645900106C5900109F3F01007C590010EC
:102E8000985900101FB500240094069C0194079CDB
:102E90000294089C0394FFF759FF04B010BD014B46
:102EA000D86B7047C05D00102DE9F743554B93F880
:102EB00048009846002800F0A280534BDA691C466F
:102EC000012A02DD013ADA6198E09B696A46013322
:102ED00004F1100595E80300A36182E8030023B91B
:102EE0002389ADF8003063890EE0A38AB4F90C2081
:102EF00001339BB2ADF800301BB29A4206DA238947
:102F0000ADF80030E38A0133ADF80230BDF902209C
:102F1000B4F90E303C4E9A426DDCD8F83C000AF011
:102F2000EDF8BDF90020B6F9083007469A4218D1ED
:102F3000F389B689ADF80630324BADF80460DA6B30
:102F400009E010460AF0DAF8002206466946006AEF
:102F5000FFF717FBB269002AF3D1F8696946FFF75A
:102F600010FBBDF80030D8F83C20ADF804300CE080
:102F700010460AF0C3F8694681460022006AFFF74E
:102F80004BFB0028EDD1D9F818206E46002AEFD16E
:102F9000F8696946FFF740FB0028E2D1A389BDF933
:102FA0000020ADF804301BB29A4204DD96E803001D
:102FB00085E80300A3E7D8F83C200AE010460AF0B1
:102FC0009DF8002280466946006AFFF766FBD8F844
:102FD00018206E46002AF1D1F8696946FFF75DFBBB
:102FE000A369C82B07DC96E8030085E80300FFF718
:102FF00093FC012003E0E369013BE3610020BDE8AD
:10300000FE8300BFC05D0010685500102DE9FF4130
:10301000334E074696F8483013B9FFF77DFC5AE067
:10302000DFF8CC80D8F81C3044460133012BC8F8B7
:103030001C3050DCF06B0AF061F84FF0FF33A361F5
:10304000284B05461B782BB100F1080202AB92E831
:10305000030006E0806A10F0020006D002AB95E89B
:10306000030083E8030037B909E0D8F81C30013BBE
:10307000C8F81C3030E002A8394606F0B5FBB16B49
:10308000194F81B16846082210F0C7FE386810B1A8
:103090000AF034F800E028466946FFF717FC02A85A
:1030A000694606F0A1FB396819B102A8FFF796FB43
:1030B00028B102AD2846F16BFFF790FB18B9E36920
:1030C000013BE36108E0094B95E8030083E8030056
:1030D000FFF7EAFE00E0012004B0BDE8F08100BF88
:1030E000C05D001081590010685900107055001023
:1030F0006855001008B507F021F8024B00229A63CA
:1031000008BD00BFC05D001070B50B6986B00446F5
:103110008E6A002B38D016F0020F35D02E210AF01F
:1031200033FF204609F0EAFF184D08302B780133B1
:1031300016F4805F2B700AD00F2303900194009344
:10314000FFF7D8FF204669460AF0E0FA15E004AB25
:1031500003C883E803001846FFF758FF68B10F2340
:10316000009304AB03930194FFF7C4FF2046694624
:103170000AF0CCFAFFF798FEF0E72B782046013BE7
:103180002F212B700AF000FF06B070BD815900108E
:1031900030B585B0039009F0B1FF826A44F2200394
:1031A00002EA03030446002B3CD003691BB300F181
:1031B000080528460399FFF711FBF0B10398FFF7C4
:1031C0003FFDA36A13F0040F10D0A26922B103F0EF
:1031D000010383F0010300E0012300932846134913
:1031E00003AA002303F048FB002407E00398FFF73D
:1031F0008EFA012402E01C4600E00446039809F020
:103200007DFF826A22F4804323F0200312F4005FE2
:1032100083621CBF43F004038362054B1A88013AA2
:103220001A8000E01C46204605B030BD95270000FE
:103230007859001008B509F061FF836A012243F450
:1032400000438362014B5A6008BD00BF68550010FF
:103250002DE9F043324D9BB06B688BB1314B1C684C
:103260000BE0204609F04AFF836A466913F4004FD9
:1032700002D02046FFF7FCFC3446002CF1D16C60F4
:10328000294B1B6803B19847284B1B6813B198471B
:10329000002841D1264E96F848301BB107F0A4FE15
:1032A000002839D196F84800002836D0214B1888DC
:1032B000002832D02C6A0CB91A4B1C68684607F0FB
:1032C0005FFD376B766BECB11B4A1368904613B108
:1032D0001B68984702E0012006F04EFA2046FFF7EF
:1032E00057FF8146204609F009FF446914B1B9F13E
:1032F000000FF3D0D8F8000010B14368984701E000
:1033000006F03AFA38462C6206F03CFF304606F0EA
:1033100037FF684607F03CFD01201BB0BDE8F08395
:10332000685500107C590010705900102C5E001078
:10333000C05D0010785900109059001010B500249D
:1033400000E00124FFF784FF0028FAD1204610BDD9
:10335000024B012283F84820704700BFC05D001077
:10336000024B002283F8482006F046B8C05D0010EA
:1033700070B545680446C668284609F0BFFE236854
:10338000172B0ED004DC0E2B0DD0142B18D104E01B
:10339000222B0ED0282B13D10EE03146FFF706FC6E
:1033A0000EE0E56070BD28462146BDE870400AF099
:1033B000DDBD6FF0704304E02846BDE870403DE499
:1033C0000023E36070BD036810B50E2B044602D0E5
:1033D0000F2B13D108E0C3685A68012A12D118686C
:1033E000BDE8104007F0D8BD074B18686FF0704378
:1033F000984203D006F0C4FE08F03AFE2046BDE82D
:103400001040B5E710BD00BF8859001030B51E4C04
:1034100085B02078002834D11C4B40F6FF7218602C
:103420001B4B014698631B4B206218801A4B1B4DA7
:103430001880022300931A4B029001931346FFF762
:1034400021FD184B6FF070421A602860FFF7F6FB01
:1034500015480AF03FFF15480AF03CFF14480AF0EF
:1034600039FF2868FFF7ECFBFFF772FF0123237099
:10347000104B204640F8243F05B0BDE8304008F02E
:1034800007BE05B030BD00BF685500107C59001064
:10349000C05D001078590010645900106C5900107C
:1034A000C733000088590010485E0010405E0010CD
:1034B000385E0010512400001FB5002302930391D1
:1034C0004FF4407369460093FFF762FB05B000BDFF
:1034D00010B59AB00446684607F052FC094B1868CC
:1034E00006F02CF8B4F90000B4F90210B4F9042085
:1034F000B4F9063009F06AFF684607F049FC1AB0D3
:1035000010BD00BF9455001010B59AB0044668462F
:1035100007F036FC094B186806F010F8B4F9000003
:10352000B4F90210B4F90420B4F9063009F04EFFE2
:10353000684607F02DFC1AB010BD00BF945500106E
:1035400007B568460AF0AAFE6846FFF7C1FF0EBD40
:1035500007B568460AF0A2FE6846FFF7D5FF0EBD24
:1035600008B9014B196070479455001010B9024B0F
:10357000186870470020704794550010012070476C
:1035800070477047704770477047FFFF2DE9F74F4E
:10359000284C0588B0F802808788C688206805F026
:1035A000CDFF2DB23FB20FFA88F8A06805F0C6FF34
:1035B00008F1010A36B2404629463A4608F0C6F8F4
:1035C00051463246284607F0E1FD05F1010907F1B1
:1035D000FF3B206805F0B2FF504649465A4608F0C6
:1035E000B5F808F1020306F1FF381946424648468D
:1035F000019307F0CBFD206905F0A0FF3046494656
:103600003A4608F0A3F851463246384607F0BEFD68
:10361000E06805F093FF4046A91C5A4608F096F86A
:10362000019B58461946424603B0BDE8F04F07F0EB
:10363000ADBD00BF1800001007B568460AF02EFEA9
:103640006846FFF7A3FF0EBD2DE9F0471A4EB0F80C
:10365000008047888588C4882DB224B230680FFA6C
:1036600088F83FB205F06AFF234639462A464046AD
:1036700009F0ACFE013708F10108306905F05EFF82
:10368000A4F10209AA1E3846414608F05FF83946FF
:103690004A46404607F07AFD013D706805F04EFF4E
:1036A000601E41462A4608F051F8284639464A46E7
:1036B000BDE8F04707F06ABD1800001007B568467E
:1036C0000AF0ECFD6846FFF7BFFF0EBD04289CBF63
:1036D000014B43F8201070471800001004289ABFCF
:1036E000024B53F820000020704700BF1800001064
:1036F00005207047F0B587B0B0F90C60B0F90E50F6
:10370000B0F91040B0F90A70009102210191418A8C
:103710000291B0F908100391416804918169D019B0
:1037200005912A469919234600F046F807B0F0BDE6
:1037300037B545680446214628460AF061FF00284F
:1037400039D023680B2B2BD00F2B31D1284609F011
:10375000E1FC0446806B05F0F1FE606B06F0E4FCD2
:1037600028460AF0BBFA20B9E06B05F0DFFE08F04E
:103770007FFC636C8BB1022006F0BEFC68460AF049
:103780008DFD606C09F0C6FC6946B4F9482094F8D8
:10379000403008F00BF809F0C5FC09F0C3FC0AE062
:1037A000284609F0B7FC443009F068FD09F0BAFC7E
:1037B0002046FFF7DDFD3EBD7FB5089D0C9C0095C2
:1037C000099D45F001050195184D02950D9D203587
:1037D0000395FFF7BBFA054628B37CB1204612F0EB
:1037E00064F8013009F0A4F9064640B109F092FCF2
:1037F000214612F039F809F095FC00E026462846EB
:1038000009F088FC0B99002204460AF0F1FEBDF88D
:1038100028306664A4F84830054B34340FCB84E874
:103820000F0009F07FFC284604B070BD313700005E
:103830002C00001010B586B0089C0094099C0194DF
:103840000A9C02940B9C03940C9C04940024059401
:10385000FFF7B2FF06B010BD4C2309F0CBBF4C23DD
:1038600009F0B3BFF0B587B0B0F90C60B0F90E50F5
:10387000B0F91040B0F90A70009100210191418A1D
:103880000291B0F9081003918169D01904912A4678
:103890009919234600F002F807B0F0BDF0B585B0E5
:1038A0000A9C00940B9C44F001040194194C02946E
:1038B0000E9C38340394FFF749FA064638B309F0F2
:1038C00029FC0C9A144C02F0080205460D99002AB6
:1038D00014BF182210220AF08BFE05F13407A64609
:1038E000BEE80F000FC7DEF800303B606369AB64D1
:1038F0000823A5F8603064232B65643BEB64013B2F
:10390000EB6509F00FFC636930465B689847304609
:1039100005B0F0BD1B3A00003C00001010B586B0A9
:10392000089C0094099C01940A9C02940B9C0394AB
:1039300000240494FFF7B2FF06B010BD10B5044692
:10394000002816D009F0E6FB436DC26C93420CDDF3
:10395000013B43652046FFF771F909F0E3FB204680
:103960000521BDE810400AF097BBBDE8104009F002
:10397000D9BB10BD10B50446002816D009F0CAFB0B
:10398000436D026D93420CDA013343652046FFF725
:1039900055F909F0C7FB20460521BDE810400AF0A3
:1039A0007BBBBDE8104009F0BDBB10BD70B50C4637
:1039B000054670B109F0AEFBB0F96030A34204D007
:1039C000A0F860402846FFF739F9BDE8704009F0DB
:1039D000A9BB70BD70B50D46044600281CD009F087
:1039E00099FBC36C9D42B8BF1D46036D9D42A8BFA5
:1039F0001D46436DAB420BD045652046FFF71EF9CF
:103A000009F090FB20460521BDE870400AF044BB58
:103A1000BDE8704009F086BB70BD2DE9F14F4468E8
:103A20000546294620460AF0EBFD002800F09F805D
:103A30002B680E2B00F085800F2B03D00C2B40F051
:103A400090800CE0204609F065FB836C1D6809F04E
:103A500069FB002D00F08B802046A84787E0D5F851
:103A60000C90B9F1000F7CD0204609F053FBC66CD6
:103A7000D0F850A0B0F860B0478EB0F8288009F0B8
:103A800051FB99F80830002B4BD00FFA8BFB17F045
:103A9000080F0BEBDB7B14BFD9F80430D9F80030EA
:103AA0004FEA6B0B0BF1010BCBEB030920460AF03D
:103AB00048FDB9F1000F17DD4FEA4B0BCBEB000BC4
:103AC000D94510DAC6EB0A0A0AFB09F9BBF1000F67
:103AD00008BF4FF0010B0BEBDB7309EB6309B9FB7C
:103AE000FBFB5E4400E0564620460AF016FB10B190
:103AF00020460AF07FF9012120460AF023FA2046E9
:103B00003146FFF767FF17F4807F2AD120464FF434
:103B100080710AF044FD18F0020F22D020460121E6
:103B20000CE017F4807F1CD020464FF480710AF01F
:103B30004BFD18F0020F14D0204602210AF0ACFA17
:103B40000FE0EA6813685268002A0ADD102B05D0DE
:103B5000122B06D12046FFF70DFF02E02046FFF7AB
:103B6000EDFE284601B0BDE8F04FFFF701BC01B003
:103B7000BDE8F08F70B50C4616460546A8B109F0B1
:103B8000C9FA436DA642B8BF2646A342B8BF4465F2
:103B9000436DC464B3420665C8BF466509F0C2FA06
:103BA0002846BDE87040FFF749B870BD70B50C46B7
:103BB000054658B1002909DB09F0ACFAC46509F0E3
:103BC000B1FA2846BDE87040FFF738B870BD6423ED
:103BD00009F010BE642309F0F8BD10B5044620B109
:103BE00009F098FA446D09F09DFA204610BD00BF17
:103BF0002DE9F0410D4616460446C8B109F08AFA8F
:103C0000B0F86480C76D09F08DFA464510D225B131
:103C1000284605F09BFC431C00E02B463846314605
:103C20002A4600F05AFA2046BDE8F041FFF706B8F0
:103C3000BDE8F081F0B589B04769B0F90C60B0F922
:103C40000E50B0F91040B0F90AE00091418A01919C
:103C500000210291B0F90810039107F0FF013F1213
:103C600007F0FF0704910597816902EB0E000691AA
:103C70002A469919234600F033F809B0F0BDFFFF3A
:103C800030B589B0054609F045FA836D9C6809F0A6
:103C900049FA17230193009563686846984709B06D
:103CA00030BD70B50D46044609F034FAB0F8643002
:103CB0009D42A8BF5D1EB0F960309D420CD0A0F8B7
:103CC00060502046FEF7BAFF09F02CFA2046052185
:103CD000BDE870400AF0E0B9BDE8704009F022BAD2
:103CE0002DE9FF47314C109E119F2569DDF830A06A
:103CF000B5F802E0002FD8BF1427002ED8BF022647
:103D000023B90EF1040E731E07FB03E30AB92A88D8
:103D100004320D9DCDF800A045F001050195244D1C
:103D20000295129D3C350395FFF710F88046002858
:103D300038D000F033FA00258146002148460A4673
:103D4000013500F066F9B542F7DB404609F0E2F9CB
:103D50000E9AC0F85C9002F480720F9942F0100243
:103D600005460AF045FC636A05F1340EA446AB65CE
:103D7000BCE80F00AEE80F00BCE80F00AEE80F0093
:103D8000DCF800305046CEF800300AF093FAA5F87F
:103D900064606863A5F8627009F0C4F9636A40461C
:103DA0005B689847404604B0BDE8F08754000010B7
:103DB0003F3E000010B588B00A9C00940B9C019413
:103DC0000C9C02940D9C03940E9C04940F9C0594EF
:103DD00000240694FFF784FF08B010BD70B50C46B0
:103DE000054698B109F096F990F8666009F09AF9DD
:103DF00036B1074B1B681BB128462146984770BD5A
:103E0000284624EAE471BDE870404AE770BD00BF6F
:103E10009C59001070B50D46064650B109F07AF96C
:103E2000B0F9604009F07EF930462919BDE87040CC
:103E3000D4E770BD0121EDE74FF0FF31EAE72DE94E
:103E4000F04744680546294620460AF0D9FB002879
:103E500000F08D802B680E2B68D004DC0B2B79D002
:103E60000C2B7FD11BE00F2B02D02B2B7AD10CE037
:103E7000204609F04FF9836D1D6809F053F9002DB4
:103E800075D02046A847BDE8F087204609F042F9E2
:103E900090F86630EB60BDE8F04709F043B9204682
:103EA000D5F80CA009F036F990F866300646B0F85F
:103EB000629043B1B0F90680B0F9023008F1010810
:103EC000C3EB080806E0836D20469B681B68984793
:103ED00000F10408378E09F025F9EE68B6B19AF8BA
:103EE0000830ABB1DAF8043093FBF9F109FB113972
:103EF000C14502DC2046FFF771FF20460AF00DF9AC
:103F000048B1204609F076FF002605E0032104E0D1
:103F10000126022101E00646012120460AF0BCF8F4
:103F2000012E1FD138B207F037F81BE0EB685A6852
:103F3000002A17DD1B68103B032B13D8DFE803F0C2
:103F4000060602022046FFF775FF0BE02046FFF74A
:103F500073FF07E0204609F0DDF8C06D00F097F828
:103F600009F0E0F82846BDE8F047FFF701BABDE8E0
:103F7000F087682309F03EBC682309F026BC10B521
:103F8000044628B109F0C6F8B0F9604009F0CAF853
:103F9000204610BD038870B599420C4616460ED2D5
:103FA000406870B109F0B6F8054600EB840009F0EE
:103FB00065F945F8246009F0B5F8002070BD0120CE
:103FC00070BD012070BD38B503880D46994208D2F6
:103FD000406840B109F09EF850F8254009F0A2F879
:103FE00002E0002400E00446204638BD10B5FFF78B
:103FF000EAFF18B1BDE8104009F08CB810BD10B54B
:10400000044620B109F086F8048809F08BF82046B0
:1040100010BD2DE9F0410546002832D04AB10846CE
:10402000114608F093FDD0F10104064638BF002484
:1040300001E014461646284609F06CF80788D0F8C7
:10404000048009F06FF8F4B9791C4046890006F045
:10405000C8FE804620B9304609F0F0F8013413E07C
:1040600009F058F840F8276009F05CF8284609F094
:1040700051F80388C0F804800133038009F052F836
:1040800002E0044600E001242046BDE8F0812DE96D
:10409000F0410746F8B109F03DF80446406898B190
:1040A00009F038F80025064604E0304609F0E6F845
:1040B0000135043623889D42F7DB09F033F8201DD3
:1040C00009F0DCF80023238009F02CF83846BDE81D
:1040D000F04109F0B3B8BDE8F0812DE9F8430D4691
:1040E00017461E460446002839D009F013F8048804
:1040F000D0F8048009F016F8A5422DD2B8F1000FCF
:104100002CD0404609F006F850F825404FEA8509C2
:1041100009F008F824B1204609F084F8B0420FD025
:10412000304608F005FD044650B1404608F0F2FF65
:104130008046484409F0A2F848F8254008F0F2FF0C
:104140006FB164B1204608F0E5FF394632460FF002
:1041500064FE08F0E7FF02E0002400E04446204649
:10416000BDE8F88338B50D46044638B108F0D2FFF3
:104170002946FFF728FF044608F0D4FF204638BD43
:1041800038B50D46044638B108F0C4FF2946FFF79C
:104190002DFF044608F0C6FF204638BD082008F071
:1041A000C7BCFFFF2DE9F04F85B08A4608F0B2FF8B
:1041B0000446006905F0B8FFE06805F0E3FF02205F
:1041C00005F09AFFA78CE36917F001075AD0002B7E
:1041D00000F0B480A06808F09DFFC36A62691B68A4
:1041E000064602EB0308FEF75BF8A36940443BB1C7
:1041F000012B0AD1BAF90030834200F39D8004E01C
:10420000BAF904308342C0F29780A06802A909F08D
:10421000D7FFB76D356E06F07BFFBDF90AA0236AA4
:10422000BA44BDF90E7000EBD0707F1BD6F88050F9
:104230004FEA6009ED1AED1901E0E369ED18BD429E
:10424000FBDB1CE0BD4218DCA06905F05DFF236AC2
:10425000D6F88000C01AC019401B12F051FDA16AA7
:1042600012F0ECFBC9EB05018346404606F026FF41
:10427000584694F82C1005F0FFFBE369ED1A5545FC
:10428000E0DA59E0002B59D0A06808F043FFC36A78
:104290000546D3F8008006F03BFF63690646C8EB8D
:1042A0000309FEF703F8BAF902204844861996423A
:1042B000BAF8063040DB1BB298423DDCA06802A988
:1042C00009F07EFFBDF90C20EB6DD5F854A0D31A90
:1042D000B5F87820BDF9086012F0010F08BFD5F8D5
:1042E0008C70256A56447519ED1901E0E269AD1A22
:1042F000B542FBDC1EE0B5421ADDA069019305F072
:1043000003FF206A281ACAEB0000C8EB0000C01B9C
:1043100012F0F6FCA16A12F091FB4946834628464A
:1043200006F0CCFE584694F82C1005F0A5FB019B36
:10433000E269AD189D42DEDD08F0F4FE08F0F2FE01
:1043400005B0BDE8F08F2DE9F041044630200D4660
:104350001746984608F0ECFB0646A0B108F0DAFED6
:104360004FF07E530949836200F10C030246446119
:1043700085618784C0F81C8003C983E80300044B6F
:10438000136008F0CFFE3046BDE8F0817C000010DD
:10439000A541000008F052BF38B50D46044650B1A3
:1043A00008F0B8FE046AAC4203D005628068FEF7EC
:1043B00045FC08F0B7FE204638BD38B50D4604462A
:1043C00050B108F0A7FEC469AC4203D0C561806853
:1043D000FEF734FC08F0A6FE204638BD38B50D4681
:1043E000044650B108F096FE0469AC4203D0056162
:1043F0008068FEF723FC08F095FE204638BD38B5EE
:104400000D46044650B108F085FEC468AC4203D0A6
:10441000C5608068FEF712FC08F084FE204638BDB7
:1044200038B50D46044650B108F074FE4469AC42FC
:1044300003D045618068FEF701FC08F073FE20465A
:1044400038BD70B50E4678B108F064FE846A054642
:104450003146204612F08AFC18B9AE62A868FEF711
:10446000EDFB08F05FFE00E00024204670BD38B58B
:104470000D46044650B108F04DFEC46AAC4203D06C
:10448000C5628068FEF7DAFB08F04CFE204638BDB6
:1044900070B5054608F03EFE0446006A18B108F003
:1044A000CDFE0023236208F03DFE2846BDE87040A3
:1044B00008F0C4BE2DE9F04F95B0064608F02AFE7C
:1044C0000446006A002800F0F38008F023FE0590FF
:1044D000A06808F01FFE10A9D0F854A0D0F858909A
:1044E000D0F85C80076E0546A06809F069FEBDF84B
:1044F000403060699A44BDF842301FFA8AFA994404
:10450000BDF84430ADF840A0C8EB0308BDF8463014
:104510000FFA8AFADF1BA369BFB253440293E3691F
:10452000ADF846703FB2FB1A0393ADF84290ADF878
:10453000448005F027FE94F8290006F005FD94F864
:104540002A0005F0E9FD94F8283013F0020F74D02A
:10455000D5F88C30029A304602EB030AD5F8803049
:10456000039A139602EB030B08F0D4FD0746006A8A
:1045700008F0D0FD7B6A814603F1FF38FB6AFE68D4
:104580004FEA5808CBB10123099313AB0F934FF0B7
:10459000000839F9083008A853440B9309EB0803C5
:1045A000B3F90230013EC3EB0B030C93FB6A98474F
:1045B000002E08F10408ECDC3BE0404A1846116C80
:1045C000526C51445A44019306910792FEF71EFD26
:1045D000019B00282DD09A46274601E00AF1040AE3
:1045E00039F90AC0069B079A9C4409EB0A03B3F900
:1045F0000240C8EB0C0B141BC8EB0403C444444436
:1046000019466246049358462346CDF804C007F085
:1046100025F8DDF804C0584621466246049B013E59
:1046200007F01CF8002ED9DCFEF73EFC0028D5D19F
:104630003C4608F077FD08F075FD94F8283013F03B
:10464000010F31D01D4BD5F88C601A6CD5F88070F5
:104650005B6CB618FF18029A039B0020E468129066
:10466000B618FF18FEF7D2FCF0B1DDF8148025462D
:10467000B8F90000B8F902103018791A08F098FE5D
:10468000444609E0B4F90400B4F906103018791A68
:1046900012AA07F023F80434013D002DA046F1DCF6
:1046A000FEF702FC0028E3D108F03CFD08F03AFDDB
:1046B00008F038FD15B0BDE8F08F00BFC05D0010F8
:1046C0002DE9F843054630200C4691461F4608F078
:1046D0002FFA064628B3A00008F02AFA804658B1FF
:1046E000B9F1000F08D03FB108F014FD4946BA00F7
:1046F0000FF093FB08F016FD304608F00BFD012388
:1047000080F8293080F82830074B05220360074BDA
:10471000C0F82080426245610461C760436008F0D0
:1047200001FD3046BDE8F883B54400009144000027
:10473000AEE670B50C4688B108F0ECFC0546006AA0
:1047400008F0E8FC224601460423284600F00AFC53
:1047500008F0E8FCBDE8704008F0E4BC70BD10B59E
:104760000C4660B108F0D6FC8369A34203D0846193
:104770008068FEF763FABDE8104008F0D3BC10BDB6
:1047800010B50C4660B108F0C5FCC369A34203D064
:10479000C4618068FEF752FABDE8104008F0C2BC60
:1047A00010BD10B50C4670B108F0B4FC90F829307B
:1047B000A34204D080F829408068FEF73FFABDE8A4
:1047C000104008F0AFBC10BD10B50C4670B108F039
:1047D000A1FC90F82A30A34204D080F82A408068D7
:1047E000FEF72CFABDE8104008F09CBC10BD10B5D7
:1047F000044638B108F08EFC90F8284004F001041B
:1048000008F090FC204610BD10B5044638B108F001
:1048100081FC90F82840C4F3400408F083FC204653
:1048200010BD38B50D460446B0B108F073FC90F8E1
:104830002830012D03F0010403D15CB943F00103DA
:1048400003E03DB934B123F0010380F828308068DB
:10485000FEF7F4F908F066FC204638BD38B50D4681
:104860000446C0B108F056FC90F82830012D03F042
:104870000202C3F3400403D15AB943F0020303E038
:104880003DB932B123F0020380F828308068FEF78A
:10489000D5F908F047FC204638BD10B550B108F0F6
:1048A00039FC0023C3608068FEF7C8F9BDE81040FA
:1048B00008F038BC10BD10B50C4648B108F02AFC11
:1048C000C4628068FEF7BAF9BDE8104008F02ABC5F
:1048D00010BD10B50C4648B108F01CFC446280685D
:1048E000FEF7ACF9BDE8104008F01CBC10BD00BFDD
:1048F000F0B587B0B0F90C60B0F90E50B0F91040C7
:10490000B0F90A70009100210191418A0291B0F939
:10491000081003918169D01904912A4699192346F8
:1049200000F045FB07B0F0BD10B5446D0C60816D23
:104930001160C26D1A60026E029B1A60C36A1A6827
:10494000039B1A6010BDF0B591B0044609A909F0A7
:1049500037FC204608F0DEFB0CAB00930BAB0EAA35
:104960000FA901930DAB0546FFF7DEFFBDF9263019
:10497000BDF92A606D6FF61A0E9BF61A0C9BF61A9B
:10498000B542D4BF0025012508F0CCFB29462046BE
:1049900009F0CEF9204608F0BDFB436FBDF9285061
:1049A000C367BDF92430C0F88460ED1A0F9B066F11
:1049B000ED1A0D9BED1AAE42D4BF0026012608F079
:1049C000B1FB3146204609F0B2F9204608F0A2FBBF
:1049D000036FC0F89050074600F17C05C0F888309E
:1049E0008837284609F098FC384609F095FC95E888
:1049F000070006AE03AD86E8070097E8070085E8E4
:104A0000070008F08FFB204631462A4609F08BFE4E
:104A100011B0F0BD10B58AB0044608F07BFB06ABC0
:104A2000009305AB08AA09A9019307ABFFF77CFF28
:104A300008F078FB204603A909F0C2FBBDF80C3052
:104A4000099A2046D318ADF80C30089ABDF80E30FC
:104A500003A9D318ADF80E30BDF81020079BD31A68
:104A6000ADF81030BDF81220069BD31AADF8123005
:104A7000FEF7A8F80AB010BD2DE9F0410F46044634
:104A800008F048FB0546384609F0E0FF0646384680
:104A9000FDF738FCFE280CBFC5F88060C5F88C60B7
:104AA0002046FEF7CBF8BDE8F04108F03BBB2DE90E
:104AB000F04F45680446066895B02846214609F03F
:104AC0009FFDB6F5407F074602D12846FFF73BFF22
:104AD000002F00F0448223680B2B00F0EC8103DCF4
:104AE000052B40F0398205E00F2B07D0262B40F034
:104AF00033821EE22846FFF726FF2DE22846D4F82F
:104B00000C8008F007FB10AB00930FAB12AA0DAEA0
:104B100013A9019311AB0446FFF706FF304609F0D5
:104B2000BDFB3146204609F098FE96E803000BAB2A
:104B300083E803001298BDF82E10BDF83C20411800
:104B40005118ADF82E1010985142BDF8326089B25C
:104B5000081A8019ADF83200BDF82C00121813980D
:104B60001218ADF82C20119A1846891ABDF8302079
:104B70008918ADF8301009F071F8606B05F000FB92
:104B800007F076FAD4F8943013B1284600219847FC
:104B900094F86C30002B00F09080129811990290DC
:104BA0000391284609A9DDF84CB0DDF840A009F0D2
:104BB00007FBE36ABDF928101B6802980493039B66
:104BC000676CC3F10102BDF92430CBEB0202CB1AB2
:104BD000D318BDF92A100593BDF92630CAF1010298
:104BE000121ACB1AD318206C0693D4F8489005F00B
:104BF000C9FA06F087FA079077B3B4F87830E66C14
:104C000013F0010F08BFD4F88C303E4418BF0023C6
:104C1000F61800E0F61BBE42FCDA94F87A0005F0C4
:104C20007BFA16E00499029B01EB0B00BDF92610FC
:104C300094F87A20C918BDF92A308019CAEB030309
:104C40001AB1024606F015FD02E01A4606F09EFA79
:104C5000F61905988642E5DBB9F1000F2AD0266DDA
:104C6000D4F880304E44F61A01E0C9EB06064E45F2
:104C7000FBDA94F87B0005F04FFA18E00398BDF9D1
:104C80002820BDF92A10BDF92430121A94F87B00AF
:104C9000CAEB0101891B5B4420B118460B4606F0A4
:104CA000E8FC03E00846194606F050FD4E4406991C
:104CB0008E42E3DB079805F02FFA0BA80DA90F9A97
:104CC00004F0DAFC0BA808F0C9FF94F83B30FF2B86
:104CD00000F0A480DDF84CB0129FDDF84490109EE7
:104CE000BBF1000F06D12FB9B9F1000F02D1002E90
:104CF00000F09480E36A09A92846D3F800A009F0DF
:104D00005FFAFDF7CDFA0690FDF7D0FABDF9243031
:104D100007905B440293BDF92630A06BDB19039327
:104D2000BDF92830C9EB03030493BDF92A309B1B5E
:104D3000059305F025FAE06B05F024FABBF1000FAE
:104D40001BD0B8F9003006980BF1FF3B0BEB0A02C1
:104D50001B1A934211DCBDF92A30BDF924009B1BBC
:104D60000AEB0701013307F055F90299039B481E2E
:104D7000591E059B5A1C06F009FABFB1B8F902206A
:104D800007987B1E5344121A9A420FDCBDF9240087
:104D9000BDF92610BDF9282007F03CF90399029BC4
:104DA000481E591E049B5A1C06F0D0FCB9F1000F96
:104DB0001BD0BDF92820B8F904300699C9EB0209C7
:104DC00009F101005B1A83420FDBBDF92A300AEBBF
:104DD00007019B1B013307F01DF9049B581C039B23
:104DE000591E059B5A1C06F0D1F9BEB1BDF92A30F7
:104DF000B8F9062007989E1B711C121A8A420DDB17
:104E0000BDF92400BDF9282007F004F90599029B9B
:104E1000481C591E049B5A1C06F098FCD4F8943088
:104E200013B1284601219847606EFFF7E8F8002685
:104E3000074615E03146606EFFF794F908F06AF90D
:104E400068B1D0F80090484608F064F928B10368CA
:104E500041464846984708F065F908F063F901367D
:104E6000BE42E7D3A06EFFF7CAF80026074615E05A
:104E70003146A06EFFF776F908F04CF968B1D0F82A
:104E80000090484608F046F928B103684146484674
:104E9000984708F047F908F045F90136BE42E7D3D4
:104EA000002008F0DBFED4F89430002B3ED02846DA
:104EB000022198473AE0284608F02CF90446406E53
:104EC000FFF79DF80025064613E02946606EFFF7C0
:104ED00049F908F01FF958B10768384608F01AF97F
:104EE00020B143683846984708F01CF908F01AF9D1
:104EF0000135B542E9DBA06EFFF781F800250646D3
:104F00000CE02946A06EFFF72DF908F003F920B157
:104F1000006808F093F908F005F90135B542F0DBB7
:104F2000606EFFF7B4F8A06EFFF7B1F808F0FAF87A
:104F300015E0E368052B0FD12846A66809F035F97E
:104F4000864205D02846A66809F02CF9864203D18E
:104F50006068A168FFF790FD2046FEF709FA15B0DA
:104F6000BDE8F08F2DE9F0411F46836804460D46E9
:104F70001646D3B1C26803699A420AD1013A08467B
:104F80007A43C9190EF04BFFE068013800FB075067
:104F900003E0531CC36002FB071031463A460EF093
:104FA0003EFFA068BDE8F04134E5BDE8F081F0B512
:104FB00085B00A9C00940B9C0194164C02940E9CA4
:104FC0006C340394FDF7C2FE054600B3FFF7E6F824
:104FD0000746FFF7E3F80646284608F09BF8044624
:104FE00047660D4F86660D99002204F1340609F0DC
:104FF000FFFA0FCF0FC60FCF0FC697E80F0086E856
:105000000F00BDF83030A4F8783008F08BF828464F
:1050100005B0F0BDAF4A00008400001010B586B0A6
:10502000089C0094099C01940A9C02940B9C039494
:1050300000240494FFF7BBFF06B010BD73B504460F
:105040000191A0B108F066F802AD466E08F06AF86A
:1050500055F8040D08F05EF8846008F063F83046F7
:1050600029460422FEF7D5FF2046FDF7E7FD7CBD6B
:105070002DE9F04788460646002824D008F04AF873
:10508000456E08F04FF82846FEF7B9FF00240746A2
:1050900012E028462146FFF765F860B108F03AF8BB
:1050A000D0F8009008F03EF8C14504D128462146CA
:1050B0000AF0D2F802E00134BC42EADB3046BDE837
:1050C000F047FDF7BBBDBDE8F08773B5044601911D
:1050D000A0B108F01FF802AD866E08F023F855F86D
:1050E000040D08F017F8846008F01CF830462946D3
:1050F0000422FEF78EFF2046FDF7A0FD7CBD2DE9C2
:10510000F04788460646002824D008F003F8856E4C
:1051100008F008F82846FEF772FF0024074612E060
:1051200028462146FFF71EF860B107F0F3FFD0F8DC
:10513000009007F0F7FFC14504D1284621460AF048
:105140008BF802E00134BC42EADB3046BDE8F047B0
:10515000FDF774BDBDE8F08770B50C4615460646F0
:1051600090B107F0D7FF032D0AD80C3500EB85006E
:105170004568A54205D044603046FDF75FFD00E07C
:10518000002507F0CFFF00E00546284670BD70B54A
:105190000E46054680B107F0BDFF90F86C40B44262
:1051A00007D0003E18BF012680F86C602846FDF746
:1051B00045FD07F0B7FF00E00446204670BD70B51E
:1051C0000E46054658B107F0A5FF446CB44203D023
:1051D00046642846FDF732FD07F0A4FF00E00446D0
:1051E000204670BD70B50E46054658B107F092FFD7
:1051F000846CB44203D086642846FDF71FFD07F097
:1052000091FF00E00446204670BD70B50E4605468D
:1052100058B107F07FFF046DB44203D006652846FD
:10522000FFF7F8FB07F07EFF00E00446204670BD64
:105230002DE9F041069F0C4615469846064680B17A
:1052400007F068FF44658565C0F85C80076607F075
:1052500069FF3046FFF777FB3046BDE8F041FDF7C8
:10526000EDBCBDE8F08170B50D46044650B107F0C5
:1052700051FFC0F8945007F055FF2046BDE870403C
:10528000FDF7DCBC70BD70B50E46054688B107F071
:1052900041FF046FB44209D0066707F043FF284678
:1052A000FFF751FB2846FDF7C9FC03E007F03AFF82
:1052B00000E00446204670BD70B50E46054688B134
:1052C00007F028FF446FB44209D0466707F02AFF71
:1052D0002846FFF738FB2846FDF7B0FC03E007F04F
:1052E00021FF00E00446204670BD70B50E4605461D
:1052F000E0B107F00FFFB0F8783003F00104002EA2
:1053000014BF002204F0010212B123F0010305E0F2
:1053100084F00102324206D043F00103A0F8783055
:105320002846FDF78BFC07F0FDFE00E00446204612
:1053300070BD70B50E46054668B107F0EBFE90F8FB
:105340007B40B44204D080F87B602846FDF776FCB1
:1053500007F0E8FE00E00446204670BD70B50E463A
:10536000054668B107F0D6FE90F87A40B44204D002
:1053700080F87A602846FDF761FC07F0D3FE00E074
:105380000446204670BD70B505460C46FFF7E6FFA3
:1053900028462146BDE87040CBE7982308F02ABA9A
:1053A000982308F012BA00BF2DE9F0470D460646D3
:1053B000002849D007F0AEFE0446438E15B143F0F5
:1053C000200701E023F02007BB4239D06786304632
:1053D00000F0C8F9E5691FE0284607F09BFEB4F924
:1053E0000230B0F90290D0F82080C3EB090907F031
:1053F00099FEB4F9563099450DD1A36E9D420AD05D
:10540000638E13F0200F03D02846FCF7C8FD02E09E
:105410002846FCF7F8FE4546002DDDD1B4F87C3077
:1054200013F0400F09D017F0200F03D03046FCF7DF
:10543000B6FD02E03046FCF7E6FE3046FDF7FEFB27
:10544000BDE8F04707F06EBEBDE8F087F0B589B063
:10545000B0F90C60B0F90E50B0F91040B0F90A7014
:10546000009100210191418A0291B0F90810039145
:10547000416804910E9905918169D01906912A46D7
:105480009919234600F0BDF909B0F0BD70B5044686
:105490000D4607F03FFEB0F87C302DB113F0080F39
:1054A0000CD143F0080304E013F0080F06D023F0FA
:1054B0000803A0F87C302046FDF7C0FBBDE8704033
:1054C00007F030BE70B588B004460D4607F022FEE6
:1054D000C36D9E6807F026FE0094032D0BD8DFE80D
:1054E00005F002040608162304E0142302E0132347
:1054F00000E01523019373686846984708B070BDB3
:105500002DE9F043446885B007462046FCF7B0FE1D
:10551000064607F0FFFD456ED0F84880D0F8809031
:1055200007F000FE3B680E3B142B4CD8DFE803F07D
:105530002F0B4B4B4B4B50504B504B4B4B4B4B4B08
:105540001E2A4B4B48006FF07043984504D04046EC
:1055500003F0ECFF06F08CFD002D3CD06E4697E882
:105560000F0086E80F00019468462FE0FB68002BCF
:1055700031D0B9F1000F1FD0A1451DD0484608F029
:1055800039FC28E03046394609F03AF823E0FB6858
:105590005A68002A17DD1B68092B0DD00A2B12D17F
:1055A000204608F0D3FB0446304607F0B3FDC0F8B0
:1055B000804007F0B7FD0EE0204608F0F6FBF2E76A
:1055C000C7F80C8007E01DB17E603846A84702E0AE
:1055D0003846FDF7CDFE05B0BDE8F08308B50346BB
:1055E000408E10F0200006D0B3F9540018B9586B63
:1055F00005F070FD023008BD2DE9F84304460D4664
:10560000164607F087FDC36DB0F80080D3F8089008
:10561000478807F087FDD9F80030204600219847D9
:1056200081462046FCF77EFE25E0204607F072FD0D
:10563000B0F902E03AB2C2EB0E024A450188838813
:1056400014D1806A0FFA88F210F0800F07D00BB2E5
:105650009A1A33689A4209DC013A326006E01BB2BA
:105660009B1A2A68934201DB01332B6007F05AFD35
:10567000204608F09DFD04460028D6D1BDE8F883F9
:105680002DE9F04F87B006460C4607F043FDC36D89
:105690000546D3F808900121D9F8003030469847E4
:1056A000D9F800300321804630469847D9F80030B9
:1056B0000221074630469847D9F800300021019072
:1056C000304698478146284608F04EFD029028460D
:1056D00008F051FDB5F832A003901AF0200A2846D0
:1056E00018BFB5F958A0FFF779FF8346E86E08B1F7
:1056F00008F050FD0299A4F800B04B1E03991FFA60
:105700008BFBDF1BDA441FFA89F34A1E01999A4486
:10571000013B521A9B4460801FFA88F8BFB2504484
:105720006281A4F804802781E080A4F80C8027829D
:10573000A4F80E90A4F812B007F0F4FCB4F90C3001
:1057400004AA0593B4F91030304605A90493FFF775
:1057500053FFBDF81420BDF81030A281238207B09A
:10576000BDE8F08F70B586B0064607F0D3FC846EB6
:10577000C56E07F0D7FC04B92DB3304601A9FFF779
:105780007FFFACB12046BDF90810BDF90A2008F032
:105790008CFCBDF90C60BDF90E20BDF90810BDF9F7
:1057A0000A30013601322046711AD21AFCF717FC72
:1057B0004DB1BDF90A20BDF906302846BDF90810E3
:1057C000D21A08F072FC06B070BD73B50E460446DE
:1057D000B0B107F09FFC036F02AD45F8043D07F040
:1057E000A1FC2846314603F0BDFE48B1204607F033
:1057F00091FC019B036707F095FC2046FDF71EFA1C
:105800007CBD2DE9F0418AB0109C119F0094354C6D
:1058100047F480570294169C019760340394FDF777
:1058200095FA0446002859D007F074FC2E4D064620
:105830001399302208F0DCFE06F1340EAC46BCE8C9
:105840000F00AEE80F00BCE80F00AEE80F009CE8C8
:105850000300159B4FF000087366BDF848308EE8D2
:105860000300A6F87C30AB6AC6F88080F365C6F802
:105870006C80C6F8888007F055FC204605A9FFF724
:10588000FFFEBDF91C20BDF91E30BDF91A10BDF98F
:10589000180041F2827601960132144E01335B1AF0
:1058A000121A02960094CDF80C80FDF74FFAAB6AFD
:1058B00006465B6820469847204607F02BFC866624
:1058C00007F030FC42F2040307EA030313B9204651
:1058D00008F016FC20461499FFF777FF20460AB01F
:1058E000BDE8F0816F590000B400001001550000C0
:1058F00010B588B00A9C00940B9C01940C9C0294F7
:105900000D9C03940E9C04940F9C05940024069413
:10591000FFF777FF08B010BD70B50C46054670B1B3
:1059200007F0F8FBB0F95A30A34204D0A0F85A406F
:105930002846FDF783F9BDE8704007F0F3BB70BD62
:1059400010B50C4678B107F0E5FBB0F87C3014B127
:1059500043F0100301E023F01003A0F87C30BDE811
:10596000104007F0DFBB10BD00B18FE570472DE997
:10597000F04744688AB00546204607F0CBFBC36D6C
:10598000D0F88870D0F88060D0F86880B0F87C904B
:105990000BB1D3F800A007F0C5FB06E07B682846F2
:1059A0009847002840F0F8803F68002FF6D12B6818
:1059B0000B3B1F2B00F2E880DFE813F0DE003E0017
:1059C000B600E6003B00E6002000E600E6007100BD
:1059D000E600E6007B00E600E600E600E600E60002
:1059E000E6008B00E600C200E600E600E600E60006
:1059F000E6007E00E600E600E6002F00EE682046A6
:105A000007F088FB3389012B40F0BC80B0F87C3074
:105A100043F48073A0F87C30B4E0204607F07AFBB2
:105A2000EB6813B1C0F8843036E0D0F88430EB6016
:105A300032E02046D047A7E02046EF6807F06AFB37
:105A4000B0F87C6007F06EFBEB68002B00F0A480E0
:105A50003B7AC3B116F0080F02D1204608F0CAF90C
:105A6000204608F08BFC06F48873B3F5887F40F07D
:105A7000938016F0800340F08F802046394605223F
:105A800008F000FA88E0204607F044FBB0F87C30CC
:105A900023F48073A0F87C3007F044FB7CE02046C0
:105AA00001A9FFF7EDFDE86802A908220EF0B5F99B
:105AB00072E0C5F80C806FE0EB68022B6CD10993A3
:105AC0000AA9253341F8103DA868089407F01EFE86
:105AD00062E0EF68012F22D1304608F01CFB58B17C
:105AE000304608F087F9304608F026FB78B130469A
:105AF000394608F054FD0AE0404608F056F90646DB
:105B0000204607F007FBC0F8806007F00BFB20463B
:105B10000121FFF729FF002E3ED1EE603CE0204638
:105B20000021FFF721FF37E019F0080F2CD1EB68B7
:105B3000DB684BB31B7A3BB3204608F05BF923E0EC
:105B4000EE680EB32146706807F019FE014620B1D9
:105B500020460121FFF79AFC16E02046FFF796FC4D
:105B60003068214607F0FBFD70B1204607F0D2FAFD
:105B70003368C0F8803005E0204607F0CBFA70307B
:105B800007F07CFB07F0CEFA2046294608F038FDE6
:105B900010B12846FDF7ECFB0AB0BDE8F0878C2376
:105BA00007F028BE8C2307F010BE00BF014B186819
:105BB000704700BFE0000010024B1A6818601046E2
:105BC000704700BFE000001030B585B004460D46B8
:105BD0006846002110220EF024F92A232046694647
:105BE00000930395FCF7D4FF05B030BD1FB5044604
:105BF0000021102268460EF014F92A232046694637
:105C00000093FCF7C5FF039804B010BD2DE9F341E4
:105C1000009204680E46089A1946099B0546A0475B
:105C2000044630B3FCF7A3FB698A8046204608F09F
:105C3000B6FC2046FCF7B3F940460EE055F81C7F51
:105C400000220092284641461346B847074620B92D
:105C50002046FDF70DF83C460BE0013EFCF79FF9AE
:105C6000002EEBDC40461D2108F08EF9204608F09E
:105C70009CF82046BDE8FC8170B504460D46FFF750
:105C8000B5FF10B10123456003602046BDE87040B8
:105C9000FDF7D0BA07B50023694600930193FFF7DB
:105CA00093FF04E005F068FA08B903F0DDFD009BFE
:105CB000002BF7D001980EBD13B5049C0094059CF1
:105CC0000194FFF7A3FF02B0BDE81040E2E700BF78
:105CD000F7B50F460446D0B1C9B107F01BFA856F7E
:105CE00002AE46F8045D07F01DFA3046394603F06F
:105CF00039FC60B1019BAB4206D0204607F00AFA9E
:105D0000019B836707F00EFA2046FCF797FFFEBD64
:105D100070B50D460446002816D007F0FBF990F840
:105D200074309D420CD880F8755007F0FBF920467E
:105D3000FCF784FF20460521BDE8704008F0ACB9AF
:105D4000BDE8704007F0EEB970BD08B500F006F888
:105D5000A0F10103584240EB030008BD10B5044612
:105D600028B107F0D7F990F8754007F0DBF9204625
:105D700010BDF0B587B0B0F90C60B0F90E50B0F9B5
:105D80001040B0F90A70009100210191418A0291FE
:105D9000B0F9081003918169D01904912A46991924
:105DA000234600F09DF807B0F0BDFFFF00B589B0B5
:105DB0006846002120220EF034F817230193044B8B
:105DC00068461B689B685B68984709B000BD00BFC8
:105DD000E40000102DE9F0474468054629462046B6
:105DE00008F00EFC002879D02B680B3B042B70D8F0
:105DF000DFE803F0672E6F032100204607F08AF9E1
:105E000090F8746090F8757007F08CF9204607F0F0
:105E10009BFC00285DD0EB685A68002A59DD1B689E
:105E2000202B56D1013797FBF6F1204606FB117166
:105E3000FFF76EFF4DE0204607F06CF9036F1D6819
:105E400007F070F9002D49D02046A847BDE8F0873B
:105E5000204607F05FF990F8747090F87590B0F8EC
:105E6000308007F05FF9D5F80CA0BAF1000F16D01A
:105E7000204608F06BF90646A0B99AF80830A3B19D
:105E80002046012109F1010908F05CF899FBF7F1BE
:105E900007FB11912046FFF73BFF012107E0564623
:105EA000032104E00026314601E0012602212046BC
:105EB00008F0F2F8012E0CD10FFA88F005F06CF81A
:105EC00007E0204607F026F9783007F0D7F907F009
:105ED00029F92846BDE8F047FDF74ABABDE8F08742
:105EE0002DE9F04385B005460F461E46DDF8349097
:105EF0009046264C22B923689B681B6898478046C9
:105F000026B923689B681B689847064622696FF08C
:105F100070439A420C9B08BF49F0010900931C4B47
:105F200028460293109B394650330393424633462A
:105F3000CDF80490FCF70AFF064610B307F0EAF824
:105F40000F991022054608F053FBDFF848E005F1F1
:105F50003407BEE80F000FC7BEE80F000FC7BEE84A
:105F60000F000FC723689EE807002B67022385F800
:105F7000743087E8070007F0D5F8236830465B687F
:105F80009847304605B0BDE8F08300BFE40000103C
:105F9000D55D0000E800001010B586B0089C0094A4
:105FA000099C01940A9C02940B9C03940024049481
:105FB000FFF796FF06B010BD7C2307F01BBC7C23C7
:105FC00007F003BCF0B587B00446B0F90A000091B1
:105FD00000210191618AB4F910500291B4F90810BE
:105FE000B4F90C70B4F90E600391A1691018049112
:105FF0003246D9192B4600F09FF86168054600F03B
:10600000DFF8284607B0F0BD70B54FF48071044644
:1060100008F0C5FA204607F07DF8058D07F082F8F4
:1060200015F0020F05D020460121BDE8704008F0B0
:1060300033B870BD2DE9F04105460C464FF4807130
:1060400008F0C2FA284607F065F8068D078E07F0BB
:1060500069F8022C02D1384604F09EFF16F0020FB8
:1060600005D028462146BDE8F04108F015B8BDE846
:10607000F08170B50E46044607F04CF8458E07F0E7
:1060800051F8F36863B11B7A05F4807523B165B9E3
:106090002046BDE87040B7E73DB12046022101E04F
:1060A00020460321BDE87040C4E770BD70B50E46C0
:1060B000044607F02FF8458E07F034F8F3685A7A53
:1060C00042B91A7A32B115F4807F0FD12046BDE86B
:1060D000704099E71B89B3F5807F07D115F4807F65
:1060E00004D020460221BDE87040A3E770BD70B522
:1060F0000E46044607F00EF8458E07F013F8F368D5
:1061000023B11B7A3BB915F4807F04D020460321CC
:10611000BDE870408EE770BD034A044B1A60044A24
:10612000044B1A60704700BFEF60000024010010AC
:10613000AD60000098550010F0B585B00A9C009441
:106140000B9C0194144C02940E9C4C340394FCF769
:10615000FDFD0546E8B106F0DDFF104C06460D9941
:10616000102208F045FA06F1340704F1040EBEE8E7
:106170000F000FC7BEE80F000FC79EE80F0087E8AB
:106180000F00636B736606F0CDFF636B28465B6898
:106190009847284605B0F0BD336200002401001086
:1061A00010B586B0089C0094099C01940A9C029446
:1061B0000B9C039400240494FFF7BEFF06B010BDAF
:1061C000F7B50F460446C8B106F0A4FF856E02AECF
:1061D00046F8045D06F0A6FF3046394603F0C2F9E2
:1061E00060B1019BAB4206D0204606F093FF019BB5
:1061F000836606F097FF2046FCF720FDFEBD70B5D4
:106200000D46044648B106F085FF456506F08AFF55
:106210002046BDE87040FCF711BD70BD08F0A5B97F
:1062200019B14FF4807108F0BAB94FF4807108F0D9
:10623000CBB970B5446805462946204608F0E0F918
:10624000002857D02B680E2B31D004DC0B2B1FD02D
:106250000C2B4AD10AE0112B04D0282B40D00F2B55
:1062600043D109E0244B1B6813B943E0234B1B685F
:1062700020462946984770BD204606F04BFF436EE6
:106280001D6806F04FFF002D34D02046A84770BD92
:10629000204606F03FFF0446683006F0EFFF04F1A9
:1062A0006C00032106F0F2FF06F03CFF1DE0EA68F7
:1062B000536812680D2A02D0202A11D105E0002B64
:1062C0000EDD2046FFF7A0FE05E0002B03DD204693
:1062D000BDE8704098E620460221BDE87040A9E67E
:1062E000E96811B92046FFF79BFF2846BDE87040DA
:1062F000FDF73EB870BD00BF985500102401001096
:1063000011B1102108F04BB9102108F05DB970B53A
:106310000C461646054660B106F0FCFEA0F85E404D
:10632000A0F8606006F0FEFE2846BDE87040FCF76D
:1063300085BC70BD782307F05DBA782307F045BAB5
:106340002DE9FF47B1F90450B1F900900135C9EBCF
:106350000505002D0646B1F80280CC886CDD24B21C
:1063600001340FFA88F8C8EB0404002C64DD4F6A8E
:1063700097B1384606F0CEFEB0F90450C48806F056
:10638000D1FE4D4502D124B2444556D03846494647
:10639000424600F00DFA50E007F06EFF864212D13F
:1063A00002F069FB074602F06BFBBD4202DC84424F
:1063B00009DD00E03D468442A8BF04462946304638
:1063C0002246FBF70CFE1F4B414601931E4B2A460B
:1063D00002934FF0010A23464846CDF800A000F092
:1063E000ECFF0746304606F089FE8046476227B933
:1063F00030464146FCF788FE1FE0836A6C4343F455
:1064000080338362384601F0ABF88146504604F091
:10641000FDFB384600F01CFA0C4BA200197803F083
:1064200039F930464146FCF76FFE002004F0EEFBE0
:10643000484601F095F800E00027384604B0BDE872
:10644000F08700BF38720100F89D01005C01001068
:1064500037B5054606F052FE836A044613F0020F74
:1064600028D0036933B36B4603C883E8030068464A
:106470002946FCF7B3F9E8B1FCF73CFE2846FCF7E7
:10648000DFFB0020014604F019FE21462846FFF7F5
:1064900057FF284606F032FE074BFF221A70C469E8
:1064A00006E02046FFF7D4FF204606F027FE046AE8
:1064B000002CF6D13EBD00BF5C01001010B5FFF707
:1064C0003FFF18B1BDE8104009F0F8BD10BD024B08
:1064D000FF221A70BCE700BF5C01001008B518B1BC
:1064E00006F00CFE406A08BD08BD2DE9F04F91B0E2
:1064F0000790099106F002FE836A069013F0020FDE
:1065000000F044810369002B00F040810EAB03C80A
:1065100083E8030018460799FCF760F9002800F0AB
:106520003581099A1568002D31D107980CA9FBF720
:1065300091FEBDF93460BDF93640964BBDF930008F
:10654000BDF9321001930136934B0134361A641AA7
:10655000029332462346009500F07FF90546002855
:1065600000F0FB80099B18600798FFF7B7FF0590C4
:10657000002800F0F28000F06BF9744307462846CB
:1065800000F066F93946A2000DF047FCF3E00798E9
:10659000FFF7A4FF0590002800F0DF8000F034F939
:1065A0008246059800F024F90646059800F050F957
:1065B00084460598CDF810C000F032F98046059861
:1065C00000F03AF90446284600F01EF983462846B2
:1065D00000F00EF90890284600F03AF90A90284693
:1065E00000F01EF98146284600F026F90BEB090160
:1065F00001398845DDF810C000F3BD800AEB080EB4
:106600000EF1FF3ECE45C0F2B680089A1318013B4A
:106610009C4200F3B0803219013A8242C0F2AB8052
:10662000C1456746C4BFC8EB09070CEB8707A0420A
:1066300004DD051B0AFB05F507EB8507C8450A9D28
:10664000C4BFC9EB080C05EB8C05844205DDC0EB2B
:10665000040C0BFB0CFC05EB8C05C14506DB7145FE
:106660000BDBC9F1010909EB0E0C09E0714506DAF3
:10667000C8F1010808EB010C02E0DC4600E0D4465A
:10668000A04205DB934209DBC0F10106B61806E023
:10669000934204DAC4F10106F61800E0089E4FEABE
:1066A0008A0A4FEA8B0BCDF828A0CDF820B0B2466D
:1066B000CDF82CC00B9C2B463946BB46A9460A4652
:1066C000002752F8040B000EFF2802D10137BC420C
:1066D000F7D1E41B35D0BF00CE193246002552F861
:1066E000041B090E02D10135AC42F8D1DF1925B3E4
:1066F0004FEA85083846314642460DF08EFB464447
:106700004744641B19E056F8040B020E551EEDB207
:10671000FD2DD4D857F8041B0D0EFF2D02D147F8DC
:10672000040C09E0D243D2B202F046FF20F07F40D1
:1067300040EA056547F8045C013C3B463146002CC5
:10674000E1D1BAF1010A5F464D4614D0089B0A9A7E
:1067500009EB03050BEB0207ACE7069BDC6907E0DE
:1067600020460999FFF7C1FE204606F0C7FC046ADF
:10677000002CF5D10AE0059800F0A3FE079806F07A
:10678000C9FC0023436206F0CDFCE6E711B0BDE88A
:10679000F08F00BF38720100F89D010007B500239B
:1067A00002A941F8043DFFF7A0FE01980EBD704715
:1067B00070B50C46164610B90C4B586DA0B106F0DA
:1067C0009DFCB6B2A4B20546C680848002F014FED9
:1067D000686948B106F092FC2B89838023B16B89EC
:1067E000C3800BB10480468070BD00BFC05D001047
:1067F00008B510B9034B586D18B106F07FFCB0F91D
:106800000A0008BDC05D001008B510B9034B586DF3
:1068100018B106F073FCB0F9080008BDC05D0010A7
:1068200008B510B9034B586D18B106F067FCB0F904
:10683000040008BDC05D001008B510B9034B586DC9
:1068400018B106F05BFCB0F9060008BDC05D001091
:1068500008B506F053FC183008BD70B5069C049EC0
:10686000059D1CB1BDE8704000F0A7BD204670BD7D
:106870008142B8BF084670472DE9F04F87B00291BA
:1068800093461F468046424C78B304A905A804F0FD
:1068900037FC607CB8F90490B8F90060B8F9025090
:1068A000DDF814A002F0D5F80AF1FF3A0AEB000176
:1068B0004846FFF7DDFF8146607CB8F90680DDF8C9
:1068C00010A002F0C8F80AF1FF3A0AEB00014046B6
:1068D000FFF7CEFF26EAE67625EAE575C6F1010365
:1068E000C5F101049944241809E0607C02F0B1F874
:1068F0008146607C02F0AFF845460446464607B93B
:106900006742B9F1000F3FDD002C3DDD109B3046A2
:10691000009329463B464A4600F0F0FD074620B961
:106920005846029B984701202FE0FFF761FF8246FF
:10693000384600F015FECAF100030393A1464FF05C
:106940000008D14503DA3846494609F0B7FCB8F1EA
:10695000000F08D03846314608EB0502FFF728FF44
:10696000384609F0BBFC029B58469847384600F071
:1069700067FED044039BA0459944E2DB384600F013
:10698000A0FD002000F0ECFD002007B0BDE8F08F76
:10699000C05D00100248012918BF0020704700BFE9
:1069A000387201000248162918BF0020704700BF46
:1069B00031FF000008290CBF20200020704700682C
:1069C00008B5C3681B6A984708BD10B580680C46B7
:1069D00006F094FB8288018922805218013AC3880C
:1069E000A280428963809B18013BE38010BD38B5CB
:1069F000094B0446586D0D4606F080FBB0F90620A1
:106A000000F11803AD1AC26802FB0535B0F9043075
:106A1000E41A05EB840038BDC05D001008B50846D7
:106A20001146FFF7E4FF006808BD134B2DE9F04164
:106A3000586D17460C4606F061FB39460546466917
:106A40002046FFF7D4FF2B6880461B699B68984758
:106A5000D8F800304340C8F8003056B1304606F050
:106A60004DFB836830461D6806F048FB21463A46D8
:106A7000A847BDE8F08100BFC05D0010F8B51E4614
:106A80000C4B0C46586D154606F038FB29464769F5
:106A90002046FFF7ACFF066057B1384606F02EFBE4
:106AA000836838461E6806F029FB21462A46B0470F
:106AB000F8BD00BFC05D00102DE9F74F294D8A4693
:106AC000686D1446994606F019FB4669804626B162
:106AD000304606F013FB074600E037465046214695
:106AE000FFF785FF204B1F4A1B680546D3F800B00F
:106AF000137CD8F80CC013F0010F17D0D8F8003071
:106B00001B699B68984783462EB1BB6838461B6853
:106B10005146224698472B68013483EA0B034C45C3
:106B20002B60D8F80C301BDCED18EDE786B1BB68A4
:106B300022461B683846CDF804C0514698470134B8
:106B4000DDF804C04C45C5F800B06544EFDD07E052
:106B5000C4EB09040134013CC5F800B06544FAD126
:106B6000BDE8FE8FC05D00106C0100102DE9F74FED
:106B7000DFF894908846D9F854001D46144606F074
:106B8000BDFA214607464046FFF731FFC8F1010331
:106B90005D191C4B06461B687869D7F80CB0D3F812
:106BA00000A048B306F0AAFA0C9AC4F101039B189E
:106BB0000093414622462B4609F06BFB1CE099F8F6
:106BC000103013F0010F0DD03B681B699B6898478C
:106BD00032462B461168013B80EA010142F8041B52
:106BE000F8D107E0002D05DD2B463246013B42F887
:106BF00004ABFBD15E4401340C9B9C42DFDDBDE85D
:106C0000FE8F00BF6C010010C05D001007B5009240
:106C1000FFF7ACFF0EBD2DE9F04F864C93B00A9004
:106C2000606D0E4605929A461F9D219F06F066FAFA
:106C30000D90406908B106F061FA04460D9820995C
:106C4000C0688E190C90079664B17A4A137C13F0D1
:106C5000020F07D11C9B204600933146059A5346EC
:106C600009F017FB07980599FFF7C1FE06461D9826
:106C7000172858DD4FEA8A01002208910492B34692
:106C8000CDF818A04AE02E4654B1A368DDF814E010
:106C90005F68049B204603EB0E020799069BB847EA
:106CA0000A980369DB682BB158462946089A0DF00B
:106CB000B4F82CE0DDF818A05F46A1463346002466
:106CC00053F8042B120E01D07CB102E00134A2452E
:106CD000F6D14FEA84083846314642460DF09DF819
:106CE00047444644C4EB0A0A0DE03068020EFF2A0E
:106CF00005D0D2433968D2B202F05EFC3860043766
:106D000004360AF1FF3ABAF1000FD7D14C46049B82
:106D10001E990C9A01336D189344049304991C989E
:106D20008142B0DB30E31D9A102A38D14FF00008C1
:106D3000374630E0059B0A9843441030069308908C
:106D400034B1A36820465E680799069A5346B04757
:106D5000079EB946C346CDF810A0B8462F460899FD
:106D600037F8020B0B685B68984749F8040B2CB1A5
:106D7000A36820461B683146069A9847049A013A50
:106D8000049201D00136EAE71E9B0C984746ED18A5
:106D90003F180BF101081C998845CBDBF4E21D9AE2
:106DA000082A75D10023DDF8148005936BE0002FCD
:106DB00031D02048037C13F0030302D0022B59D1B9
:106DC0000BE029463246534611F8010B013B57F8B8
:106DD000200042F8040BF7D14CE0DDF81CB0B146BE
:106DE0000696CDF810A02E4615F8013B53B157F882
:106DF0002330C9F800302CB1A36820461B685946DF
:106E00004246984704990139049131D00BF1010BA6
:106E100009F10409E8E7074A137C13F0030302D0E1
:106E2000022B27D108E03046294652460CF0F5FFE8
:106E300020E000BFC05D0010DDF81CB0B146069632
:106E4000CDF810A02E4615F8013B43B1C9F800302B
:106E50002CB1A36820461B68594642469847049BBC
:106E6000013B049304D00BF1010B09F10409EAE79B
:106E70003546069E059A1E980C9901322D187618F3
:106E8000059208F1010805981C9B98428FDB7BE274
:106E9000A74B2099209A002F08BF1F464900920057
:106EA00000230F9110920A93CDF818A067E21D9865
:106EB000022800F0B280042800F06D81012840F023
:106EC00054822B789B4A9C4812F80380037C2099BB
:106ED00003F00303022BDDF81890C1F1080B48FA08
:106EE00001F825D0032B6DD0012B6BD029463346FA
:106EF000A446D94538BFCB46CBEB09095A461846BC
:106F000008F0010457F82440013A40F8044B4FEAD6
:106F10005808F5D103EB8B03B9F1000F00F01A828A
:106F200011F8012F83484FF0080B10F80280E0E7BA
:106F30007968DDF81CC02B463A4609956746354608
:106F4000B4460B9146469A469046D94538BFCB4643
:106F5000CBEB0909D4B11EB905EB8B055F4424E0E6
:106F600016F0010F0BD0A368059A1B682046CDF8D8
:106F70000CC0394698470B9ADDF80CC02A600137DF
:106F80000435BBF1010B10D07608E4E716B905EB28
:106F90008B050AE016F0010F1CBF0B9B2B6004351C
:106FA000BBF1010B01D07608F0E7B9F1000F00F05A
:106FB000D38109985F4910F8013F4FF0080B099001
:106FC000CE5CC2E70D9A13681B699B6898473346ED
:106FD00082462846D94538BFCB46CBEB0909DC466B
:106FE000002218F0010F03D0995881EA0A01995044
:106FF0000432BCF1010C02D04FEA5808F1E703EB70
:107000008B03B9F1000F00F0B08110F8012F49494E
:107010004FF0080B11F80280DCE70F9B95F8009009
:10702000454809FA03F9037C209A03F00303C2F1EF
:107030000408012B5FFA88F85FFA89F97ED0022BE9
:107040002DD0002B40F09181069BA44632462C4661
:10705000AA469845C8BF5FFA83F8C8EB03034146C8
:1070600010464FEA991557F8255001394FEA89091A
:10707000C9B240F8045B5FFA89F90029F1D108F13F
:10708000FF385FFA88F808F1010802EB8802002B4C
:1070900000F0668114F8019F4FF00408D9E70799C2
:1070A000DDF818A00E950B9609911196AC46D045C7
:1070B000C8BF5FFA8AF80B9EDDF824B0C8EB0A0A55
:1070C000454619F0C00F0FD04FEA991357F82330F7
:1070D00033604CB1A36820461B685946CDF80CC0FC
:1070E000059A9847DDF80CC0013DEDB204360BF16E
:1070F000010B25B14FEA89095FFA89F9E1E708F147
:10710000FF380B9A099B5FFA88F808F1010802EB37
:10711000880243440B920993BAF1000F00F02381D7
:107120000E984FF0040810F8019F0E90BFE700BFC3
:107130006C720100449C0100C05D0010069BAC46CF
:1071400032469845C8BF5FFA83F8C8EB0303404650
:10715000002119F0C00F05D052F801A08AF0FF0AF3
:1071600042F801A00138C0B2043120B14FEA8909C8
:107170005FFA89F9EDE708F1FF385FFA88F808F15E
:10718000010802EB8802002B00F0EF801CF8019F41
:107190004FF00408D5E795F8008010997C4A08FA6A
:1071A00001F8137C5FFA88F803F00303012B00F069
:1071B000A480022B38D0002B40F0D780209B6BB1ED
:1071C0004FEA181857F828203346069843F8042B3E
:1071D00005F10109421E95F8018002E0069A334646
:1071E000A946012A17DD4FEA620C604602F001024F
:1071F00019469A464FEA181357F8233008F00F083B
:107200000B6057F828304B600831013819F8018FAE
:10721000F0D10AEBCC03002A00F0A7804FEA18183F
:1072200057F828201A60A0E02099D1B118F0F00F8B
:107230000BD04FEA181857F8283033602CB1A368E8
:1072400020461B680799059A9847069B079A03F101
:10725000FF3B06F1040902F1010A6B1C95F801805D
:1072600005E0DDF818B0DDF81CA0B1462B46099307
:107270002B464D46B1461E4625E018F0F00F0BD0C8
:107280004FEA181357F823302B602CB1A36820461F
:107290001B685146059A984718F00F080AD057F80E
:1072A00028306B6034B1A36820461B680AF10101E5
:1072B000059A98470998083510F8018F0AF1020AD3
:1072C000ABF1020B0990BBF1010FD6DC33464E4601
:1072D000A9461D46BBF1000F47D05FEA181844D0FD
:1072E00057F82830C9F80030002C3ED0A36820465B
:1072F0001B685146059A984737E02099069AC1F1D4
:107300000203DBB2A94631469342C8BFD3B2D21AB8
:107310009C46002018F0C00F05D051F800A08AF05C
:10732000FF0A41F800A00CF1FF3C5FFA8CFC04302E
:10733000BCF1000F04D04FEA08185FFA88F8E9E7BB
:10734000013BDBB2013301EB830172B119F8018F0C
:107350000223D9E7644608E066465546474604E0FE
:107360006446554601E0119E65460A9805991E9AA5
:107370000C9B01300131AD18F6180A9005910A9B5B
:107380001C9A9342FFF693AD13B0BDE8F08F00BF97
:10739000C05D001070B50C461646054605F0AEFE01
:1073A00003681621DB6800205B6A9847034618B122
:1073B000284621463246984770BD2DE9F04F394F97
:1073C00085B082468B4616461D460F9810990022BE
:1073D0007B7C04F057FC044600285DD003699B6861
:1073E000984701F010FC06FB00F8814605F0E2FE2C
:1073F0000E9A08F1070812F001074FEAD80805D1E4
:107400000028B8BF0330801000EB4000002D06DCE0
:1074100018386D42B0FBF8F0A842B8BF054647B92E
:107420005046594632462B46009708F0F7FE039027
:1074300001E000230393002D04DC204604F020FC2F
:1074400000272AE008FB05F0183017B105F0F2FD1F
:1074500001E005F06DFB074640B9204604F010FC42
:10746000039AD2B1104605F0E9FE16E005F046FE9B
:10747000039B109A0460A0F804A0A0F806B006814F
:107480004581C0F80C80C0F8109043612261054A24
:10749000A760537CA36100E00746384605B0BDE80D
:1074A000F08F00BFC05D001010B548B105F026FE9A
:1074B00003681B699B689847BDE8104001F0A3BBB7
:1074C00010BD70B50446A8B10B4B5B6D834201D172
:1074D00003F012FC204605F011FE0546406908B194
:1074E00008F0C8FE286804F0CBFB2046BDE87040D9
:1074F00005F0A4BE70BD00BFC05D0010F0B51E4613
:10750000134B0546587C87B003EB8003DB6C0C46BD
:107510001746DA681268042A05D01B68002BF8D1D8
:1075200004F09CFB0346DA681846D26A01210593F1
:107530009047059B50B10C9A019000921B69284618
:10754000029321463A463346FFF737FF07B0F0BDB6
:10755000C05D001013B500240094FFF7CFFF1CBDE1
:10756000F8B5114E0446756D10B903F0C5FB19E06E
:107570000DB103F0C1FB204605F0C0FD0746FBF747
:10758000EFFE736D33B9094BA3F1500292E803008B
:1075900083E803003868746504F0B2FB00F09EFED7
:1075A00001F02AFF2846F8BDC05D0010185E0010EB
:1075B0002DE9F7430C4615460646002839D0002031
:1075C00002F0BAFD1C4B07463046D3F8548005F054
:1075D00095FD814603F090FB184BB9F808209C42BA
:1075E00004BFB9F90440B9F90650A3B2013AADF8A5
:1075F0000030D318B9F80A20ADF80430013AABB224
:10760000ADF80230D318ADF80630FBF7A1FE68469E
:10761000FBF7FCFC38B1304621462A4608F04AF90F
:10762000FBF742FCF6E74046FFF79AFF384602F0C8
:1076300083FDBDE8FE8300BFC05D001001F0FFFFC9
:1076400001490A46B4E700BF01F0FFFF2DE9F3410D
:10765000DDF820800D4614461E46C0B105F05AFDE7
:10766000476905F05FFD97B1384605F053FDC4F159
:1076700001024244C5F101030092294622469B19AA
:1076800008F007FE02B0BDE8F04105F04BBD02B0C6
:10769000BDE8F081836800220A804A805A699B69AC
:1076A000013A013B8A80CB80704710B58068C4697D
:1076B000006804FB021220F8123010BD8368D869FC
:1076C0001B6800FB021233F8120070472DE9F041ED
:1076D00004460E461546FFF7F1FF236907469B68EF
:1076E0009847314680EA07032A462046BDE8F04124
:1076F000DBE7F8B51F462E4B06461B7C0C4613F005
:10770000010F154609D005E0214630462A46FFF70D
:10771000DDFF0134BC42F7DDF8BD264B62081B6873
:107720003F1B1868B368D969491001FB05251A6821
:1077300014F0010F02EB850301D1013706E032F8A6
:107740002510043341EA004142F8251001040F2FAF
:10775000014415DDA7F110052C461A461160516051
:107760009160D160116151619161D1612032103C11
:10777000F4D5103F3A09170101325201EF1B9B1853
:10778000012F0DDD3A461C46023A012A44F8041B3B
:10779000FADC023F7A08511C520003EB8103BF1A46
:1077A000012F04D15A8880B240EA02401860F8BD27
:1077B000C05D00106C0100102DE9F0411F46114B17
:1077C00005461B7C0E4613F0010F14460AD005E057
:1077D000224628463146FFF779FF0134BC42F7DDE7
:1077E000BDE8F081084B1B68D3F8008006E0224614
:1077F000284631464346FFF758FF0134BC42F6DDC8
:10780000BDE8F081C05D00106C0100102DE9F74368
:10781000054680680F46066B14469846DDF82890AA
:107820007EB10A48CDF80090006800680190A86910
:10783000B04708E02246284639464346FFF759FF3D
:1078400001344C45F6DDBDE8FE8300BF6C0100103D
:10785000013983680D2914D8DFE801F0090B0D0FF9
:107860001313130716111116161610207047D86837
:1078700070471869704758697047986970470120C8
:1078800070474FF0FF3070470020704702480129D1
:1078900018BF0020704700BFAC9F01002DE9F047E2
:1078A0008668089CF56909984FEA450805FB0215AA
:1078B000D6F800906D00C1F1010C9C440746664665
:1078C000C0EB090ABA443AF805A0013E27F802AB1A
:1078D000F6D1A24200EB4C00454401DA0132EAE75E
:1078E000BDE8F0870139202938D8DFE801F0351BE1
:1078F0001719371D37371113151F3721233737371E
:107900002527292F37372B3737373737372D310092
:10791000134870471348704713487047134870471F
:10792000134870471348704713487047134870470F
:1079300013487047134870471348704713487047FF
:1079400013487047134870471348704713487047EF
:1079500003689B68D86B70471148704700207047D8
:10796000B17B0000697C0000297C0000857B000061
:10797000DF7A00005F7B0000397B00001F7B000086
:10798000E5790000DB790000C9790000B7790000D3
:10799000A5790000D97B0000FB7A0000A77A0000DF
:1079A0009D78000007B58069009101920D216A461B
:1079B000F9F780FA0EBD07B502AA42F8041D8069E6
:1079C0000C21F9F777FA0EBD07B502AA42F8041D9B
:1079D00080690B21F9F76EFA0EBD8069062100223D
:1079E000F9F768BA806905210022F9F763BA2DE931
:1079F000F74300230446866880690D4617460093C6
:107A0000019301F032F88046A06901F030F8814618
:107A1000A06901F02EF8800040EA490949EA080807
:107A2000B8F1070F26D8DFE808F008040F0B191586
:107A30001F1B7269F368D31A5D1B0095019719E04B
:107A40007269F368D31A5D1BB26933690095D31A62
:107A5000DF1BF3E7B2693369D31ADF1B009708E035
:107A6000B2693369D31ADF1B7269F3680097D31ABE
:107A70005D1B0195A06903216A46F9F71BFABDE871
:107A8000FE8338B5056804463DB9402005F084FA08
:107A900029462060402201F0FDFD2068D0F1010060
:107AA00038BF002038BD70B5044608300D46164674
:107AB000FFF7E7FFA3688BB1173D0A2D0ED8DFE86B
:107AC00005F0080A060D0D0D0D0D0D0D0C005E6381
:107AD00070BD1E6370BD9E6370BDDE6370BD70B50A
:107AE000044608300D461646FFF7CBFFA3681BB1CE
:107AF0001A6A2A605B6A336070BD37B5002304469A
:107B0000083001930D46FFF7BCFFA36833B102AA0A
:107B100042F8045DA0690E21F9F7CCF93EBD38B5F5
:107B200005460830FFF7ADFF012104460022A86991
:107B3000F9F7C0F9204338BD37B5002304460830B3
:107B400001930D46FFF79DFFA3683BB102AADD62DA
:107B500042F8045DA0690921F9F7ACF93EBD37B5DB
:107B600000230446083001930D46FFF78AFFA368FF
:107B70003BB102AA9D6242F8045DA0690A21F9F7AF
:107B800099F93EBD73B50023044608300093019374
:107B90000D461646FFF775FFA36843B11D625E628E
:107BA000A06908216A4600950196F9F783F97CBD22
:107BB00037B500230446083001930D46FFF761FFF7
:107BC000A36843B102AA1D605D6042F8045DA0692C
:107BD0000221F9F76FF93EBD2DE9F0410546083065
:107BE0000E469046FFF74DFFAC68DCB1464519D014
:107BF000EB6808219B6A284698472369E268616818
:107C00005A434243636BD21008FB021723B1A869A1
:107C100031464246984704E0384606FB02110CF014
:107C2000FCF82760BDE8F081F7B500230446083072
:107C30000D46174600930193FFF723FFA66896B100
:107C4000F3693BB9A06900F014FF00280CBF284677
:107C50003846F061F5603761A06907216A460095F2
:107C60000197F9F727F9FEBDF8B5044608300D462F
:107C70001746FFF706FFA66856B1A06900F0F9FEA7
:107C800018B17561B761F761F8BD7561B761F561EC
:107C9000F8BD2DE9F04F89B01E46139B0746013B06
:107CA00006910792159CDDF85890179D0F2B00F256
:107CB0001283DFE813F01E001800100312001003F7
:107CC000100310031000100310031003100310031F
:107CD0001003100322000020DFE20021BB460391C5
:107CE000B0462F463EE20022BB460392B0462F46E6
:107CF00063E14FF0000B2B4690E076000025E7E2B1
:107D00005868BD680699DDF81CA0D3F800C0039040
:107D1000E86909EB01020BEB0A0100FB0121227863
:107D2000A948C9F1080A10F80280A84A48FA09F8D7
:107D3000127C02F00302022A24D0032A40D0012A36
:107D40003ED02A682046023A02EB410104933246B3
:107D5000039D08F00103002B08BF6546BAF1010A34
:107D600021F8025F02D04FEA580807E0DFF858A276
:107D700010F8015F1AF805804FF0080A013AE7D1C0
:107D8000049B47E0490032462046029318F0010F59
:107D900004D0039BD5F800C021F80C30BAF1010AD9
:107DA00002D04FEA580807E0DFF81CA210F801CF14
:107DB0001AF80C804FF0080A0231013AE6D128E0A7
:107DC0003A6992680191009390470199009B049051
:107DD000490032462046029318F0010F08D02B6864
:107DE00031F803C0049B8CEA030C2B6821F803C014
:107DF000BAF1010A02D04FEA580807E0DFF8C8A13B
:107E000010F801CF1AF80C804FF0080A0231013A3D
:107E1000E2D1029B14980BF1010B241812998B45A7
:107E2000FFF66EAF57E2079B039ADDF818A0D21851
:107E3000664B04921B7C267813F0030309EB0A05BA
:107E400003D0022B40F0B1805CE067B3C4460294DB
:107E50002946CA464546A046644600E06146CAF146
:107E600003025200C020C2F1060350FA03F333406C
:107E7000D34001F1010C57F823305846049A0AF117
:107E8000010ACDF804C0FFF710FCBAF1040FDDF8C9
:107E900004C005D10298AAF1040A10F8016F0290FB
:107EA000013CDBD12BE0C44602942946CA46454634
:107EB000A046644600E06146CAF1030E4FEA4E0E4A
:107EC000C022CEF1060352FA03F3334001F1010C54
:107ED0005846049A23FA0EF30AF1010ACDF804C0B9
:107EE000FFF7E3FBBAF1040FDDF804C005D10299F6
:107EF000AAF1040A11F8016F0291013CDBD144465A
:107F0000A84652E03FB9C4460294CDF81480CA4650
:107F1000A046644627E0C4460294CDF81480CA46C1
:107F2000A0466446CAF103025200C021C2F1060312
:107F300051FA03F33340D34006D058462946049AF9
:107F400057F82330FFF7B1FB0AF1010ABAF1040F29
:107F500005D1029AAAF1040A12F8016F0292013CBB
:107F600020D00135DEE7CAF103025200C021C2F180
:107F7000060351FA03F33340D34004D05846294650
:107F8000049AFFF792FB0AF1010ABAF1040F05D136
:107F9000029BAAF1040A13F8016F0293013C01D07D
:107FA0000135E0E74446DDF81480DDF80CA0149DAF
:107FB0000AF1010A6419CDF80CA0039912988142C4
:107FC000FFF631AF87E100BF449C0100C05D0010A7
:107FD000079B039ADDF818A0D218B24B04921B7CC1
:107FE000267813F0030309EB0A0503D0022B40F0B7
:107FF000B1805CE067B3C44602942946CA46454650
:10800000A046644600E06146CAF101029200F020F9
:10801000C2F1040350FA03F33340D34001F1010CE1
:1080200057F823305846049A0AF1010ACDF804C0E3
:10803000FFF73BFBBAF1020FDDF804C005D102984F
:10804000AAF1020A10F8016F0290013CDBD12BE08B
:10805000C44602942946CA464546A046644600E006
:108060006146CAF1010E4FEA8E0EF022CEF10403F2
:1080700052FA03F3334001F1010C5846049A23FAF3
:108080000EF30AF1010ACDF804C0FFF70EFBBAF1B6
:10809000020FDDF804C005D10299AAF1020A11F815
:1080A000016F0291013CDBD14446A84652E03FB942
:1080B000C4460294CDF81480CA46A046644627E020
:1080C000C4460294CDF81480CA46A0466446CAF15C
:1080D00001029200F021C2F1040351FA03F333408C
:1080E000D34006D058462946049A57F82330FFF764
:1080F000DCFA0AF1010ABAF1020F05D1029AAAF1DB
:10810000020A12F8016F0292013C20D00135DEE72D
:10811000CAF101029200F021C2F1040351FA03F303
:108120003340D34004D058462946049AFFF7BDFA9D
:108130000AF1010ABAF1020F05D1029BAAF1020A63
:1081400013F8016F0293013C01D00135E0E744468A
:10815000DDF81480DDF80CA0149D0AF1010A641901
:10816000CDF80CA0039912988142FFF631AFB2E02E
:10817000002D00F08F80BA68DDF81CA0D169DDF811
:1081800018C000EB0A0301FB03C3126802EB4303B0
:10819000444A127C12F0030205D0022A7AD1A44686
:1081A0003146023A74E02246314630E012F808CCFB
:1081B000083935F82CC023F810CC12F807CC35F864
:1081C0002CC023F80ECC12F806CC35F82CC023F8BE
:1081D0000CCC12F805CC35F82CC023F80ACC12F8D8
:1081E00004CC35F82CC023F808CC12F803CC35F8B1
:1081F0002CC023F806CC12F802CC35F82CC023F89A
:1082000004CC12F801CC35F82CC023F802CC9C46E3
:108210009046103308320729C8DC4346624618E00E
:1082200013F804CC043935F82CC022F808CC13F824
:1082300003CC35F82CC022F806CC13F802CC35F864
:108240002CC022F804CC13F801CC35F82CC022F84D
:1082500002CC984604330329944602F10802DFDC7D
:108260004346624606E013F801CB013935F82CC0CD
:1082700022F802CB0029F6D10CE01CF8018BB8F1F2
:10828000000F03D035F8288022F80380013902322C
:108290000029F2DC149901306418129A9042FFF61A
:1082A00067AF18E0C05D0010BB68DDF81CA0D8699E
:1082B000DDF818C005EB0A0200FB02C01B6821466E
:1082C00003EB400032460BF0A8FD1498013524184A
:1082D00012998D42E8DB09B0BDE8F08F10B5064C6D
:1082E000206B01F0CFF801F0E5F8606B01F0CAF8FF
:1082F000BDE8104001F0FCB8C05D001037B5084C77
:108300000546637C694604EB8303D86CC3681B6B2A
:10831000984704F1080029466A4601F033FA3EBD49
:10832000C05D001013B50C4603F098FC019058B1E5
:10833000C36802215B6A01A89847034620B10198EF
:1083400021469847002000E001201CBD13B50C46D3
:1083500003F084FC019058B1C36809215B6A01A84D
:108360009847034620B1019821469847002000E035
:1083700001201CBD37B50C46154603F06FFC01907B
:1083800060B1C3680A215B6A01A89847034628B117
:10839000019821462A469847002000E001203EBD72
:1083A00037B50C46154603F059FC019060B1C3681F
:1083B0000B215B6A01A89847034628B10198214622
:1083C0002A469847002000E001203EBD13B50C4628
:1083D00003F044FC019058B1C36806215B6A01A810
:1083E0009847034620B1019821469847002000E0B5
:1083F00001201CBD37B50C46154603F02FFC01903B
:1084000060B1C36803215B6A01A89847034628B19D
:10841000019821462A469847002000E001203EBDF1
:1084200013B50C4603F01AFC019058B1C368132130
:108430005B6A01A89847034620B1019821469847F6
:10844000002000E001201CBD13B50C4603F006FC23
:10845000019058B1C36814215B6A01A8984703468C
:1084600020B1019821469847002000E001201CBD62
:1084700037B50C46154603F0F1FB019060B1C368B7
:1084800015215B6A01A89847034628B10198214647
:108490002A469847002000E001203EBD37B50C4633
:1084A000154603F0DBFB019060B1C36810215B6AE5
:1084B00001A89847034628B1019821462A469847C3
:1084C000002000E001203EBD37B50C46154603F004
:1084D000C5FB019060B1C36804215B6A01A898479D
:1084E000034628B1019821462A469847002000E01B
:1084F00001203EBD014B0146587C13E7C05D0010D2
:10850000014B0146587C21E7C05D00100A46024934
:108510000346487C19462DE7C05D00100A46024913
:108520000346487C19463BE7C05D0010014B0146FD
:10853000587C4BE7C05D00100A4602490346487C60
:10854000194657E7C05D0010014B0146587C67E7AC
:10855000C05D0010014B0146587C75E7C05D0010FE
:108560000A4602490346487C194681E7C05D00106F
:108570000A4602490346487C19468FE7C05D001051
:108580000A4602490346487C19469DE7C05D001033
:1085900037B50C46154603F061FB019060B1C36826
:1085A00016215B6A01A89847034628B10198214625
:1085B0002A469847002000E001203EBD034B1A7C6C
:1085C000034B02F0030253F822007047C05D001015
:1085D000249C0100438810B5B0F90640B0F904109E
:1085E0000288E41A14198A1A9B188480C38010BD6B
:1085F00073B50023044668460D4600930193F9F7CE
:1086000015FE00F038FA00F03BFABDF90630296893
:108610000138BDF9002083420A44C8BFADF8060006
:1086200023682260BDF90620D31A2B60094B266807
:10863000B3F90010B3F90200B3F90630081A301884
:108640005918BDF902302060C9182B688A1A9A1887
:108650002A607CBDA05D00102DE9F04F93B00B9017
:108660000A9101380139C9188018109111900AA98E
:108670000BA890460493209CFFF7BAFF10A911A8FD
:10868000FFF7B6FF1C99012940F064811D9A012A69
:1086900040F06081A74E119AB6F90C309A4203DD82
:1086A000049FD31AFF1A04970B9AB6F908309A421E
:1086B00008DA9B1A1F999A180B9203FB0144049A3B
:1086C000D21A0492B6F90A50109BB6F90E20AB42AA
:1086D000B8BFC3EB05050A9BB4BFC5EB080800256E
:1086E00093420DDD1E9F9D1A012FC5EB080807D18F
:1086F00025F007029B1A04EBE5040A9305F0070531
:10870000B8F1000F40F383810499002940F37F8181
:108710000A9A0023DDF82CA0079206930395C14620
:108720001E9F022F00F09D80042F00F0D180012FAA
:1087300040F00581079B039F2199219AC7EB03080D
:10874000337C0968526803F00303012B0592029100
:10875000784A4DD0022B01D03BB1F0E0CDF8089023
:10876000DDF80CB02546274622E0039DA346089479
:108770004C46737C9BF8002006EB8303D86C059F66
:10878000C3685146D3F818C080232B411A42029B7C
:10879000424618BF3B460135E047082D04BF0BF1A8
:1087A000010B083D013C00F0C38008F1FF38E0E711
:1087B000802343FA0BF32A781A4209D0737C51467E
:1087C00006EB8303D86C4246C3689C69059BA047AF
:1087D0000BF1010BBBF1080F02D10135ABF1080B16
:1087E00002990139029100F0A98008F1FF38DFE712
:1087F000537C254602EB8302D36C27461B699B689A
:108800009847DDF80CB00590CDF80890802343FA26
:108810000BF32A781A4215D0737C514606EB83037A
:10882000D86C4246C3685B699847737C059C06EB2D
:108830008303DA6C80EA0403D16810468C694246EF
:108840005146A0470BF1010BBBF1080F02D10135D6
:10885000ABF1080B0299013902916FD008F1FF3892
:10886000D4E7354B0CAD0FCB85E80F00039B079A7F
:1088700094F800B0C3EB0208FFF7A0FE4B46039D3F
:108880002746CC460290A1461C46C5F1030149008B
:10889000C020C1F1060250FA02F202EA0B02CA40FD
:1088A00012A901EB820212F8182C4146CDF804C03F
:1088B00001355046029B9847042D04BF17F801BFAD
:1088C000043D013C08F1FF38DDF804C0DDD12CE0A7
:1088D000079F039994F800B0C1EB0708FFF76EFEFD
:1088E0004B46039D2746CC460290A1461C46C5F147
:1088F00001018900F020C1F1040250FA02F202EAFB
:108900000B02CA40CDF804C0414601355046D2B2F0
:10891000029B9847022D04BF17F801BF023D013C9E
:1089200008F1FF38DDF804C0E1D14C46E14606E02D
:10893000089C04E0C05D0010349C01003C46069F8A
:10894000049901378F4206970AF1010A5FDA1F9AEC
:10895000A418E5E61E9B4FF00009C3F10803089335
:108960000B9FCA4650E01D992A4B79184A1E079260
:108970000291B3F908200799914240DBB3F90C301A
:108980009F423CDC00250A9E0694AB4635E025B9A3
:10899000069A083512F801AB069208991E9A4AFA0F
:1089A00001F30AFA02FADBB25FFA8AFAAD1A23B9C6
:1089B00018490A7C12F0020F1BD1DFF85CC0DCF80A
:1089C000002011680991219909B151F823301360F1
:1089D0001C9A3346C2F1010189193846079ACDF82D
:1089E00004C000F00BFBDDF804C00999DCF800308E
:1089F00019601C9A0BF1010BB61AC345C7DB1F9B0C
:108A0000029F09F10109E41804998945ABDB13B011
:108A1000BDE8F08FC05D00106C010010002810B59B
:108A20000C4607DC03F01AF930B1C36821469B6A93
:108A3000984710BD002010BD10BD014608B50020AC
:108A4000FFF7ECFF20EAE07008BD0121E6E7022114
:108A5000E4E70321E2E70421E0E70821DEE709215A
:108A6000DCE70A21DAE70B21D8E70C21D6E70D2154
:108A7000D4E70E21D2E7014B587CE6E7C05D001039
:108A8000014B587CE3E700BFC05D0010014B587CF0
:108A9000DFE700BFC05D0010014B587CDBE700BF83
:108AA000C05D0010014B587CD7E700BFC05D0010CF
:108AB000014B587CD3E700BFC05D0010014B587CD0
:108AC000CFE700BFC05D0010014B587CCBE700BF73
:108AD000C05D0010014B587CC7E700BFC05D0010AF
:108AE000014B587CC3E700BFC05D0010014B587CB0
:108AF000BFE700BFC05D001008B5044B082103EBC1
:108B00008003D86CC3689B6A984708BDC05D00109D
:108B100008B503F0A3F820B1C3680221DB6A9847C7
:108B200008BD08BD014B587CF2E700BFC05D0010D6
:108B300008B503F093F808B10369586808BD034B02
:108B400003EB8003DB6C1B6958687047C05D001045
:108B500008B503F083F808B10369186808BD034B32
:108B600003EB8003DB6C1B6918687047C05D001065
:108B7000012062E7022060E703205EE704205CE753
:108B800008205AE700283DD030F001032BD030F008
:108B900003032AD030F0070329D030F00F0328D088
:108BA00030F01F0327D030F0FF0326D020F4FE73EF
:108BB00023F00303002B22D020F47E6323F01F0355
:108BC000002B1CD020F4FE4323F0FF03BBB1030CA9
:108BD0001B04A3B1830C9B049BB110F07F4F0CBF0F
:108BE0001820202070470120704702207047032082
:108BF00070470420704705207047082070471020F8
:108C000070471220704708B5FFF7BCFF01280FD04E
:108C1000831E062B09D9A0F10903072B07D91138A8
:108C20000F2894BF2020002008BD082008BD102078
:108C300008BD00BF2DE9F041C8B185689DB1D0F8ED
:108C40000080B8F5807F11DC0024264605E0285915
:108C500000F018FC0136385104344645054FF6DB68
:108C60003846BDE8F0812846BDE8F0810020BDE827
:108C7000F08100BFA0590010DCE72DE9F04708F0B3
:108C800071F8194E0746002429E0204602F0E6FF5D
:108C900018B3204602F03AF880462046FFF7DDFE82
:108CA000082817DCF36C1A69104B9A4212D0204640
:108CB000FFF7D5FE002581460AE05FFA85FA5046A7
:108CC00000F0ECFB514602462046FFF7E7FB01357A
:108CD0004D45F2DB404602F019F801340436BC423F
:108CE000D3DBBDE8F08700BFC05D0010109E01001F
:108CF00008B511235A43D2B200F05EFC20F07F4049
:108D000008BD2DE9F04106460D461746002A3BD026
:108D10001E4CB4F90A30994236DBB4F90E30994250
:108D200032DCB4F9083098422EDBB4F90C309842AA
:108D30002ADC0E2A164B0CD9627C1B6804EB8204D9
:108D4000E06C3146C2681B6894692A46A047BDE8BA
:108D5000F0811B68186800F0A1FB29468046304668
:108D600007F0CCFF3A4601464046FFF7C1FF637C5F
:108D700004EB8304E76CFB689C6900F083FB3146DD
:108D800003462A463846A047BDE8F081C05D001082
:108D90006C0100102DE9F04106460D461746002AE9
:108DA0003BD01F4CB4F90A30994236DBB4F90E308F
:108DB000994232DCB4F9083098422EDBB4F90C3019
:108DC00098422ADC07F09AFF164B80461B68186809
:108DD00000F064FB00F47F0200F0FF0100F47F402C
:108DE0007A43794347430F23B2FBF3F2B1FBF3F12C
:108DF000B7FBF3F381EA0303617C83EA080804EB21
:108E00008104E76C88EA0200F9688C6900F03AFB9B
:108E1000314603462A463846A047BDE8F08100BFE8
:108E2000C05D00106C0100102DE9F041244C064695
:108E3000B4F90A300D46994217463EDBB4F90E30BC
:108E400099423ADCB4F90830984236DBB4F90C3078
:108E5000984232DC32B9637C04EB8304E06C194B3A
:108E6000C26807E00F2A184B0CD1627C04EB820425
:108E7000E06CC2681B68946931462A461B68A047AB
:108E8000BDE8F0811B68186800F008FB0D4B8046B8
:108E90001B68186800F002FB3A4601464046FFF79F
:108EA00027FF00F0EFFA627C034604EB8204E06CDB
:108EB0003146C26894692A46A047BDE8F08100BFE8
:108EC000C05D0010680100106C01001070B5094A07
:108ED000137C144680EA030111F0040F07D0064A00
:108EE0001168064A0D68126816680E6015602074D5
:108EF000184670BDC05D0010680100106C010010C4
:108F000008B5024B1B689B68984708BD74010010A8
:108F100038B5154B0A46B3F90A1005468A4222DBDA
:108F2000B3F90E108A421EDCB3F9081088421ADB2E
:108F3000B3F90C10884216DC197C11F0010F597C32
:108F400007D003EB8103D86C2946C368DB699847D7
:108F500038BD03EB8103D86C044BC1681B688C6976
:108F60001B682946A04738BDC05D00106C01001089
:108F700038B50F4C0D46B4F90A30994217DBB4F9F5
:108F80000E30994213DCB4F90810B4F90C30884261
:108F9000A8BF01469A42B8BF13468B4207DB627CEA
:108FA00004EB8204E06CC26894682A46A04738BD8E
:108FB000C05D001038B505460F481446B0F90830BA
:108FC0009D4217DBB0F90C309D4213DCB0F90A204A
:108FD000B0F90E309142A8BF0A469C42B8BF234662
:108FE000934207DB417C00EB8100C06CC168CC6818
:108FF0002946A04738BD00BFC05D001073B5124EB2
:109000000C46B6F90C50B6F90810AA42B8BF15467E
:109010008842A8BF01468D4214DBB6F90A20B6F992
:109020000E009442A8BF22468342A8BF0346934243
:1090300008DB707C06EB8006F06CC4680093246942
:109040002B46A0477CBD00BFC05D00102DE9F04F4E
:10905000674F8FB03F6808900E46154607931C9CDB
:10906000DDF878C067B1189D199E009501960494AB
:109070001A9D1D9C1B9E0295039605943C6855E025
:109080001999189A41EA0203012B51D15948B0F9B4
:109090000A20911B002908DD079F7B1A002B40F353
:1090A000A3801B9F01FB074401E0079B3246B0F9F8
:1090B0000E10C9438E1907997618002E03DD9B1BED
:1090C000002B40F39180B0F90C10089E089F711A94
:1090D000013949190029C8BFC1EB0505CCEB0701CF
:1090E000B0F90870B9420EDA0CEB0706761ACCEB31
:1090F000060CCF1B2CF0070C04EBE604ED196144C1
:1091000006F0070600E06646002D6DDD477C00EBAB
:109110008700C06CC76800931A9B039401931D9C41
:109120001B9B0496029305947C682B46A0475BE04A
:109130001A99B346C1F108010C91B946BA46A8463E
:109140004FE0199A5A44531E0B932A4B0A920B9DD7
:10915000B3F90A2095423EDBB3F90E309B453ADC69
:1091600000260994089D374633E027B9099F17F870
:1091700001AB099708270C991A9A4AFA01F30AFADF
:1091800002FADBB25FFA8AFABF1A23B919490A7CDC
:1091900012F0020F1AD1DFF860C0DCF8002011686D
:1091A0000D911D9909B151F823301360189B594650
:1091B0005A1E28460B9B5219CDF818C0FFF71EFF08
:1091C000DDF818C00D99DCF800301960189A0136E6
:1091D000AD184645C9DB1B9BDDF828B009F1010934
:1091E000E418079DA945ACDB0FB0BDE8F08F00BFC8
:1091F000AC5D0010C05D00106C0100102DE9F04F57
:109200007A4F8FB03F6805468C46904608931A9E69
:109210001C9C5FB1189D04940095199D1D9C01959F
:109220001B9D0296039505943C687AE01999189A5B
:1092300041EA0203012B76D16D48B0F90A20CCEB4C
:109240000203002B08DD089FF91A002940F3CA80A9
:109250001B9F03FB074401E008996246B0F90E30FA
:10926000DB439C44089B9C44BCF1000F04DDCCEB29
:109270000101002940F3B680B0F90C30EB1A013B34
:109280004344002BC8BFC3EB0808B0F908309D4227
:1092900033DA5B1B082EC3EB080826D006DC022E4F
:1092A00013D0042E19D0012E28D106E0182E21D07B
:1092B000202E1FD0102E21D119E023F0070704EB38
:1092C000E304ED1903F0070318E023F0030704EBB0
:1092D000A304ED1903F0030310E023F0010704EBEE
:1092E0006304ED1903F0010308E0E41804E004EB63
:1092F000430401E004EB8304ED180023B8F1000FF0
:1093000070DD477C00EB8700C06CC7680091049358
:109310001B991D9B02910593019603947C68294635
:109320004346A0475EE0C6F10801CDF81CC00C9191
:10933000BB463D46C246844651E0079B199A9A189F
:109340002B4B571E0A92B3F90A200B97974240DB2A
:10935000B3F90E30079999423BDC4FF000080994AD
:109360006746C14633E0B9F1000F05D1099A09F10A
:10937000080912F8015B09920C99C6EB090955FA24
:1093800001F3B540DBB2EDB223B919490A7C12F002
:10939000020F18D117490A6811680D911D9909B17A
:1093A00051F823301360189B07995A1ED2190B9B52
:1093B0003846CDF818C0FFF721FE0E490D9A0B680C
:1093C000DDF818C01A60189B08F10108FF18D04595
:1093D000C9DB1B9F0A990BF1010BE4190791089A4D
:1093E0009345AADB0FB0BDE8F08F00BFAC5D001065
:1093F000C05D00106C01001008B505494B7C01EB05
:109400008303D86C0831C3681B6B984708BD00BF45
:10941000C05D001013B5FFF7EFFF002002F01EFC47
:10942000019040B1C3680C215B6A01A898470346CC
:1094300028B3019898470446FFF71FFC002002F06C
:109440000DFC0190E0B1002001F060FC0420FFF76A
:1094500057FD40F6FF72002001461346FFF7CEFD90
:109460000020FFF74DFD02A850F8043D0E21DB68F7
:109470005B6A9847034618B10198984700E00124B9
:1094800020461CBD08B5044B5A7C03EB8203DB6C01
:109490001B691B68984708BDC05D001008B5044BE8
:1094A0005A7C03EB8203DB6C1B695B68984708BD41
:1094B000C05D0010044B1B7C13F0040F14BF034B62
:1094C000034B1B6818607047C05D001068010010F6
:1094D0006C010010054B10B5196B814205D0186363
:1094E000FFF7D0FFBDE81040E4E710BDC05D0010FD
:1094F000044B1B7C13F0040F14BF034B034B1B687E
:1095000018607047C05D00106C0100106801001009
:10951000054B10B5596B814205D05863FFF7B2FF78
:10952000BDE81040E4E710BDC05D001008B5024B77
:109530001B685B68984708BD7401001008B5024BB2
:109540001B681B68984708BD7401001030B14FF0CC
:10955000FF330133C25C002AFBD101E04FF0FF333F
:1095600018467047F8B50768044638460D4607F0B8
:10957000B9FC00B32846FFF7E9FF461C384603F064
:1095800051FE864207D1384603F0B8FD29463246DF
:109590000AF043FC0DE0304603F04CFD064650B1A6
:1095A00003F0ACFD29460CF05FF9204603F066FE9F
:1095B00026600120F8BDF8BD01F07F43B3F17F4F75
:1095C000F0B52AD0D343DBB201F0FF055D4300F0D4
:1095D000FF0606FB025501F47F465E4300F47F441C
:1095E00004FB026601F47F045C43090E4B4300F464
:1095F0007F0707FB0244000E00FB02322D0A360AE9
:1096000005F0FF03240A06F47F401843120404F413
:109610007F03184302F07F421043F0BD2DE9F04173
:10962000144E9846B6F90A30054699420C4617463C
:109630001EDBB6F90E3099421ADCB6F908309842B2
:1096400016DBB6F90C30984212DC07F057FB3A46AD
:1096500001464046FFF7B0FFFFF714FF727C034658
:1096600006EB8206F06C2946C26896692246B0472E
:10967000BDE8F081C05D00100B8892B2D318038062
:109680008B889B1A83804B88D3184380CB889A1A87
:10969000C280704770B502E000F8011B013A12B1B8
:1096A00010F0030FF8D1930821D04FF0013402F0ED
:1096B00003024C4308E040F8104C40F80C4C40F8D2
:1096C000084C40F8044C043B032B054600F1100005
:1096D000F1DC28461E4602E045F8044B013B002B16
:1096E000FAD100EB860002E000F8011B013A002AE3
:1096F000FAD170BDF7B50C46E1B1012936D11D4D47
:109700002E68A6B902F0AAFA019000282FD0C368EB
:109710000D215B6A01A898470346002827D02146FF
:10972000019898472B68344601332B601FE00136BF
:109730002E601CE00F4F3D68012D0ED102F08EFA15
:10974000019060B1C3680D215B6A01A89847034688
:1097500028B101982146984702E0012400E02C46F8
:109760003B68002B18BF013B3B6000E00124204612
:10977000FEBD00BF9C550010014B0146587CB9E767
:10978000C05D001070B5B2F90030B1F90040B1F918
:1097900002509C42B8BF1C46B2F90230B1F90460D5
:1097A0009D42A8BF2B46B2F90450B1F90610AE4253
:1097B000B8BF3546B2F90620A4B2ADB29142B8BFE7
:1097C0000A460480858024B22DB29BB292B2A54293
:1097D0004380C28006DB10B21BB29842B4BF0020A7
:1097E000012070BD002070BD0B8810B5B0F900409D
:1097F0001AB29442B8BF03804B88B0F902401AB243
:109800009442B8BF43808B88B0F904401AB29442A6
:10981000C8BF8380CB88B0F906101AB29142C8BF86
:10982000C38010BD08B5024B1B6803B1984708BD43
:1098300078010010014B1860704700BFA055001060
:10984000014B1860704700BF78010010014B586051
:10985000704700BFA055001008B5024B1B6803B14C
:10986000984708BDA055001010B50A4C63684BB16D
:1098700000F05AFB48B100F05FFB30B163683BB1C8
:10988000984710BD00F050FB10B9BDE81040C9E783
:1098900010BD00BFA055001038B5002104460DF0E2
:1098A00075FA10B104F1004000E020460B490DF0BC
:1098B0009BF9002105460DF059FA60B900242846AD
:1098C00007490DF0BBF801340546E4B20DF004FA87
:1098D0000028F4D000E00024204638BD5F708930B5
:1098E0000000204110B5002104460DF04FFA58B198
:1098F00020464FF07C510DF001F90DF019FA0AF0F5
:1099000093FA0CF075FF10BD20464FF07C510DF01E
:109910006BF90DF00DFA0AF0FFFA0CF069FF10BDBB
:109920002DE9F0411F460F4B054653F822000C4627
:1099300016460DF0F5F9014628460DF07FF8FFF7C1
:10994000D1FF3FB10DF0AEF921463246BDE8F041FE
:1099500000F0C3B80DF0A6F921463246BDE8F0414B
:1099600000F0B0B8D09D01002DE9F0410D46002176
:10997000044616460DF0FAF9002841D12046002190
:109980000DF060FAE8B120464FF07E510DF0FEF97F
:10999000B8B12046FFF780FFA84205DC20464FF013
:1099A0007E510DF021F920E020464FF07C510DF062
:1099B00049FA08B13DB323E04DB34FF07E57002480
:1099C0002CE0204600210DF0E1F930B32046274974
:1099D0000DF0FAF908B32046FFF75EFFA84206DC57
:1099E00020464FF07E510DF089F8074616E02046DC
:1099F0004FF03F410DF006FA08B15DB100E05DB1F6
:109A00004FF07E570AE000274FF07E5406E0002713
:109A10003C4603E0154C00E000242746144B53F865
:109A200025000DF07DF9014638460DF007F8FFF7E7
:109A300059FF0DF037F903F037FC012EC5EB00009C
:109A400020EAE07705D1204600210DF0BDF900B1F4
:109A50000137002D0CBF2B466B1CDF192046F9B2D5
:109A60002A463346BDE8F0415AE700BF000080BFF8
:109A7000D09D0100002353E7002275E770B50E4624
:109A800004460DF00FF903F00FFC751E2D1A00218E
:109A900020460DF07BF928B1204607490DF094F9D6
:109AA00000B1013D25EAE57220463146D2B20023DD
:109AB000BDE8704034E700BF000080BF01232FE7FE
:109AC000012251E71FB504AB00AC43F8044D03F08D
:109AD0000DFC684602F030F81FBD7FB504AC00AB4A
:109AE00044F8043D0D462146164603F0F3FB0028DA
:109AF00001DD013DEDB229463246234603F0F6FB77
:109B0000684602F019F87FBD1FB504A900AB41F803
:109B1000043D03F035FC684602F00EF805B000BDC8
:109B200030B585B000AB04460D46039303F0BCFB93
:109B300005E0039B202203F8012B03930130C0B200
:109B4000A842F6D3204603A903F01AFC684601F0A8
:109B5000F3FF05B030BD0022BFE70022B2E77FB5BA
:109B6000144604AE00AA46F8042D0D4600221946FC
:109B7000334603F0BBFB68462946224601F0D4FF7A
:109B80007FBDFFFF10B5029C401AE41A4443511AEE
:109B900094FBF1F4E01810BDB0F1FF3F10B50246A0
:109BA0000E4C0DD0B1F1FF3F0CD02068B0F1FF3F5B
:109BB0000BD06368B3F1FF3F08BF4FF0FF3005E003
:109BC000034603E00B46084600E003466160194681
:109BD0002260BDE8104007F03BBE00BF7C010010D2
:109BE000014B1860704700BFA8550010014B58602A
:109BF000704700BFA8550010014B9868704700BF20
:109C0000A8550010014BD868704700BFA855001038
:109C1000034B00221A615A619A61DA61704700BFF2
:109C2000A85500102DE9F74F1C46254B15465A68DC
:109C3000074612F0040F0E46DDF830809A46DFF832
:109C400084B009D19BF81100FEF7FFFE81469BF816
:109C50001100FEF7FCFE08E09BF81100FEF7F7FE8E
:109C600081469BF81100FEF7F0FE17B909F1FF39A4
:109C700001E000F1FF39C8EB04031333262B1CD994
:109C8000731B1333262B18D931462A462346CDF8A9
:109C900000800020FFF776FF0AEBC70738612346F4
:109CA000CDF80080484631462A46FFF76BFF012376
:109CB0007861CAF82030002000E00120BDE8FE8F66
:109CC000A8550010C05D0010034B03EBC0031869DA
:109CD00008605B6913607047A85500102DE9F047D4
:109CE0005B4C236A93B9226812F0050204BF22611B
:109CF000626122681CBF2361636112F00602544B4B
:109D000018BF00229A61DA61012323622169626926
:109D10004F4B9142B9BF59629A6299625A62A169E6
:109D2000E2694B4B9142B9BFD9621A631963DA6297
:109D300094F83430464D5BB9F7F7EAFAE860F7F784
:109D4000E0FA95F83430013385F83430BDE8F08717
:109D5000F7F7D8FAA860F7F7D3FAAB686A6A9342C4
:109D600009DBAA6A934206DCEA68E96A8A4202DBF6
:109D7000296B8A4203DD4FF0FF30014660E02E6917
:109D80009E1B6B68334D13F0040F03D1687CFEF704
:109D90005CFE02E0687CFEF75AFE013846436769C4
:109DA0002369FB1A96FBF3F7A369E668C3EB060881
:109DB000636813F0040F03D1687CFEF748FE02E0ED
:109DC000687CFEF742FE461E08FB06F6E269A369C0
:109DD000DFF87C80D31A96FBF3F6636813F0040F68
:109DE00013D1687CFEF731FE8246687CFEF72FFEB9
:109DF000D8F8043013F0010F01D0FF43574413F09B
:109E0000020F19D0F643311819E0687CFEF71FFEE7
:109E10008146687CFEF719FED8F8043013F0010F74
:109E200003D0FF4307EB090100E0394613F0020FAE
:109E300004D0F7433F1802E0314600E03746384689
:109E4000FFF7AAFE002384F83430BDE8F08700BF96
:109E5000A8550010C05D0010024B00221A605A6025
:109E60009A607047E055001038B5054603F046F992
:109E7000094A04465368AB420BD14368536038BD6E
:109E8000184603F03BF94368AB4202D16368436074
:109E900038BD002BF4D138BDE0550010F8B50646AA
:109EA00003F02CF9104D0446686810B96E606060CC
:109EB000F8BD03F023F9636942699B1A002B02DCA9
:109EC0006B6863600EE0686803F018F94768054640
:109ED0003FB1384603F012F9636942699B1A002BBF
:109EE000F1DC67606E60F8BDE055001073B50025C9
:109EF00011E003F003F9044600F0E8F863691B1A67
:109F0000002B0CDC23690090019363686846736042
:109F1000236898470125034E70680028E9D1284638
:109F20007CBD00BFE0550010024B5868003818BFD8
:109F300001207047E0550010064B10B5586840B13D
:109F400003F0DCF8044600F0C1F86369181A20EA4F
:109F5000E07010BDE055001038B500230D460B60D1
:109F600010B9074B5C6802E003F0C8F8446824B1FC
:109F7000204603F0C3F803692B60204638BD00BFBC
:109F8000E055001038B500230360054B05461C68FA
:109F900024B1204603F0B2F803692B60204638BD97
:109FA000E055001038B500230D460B60044640B163
:109FB00003F0A4F8846824B1204603F09FF80369F5
:109FC0002B60204638BDF8B504461C200D461746C8
:109FD00002F0AEFD0646D8B1124B134A1A6003F0E8
:109FE0008DF80460114C456107613046FFF756FF5C
:109FF000A3687BB90133A3600D4B204640F80C3FAA
:10A0000002F046F806E01660836001E083601660A7
:10A010003046F8BD304603F071F82368034A002B40
:10A02000F4D1F0E7B45D0010ED9E0000E0550010A3
:10A03000599E000070B50446A0B10E4D2B688342B6
:10A0400004D103F05BF883682B600BE0184603F043
:10A0500055F883680546A342F8D1204603F04EF830
:10A060008368AB602046FFF7FFFE2046BDE87040E6
:10A0700003F0E4B8E055001010B50C4603F03EF8CC
:10A08000846110BD10B50C4603F038F8446110BD72
:10A0900070B504460D4603F031F845612046FFF7E0
:10A0A000E3FE2046BDE87040F8E670B5044603F0D4
:10A0B00025F8054600F00AF8AB69C3186B61204625
:10A0C000FFF7D2FE2046BDE87040E7E6F6F7F8BDA0
:10A0D00038B50546FFF7FAFF451907E001F04CF8DF
:10A0E000052CB4BF20460520F6F7F0FDFFF7EEFF84
:10A0F0002C1A002CF2DC38BD024BB3F92A2058850B
:10A1000010467047C05D0010024BB3F92C209885B3
:10A1100010467047C05D0010024B9A7E987610463C
:10A12000704700BFC05D0010024BDA6900B1D86112
:10A1300010467047C05D0010FEF7E2BE10B500206B
:10A1400000F01EF86FF07F4000F01CF8012000F0D6
:10A15000FBFE0020FFF7D8FF0020FFF7CDFF002017
:10A16000FFF7EAFF044B1868FFF7DEFF0020BDE8A9
:10A170001040FFF7D1BF00BF94010010DEE700BF21
:10A18000FFF7D4B9FFF7DAB9006808B5C3685B69AF
:10A19000984708BD00207047006808B5C3681B6A6F
:10A1A000984708BD08B503681B680360DB685B6AF5
:10A1B000984708BD006808B5C3689B6A984708BD02
:10A1C000006808B5C3681B6B984708BD38B5084CD4
:10A1D0000025206802F0D3FE6068256002F0CFFE03
:10A1E000A068656010B101F04BFDA56038BD00BFEF
:10A1F000F45500100F4A38B5D56804460E4B5DB1D2
:10A20000597C24F07F4403EB8103DB6C9B69D218FB
:10A21000107C44EA006038BD5C7C03EB8403DB6C9B
:10A220009B69D218127CD243D2B2FFF7C5F920F055
:10A230007F4038BDF4550010C05D00102DE9F0419D
:10A2400007681C46FB6838465B6915460E4698470A
:10A250003B695B6898473B6980465B682046984746
:10A260004146FFF7C7FF3B691B689847FA680346FA
:10A270009469384631462A46A047BDE8F0812DE969
:10A28000F04104460E461546FFF77EFF2368074659
:10A290001B699B689847314680EA07032A46204697
:10A2A000BDE8F041CAE7F8B51F460F4B05461B7CD9
:10A2B0000E4613F0010F144606D111E0224628463F
:10A2C0003146FFF7DCFF0134BC42F7DDF8BD074B38
:10A2D00022461B68284631461B68FFF7AFFF013452
:10A2E000BC42F4DDF8BD00BFC05D00106C01001081
:10A2F00070B5064D0446687C0E46FEF720FC2060D3
:10A30000687CFEF72CFC306070BD00BFC05D0010A3
:10A310002DE9F74F224C9146606D0D461E460D9F6C
:10A32000FCF77EFA8246606DFCF786FA8346606D24
:10A33000FCF76AFAD94501902EDB55452CDB606DA0
:10A340000094FDF7B1F808280446009B06DD1028AC
:10A35000CCBF4FF004084FF0020801E04FF00108B5
:10A36000586DFCF775FAC5F101039E19019BCBEB03
:10A370000901CAEB050503FB015106FB08F201FBCD
:10A380000801384609F049FD38463146224603B0F7
:10A39000BDE8F04F06F006BE03B0BDE8F08F00BF89
:10A3A000C05D001008B5044B587CFEF756FB18281A
:10A3B00008BF202008BD00BFC05D00102DE9F04F90
:10A3C0009846036885B00393DB6816461A680F4603
:10A3D000042A0E9CDDF840B007D05B6A03A8012177
:10A3E00098474FF00109054602E01A4D4FF0000969
:10A3F00007F1FF3AC2440DB925461CE000960194CE
:10A400000398394632465346A847B9F1000F06D0A3
:10A41000FFF7C8FF41460246204606F0C3FD0F9EE7
:10A42000002511E003983946C36832465B699847B6
:10A43000013745F8040B5745F4DDF0E754F8040BF9
:10A44000D847013546F8040B4545F7DB05B0BDE8B4
:10A45000F08F00BF11A300002DE9F04F264E89B008
:10A4600007460D46C1F1010407A806A9E418904665
:10A47000FFF73EFF3368384600937368294601931F
:10A48000079B424602932346FFF798FF1B4B4FF072
:10A4900000091B681868FFF701F882460DE0736831
:10A4A000504653F82910FFF7A5FE069BD6F800B0DA
:10A4B00098474BF8290009F10109A145EFDBFFF7A7
:10A4C00071FF814621464A46306806F091FE3868A1
:10A4D0000123C2680093013B0293CDF804903168D8
:10A4E0000493039105935668294642462346B04794
:10A4F00009B0BDE8F08F00BFF45500106C010010EA
:10A500002DE9F041DDF8188007460E4614461D4639
:10A5100006E02246384631462B46FFF79DFF0134C0
:10A520004445F6DDBDE8F0812DE9F04F154691B0C8
:10A53000002206460A911C46DDF874800B925BE30C
:10A540001B9B042B00F0BA8105DC012B0ED0022BE3
:10A5500040F04C83F1E01B9F102F00F0CF82202FA2
:10A5600000F0FC82082F40F0418365E21E9B0A9FA9
:10A570001F9A03EB070AA94BD2F800B01B7CD2F854
:10A58000049003F00303022B51D0032B00F0AE80A4
:10A59000012B00F0AB80A24F0FA80EA9FFF7A8FE79
:10A5A0003B68514600937B682A4601930F9B3046D7
:10A5B00002932346FFF702FF58460F9B98470F9BD5
:10A5C0000990484698470023DDF878B0CDF834A0CC
:10A5D000AC460C90A146C2461D46802242FA0BF2C0
:10A5E0009AF800108E4B114209985A680C9B5159E9
:10A5F00018BF1846CDF81CC0FFF7FCFD884A0BF1C8
:10A60000010B11680E9A089190470899BBF1080F49
:10A6100004BF0AF1010AABF1080B48510435B9F146
:10A620000109DDF81CC0D8D1DDF834A044E07C4F2E
:10A630000FA80EA9FFF75CFE3B68514600937B68AC
:10A640002A4601930F9B304602932346FFF7B6FE3E
:10A6500048460F9B98470023DDF878B0CDF830A02E
:10A66000AC460990A146C2461D46802242FA0BF232
:10A670009AF80010114210D0694B09985A68515944
:10A68000CDF81CC0FFF7B6FD654A11680E9A089117
:10A6900090470899DDF81CC048510BF1010BBBF144
:10A6A000080F04BF0AF1010AABF1080B0435B9F138
:10A6B0000109DAD1DDF830A06546FFF773FE834665
:10A6C000214638685A4606F093FD30680122C36877
:10A6D0000092CDF804B0CDF808903A68CDF810900B
:10A6E0000392CDF814905F6851467AE23369A3462D
:10A6F0009B6898471E9F0990C14680233B4199F86B
:10A7000000201A420CD051462A463046FFF73CFD45
:10A71000099A514680EA020330462A46FFF78EFD29
:10A720000137082F04BF09F10109083FBBF1010BF4
:10A7300000F05C820AF1010ADFE71E9B0A9A98F892
:10A7400000909F18354B1B7C13F0030303D0022BA2
:10A7500040F04C825AE01F9B63B3A3460994DDF896
:10A7600078A03946444600E06146CAF1030252002F
:10A77000C020C2F1060350FA03F303EA0903D340F1
:10A780001F9F01F1010C57F823300AF1010A3046EE
:10A790002A46CDF81CC0FFF751FDBAF1040F04BFE3
:10A7A00014F8019FAAF1040ABBF1010BDDF81CC0EB
:10A7B000DAD11AE2A3463946DDF878A027464446A6
:10A7C00000E06146CAF1030E4FEA4E0EC022CEF100
:10A7D000060352FA03F303EA090301F1010C0AF13B
:10A7E000010A30462A4623FA0EF3CDF81CC0FFF7C3
:10A7F00025FDBAF1040F04BF14F8019FAAF1040A61
:10A80000BBF1010BDDF81CC0DBD1BFE01F9A4AB9D8
:10A81000A3460994DDF878A044462FE0C05D0010FF
:10A82000F4550010DDF878A0A346C4460994CAF197
:10A8300003025200C021C2F1060351FA03F303EAF6
:10A840000903D3400BD01F9C304654F823303946BF
:10A850002A46CDF81CC0FFF7F1FCDDF81CC00AF158
:10A86000010ABAF1040F04BF1CF8019FAAF1040AFF
:10A87000BBF1010B00F0B9810137D8E7CAF103023F
:10A880005200C021C2F1060351FA03F303EA09039F
:10A89000D34004D0304639462A46FFF7CFFC0AF1B0
:10A8A000010ABAF1040F04BF14F8019FAAF1040AC7
:10A8B000BBF1010B00F099810137DFE70A9B1E9A7B
:10A8C00098F80090D718A34B1B7C13F0030303D018
:10A8D000022B40F08B815BE01F9A62B3A346099480
:10A8E000DDF878A03946444600E06146CAF101022D
:10A8F0009200F020C2F1040350FA03F303EA0903C3
:10A90000D3401F9F01F1010C57F823300AF1010ACF
:10A9100030462A46CDF81CC0FFF790FCBAF1020F72
:10A9200004BF14F8019FAAF1020ABBF1010BDDF884
:10A930001CC0DAD159E1A3463946DDF878A0274694
:10A94000444600E06146CAF1010E4FEA8E0EF02245
:10A95000CEF1040352FA03F303EA090301F1010CF7
:10A960000AF1010A30462A4623FA0EF3CDF81CC03C
:10A97000FFF764FCBAF1020F04BF14F8019FAAF1BB
:10A98000020ABBF1010BDDF81CC0DBD13C462DE116
:10A990001F9A2AB9A3460994DDF878A044462BE013
:10A9A000DDF878A0A346C4460994CAF101029200DA
:10A9B000F021C2F1040351FA03F303EA0903D3407F
:10A9C0000BD01F9C304654F8233039462A46CDF828
:10A9D0001CC0FFF733FCDDF81CC00AF1010ABAF114
:10A9E000020F04BF1CF8019FAAF1020ABBF1010B80
:10A9F00000F0FB800137D8E7CAF101029200F02194
:10AA0000C2F1040351FA03F303EA0903D34004D06B
:10AA1000304639462A46FFF711FC0AF1010ABAF11D
:10AA2000020F04BF14F8019FAAF1020ABBF1010B47
:10AA300000F0DB800137DFE7464B1B7C13F003039C
:10AA400003D0022B40F0D2802AE01F9F2FB9274667
:10AA5000DDF828904446BA461FE02746DDF82890E6
:10AA6000C346A2460CE01BF8013B1F9C49463046FA
:10AA70002A4654F82330FFF7E1FB013F09F10109B1
:10AA8000002FF0DC38E0494630462A4614F8013BF6
:10AA9000FFF7D4FB013F09F10109002FF3DC2BE0A4
:10AAA0001F9F2FB92746DDF828904446BA4621E07B
:10AAB0002746DDF82890C346A2460DE01BF8013B6F
:10AAC0003BB11F9C304649462A4654F82330FFF7D5
:10AAD000B5FB013F09F10109002FEFDC0CE014F890
:10AAE000013B23B1304649462A46FFF7A7FB013F09
:10AAF00009F10109002FF2DC544677E0164F0FA848
:10AB00000EA9CDF82480FFF7F3FB3B683046009395
:10AB10007B680A9901930F9B2A4602932346FFF70D
:10AB20004DFCD7F804B0D7F800A0A146099A5BF80D
:10AB3000041B32F8020B0F9B099208919847089961
:10AB4000FFF758FB0E9B9847B9F101094AF8040B2F
:10AB5000ECD12EE0C05D0010F45500102A4F0FA874
:10AB60000EA9CDF82480FFF7C3FB3B683046009365
:10AB70007B680A9901930F9B2A4602932346FFF7AD
:10AB80001DFCD7F804B0D7F800A0A146099B5BF8DC
:10AB9000041B53F8040B089109930F9B98470899DD
:10ABA000FFF728FB0E9B9847B9F101094AF8040BFF
:10ABB000ECD1FFF7F7FB824621463868524606F093
:10ABC00017FB30680122C3680092CDF804A0CDF8CD
:10ABD00008903A68CDF810900392CDF814905F6811
:10ABE0000A992A462346B84700E0099C0B9A1C9F05
:10ABF0000132B8440B9201350B9F1A9B9F42FFF61E
:10AC00009FAC11B0BDE8F08FF4550010044BDA682A
:10AC100010B10121D96000E0D8601046704700BF34
:10AC2000F45500102DE9F0472F4B304C5A7C054667
:10AC300003EB8201C96C98468E69274604EB060A2D
:10AC40009AF8109050B91046052100F0F3FF002843
:10AC500047D001F03DF88AF8105042E02368002BFD
:10AC60002FD1234B204640F8143F01F011FAFDF795
:10AC700083FF4FEA800A504602F08EF920600028D8
:10AC80002FD06368EBB9504602F086F9606048B196
:10AC9000A168B1B917480A460B4600F0F3FFA0605F
:10ACA00078B903E0206802F06AF91AE0206802F03F
:10ACB00066F9606802F063F9A06890B100F0E0FF07
:10ACC0000FE098F81100052100F0B4FF38B9064BE9
:10ACD0005B7C07EB8303986808B101F011F8BE199B
:10ACE00035744846BDE8F087C05D0010F45500108B
:10ACF000CDA10000509D010010B505F0E3FFFDF768
:10AD0000EDFABDE81040F8F723BBFFFF10B5044B88
:10AD10005C7C10B95874FFF7EFFF204610BD00BFF0
:10AD2000C05D001037B504460D4600F097FF019056
:10AD300040B1C36803215B6A01A8984710B1024B78
:10AD400043F824503EBD00BF1056001010B9024B0E
:10AD5000186870470020704710560010FDF74ABB76
:10AD6000FDF71EBBFDF732BBFDF7DCBA38B50D466B
:10AD70001446FDF7A9FB10B100232B60236038BDFA
:10AD800008B50249682209F048F808BDC05D001006
:10AD9000014608B56822024809F03FF808BD00BF27
:10ADA000C05D0010B0F90220B1F906309A4214DCFF
:10ADB000B1F90220B0F906309A420EDCB0F9002059
:10ADC000B1F904309A420ADCB0F90430B1F900203C
:10ADD0009A42CCBF0020012070470020704700201D
:10ADE00070472DE9F041044608460E4602F022F96C
:10ADF0000546B0B1ACB1204602F014FA0746284629
:10AE000002F07CF98046204602F078F9B742B4BFE0
:10AE10003A4632460146404608F0FFFF204602F01F
:10AE20000DFA2846BDE8F081034B984201D00C385A
:10AE300070473C30704700BF14560010034B9842D7
:10AE400001D00C3070473C38704700BF505600109E
:10AE500038B50F4D04462B686A6893420AD10D4AF3
:10AE6000934201D13C3300E00C3B93E8070084E8B7
:10AE7000070007E093E8070084E807001846FFF79B
:10AE8000DDFF2860207A003818BF012038BD00BFE0
:10AE90008401001014560010044B10B50446586885
:10AEA000FFF7C2FF07C884E8070010BD8401001047
:10AEB0002DE9F041164C0546D4F800806068154A2B
:10AEC000154B80451A600ED0FFF7AEFF2B7A077A3C
:10AED00006469F4207D1804505D0FFF7A5FF037ABC
:10AEE000BB4208BF6660636895E8070083E8070017
:10AEF0001846FFF7A3FF22686060824203D1FFF784
:10AF00009DFF034B1860BDE8F041FEF7A5BC00BFF4
:10AF100084010010D5D800002C5E0010034B186887
:10AF20005B68C31A584240EB03007047840100106D
:10AF3000014B187E704700BFC05D0010014B587E6A
:10AF4000704700BFC05D0010024B1A7E1876104695
:10AF5000704700BFC05D0010024B5A7E5876104605
:10AF6000704700BFC05D0010064B984214BF00F14F
:10AF70000803A0F1500319B18B4218BF184670475F
:10AF800018467047AC560010024B0022986D9A6527
:10AF9000704700BF5C560010024B9A6D02B998656D
:10AFA000FEF75ABC5C56001008B501E0FFF7ECFF55
:10AFB000024B1A685B689A42F8D108BD8C010010F8
:10AFC00070B5074C05466068056041602168FFF771
:10AFD000CBFF044B60609D65BDE87040FEF73CBC54
:10AFE0008C0100105C56001070B5094C2068636835
:10AFF00098420BD0002106684568FFF7B5FF294647
:10B000002060304603F034F8012070BD002070BD90
:10B010008C01001070B505460C4603F029F820B9E4
:10B0200028462146BDE87040CAE770BD68B1038874
:10B0300089B2CB180380838892B2C9184388818073
:10B04000D3184380C388D218C280704710B530B37C
:10B0500009B30AB3B1F90040B2F900309C42B8BF5D
:10B0600023460380B1F90240B2F902309C42B8BFD6
:10B0700023464380B1F90440B2F90430B1F9061017
:10B080009C42A8BF23468380B2F906309942A8BFEC
:10B090000B46C38010BD1146082208F0BEFE10BD4D
:10B0A000014B988400207047C05D0010014B58840C
:10B0B00000207047C05D0010F2E7F7E738B50D4695
:10B0C000FFF7F4FF04462846FFF7EAFF2043C0B22B
:10B0D00038BD00BFC37E007E58437047C37E407EAC
:10B0E00058437047044BB3F900300360034BB3F986
:10B0F00000300B60704700BFB85D0010B05D0010FD
:10B10000F0E700BF014B987E704700BFC05D0010A4
:10B1100005F040BFF7B50E4C266C646C87190D190D
:10B1200096191C196846ADF80070ADF80460ADF8CA
:10B130000250ADF80640F7F769FF40B1384629469E
:10B1400032462346FDF75AFFF7F7AEFEF5E7FEBDA0
:10B15000C05D0010074B10B51C681CB1A047041E51
:10B1600018BF0124F8F7EAF800280CBF2046012098
:10B1700010BD00BFB45D001010B5002400E0012434
:10B18000FFF7E8FF0028FAD1204610BD73B50E4B3B
:10B190001E6C5C6C86190D19B3B214196846ADF8B3
:10B1A0000030ADF80430ADF80250ADF80640F7F7C6
:10B1B0002DFF38B1304629462246FDF7FBFEF7F752
:10B1C00073FEF6E77CBD00BFC05D001003680A682F
:10B1D00002600B6070470028B8BF40427047214BA7
:10B1E0009B7E013B032B37D8DFE803F0020E1C25C2
:10B1F0001D4B063000EA0303002B03DA013B63F02A
:10B200000F0301330B2B09E0184B00EA0303002B5B
:10B2100003DA013B63F003030133012BCCBF0020B1
:10B2200001207047142390FBF3F203FB12000B285C
:10B2300014DD10380BE0182390FBF3F203FB12002F
:10B240000B280BDDA0F11003012B09D914380128BC
:10B250008CBF0020012070470020704701207047FC
:10B2600001207047C05D00100F00008003000080C7
:10B27000024B5B7E0BB908F001B87047C05D00104F
:10B280000005000DB0F5006F10B503DDA0F50060FE
:10B29000012200E00022B0F5806FC8BFC0F5006059
:10B2A0000B49841100F03F03C3F1400331F814004F
:10B2B0009BB25843402B06D0013431F81410C3F12F
:10B2C000400301FB03002030800902B1404210BD61
:10B2D000849D010000F58060D2E72DE9F04F89B030
:10B2E00003925D1A121A129C029305900491079220
:10B2F000069555EA0203D4F8009002D107F0BEFF8C
:10B30000C2E01046FFF767FF06462846FFF763FFD7
:10B3100086420EDA07A806A9FFF758FF05A804A978
:10B32000FFF754FF03A802A9FFF750FF4FF00108F1
:10B3300001E04FF00008079D2846FFF74CFF8542CB
:10B340000FD0069B05A85B4203A96D4206930795A3
:10B35000FFF73CFF04A802A9FFF738FF4FF0FF37C3
:10B3600000E00127069E4A4D002E36D1B8F1000FAD
:10B3700017D0AB7E7BB904980599039AFDF71AFEA6
:10B3800082E0FFF72CFF28B92B6E05995B680498C3
:10B39000711898470136079B06EB09009E42F0DDC5
:10B3A00018E0AB7E8BB92B6E05981B680499039A45
:10B3B000984769E0FFF713FF28B92B6E05985B6883
:10B3C00040440499984708F10108079B08EB0900DD
:10B3D0009845EFDD0138206056E0079BAA7E03EB1D
:10B3E000D3794FEA6909B8BFC9F10009D2B9144647
:10B3F00014E00699049A01FB049191FBF3F3991868
:10B40000059AB8F1000F03D12B6EA0185B6803E01A
:10B410002B6E08465B68A11898470134079B9C4235
:10B42000E7DD31E0B7F1FF3F02D12268D318236096
:10B4300000261CE006993818DDF810B02060019154
:10B44000FFF7CDFE019988B901FB069191FBFAF156
:10B450005944059AB8F1000F03D12B6EB0185B6800
:10B4600003E02B6E08465B68B11898470136DDF89B
:10B470001CA020685645DDDDB7F1FF3F04BF5044F6
:10B4800020602368DF1B276009B0BDE8F08F00BF94
:10B49000C05D001030B585B004AC002544F8045DF3
:10B4A0000094FFF71AFF05B030BD2DE9F047694F52
:10B4B00086B03F7E0646012F0D461446984604D1BD
:10B4C0000E9C0094FFF709FFC0E0831AC8EB01024D
:10B4D00052EA030100F0BA80013F002B02DA5B421E
:10B4E000012100E00021002ABCBF41F002015242CC
:10B4F0009A4204DD184641F004011346024603EB6C
:10B50000D370920202EB600292FBF3F3524A4FEACD
:10B51000A30E9B110EF00F0E02EB4300CEF1100CA8
:10B52000B0F92200BCF1100F0CFB00F005D002EBCB
:10B530004303B3F924300EFB030010F1080A48BF9F
:10B5400000F1170A4FEA2A1A11F0040F18BFCAF5C2
:10B55000806A11F0010F18BFCAF5006A11F0020FDE
:10B5600018BFCAF5805A0AF5806A5046FFF7B2FE46
:10B5700007FB00F95046FFF783FE4743B9F1000F80
:10B5800006DAC9F500794FEAA929C9F1000903E0F3
:10B5900009F500794FEAA929002F04DAC7F50077E9
:10B5A000BF127F4202E007F50077BF12B9F1000F2A
:10B5B00003DD09F10100401006E009EBD97009F143
:10B5C000FF39401009EBD979002F4FEA690902DDF4
:10B5D0007A1C521005E007EBD772013F521007EBBF
:10B5E000D77780B21FFA86FE7F1000EB0E0392B26F
:10B5F000A9B2BFB2ADF808305318C91BADF80A3074
:10B600001FFA89F9ADF80E101FFA88F3A1B2C9EB41
:10B610000E0EDF1BC9EB0109D31841180022ADF84B
:10B620001410ADF8163002A804211346ADF80CE052
:10B63000ADF81090ADF8127007F0FCFC30462946CA
:10B64000FFF716FE20464146FFF712FE06B0BDE8A2
:10B65000F08700BFC05D0010849D010030B585B04B
:10B6600004AC002544F8045D0094FFF71EFF05B00C
:10B6700030BDF8B50A4C256C646C471900200E19D2
:10B6800055191C19F7F7C2FC40B1384631462A4615
:10B690002346FFF7E3FFF7F707FCF5E7F8BD00BF28
:10B6A000C05D001070B5054600200C46F7F7AEFCF3
:10B6B00058B1094BB3F92600B3F928102A186318BA
:10B6C000FFF7CCFFF7F7F0FBF2E728462146BDE88D
:10B6D000704001F063BE00BFC05D001073B5074C41
:10B6E00006460D460092B4F92600B4F928103246F9
:10B6F0002B46FFF7DAFEE68425857CBDC05D001091
:10B7000007B5002302AA42F8043DFFF7E7FF0EBD8C
:10B7100070B50D4E356C746C451900200C19F7F797
:10B7200075FC50B1B6F92600B6F928102A46234612
:10B73000FFF794FFF7F7B8FBF3E728462146BDE88B
:10B74000704001F035BE00BFC05D0010F7B50E4C73
:10B75000656C266C45198F19ABB296196846ADF821
:10B760000070ADF80460ADF80230ADF80630F7F7C0
:10B770004DFC40B1236E38461B6829463246984737
:10B78000F7F792FBF5E7FEBDC05D0010F8B5054682
:10B790000F461646002428463946324605F07CFB03
:10B7A0002D1808B10134F6E72046F8BD2DE9F04F19
:10B7B00087B00C46009298460546002800F0858028
:10B7C0008B880A880FFA83FA02930AF1010A13B2EE
:10B7D00001924E88B1F806B0C3EB0A0A01F06CF989
:10B7E000009A074612F00C0921D0284651464246DD
:10B7F000FFF7CCFFB9F1080F05D0B9F10C0F08D055
:10B80000B9F1040F13D10BF1010B07FB10B086B295
:10B810000DE00FFA8BFB33B20BF1010BC3EB0B0BFB
:10B8200007FB10B000EBD07006EB6006B6B2204606
:10B8300007F054FB039051464246284605F0FCFAB7
:10B8400006EB0709019B029A83461FFA89F9ADF8B6
:10B850001030284609F1FF335946ADF81420ADF8F1
:10B860001630ADF8126001F091F8009A02F003036F
:10B87000012B12D0022B01D05BB113E02388B4F965
:10B8800004101AB28A1A101A00EBD07003EB60038E
:10B8900000E02388ADF8103004E0A3880133181AC3
:10B8A000ADF810002846594604AA01F09FF8284632
:10B8B0005146424605F0F0FA2D182B7813B11FFAC5
:10B8C00089F6B8E7039807F009FB07B0BDE8F08FE9
:10B8D000064B10B51A68064908B1002401E001F1D1
:10B8E000080418604C61104610BD00BFAC5D00102C
:10B8F000C05D00102DE9F04385B00C9E07460D4653
:10B900009046994616B900F0E9F82EE0002300931E
:10B910000193B1B10822684608F07FFA694608220F
:10B92000134808F07AFA284602F098F9044648B11C
:10B9300002A829462246FDF725FF02A802F08EF94B
:10B9400000E00C463046FFF7C3FF736805466846C3
:10B9500098473846694642464B4600F00BF8204669
:10B9600002F07CF92846FFF7B3FF05B0BDE8F0838D
:10B97000A05D00102DE9F04F87B001900F461446EE
:10B980001E46009001F098F805462FB104A83946EC
:10B99000082208F042FA02E004A807F0CFFA14F0F7
:10B9A0000C0902D0B046012718E0BDF9127035E04D
:10B9B0004146019800F0BCFFDDF804B082465146D4
:10B9C000584605F01DFF0BEB000306A840F8143D98
:10B9D00005F0D3FA28B9CAEB08080137B8F1000F0F
:10B9E000E6D1B9F1080F05D0B9F10C0F08D0B9F1C3
:10B9F000040F12D1BDF91630013305FB17370DE0E6
:10BA0000BDF91620BDF912300132D21A05FB1727F5
:10BA100007EBD77703EB670700E0002700994FF0AB
:10BA20000008019152E03146019800F081FF814603
:10BA30004946019800F0AAFF04F00303012B13D03C
:10BA4000022B01D06BB115E0BDF91030BDF91480A7
:10BA5000C3EB0808C0EB080808EBD87803EB6808CC
:10BA600008E0BDF9108005E0BDF9148008F1010877
:10BA7000C0EB0808184A1FFA88F301385384ADF860
:10BA80000830C318ADF80C30BBB29384ADF80A305F
:10BA90006B1EDB1902AA01984946ADF80E3000F082
:10BAA000A5FFDDF804A04946504605F0A9FE0DF1BA
:10BAB000180B50444BF8140D00F0FEFF8246584618
:10BAC00005F05BFA20B9C9EB06065744002EAAD14F
:10BAD00007B0BDE8F08F00BFC05D00102DE9F34155
:10BAE0000C46164698460746C0B169B1084602F0B2
:10BAF000B5F8054648B1684621462A46FDF742FE9C
:10BB0000684602F0ABF800E00D4638462146324662
:10BB10004346FFF72FFF284602F0A0F8BDE8FC815E
:10BB200047F6FF73DAE700BF024B59849A8400F0AE
:10BB300003B800BFC05D00102DE9F74F054600288F
:10BB400073D000F0B9FF3A4C8246B4F822B000F04E
:10BB50009DFFA38C87B2DB1BA3845CE047F6FF71DB
:10BB6000284600F0E5FE06463146284600F00EFF66
:10BB7000A38D03F00303012B07D0022B01D0002378
:10BB800004E000EBD0735B1000E00346628C1FFA08
:10BB900080F8D31A9BB29AB26284ADF8002008F103
:10BBA000FF329B18ADF80430A38C1FFA8AF9ADF868
:10BBB0000230013B4B446A4628463146ADF8063018
:10BBC00000F014FFBDF802102846A184314605F0AC
:10BBD00017FE2A5C2B180A2A01D00D2A12D1A18D3A
:10BBE000134A01F00301013901298ABF118CA2F81F
:10BBF00022B051841A780A2A0AD1A28C9144A4F85E
:10BC0000249005E0BDF800209044094AA2F8228063
:10BC10001A781AB15D1C2B78002B9FD1A38CFF18CA
:10BC2000A38DA78423F00303A385BDE8FE8F00BF87
:10BC3000C05D001000280CDC074B03EB8000C06CDB
:10BC400004E0C3681B688B4204D000680028F8D168
:10BC500070470020704700BFC05D001000280BDC5B
:10BC6000064B03EB8000C06C03E0C3681B6823B184
:10BC700000680028F9D1704700207047C05D0010AF
:10BC800001F07DB9F8B51F1E04460D4616461ADCB4
:10BC90001C2001F081F9B8B10DB105610BE00B4B2F
:10BCA00003EB8703DB6C0BB905E013461A68002A27
:10BCB000FBD11B690361002387618682C460036036
:10BCC00043608360F8BD0020F8BD00BFC05D001078
:10BCD00083690A4A123302EB83035A68824204BF23
:10BCE00002685A6043680BB102681A60026802B1C8
:10BCF0005360002303604360704700BFC05D0010C5
:10BD000030B5002835D08169002934DC1C4C01F1A4
:10BD1000120204EB8202536825461BB95060184694
:10BD200030BD13465A68002AFBD106E0DA68146871
:10BD3000C2681268944203DD1B68002BF6D118E03C
:10BD40001BD1828A012A18D103E0DA681268A24264
:10BD500013DB1A461B68002BF7D1536813B1186028
:10BD6000436002E005EB8101C8645060026000207E
:10BD700030BD012030BD012030BD1A46EDE700BFC7
:10BD8000C05D001038B51C46FFF77CFF054608B1C2
:10BD9000FFF7B6FFEB681B681BB9034B143443F87D
:10BDA0002450284638BD00BFC05D001010B50446C1
:10BDB000FEF7CCFF20B10121BDE81040FEF7D2BF55
:10BDC000064B142202FB0434637933B1206901234A
:10BDD0002371BDE8104007F044B810BDB8560010FC
:10BDE0000248002114224161FDF754BCB8560010EE
:10BDF0002DE9F743074608460C46FEF7A7FF142334
:10BE000063432B4D8046EE586B693BB901336B6140
:10BE1000284B284640F8183F00F03AF9B8F1000FD7
:10BE20001ED04046FEF772FF81464FF07F40FEF77E
:10BE3000A7F900F01DF9002138680A4607F0E4FA76
:10BE40003B68404619885A88FEF78AFF14236343EB
:10BE5000EA18EF50012353714846FEF757FF21E0DF
:10BE60001423634305EB0309D9F81000EF500123B5
:10BE700089F8053018B106F047FCC9F81080A7B161
:10BE8000142303FB04557968BB68D5F808E0EA6819
:10BE900001200090D21A3868C1EB0E01234606F04B
:10BEA000CBFB28612046FFF781FF3046BDE8FE83CB
:10BEB000B8560010E1BD000014224243F8B5134DFE
:10BEC0000446AB1818690021597140B1AF589E68FB
:10BED000DA687968BB68711AD21A06F02FFC20461E
:10BEE000FEF734FF1426074638B106FB0454002140
:10BEF000FEF738FF00232371F8BD06FB04542379B5
:10BF00001BB1206906F094FF2771F8BDB8560010E8
:10BF100014234343074A30B5D418D35801250146AA
:10BF200065711BB90448BDE8304061E7BDE83040A9
:10BF30003CE700BFB856001098B30100024B142232
:10BF400002FB003358797047B85600102DE9F041D4
:10BF5000064610460D461446FEF7F8FE144F14230D
:10BF600048B15C433B5959689A68711AAA1ABDE8EE
:10BF7000F041FEF7F3BE03FB0473DA68AA4202D174
:10BF80009B68B34211D014236343FA18106938B187
:10BF9000074AD35859689A68711AAA1A06F0CEFB54
:10BFA000142303FB0474A660E560BDE8F08100BFC4
:10BFB000B8560010014B597C1AE700BFC05D001055
:10BFC000014B587C78E700BFC05D0010014B587CE6
:10BFD0009EE700BFC05D0010014B587CAEE700BF7C
:10BFE000C05D0010014B5A7CB0E700BFC05D00107F
:10BFF000034B0448002168221960FDF74BBB00BFCA
:10C00000D8560010C05D0010014B1860704700BF8B
:10C01000940100102DE9F3410746042016461C4602
:10C020000D46FCF76DFF114B80461A6C5B6CBF1818
:10C03000ED18B618E4186846ADF80070ADF8046065
:10C04000ADF80250ADF80640F6F7E0FF40B13846D3
:10C05000294632462346FCF7D1FFF6F725FFF5E7E0
:10C060004046FCF74DFFBDE8FC8100BFC05D0010FD
:10C07000002010B50146FFF721F8044840F6FF7292
:10C0800001461346BDE81040C4E700BF01F0FFFFC2
:10C09000024B5A6858604260704700BFD856001083
:10C0A00010B5084C236863B901332360F4F7FAFD37
:10C0B000F4F7CAFE044B204640F8083FBDE81040A4
:10C0C000E6E710BDD8560010F1BF000070B5FFF7CD
:10C0D000E7FF204B2E22204C1A70F4F701FEE36C90
:10C0E000002B35D01D4E3368002B30D0637C04F11B
:10C0F000080504EB8303D86C2946C36865611B6B94
:10C100009847174B656123663368E3610123237603
:10C1100002F0B2F8032384F864306FF070432363B5
:10C120006363E0630020FDF701FA6FF07F40FDF7E5
:10C1300005FA0C4A0C4B1A60FDF76CF90446002016
:10C14000014606F0B3FEF7F761F9204670BDFEE741
:10C15000FEE700BFA85D0010C05D00109401001054
:10C16000C89D010040B30100285E001010B5074CC7
:10C17000636833B910BD1B6803B1984763685B6897
:10C1800063606368002BF6D110BD00BFD856001065
:10C190002DE9F74F204F03EB010A98463B6E02EB67
:10C1A0000009164604460D465B68514648469847C6
:10C1B000A31B01933B6E51465B68019898473B6E09
:10C1C00008EB040A06EB050B5B6850465946984796
:10C1D0003B6EAE1B5B68504631469847B8F1000F86
:10C1E00017D03B6EC8EB05055B6848462946984763
:10C1F0003B6E01985B68294698473B6EC8EB040488
:10C200005B682046594698473B6E20465B6831463E
:10C210009847BDE8FE8F00BFC05D00102DE9F843D0
:10C2200040F2C32808FB02F84FF47A7398FBF3F846
:10C2300002FB02F302EBD27903EB69090023074604
:10C240000E46154608F10108FFF7A2FF012413E08E
:10C2500004FB04F305FB05334B4506DD2B4638464E
:10C2600031462246FFF794FF013D224638463146CB
:10C270002B46FFF78DFF01344445E9DDBDE8F88327
:10C28000114B73B51E6C154686195C6CB2B2ABB21D
:10C290000C19D11A9A18ADF80420A2B2ADF800100A
:10C2A0006846D11AD318ADF80210ADF80630F6F78B
:10C2B000ADFE38B1304621462A46FFF7AFFFF6F70C
:10C2C000F3FDF6E77CBD00BFC05D001040F2C32364
:10C2D00053432DE9F74F14464FF47A7293FBF2F370
:10C2E0000133009304FB04F304EBD472224F03EBFD
:10C2F000620301933B6E06461B68001BA219884629
:10C300004FF000099847012531E005FB05F304FBD8
:10C310000433019A934215DD009B9C4211DD3B6E74
:10C32000C9EB060A09EB060B1B68504604EB080133
:10C330005A4698473B6E50461B68C4EB08015A4664
:10C340009847013C3B6EC4EB060A04EB060B05EB79
:10C3500008011B6850465A4698473B6EC5EB0801DA
:10C360001B6850465A469847013509F10109009A61
:10C370009542CADDBDE8FE8FC05D0010094B70B567
:10C380001D6C5C6C4519002016460C19F6F73EFE34
:10C3900038B1284621463246FFF798FFF6F784FD6C
:10C3A000F6E770BDC05D00102DE9F04F1E465B43FF
:10C3B00085B0039302FB02F3044602910193924677
:10C3C000012532E005FB05F0019B04F1FF385843DD
:10C3D000039BB0FBF3F0019B181A04F08DFD029B48
:10C3E000504518BF0AF1FF3A5F1CCAEB04097F1BD6
:10C3F000A2443946524683462046FCF7B9FD4846DA
:10C4000039464246FCF7B4FD012D0CDD029B48463F
:10C410005F1E7F1939464246FCF7AAFD2046394681
:10C420005246FCF7A5FD0135DA46B542CADD05B036
:10C43000BDE8F08F2DE9F3410D46164698460746B4
:10C44000FEF776FD134B441C1A6C64105B6CA61946
:10C45000BF18ED18B2B2BBB2991A4444D318ADF864
:10C460000430A2B2ABB2ADF800106846991AD318E6
:10C47000ADF80210ADF80630F6F7C8FD40B1384609
:10C48000294632462346FFF78FFFF6F70DFDF5E705
:10C49000BDE8FC81C05D00102DE9F04F8BB01F4658
:10C4A00007911499531C07F10108C1EB08085B1AA6
:10C4B00007FB07F1089102FB02F15B43039108FBC4
:10C4C00008F10446099104930126C14649E006FBA0
:10C4D00006F30799019201F101080399029301FB08
:10C4E00003F00899C6EB0808B0FBF1F00399081AAD
:10C4F00004F002FD019A0590904218BF013AC2EB88
:10C50000040B4E452244029B06920BDA049A0999C9
:10C510005343B3FBF1F0101A04F0EEFC251A00EBC4
:10C52000040A02E001D1651EA24650464146069A21
:10C53000FCF71EFD584641462A46FCF719FD012E20
:10C540000DDD079A584602F1FF38B04441462A46AD
:10C55000FCF70EFD50464146069AFCF709FD059A88
:10C560000136BE42B3DD0BB0BDE8F08F2DE9F043DC
:10C5700085B01646074688469946FEF7D9FC451C05
:10C580006D10AE198642044631DB4D4485422EDBE8
:10C59000184B02A81A6C5B6CBF189844B2B2BBB2BD
:10C5A000991AD318ADF80C30AAB21FFA88F3ADF877
:10C5B0000810991AD318ADF80A10ADF80E30F6F736
:10C5C00025FDA0B1B44201D0AC4206D13846414667
:10C5D00032462B46FFF7E8FE06E038464146324633
:10C5E0002B460094FFF758FFF6F75EFCE9E705B02D
:10C5F000BDE8F083C05D001006E003888B4202D8DE
:10C6000043888B4202D280680028F6D170472DE91A
:10C61000F04F334C0546E36989B0D8692946B4F830
:10C620002AA0FFF7E9FF002856D007884668EF1BCD
:10C630000FFA8AFA06EBC705504695F80280FCF718
:10C640005FFC0790E06916F8372090F81AC0037E67
:10C65000CDF800C0C07ECDF80C8001900120029082
:10C660006868B4F922E004901E48B4F92410006808
:10C6700005907046FCF7C2FDE36993F8198093F8C2
:10C6800018B0D8451ED9BAF1020F93F81B9019D0F3
:10C6900006F04DFC824606F041FCFDF773FDE269B1
:10C6A000B4F92430B4F92200D27E16F8376009FBC1
:10C6B0000B3106FB020209FB0833FCF79FFC5046D6
:10C6C000FDF760FD0798FCF71BFCE36969789B7E2A
:10C6D000628C01FB0323638409B0BDE8F08F00BFC7
:10C6E000C05D00106801001070B50B4B0646DD6997
:10C6F0000C46E8693146FFF77FFF60B10388426866
:10C70000F61A02EBC601AB7E487858431CB112F80A
:10C7100036205343236070BDC05D001001230B80A1
:10C72000704708B5C069FFF767FF003818BF0120E0
:10C7300008BD00BF2DE9F04F494D8BB0EA69698C07
:10C74000D469B5F82480A789B84208D3E389834225
:10C7500005D3D4F800A0C71B4FF0FF3913E0A3683E
:10C76000D4F804A0002B74D01F88B84271D35E881F
:10C7700086426ED35B68C01B80B203EB800633F940
:10C780002070B6F90290B7F1FF3F62D092F818B06E
:10C79000A37CB5F92A600BFB03F3227C09B2304677
:10C7A000069108930792FCF7ABFBEB69C0B29A7E47
:10C7B0000FFA88F80092089ADB7E02FB07A7019324
:10C7C00001230293A37C0497264F03933B680990AF
:10C7D000059306984146079A5B46FCF70FFDB9F1B1
:10C7E000FF3F19D046F00200FCF78AFB1C4B06986D
:10C7F000DB6941469A7E0092DB7E089A0193012311
:10C800000293A37C039302FB09A304933B68079A5A
:10C8100005935B46FCF7F2FCEB695A7E1B7E9A425D
:10C8200014D9022E12D086F00400FCF769FB0C4BE1
:10C830000698DB691E7ED97E9A7E06FB01815B7EAF
:10C84000079E434406FB0202FCF7D8FB0998FCF75D
:10C8500057FB627C6B8CD3186B840BB0BDE8F08FF8
:10C86000C05D001068010010034BDB69DB6909B192
:10C870001A7C0A60587C7047C05D001002230B8050
:10C880007047C3699A898A4202D8DA898A420FD2EC
:10C89000986890B1038899420CD342888A420BD39E
:10C8A0004268C91A32F82100C04380B2C00B7047F9
:10C8B000012070470020704700207047704737B54F
:10C8C0001546184A02AB43F8081D019012686946E4
:10C8D0009047154C0190606918B12946FEF762FA3D
:10C8E000F0B10120FCF748FFE3695B6983B19B6805
:10C8F00001980099984710E001A804F06DFFE369E2
:10C9000005461B689847094B1B680BB1284698479A
:10C91000009B013B002B0093EEDA0020FCF72CFF7C
:10C920003EBD00BF98010010C05D0010BC5D00104E
:10C9300037B50C460190A8B10C4BDB695B690BB9AC
:10C940001D460CE05B68002BFAD0984705460AE0CC
:10C9500001A804F041FF30B10A2804D00135A542F6
:10C96000F6DB00E0054628463EBD00BFC05D001076
:10C9700013B5002402A941F8044D00F0D1F8019B41
:10C980008342CCBFC0EB030020461CBD37B5154B1E
:10C9900002AA42F8081D01901B686946984705469F
:10C9A0000190F0B1104BDB695C691CB900E01C46DA
:10C9B00025460CE02368002BF9D00099984710E039
:10C9C00001A804F009FF044600F0A0F82D18009B10
:10C9D000013B002B0093F3DA2046FFF7C9FF401913
:10C9E000FFE73EBD98010010C05D0010254B73B5F8
:10C9F0001B6805460E4663B10020F6F707FB0028CA
:10CA00003FD0284631466A46FFF759FFF6F74CFA01
:10CA1000F5E71D4C11466846082207F0FEF9B4F808
:10CA20004020BDF80030BDF80210D318ADF800303A
:10CA3000B4F8443068465918ADF80210BDF8041037
:10CA40005218ADF80420BDF806209B18ADF806304A
:10CA5000F6F7DCFA68B1BDF8003028466384BDF80B
:10CA6000023031466A46A384FFF729FFF6F71CFA25
:10CA7000F0E7628C236CD31A6384A28C636CD31AA4
:10CA8000A3847CBDAC5D0010C05D0010094B9A8D85
:10CA900002F00C02082A07D00C2A05D0042A07D17C
:10CAA000DB69187E01387047DB69187E40087047E3
:10CAB00000207047C05D0010014BDB69587E704755
:10CAC000C05D001008B5FFF7F7FF034B9A8C821882
:10CAD0009A841A8C5A8408BDC05D00100A2810B5CB
:10CAE000044602D1BDE81040ECE70D2808D0054B04
:10CAF000DB691B689847044B1B680BB120469847BD
:10CB000010BD00BFC05D0010BC5D001008B5034B38
:10CB10000021DB695B68984708BD00BFC05D00105D
:10CB200008B5024BDB695B68984708BDC05D001023
:10CB300038B5054600F07EFA044628B100F0DEFA6A
:10CB400000212A46FCF7A6FD204638BD70B50646F2
:10CB50000D4689B1084600F06DFA044668B100F050
:10CB6000CDFA26B131462A4607F057F905E031469D
:10CB70002A46FCF78FFD00E00C46204670BDFFFF03
:10CB80000F23044A52F83320904201D2013BF8D2DD
:10CB900018467047E856001038B50446FFF7F0FF16
:10CBA000002305460246184614E00C4901EBC50176
:10CBB000C918496859B1886841688C4203D838BDA2
:10CBC000816821B1886841688C42F9D800E0084644
:10CBD000013208330F2AE8D938BD00BFE8560010EB
:10CBE0000160426083600061801840F8042C704747
:10CBF00038B5456804462846FFF7C2FF094B1A6856
:10CC0000954200D9FEE7551B1D60A368E26803B199
:10CC10005A600AB1136038BD034A02EBC00043609A
:10CC200038BD00BF305E0010E85600102DE9F0411D
:10CC30001E4E0546D6F88030D6F88420013B0818F1
:10CC4000D31898420C4605D84B591BB94368ED18C8
:10CC5000FFF7CEFFD6F884309C420AD954F8047C02
:10CC6000E71B3B682BB97B683846ED18FFF7C0FF20
:10CC70003C462846FFF784FF06EBC0072A467B6840
:10CC8000804600212046FFF7ABFF7B6804F10802D5
:10CC900003B15A60A3600023E360054B06EBC806AE
:10CCA00072601A68AD181D60BDE8F081E85600108A
:10CCB000305E00102DE9F041674C94F88830002B6D
:10CCC00040F0C8806548026802B9FEE7017D00298E
:10CCD00000F0958081680069C4F890200830B1FBAD
:10CCE000F0F00230C4F88C00C0000D1A1018B1F535
:10CCF000205F28BF4FF42051C4F88050C4F884004E
:10CD00008D08164600200DE0C7184FF0FF0EB7FB48
:10CD1000FEFE4FEA0E2CCEEB0C0ECEEB070746F8CC
:10CD2000047B0130A842EFD3164600200FE0C7185D
:10CD30004FF0FF0EB7FBFEFE4FEA0E2856F804CB6D
:10CD4000CEEB080ECEEB0707BC4558D10130A84208
:10CD5000EDD30133022BD4D14D08023B16460020FF
:10CD60000DE0C7184FF0FF0EB7FBFEFE4FEA0E2C8A
:10CD7000CEEB0C0ECEEB070726F8027B0130A84263
:10CD8000EFD31646002010E0C7184FF0FF0EB7FB98
:10CD9000FEFE4FEA0E28CEEB080E36F802CBCEEBA5
:10CDA0000707BFB2BC452AD10130A842ECD30133FA
:10CDB000022BD3D1023B002006E0C518FF26B5FBAD
:10CDC000F6F6AD19155401308842F6D300200AE07A
:10CDD000C518FF26B5FBF6F6AD19165C05F0FF0584
:10CDE000AE420CD101308842F2D30133022BE2D1A2
:10CDF000023B02E00020D05401338B42FAD30123DE
:10CE000084F88830164B1748C4F89430FFF740F97F
:10CE1000D4F88C10D4F890200139002302E00133BB
:10CE200042F8043C08328B42F9D30123C4F89C3009
:10CE3000C4F8A01000221021914044F832100132B1
:10CE4000102A054BF7D1D3F88000D3F88410BDE841
:10CE5000F041EBE6BDE8F081E85600109C010010BF
:10CE600069CE00007C57001038B500240B4D0C48EB
:10CE70002146182285F88840FCF70CFC28462146FC
:10CE80008022FCF707FC074BC5F8A440C5F88C408E
:10CE9000C5F88040C5F8A0401C6038BDE8560010B9
:10CEA0009C010010305E00102DE9F84F304B4FF020
:10CEB0000108D3F88040D3F88450013C641900265F
:10CEC0009B466F6807B9FEE72A68EB195ABBA34275
:10CED000194628D200E05146D1F804800A68DBF8F0
:10CEE0009030C7EB010903EBC20301EB080AC3F85A
:10CEF00004900AF1FF33A3420AD10B6843B94846B4
:10CF0000142206F08CFF08EB090343F8048C03E0BD
:10CF10004846424606F083FFA245DCD3F619E41BDF
:10CF20004FF0000800E01D46A542CAD3B8F1000F3B
:10CF30001BD154F8033C621CD31A1A680AB95B6807
:10CF4000F61800230BEB030008330021802B084A5E
:10CF50004160F7D1074B30461960D2F88410D2F8FF
:10CF60008030C918891BFFF761FE4046BDE8F88F85
:10CF7000E8560010305E001050F8080C704738B1C9
:10CF8000044AD2F8A430036003B15860C2F8A40088
:10CF9000704700BFE8560010F8B50446244E03342D
:10CFA000FFF788FE24F00304336804349C4238BF42
:10CFB0001C46D6F8A4301D4604E055F8042CA242C5
:10CFC00003D02D68002DF8D128E02A680AB16968DD
:10CFD0005160696801B10A60AB421DD11A681D46F3
:10CFE000C6F8A42018E07B689C4215DC1D1DFFF7E5
:10CFF000FFFDD6F8803078681B1BC6F88030D6F865
:10D00000A8302D1BE3187D19001B3946C6F8A8303F
:10D01000FFF70CFE45F8044C2846F8BDFFF744FF27
:10D020002046FFF7B9FD07460028F5D0DBE700BF33
:10D03000E85600102DE9F8430446002854D02C4F40
:10D04000FFF738FE3E68B44202D3033424F00306EF
:10D05000284B06F10C081B68984540D84046FFF75E
:10D060009BFD054660B9D7F8AC30002B39D1224A78
:10D070001468002C37D1FFF717FF0028EED033E0FB
:10D08000D7F8A0401A4B7CB3013CD3F89020C3F8EA
:10D09000A040D3F89C4002EBC409D9F80410C3F8AF
:10D0A0009C10012102F83410F4B147681E68C8EBE7
:10D0B00007020C36B2422CBF46463E46FFF798FDAB
:10D0C0000023C9F80450284621463246FFF788FD60
:10D0D000B74209DDB81BA919FFF7A8FD04E0002439
:10D0E00002E0044600E01C462046BDE8F88300BF8D
:10D0F000E8560010305E0010345E001030B1044B72
:10D10000D3F8903003EBC00040680830704700BF90
:10D11000E8560010024B1A6801321A60EEE700BFB1
:10D12000345E0010034B1A680AB1013A1A600020FD
:10D13000704700BF345E0010014B18680C38704710
:10D14000305E0010014BD3F8A0007047E856001085
:10D15000034BD3F88000034B1B68C01A704700BF15
:10D16000E8560010305E0010034BD3F88C00D3F863
:10D17000A030C01A704700BFE856001008B5FFF78E
:10D1800099FD0B4AA2F18001D36F13B19B68002077
:10D190000AE0083A8A42F7D1F9E75A689B68904258
:10D1A00038BF104613B19B68002BF6D10C3808BD70
:10D1B000E856001008B5FFF7E1FFB0F5800F4FF01B
:10D1C00064034FF05A0203D990FBF3F0504308BDBB
:10D1D0005043B0FBF3F008BD034BD3F8AC20013251
:10D1E000C3F8AC20704700BFE8560010034BD3F8DB
:10D1F000AC20013AC3F8AC20704700BFE8560010DD
:10D20000024B0122186099601A7570479C0100104A
:10D21000034B0022DA60013218611A75704700BFB3
:10D220009C01001038B1044BD3F8903003EBC000E0
:10D23000436858680C387047E8560010F8B5054642
:10D24000C0B10D4CD4F8906016F8303006EBC00732
:10D2500083B179684868FFF7E9FCD4F8A03001335E
:10D26000C4F8A030D4F89C30C4F89C507B600023F4
:10D2700006F83530F8BD00BFE856001010B504467A
:10D280000068FFF7DBFF0023236010BD70B50E467A
:10D290000546002404E02846FFF7F0FF013404357A
:10D2A000B442F8DB70BD00BF10B580EAE071A1EBBD
:10D2B000E071074A012300E0013352F8044FA14214
:10D2C00001D30A2BF8D10028B8BF0133184610BD8E
:10D2D000D09D0100002810B507DD0A682B241346F5
:10D2E00003F8014B0B600023537010BDB0F1004FE9
:10D2F00070B51C6809D12D2004F8010B01391C60A0
:10D30000C9B26FF0004001260CE0002806DA2D2596
:10D3100004F8015B1C604042012400E00024091B6A
:10D32000C9B200260AB30139C9B21EE00139C9B237
:10D330004C1CE4B2944205D10F4C25781C6804F8CB
:10D34000015B1C600D4C54F8215090FBF5F4E4B2E5
:10D35000092C0CD805FB140011B90EB10134E4B24C
:10D360001D68303405F8014B1D600029DED11B68B3
:10D3700000221A7070BD00BFA85D0010D09D010092
:10D3800070B50C460546FFF78FFF0022C1B2234659
:10D390002846BDE87040FFF7A9BFFFFF034BDA8CBA
:10D3A0008218DA841A8D8A181A857047C05D0010B9
:10D3B000014BD88419857047C05D0010024B1A6C70
:10D3C0005B6C8018C918F3E7C05D00102DE9F743C6
:10D3D000DFF874E0DEF84470DEF84040CE19DF1963
:10D3E0009EF818300519013B9BB21419EA1AADF8E2
:10D3F00000201A19ADF804206846F21ADB19ADF8BE
:10D400000220ADF80630F5F701FED0B128463146CE
:10D410002246FBF7ADFD06F10109284639462246B2
:10D4200007F1FF38FBF7A4FD284649464246FBF7C3
:10D43000C1FD204649464246FBF7BCFDF5F734FDE9
:10D44000E3E7BDE8FE8300BFC05D001070474FF00A
:10D45000FF30704710B550F8044B013A0C60194486
:10D46000F9D110BD10B50468013A41F8044B1844D5
:10D47000F9D110BD08B5FBF71BFBB0F5807F10D0CC
:10D480007F2810D83F2810D81F2810D80F2810D870
:10D49000072810D8032810D8012894BF00200120A5
:10D4A0000CE008200AE0072008E0062006E005203E
:10D4B00004E0042002E0032000E00220012313FA2C
:10D4C00000F0013808BD38B50446FBF7F1FA05460F
:10D4D000FBF728FBAC4203D218B150F8240038BD4A
:10D4E000002038BD2DE9F8438146FBF7E1FA80467C
:10D4F000FBF718FBD8B106460246002352F8041B7E
:10D500001846894515D001334345F7DB00246FF0F9
:10D510007F472546484656F8041B05F09BFFB84256
:10D520003CBF07462C4601354545F3DB00E0044689
:10D530002046BDE8F88370B506460D46002407E096
:10D540006B68E1B253F824203046FAF7A7FF0134A4
:10D550002B689C42F4DB70BD014B0146587CEAE726
:10D56000C05D0010084B010C00F0FF029A5C01F056
:10D57000FF015B5CD202D218000A044B00F0FF00EE
:10D580001B5C5B01D018704740B2010040B1010044
:10D590004FF6FF707047F0B550F8044B0A4D270C5A
:10D5A00004F0FF06AE5D07F0FF07ED5DF6027619A9
:10D5B000240A064D04F0FF042D5D6D017419013A33
:10D5C0000C801944E8D1F0BD40B2010040B1010027
:10D5D000F0B5541E04FB030001EB840105880A4CDE
:10D5E00005F01F06A75DEE0AA65D3F04BC196D0994
:10D5F000064E05F03F05755DC01A2D026419013A0B
:10D6000041F80449EAD1F0BD20B10100E0B00100C9
:10D610002DE9F04F87B0039104920593C5696FE03F
:10D620002846FFF76BFD836A044603F42072802AC4
:10D63000B0F800A0B0F802B08788C68803D0B2F571
:10D64000207F0BD101E0059A09E0039A02EB0A0C56
:10D65000059A1FFA8CFC02EB070907E0039A1FFAF0
:10D6600082F909EB0A0C1FFA8CFCB94403F4A0639D
:10D67000B3F5807F1FFA89F903D0B3F5A06F0AD103
:10D6800001E0109B08E0049A02EB0B03109A9BB296
:10D6900002EB060806E0049B1FFA83F808EB0B0375
:10D6A0009BB2B0440FFA8CFC0FFA8AFA1BB20FFA45
:10D6B0008BFBBCEB0A011FFA88F8CBEB030200D10D
:10D6C00042B128460193CDF808C0F4F79AFDDDF881
:10D6D00008C0019B3FB2C7EB0A070FFA89F932B2C3
:10D6E0004F44C2EB0B020FFA88F84244B7EB0C012F
:10D6F000C3EB020200D112B12846F4F7A5FC256A5B
:10D70000002D8DD107B0BDE8F08FFFFF70B50D4D36
:10D7100004462B680E46132B12DCFFF7EFFC03695F
:10D72000746043B12A68304601322A6098472B68FA
:10D73000013B2B6070BD3046BDE87040F5F718BE68
:10D7400070BD00BF9857001008B5FFF7D7FC806A7E
:10D7500000F01000D0F1010038BF002008BD10B566
:10D760000C4658B139B1FFF7C9FC8069A04204D01A
:10D770000028F8D110BD084610BD012010BD884218
:10D7800000D0ECE701207047F8B50D461446FFF7CE
:10D79000B5FCC7690CE03846FFF7B0FC21460646E9
:10D7A0003846A847384629462246FFF7EDFF376A34
:10D7B000002FF0D1F8BD38B50C461546FFF732FD05
:10D7C000401BA042A8BF204638BDF8B50D46144600
:10D7D0001E46074660B111461A46FFF7ECFF0446A5
:10D7E0003846FFF78BFC22468119284606F015FBC8
:10D7F0002046F8BDF8B50D4614461E46074660B1F2
:10D8000011461A46FFF7D7FF04463846FFF776FC65
:10D8100029468019224606F000FB2046F8BD2C233D
:10D82000D3E72C23E6E7FFFF38B5094C05466368CC
:10D830004BB16168FFF793FF38B960682B1A584203
:10D8400040EB030038BD012038BD012038BD00BFCA
:10D85000485E00107FB56E4605460C460FC986E847
:10D860000F000D23029500932E4608E03046F4F792
:10D87000FFFC064618B16946039405F03BFE3046AE
:10D8800000F049FC0028F1D12846214605F032FE7F
:10D890007FBD70B5CD6804460E465DB1FFF72EFC26
:10D8A0002A68B0F90030D31A2B606A68B0F90230E8
:10D8B000D31A6B6020463146BDE87040CAE7034B7F
:10D8C00058605A68024B5A60704700BF405E0010B3
:10D8D000385E0010F0B595B000210C220DA806F0BE
:10D8E000A0FAFDF71BFB0546002840F01A810AA8A4
:10D8F000FDF7AEFA0A9B8D4CB3F1FF3F09D10B9BAC
:10D90000B3F1FF3F19D1227A9DF830309A4210D1FD
:10D9100008E1002B11DB0B9A002A0EDB8449B1F9D8
:10D920000010CB180A93834BB3F900309A180B926E
:10D9300003E023680A9363680B9310A800F0CAFC05
:10D94000002013A912AAFDF711FA139B0A980B994C
:10D95000C01A2268129B8242C3EB01010A900B910C
:10D96000724B08D15A688A4205D11A7A9DF8303034
:10D970009A4200F0D1809DF83120FEF7E7FA6E4B15
:10D98000186818B90A980B9900F056FB6B4E119065
:10D990007368C3B1119A934215D07068FFF744FFC2
:10D9A00088B17068FFF7D0FE68B10DAB0AAA07CA4C
:10D9B00083E8070012220393009270686946FFF71C
:10D9C00068FF002373601198FFF72EFF002800F016
:10D9D0009880119B227A73609DF83030534D9A42A3
:10D9E0003DD0119B002B3AD01198FFF787FB9DF893
:10D9F00030600A9A8DF818602B7A8DF81930B0F9DA
:10DA00000030D31A04930B9AB0F90230D31A05935D
:10DA100095E8070004AB2E7203939DF83C60112338
:10DA2000009307AB83E80700454D16B16E68119B64
:10DA30006B606F686946119805F05CFD6B689F42EA
:10DA400002D03F4B5B68119307AB93E8070084E873
:10DA5000070026B1304600F05EFB00B16E609DF815
:10DA60003030267A314A1E4335D00C21344D009196
:10DA700068681199884212D0696881B10BB100239E
:10DA800006E0116852688DF83C300D910E920DAB96
:10DA9000039368686946FFF7FCFE00236B609DF8FE
:10DAA0003060119B2672002B29D00DAB0AAA07CA41
:10DAB00083E807000EB1119B05E0224B1B780BB1E8
:10DAC00000F052FA00236B6011980DAB6946039386
:10DAD000FFF7DFFE13E0119DA5B11198FFF734FEAB
:10DAE00078B10DAB0AAA07CA83E807001022119883
:10DAF0006946009203933546FFF7CBFE02E001250D
:10DB000000E005460AAB93E8070084E807001846E2
:10DB1000002100F0A3FA00E0002510A800F0E2FBCD
:10DB200000E00025284615B0F0BD00BF9C5700104E
:10DB3000B85D0010B05D001094590010385E001000
:10DB4000405E00108059001030B5456885B004462D
:10DB500085B100211022684606F063F92846FFF7D8
:10DB6000CDFA40F21313009363684068694603934B
:10DB7000F5F70EF805B030BD10B5044648B1FFF713
:10DB8000BDFA0068FCF756FA2046BDE81040FFF7E2
:10DB900055BB10BD73B5044601A8FCF7F3F914E0BA
:10DBA000019870B1FFF7AAFA4368A34209D1304641
:10DBB00001A9019DFCF7F6F906462846FFF7DCFFB0
:10DBC00004E0304601A9FCF7EDF90646002EE7D146
:10DBD0007CBD2DE9F04107460C2088461646FEF72D
:10DBE000A7FF0446C0B1FFF789FA4760C0F8088074
:10DBF0000546FCF76BFA2246811900230848FCF71A
:10DC0000E2F90746286018B13146FCF735FA03E01F
:10DC10002046FFF713FB3C462046BDE8F08100BFDD
:10DC200049DB000070B50D4660B1FFF767FA0446A6
:10DC30001DB100682946FCF71FFA2068BDE8704056
:10DC4000FCF733BA70BD10B5044620B1FFF762FA95
:10DC50008468FFF767FA204610BD00BF034B10B57C
:10DC60009C6B9863F4F758FE204610BDC05D001011
:10DC700070B50546B0B1FFF741FA836A044613F068
:10DC8000010F0FD1284605F083FCA36A284643F014
:10DC90000103A362044B1A6801321A60BDE87040A8
:10DCA000F4F7CCBF70BD00BF9859001010B5044602
:10DCB00088B1FFF723FA836A13F0010F0BD023F02A
:10DCC00001038362044B20461A68013A1A60BDE8DA
:10DCD0001040F4F7B3BF10BD9859001008B528B133
:10DCE000FFF70CFA806A00F0010008BD08BD00BF14
:10DCF000F8B50D46114604461E46F4F735FB0746B7
:10DD00002DB150B92046314600F0B5FE05E020B1F6
:10DD1000F4F779FA3846F5F78DFA381E18BF012066
:10DD2000F8BDFE220823E3E7FF220023E0E7FBE73C
:10DD3000F7E710B5044610B105F0F2FB10B9204624
:10DD400005F003FCA04208BF002010BD38B5044612
:10DD5000C0B105F007FCFFF7ECFF0546044605E0FF
:10DD60002046FFF7E6FFA842044605D0204600F013
:10DD7000D4F908B9002CF3D1204600F03BF8002874
:10DD800018BF0024204638BD38B504460D4621B1E1
:10DD90000846FFF7B3F9006A18B92046FFF7AEF955
:10DDA000C069A84208BF002038BD70B50446F0B174
:10DDB00005F0D8FB01462046FFF7E6FF054606467C
:10DDC00006E031462046FFF7DFFFA842064606D0B0
:10DDD000304600F0A2F910B9002EF2D108E03EB1B1
:10DDE000304600F007F8002818BF002600E006467D
:10DDF000304670BD70B586B00446002168461022DA
:10DE000006F00FF8002C36D01D4E3068844232D018
:10DE10001E2304900594009310B16946FFF776FC29
:10DE20000123204669460393FFF770FC039D1DBB49
:10DE3000346006E020230093694604AB0393FFF7A8
:10DE400065FC2046F4F714FA04460028F2D1049C3D
:10DE5000204600F060F938B90EE0202300936946AF
:10DE600004AB0393FFF752FC2046F4F701FA044693
:10DE70000028F2D100E00125284606B070BD00BFA1
:10DE8000745900102DE9F04385B004460D4616463E
:10DE9000994600F05BF9DFF8888050B920460121EF
:10DEA00000F050F82B88AD88A8F80030A8F8025090
:10DEB00032E0B8F900302F686D68FF1AB8F9023007
:10DEC000ED1A16B9B9F1000F21D0204602A9F4F7D6
:10DED000C1F9B9F1000F05D0BDF80A30013B9944F2
:10DEE000ADF80E902046F4F7C3F96946F4F7B2F99D
:10DEF00002A839462A46FDF799F86846694632462F
:10DF0000FBF7BAFB02A86946FCF74CFF20B120469C
:10DF100039462A46F4F775F905B0BDE8F08300BF2D
:10DF2000A85700101FB5064C206840B1182304A95B
:10DF300041F8103D6946FFF7E9FB002323601FBD50
:10DF400094590010064B70B51A68044682420D467B
:10DF50001E4601D0FFF7E6FF024B34601D7070BD16
:10DF60009459001080590010DCE700BF70B50446DA
:10DF70000D4641B1F4F77CF928B12946AC60BDE803
:10DF80007040FFF7C3BB70BD05F0A0BA836A13F001
:10DF9000020312D0B0F90030994210DBB0F904301E
:10DFA00099420CDCB0F902309A420ADBB0F9060063
:10DFB0008242CCBF002001207047184670470020E5
:10DFC0007047002070472DE9F843884615461E46E5
:10DFD000044600B3FFF792F8294632460746FFF79A
:10DFE000D5FFB8B1D7F81C900EE04846FFF786F889
:10DFF000414607462A4648463346FFF7E4FFD7F82E
:10E000002090002818BF0446B9F1000F03D0C14585
:10E01000EBD100E004462046BDE8F88330B5134656
:10E02000044A05460C46106829462246BDE83040A1
:10E03000C9E700BF7C59001003460A460020194674
:10E04000ECE7EBE7044A03460C2000FB012207CA79
:10E0500083E80700704700BFAC570010034B0C2249
:10E0600002FB013307C883E807007047AC57001074
:10E070007FB5084A0346106848B104930E23059102
:10E080000093694604AB0393FFF740FB012007B000
:10E0900000BD00BF745900101FB5262303916946C7
:10E0A0000093FFF763FF05B000BD2DE9F0410D4679
:10E0B00014460646C8B1F4F7DBF8B0B1FFF71EF816
:10E0C00007463046FFF71AF8B7F90010B0F90030EC
:10E0D000B7F90220C91AB0F902304919D21A3046EC
:10E0E0001219BDE8F041F4F744B8BDE8F08108B575
:10E0F00028B1FFF703F8836A43F00403836208BD85
:10E1000008B538B1FEF7FAFF836A23F4005323F011
:10E110000403836208BDF4F71DBC1FB550B1002392
:10E12000039304A91F3341F8103D6946F4F730FD0D
:10E130000398FFE705B000BD034B1B68C31A5842A4
:10E1400040EB0300704700BF74590010034B1B687D
:10E15000C31A584240EB0300704700BF94590010A7
:10E1600008B9F4F79CBE7047B0F90420B0F900304C
:10E170000132D01A7047B0F90620B0F902300132EE
:10E18000D01A704710B5FFF7EBFFFEF7B7FFBDE8F9
:10E190001040E9E710B5FFF7E3FFFEF7AFFFBDE87A
:10E1A0001040E8E7FF21F4F7DFB8FE21F4F7DCB810
:10E1B00008B5034610B1FEF7A1FF036A184608BD73
:10E1C000F0B50E4687B0074600284CD000294AD04B
:10E1D000FF21F4F7C9F8FE2104463846F4F7C4F8E5
:10E1E00004A905463846F4F735F8384602A9F4F78D
:10E1F00077F8C5B128466946F4F72CF8BDF9101038
:10E20000BDF91220494252426846FCF70FFF2846EA
:10E2100000F02BF800F08200822804D1BDF8003015
:10E22000013BADF80C30CCB120466946F4F712F84A
:10E23000BDF91010BDF91220494252426846FCF760
:10E24000F5FE204600F011F800F48170B0F5817FF2
:10E2500004D1BDF80230013BADF80E30304602A9C2
:10E26000082205F0DAFD07B0F0BD08B518B1FEF7D9
:10E2700045FF008D08BD08BD014B1868704700BF01
:10E280006C59001010B50C4638B131B1FEF736FFAD
:10E290002146BDE81040F4F789BC10BD034B014690
:10E2A000186808B9024BD86BECE700BF685900103A
:10E2B000C05D00101FB540B104A9222341F8103DF4
:10E2C0006946F4F765FC039801E06FF0704005B013
:10E2D00000BDFFFF024B1A6802601860704700BF64
:10E2E0008C5900100B4A10B5136814468BB10022EC
:10E2F00001E01A460B46834208D11B680AB113603D
:10E3000010BD002B08BF1346236010BD19680029FB
:10E31000EFD110BD8C59001002688368D31A42688F
:10E3200023EAE373002A01DA0022426042689A423B
:10E33000C8BF4360704770B5456804468068461999
:10E340008E4204DCC0F101004018C31863606368AA
:10E3500020469942BCBFC2EB01016160FFF7DCFFC0
:10E360006068401B70BD38B5456804464160FFF7E2
:10E37000D3FF6068401B38BDF4F760BC70B504463D
:10E38000002820D0FEF7BAFE0546006AD8B1AB6A75
:10E3900013F0080F05D1FEF7B1FE836A13F0080FE2
:10E3A00011D1AD692046F4F773FA29462046F4F7F7
:10E3B00033FA2046F4F742FC034920460022BDE828
:10E3C0007040F3F7E1BF70BD79E30000F8B5054692
:10E3D00000B3FEF793FE0446284605F0A1F8064672
:10E3E000C0B12846F3F744FFA36A074613F0020FB3
:10E3F00004D020463946226AF4F7A1FB3846FEF7DE
:10E400007DFE07463046FEF779FE236A0362FB690C
:10E41000FD612362F8BDFFFF37B5C36A02461C6881
:10E420000D466B4600F1080103C983E8030010465E
:10E43000694605F06CF8B5F90020BDF900301219F5
:10E440009A4217DCB5F90420BDF90430121B9A4238
:10E4500010DBB5F90220BDF9023012199A4209DC2D
:10E46000B5F90600BDF90630041B9C42ACBF002084
:10E47000012000E001203EBD70B5B0F90030B0F9D8
:10E48000046015889488D088F31A52889BB2181AB1
:10E490009B1A08808B804D80CC8070BD438E13B555
:10E4A00013F0080F0C460FD06846FFF7F7FEBDF8D3
:10E4B00002302380BDF80630A380BDF800306380B1
:10E4C000BDF80430E38002E00846FFF7E7FE1CBD1C
:10E4D00010B5F3F7CDFEFFF7EDFE6FF070439842F5
:10E4E00003D1BDE81040F7F761BB10BD70B505461C
:10E4F0000C46F4F75BFBEB6A20461A682146BDE840
:10E500007040FBF7B9B8438E13F0080F19BFB0F98C
:10E510000620B0F90230B0F90420B0F90030D01A6A
:10E5200001307047438E13F0080F19BFB0F9042073
:10E53000B0F90030B0F90620B0F90230D01A01303D
:10E54000704710B50446FEF7E5FD438E13F0080F43
:10E5500003D02046FFF71EFE02E02046FFF712FE22
:10E560000446FEF7DFFD204610BD70B50D4604469B
:10E57000FEF7D0FD438E9D4203D045862046F4F73A
:10E580005DFBBDE87040FEF7CDBD10B5044620B17F
:10E59000FEF7C0FD448EFEF7C5FD204610BD70B5E8
:10E5A0000C46054678B1FEF7B5FD438E04EA03023A
:10E5B000944204D01C4344862846F4F73FFBBDE850
:10E5C0007040FEF7AFBD70BD70B50D46044670B12A
:10E5D000FEF7A0FD438E23EA0505AB4203D0458636
:10E5E0002046F4F72BFBBDE87040FEF79BBD70BDE5
:10E5F000024B42861B680186C3627047B40100105B
:10E60000F7B50E460446002800F08A80FEF782FD2A
:10E6100033680746152B29D006DC112B29D0142B83
:10E6200074D00D2B77D132E01E2B41D002DC162B9B
:10E6300071D13AE01F2B64D0B3F5407F6BD1C36A30
:10E640001D68F368C3621B68ED1AFEF76BFD204678
:10E65000FEF760FD69420A462B460095FEF7D8FF9B
:10E66000FEF760FD2046F4F7E9FA1CE0B0F930301F
:10E670004AE0438E13F0100F4DD0F3681B7A002B45
:10E6800049D0FEF74FFD2046FFF7B4FB48E0F368A2
:10E69000DB68002B3FD01B7A002B3CD0FEF742FDFD
:10E6A0002046FFF76BFE00253BE0B689068630E08A
:10E6B000F368012B438E09D113F0100F0FD02046C1
:10E6C00043F00101FFF751FF08270AE04FF6FE7102
:10E6D000204603EA0101FFF748FF092701E04FF058
:10E6E000FF37FEF71FFDB7F1FF3F4FF0000505D0E4
:10E6F00020463946FFF7D0FCF56012E00123F360B5
:10E700000FE0438EC3F30013F36002E0F168FFF7FC
:10E71000EDFE002500E001251FB1FEF703FD00E03E
:10E7200001252846FEBD70B50D46FE21164604465D
:10E73000F3F71AFE294604F03DFFFF212046F3F7C8
:10E7400013FE3146BDE8704004F034BF13B51446E3
:10E75000428E0B4612F0080F04D01A466946FFF7A6
:10E760008BFE6B461846214604F0B0FD1CBD1FB55C
:10E77000448E14F0080F15D089B2ADF80810ADF82A
:10E780000C10ADF80A20694602AAADF80E30FFF76A
:10E7900073FEBDF90200BDF90010BDF90420FCF7BD
:10E7A000D5FF04E0084611461A46FCF7EFFC1FBDF2
:10E7B0001FB5448E14F0080F15D089B2ADF80820AB
:10E7C000ADF80A10ADF80E1002AA6946ADF80C308B
:10E7D000FFF752FEBDF90000BDF90210BDF9062099
:10E7E000FCF7D4FC04E0084611461A46FCF7AEFFDD
:10E7F0001FBD438E07B513F0080F0A4603D06946C4
:10E80000FFF73AFE6A46104604F0EDFB0EBD2DE917
:10E81000F0411E46438E0C4613F0080F1546DDF8F6
:10E820001880C6EB020714D007E02046394672195B
:10E83000FCF78CFF013E44440137002EF5DABDE8B9
:10E84000F081204639467219FCF7A0FC013E444491
:10E850000137002EF5DABDE8F08137B504460D46E4
:10E8600019B96846FFF71AFD6D46638E13F0080F5D
:10E8700005D02A4620466946FFF7FEFD6D46204634
:10E880002946FFF7C9FD18B1E36A28461B69984776
:10E890003EBD0021E1E7438E37B513F0080F044673
:10E8A0000D4604D02A466946FFF7E6FD6D46204630
:10E8B0002946FFF7B1FD18B1E36A28469B689847DF
:10E8C0003EBD024B1A68186010467047B401001034
:10E8D000014B1868704700BFB401001070472DE964
:10E8E000F04389B00646FEF715FC04A90446FFF77D
:10E8F000D5FD012206A804A9FAF7BEFEBDF91C70D9
:10E90000BDF918200137B4F96030BF1AFF1A03EBC4
:10E91000D37302EB6308226DE36C3046B2EB03095C
:10E9200008BF4FF00109E56DFFF7D8F920B9606B1A
:10E93000FAF7FCFDFDF79CFB06AA92E80300B4F889
:10E94000602002AB83E80300D4F854E011B2E06C1D
:10E950001FFA88F301EBD171A3EB6101C0EB0E004C
:10E96000DB197843ADF80430BDF90E3005269B194C
:10E9700003EBD373B0FBF9F05B100918013B89B2CC
:10E980009BB28A18ADF80810ADF802302046033368
:10E990006946ADF80A60ADF80C20ADF80080ADF81E
:10E9A0000630FFF75AFF002D05DA09F1010597FB44
:10E9B000F6F6B54202DC012D14DD00E00B25206CDB
:10E9C000FAF7BCFD0026B146691E96FBF1F1012263
:10E9D00003232046414409F10109FFF7C8FEA94578
:10E9E0003E44F1DBA06BFAF7A9FD204602A9FFF730
:10E9F00000FF204602A9FFF74EFF638E13F0010FC0
:10EA000007D0E06BFAF79AFD204604A90022FFF731
:10EA10009DFEFEF787FB09B0BDE8F08310B5044604
:10EA2000FEF778FB044B8364FEF77CFB2046BDE8D1
:10EA30001040F4F703B900BF409E0100014A024BA9
:10EA40001A607047409E01005000001010B5044647
:10EA500020B1FEF75FFB046DFEF764FB204610BD9E
:10EA600030B5059D049C0495069D06940595BDE86A
:10EA7000304000F0BFB81FB501F00803002B40F292
:10EA80008A3240F28A5318BF1A4600900CBFFF2307
:10EA9000FE230020019202910393024603460146A1
:10EAA00000F0A8F806210446FFF7F6FA204604B065
:10EAB00010BDFFFF10B5FEF72DFB0446406EFFF7BB
:10EAC0005BF800236366E365BDE81040FEF72ABBF0
:10EAD000438E10B513F0080F14D0B0F90430B0F91C
:10EAE000002001334C889B1AB1F90000B1F90420D1
:10EAF0009BB20C80C043CC88D24318189B188C80E2
:10EB0000C8804B8010BD10B5044604F05EFDF4F7DC
:10EB100095F82046F3F7ACFB2521BDE81040FFF740
:10EB200033BAF0B587B00C9C0E9E0F9F0ABB03BB97
:10EB3000204604A9F3F7D4FB16F0080F2B4B0CD09A
:10EB4000B3F90020BDF91400BDF91630BDF912105B
:10EB500001300133801A5B1A0BE0BDF91610BDF9C4
:10EB60001420B3F90030BDF9100001310132C91A87
:10EB7000121A00940D9C01941D4C0294109C3C347C
:10EB80000394F4F7E3F8054660B3FEF7C3FA06F022
:10EB9000080216F0100F18BF42F01002A7F1FE0392
:10EBA00018BF92B2114E012B88BF42F010020446EA
:10EBB0003946FFF71DFD04F13407331D0FCB87E8FD
:10EBC0000F006423E3645A3B63650A3B2365736962
:10EBD0006364FEF7A7FA736928465B68984728467E
:10EBE000FFF791FF284607B0F0BD00BFB801001045
:10EBF0008BEC000010B586B0089C0094099C019431
:10EC00000A9C02940B9C039400240494FFF789FF50
:10EC100006B010BD70B50C460546002820D0FEF7A2
:10EC200079FA002CC26C436D06DBD31A23EAE37336
:10EC30009C42A8BF1C4600E00024036DA3420BD0F9
:10EC400004652846F3F7FAFFFEF76CFA284605211B
:10EC5000BDE87040FFF720BABDE87040FEF762BA29
:10EC600070BD70B50D46064648B1FEF753FA046D07
:10EC7000FEF758FA30462919BDE87040CAE770BD62
:10EC80000121EEE74FF0FF31EBE72DE9F04F44684B
:10EC900007468DB020463946FFF7B2FC002800F049
:10ECA00091813B680F2B19D008DC0C2B20D00E2B48
:10ECB00000F00C810B2B40F082810BE0242B00F044
:10ECC0002F8140F21312934200F05481232B40F025
:10ECD000768144E12046FFF716FF70E12046FEF7FB
:10ECE00019FA436C1D68FEF71DFA2046A84769E132
:10ECF000D7F80C80B8F1000F00F0618198F8083067
:10ED0000002B00F0C0802046FEF704FA03A98146DC
:10ED1000836C056D20469847B9F83220D9F85460C5
:10ED2000D9F84C3012F0080FC6EB030B019207D054
:10ED3000D8F80030D8F80420C8F80430C8F800200B
:10ED4000D9F85830D8F800A0032B14D12046FFF78B
:10ED5000B1FE0B9B049A03EBD3730AF1FF30A0EBD7
:10ED60006300801A0BFB00F00A9902F034FA0546A2
:10ED7000C9F860005FE0049A00239245C9F8583052
:10ED800006DC0233013DC9F858304FF0FF362CE065
:10ED900005998A4502DAAD1B764226E006998A4536
:10EDA00015DC0A9900290DDD0B9B0AF1FF3AC2EB35
:10EDB0000A0A03EBD373AAEB630A0BFB0AF002F017
:10EDC0000AFA05460323C9F8583000260DE0079AD1
:10EDD000924501DAAD1908E0089A924504DC012653
:10EDE0000135C9F8586000E01E460B9B049A03EBFE
:10EDF000D373D243A2EB63039A440BFB0AF00A9944
:10EE0000D9F85C8002F0E7F9C9F86000FEF78AF9EA
:10EE1000A6B1B8F1000F17D1434640F2D2414FF4EA
:10EE2000C8722046FEF7D5FE80462046FEF772F9EE
:10EE3000C0F86480C665FEF775F905E0B8F1000F0B
:10EE400002D02046FFF736FE01212046FFF77AF870
:10EE500020462946FFF7DEFE019B13F4807F40F039
:10EE6000AE802046FEF756F9058DFEF75BF9204689
:10EE70004FF48071FFF793FB15F0020F00F09F80B5
:10EE80002046012168E02046FEF744F9458EFEF752
:10EE900049F915F4807F00F0928020464FF480718C
:10EEA000FFF792FB2046FEF735F9C36D054613B117
:10EEB0002046FFF7FFFD00232E8DAB65FEF732F9EC
:10EEC00016F0020F7BD02046022145E02046FEF7D7
:10EED00021F9456DFEF726F9FA6813685268002A91
:10EEE0006DDD103B122B6AD8DFE803F01616121204
:10EEF000696969696969696969696969690A0D00A6
:10EF00002046294601E020466942FFF7AAFE56E066
:10EF10002046FFF7B5FE52E02046FFF7B3FE4EE075
:10EF20002046FD68FEF7F6F82B68C26C934207D1C5
:10EF3000416DAA68914203D1016D6A6891423CD04B
:10EF4000C364AB6843656B6803652046F3F776FEE0
:10EF5000FEF7E8F820460521FFF79EF82FE020464F
:10EF6000FEF7D8F8FB68C26C1A60426D9A60026DB9
:10EF70005A6022E02046FEF7CDF8C16D054611B17A
:10EF80002046FFF76EFEEB6D2A6D002B2B6E05DD24
:10EF90009A42B4BF0022012206DD04E09A42CCBFAF
:10EFA0000022012200DA2B651AB12046FFF782FD0C
:10EFB00003E0686E3221FEF735FEFEF7B3F83846FF
:10EFC000F4F7D6F90DB0BDE8F08F70B50C460546E4
:10EFD00060B1FEF79FF8C36CA34203D0C464284617
:10EFE000F3F72CFEBDE87040FEF79CB870BD70B51D
:10EFF0000C46054660B1FEF78DF8436DA34203D081
:10F0000044652846F3F71AFEBDE87040FEF78AB85B
:10F0100070BD70B50C46054658B18968FFF7E7FF2B
:10F0200028462168FFF7D1FF61682846BDE8704097
:10F03000F0E570BD6823FEF7DDBB6823FEF7C5BBB6
:10F04000704710B5FEF766F8836C5C88FEF76AF8C7
:10F05000204610BD2DE9F04F00268FB0804608965F
:10F060000996FEF757F8B0F96010836C04460491D6
:10F0700008A9B3F80290FFF711FA638E404603F037
:10F0800001030293FEF760FB04EB8000476C09F17B
:10F0900004053B88B4F862200333ADF8243009F14D
:10F0A0000303B4F86490A06B09F1FF3909FB02393E
:10F0B000D4F84CA0ADF82690FAF740FA206CFBF794
:10F0C00033F80220FBF718F8206C0CA903F012FFAC
:10F0D000FDF7F2FC9DF834309DF83220D21AD2B2FE
:10F0E00005923A88063292B20392AB4292B20692ED
:10F0F00004DCED1A05EBD5756E10B6B2013B9B1919
:10F100009BB20C28CCBF4FF0030B4FF0020B0793C0
:10F1100033B25B454046B8BF5FFA86FBFEF7DEFDC3
:10F1200048B9606B6FF07043984208BF3D48FAF7EA
:10F13000FDF9FCF79DFF002562E0B4F86290FDF751
:10F14000F1FF09FB05F90221384609EB010204F041
:10F150005BF9049BAB4213D1BAF8003039887A8846
:10F16000C91ABAF8023001EBD171D21A02EBD2728D
:10F17000491009EB620250460231023204F044F9B0
:10F180004046FDF7C7FF29460446C06DF4F7F8FF77
:10F19000002834D0027882B306990022ADF82810F6
:10F1A0000799ADF82C20ADF82E10ADF82A6001902B
:10F1B00003F096FE03998A1E1218ADF82C200AA8B7
:10F1C00000214A46FBF732FF019BBDF92A20184671
:10F1D000059BBDF92810D21AFCF7A6FC029961B173
:10F1E000B4F96030AB4202D094F866302BB108A875
:10F1F0000AA9CBF10002FAF73FFAFDF793FF0135B8
:10F20000B4F864309D4298DB029A32B1E06BFAF7B1
:10F2100095F908A8002104F059F8FDF783FF0FB015
:10F22000BDE8F08FC0C0C00010B50446FDF772FF06
:10F23000044B8365FDF776FF2046BDE81040F3F7E9
:10F24000FDBC00BF4C9E0100014A024B1A60704792
:10F250004C9E01007800001070B50D46FDF75AFF76
:10F26000038804469D4215D2406898B1FDF752FFCD
:10F2700000EB85063046FEF701F82388013B9BB280
:10F28000238003E07268013546F8042BAB42F9DCB9
:10F29000FDF748FFBDE87040FDF744BF10B5FDF72E
:10F2A00039FFB0F95640FDF73DFF204610BD01493A
:10F2B00000F024B9C9F300002DE9F04790B00546ED
:10F2C000FDF728FF04462846FEF75CFF81462846E6
:10F2D000FEF760FF09AF824639462846B4F956600A
:10F2E000F6F7CEF901230293BDF82830BDF8362099
:10F2F000ADF838301BB20493BDF82C30BDF9248032
:10F30000ADF83C301BB20693BDF83230ADF83E206C
:10F31000013B9BB2ADF83A301BB212B20133002070
:10F32000B0440195089707920593F3F76FFE002804
:10F3300042D00EA8FEF792FC236E0BB101A89847AD
:10F340000020FEF78BFC1F48FAF7F8F809F1FF35AB
:10F3500000200146731E2A46FBF7DCFEBDF928207B
:10F3600000200AF1FF370146013A3B46FBF7D2FE87
:10F37000BDF92C00002101302A463B46FBF7CAFEAE
:10F38000BDF92E10002001313B462A46FBF7C2FE94
:10F39000638E13F0200F08D0B4F958300020013BE1
:10F3A00041462A464344FBF7B5FE012E01DDF4F742
:10F3B00085F9F3F779FDBAE7FDF7B4FE10B0BDE8C3
:10F3C000F08700BFAAAAAA00F0B5054687B000687A
:10F3D000FDF7A0FEB0F87C600446006FEF69C6F34D
:10F3E000C00608B1FDF796FE054607F10C0108229C
:10F3F000684604F012FDBB883A89013BADF8103035
:10F40000FB890132ADF812300133ADF81420ADF8AC
:10F410000230BDF80020BDF804307F8A0132013B84
:10F42000606BADF80020ADF80430ADF81670FAF757
:10F430007BFE694602AAB4F95A30284602F030F839
:10F4400006F10C0304EB83030E36986804EB860484
:10F45000FAF76CF8A068FAF771F8284604A96A462A
:10F4600002AB04F0C7F8FDF75DFE0DB1FDF75AFEE3
:10F47000002007B0F0BD2DE9F3410446FDF74AFE38
:10F48000C36D9E68F6F7AAF88046FDF74BFE336819
:10F4900001212046984733680746032120469847B4
:10F4A0000021336805462046984706462046FDF76A
:10F4B00031FE0C4BC365FDF735FE2046F6F752F9D9
:10F4C000204641463A462B46009604F0C5FA2046AF
:10F4D000054900F013F8204602B0BDE8F041F3F70B
:10F4E000ADBB00BF089F0100C9F30000014A024BF9
:10F4F0001A607047089F0100DC00001070B50D46CF
:10F50000044648B1FDF706FE0566FDF70BFE2046F2
:10F51000BDE87040F3F792BB70BDFFFF704708B5C0
:10F52000FFF7D6F9034B00681B6B1B8803EB400009
:10F5300008BD00BFE8000010F0B5002387B0054605
:10F5400004930593FDF7E6FDC36A044628461E684A
:10F55000FEF7FAF807462846FEF7C0FB58B9206CBC
:10F560006FF07043984202D12846FEF7B1FFF9F7D9
:10F57000DDFFFCF77DFD626E7300118852889BB23F
:10F58000013A0139591804A89B18ADF81410ADF8C8
:10F590001630FEF763FB04EB8703986BF9F7C6FFA1
:10F5A000FCF766FD94F8753007EB430704EB87071B
:10F5B000BF6D57B1FDF7B6FD38463146324603F010
:10F5C00023FF2846FDF7A6FD0446204604A9FFF7C1
:10F5D00044F90020FEF742FBA36F002B7BD002AD65
:10F5E0002846FEF75BFEBDF80820BDF81430022067
:10F5F000D31894F8562001339B18ADF80830FAF769
:10F600007BFD606CF9F79AFF606BFAF78DFDA06FD8
:10F61000FDF780FD2946B4F954200646FCF780FA30
:10F62000638E13F0010F54D0304603F059FC0646A8
:10F63000FBF76EFD6A46034695E8030082E8030087
:10F64000B4F9542022F00302042A09D00C2A0CD168
:10F65000BDF90E200132D21A02EBD272521002E032
:10F66000BDF80E20D21AADF80220B4F9542022F0D1
:10F670000C02012A0ED0022A17D1BDF90C10BDF9D7
:10F6800008208A1A921BBDF8001002EBD27201EB1F
:10F69000620208E0BDF80C10BDF800208A18BDF821
:10F6A0000810521A921BADF80020BDF80020A06C83
:10F6B000013A9619BDF80220ADF80460013AD3185A
:10F6C000ADF80630F9F73AFF68464FF0FF3103F026
:10F6D000FDFDFDF727FDFDF725FD07B0F0BD10B5D9
:10F6E0000446FDF717FD044B0367FDF71BFD20469D
:10F6F000BDE81040F3F7A2BA149F0100014A024B83
:10F700001A607047149F0100E400001070472DE953
:10F71000F04387B00646FDF7FDFC0446B0F83280A2
:10F720003046FEF711F8C8F300250DF11009002846
:10F7300014BF2F460227606DFAF7F6FC484603F027
:10F74000FDFB99E8030002AB83E80300E36A0DB90F
:10F750005B6801E05B691BB19847E36A1A680DE0DA
:10F76000206DF9F7EBFEBDF91420BDF91200BDF9CB
:10F770001010BDF91630FDF729FE012202A801463E
:10F78000F9F77AFF04EB8703586BF9F7CFFE04EB28
:10F790008703186CF9F7D2FE02A8FEF75FFAFCF7B0
:10F7A00067FC022F05D0236F002B14BF2B460023CC
:10F7B00004E0636F002B14BF0223002304EB8304D7
:10F7C000E46EFDF7AFFC002220461346314604F0FC
:10F7D00015F93046FDF79EFC836E0446FBB16B467F
:10F7E00002AA92E8030083E8030025B101216846DC
:10F7F0000A46FBF71BFCB4F95E10B4F960206846BA
:10F80000FBF714FC0220FAF777FCA06EFDF782FCF0
:10F810006946B4F95C20FCF783F9FDF783FC18F026
:10F82000010F0AD0E06CF9F789FEE36A04A81968B1
:10F830000229B8BF022103F049FD0020FEF70EFAAD
:10F84000FDF770FC07B0BDE8F08310B50446FDF786
:10F8500061FC044B4366FDF765FC2046BDE81040A3
:10F86000F3F7ECB9889F0100014A024B1A60704718
:10F87000889F0100580100102DE9F047DDF820A015
:10F88000DDF8249004460D4616461F46884634F897
:10F89000020BD047C847013E48F8040BF7D11F2F91
:10F8A00006D8284631463A46BDE8F04701F0A0BCEC
:10F8B000BDE8F0872DE9F04F9BB0109193460446C8
:10F8C000FDF728FC4569FDF72DFC2046F7F7ECFD18
:10F8D00008288146944E02DD002D00F0828100232D
:10F8E000012220461793189209920B93FDF712FC00
:10F8F000B0F9081005690C91B0F90A108246476901
:10F90000D0F80C80707C0D91F9F7F6F8DAF8001059
:10F9100081460969707C49681191F9F710F90A90DC
:10F92000FDF700FC082D0A99099A0B9B04D9102DAC
:10F930008CBF0422022205E0012D03D10F950DF1A9
:10F940005C0A01E00F929A46B9F1080F40F29F80DD
:10F95000082D40F29C80119B8B4200F09880707CB7
:10F96000F9F7FDF80C9912908800FDF763FB0E90F3
:10F97000002800F0DA822046F6F76AFF0446002FDE
:10F9800072D03846FDF7BAFB4D4606460027C14601
:10F9900066E0B36800221AA941F8042D5B6930467D
:10F9A0003A4698470C9B8046984252D10E98FDF7F4
:10F9B000B1FB1199129A804600910192204641466E
:10F9C0000C9A2B46FFF758FF002101230391109852
:10F9D00059460C9A009301930295CDF81080CDF80A
:10F9E00014A0F9F70BFCFDF79DFB35E00E98FDF731
:10F9F00091FB119A8446129B0F991998009200FB73
:10FA000001404246614601932B46CDF82CC0FFF7DA
:10FA100033FF002203921998109ADDF82CC00123BD
:10FA200010185946424600930193CDF810C0029534
:10FA3000CDF814A0F9F7E2FBFDF774FB199B1AA9A6
:10FA4000434441F8043DB36830465B693A46984701
:10FA50008046B8F1000FC9D14C4401370BF1010BBE
:10FA60000D9B9F4295DB0EE00123009301930490D0
:10FA7000594610980C9A0D9B0295CDF80C80CDF844
:10FA800014A0F9F7BBFB0E98FDF7D8FB4DE220461A
:10FA9000F6F7DEFE8146002F00F093803846FDF732
:10FAA0002DFB464607460024A84685E01AA90023F8
:10FAB00041F8043DBB6838465B69224698470C997B
:10FAC000054688422CD1254600E06546BB6805F115
:10FAD000010C62465B693846CDF82CC019A99847DD
:10FAE0000C9ADDF82CC09042EFD0C4F1010CAC446C
:10FAF00001230093019304EB0B0163461098CDF8AA
:10FB00001090CDF82CC0CDF808800396CDF814A045
:10FB1000F9F774FBDDF82CC02C4606FB0C994AE083
:10FB2000B8F1010F44D121E0C05D0010199810997F
:10FB300009EBE002049200F0070201230818069284
:10FB400004EB0B012A460093019302930396CDF830
:10FB500014A0F9F77BFA199B1AA95D19BB6841F843
:10FB6000045D5B693846224698470546002DDDD185
:10FB700020E019980F99012300FB01920492109A3A
:10FB800004EB0B0110182A4600930193CDF808806E
:10FB90000396CDF814A0F9F731FB199B1AA95D194A
:10FBA000BB6841F8045D5B693846224698470546C4
:10FBB000002DDED1B14401340D9B9C42FFF676AF9F
:10FBC000B3E10123009301930490594610980C9AD5
:10FBD0000D9B0295CDF80C80CDF814A0F9F70EFB23
:10FBE000A3E12046FDF796FAB0F90A80D0F80CA000
:10FBF0000746707CF8F780FF082804D910288CBFCE
:10FC00000425022500E001253B681B690E93737CE7
:10FC10000E9906EB8306F36C49681E690E9B3268E9
:10FC2000B34212910C9212D10123B7F9082000932C
:10FC30000193013B18370593109859464346CDF878
:10FC40000890CDF80CA00497F9F7D8FA6BE1B9F158
:10FC5000200F40F09F80B7F90870FDF763FA07FBAB
:10FC600005F0FDF7E7F90F90002800F05C81FDF743
:10FC700051FA07462046FDF74DFAE90008F1FF3A30
:10FC80000D9000F118041191B046CDF838B00D9ADE
:10FC9000022DB2F808900FFA89F61AD0042D33D04D
:10FCA000012D5AD1D8F810C0BCF1000F32D1264630
:10FCB000D346A246644656F8040B0C9B98470FFAAD
:10FCC00089F238550134A242F5D1A4465446DA46A9
:10FCD00041E0D8F810C03B46BCF1000F1AD12646CF
:10FCE000A34652466446BA462F461D4656F8040BB4
:10FCF0000C990992884701340FFA89F1A14225F83D
:10FD0000020B099AF2D121E0D8F810C03B46BCF1B1
:10FD1000000F07D02046394632462B46E04704EB19
:10FD200086041AE02646A34652466446BA462F4643
:10FD30001D4656F8040B0C9B0992984701340FFAA4
:10FD400089F1A14245F8040B099AF2D13D46A44637
:10FD500057465C46924604EB8C040D990123B1F999
:10FD600008201199109802910021039105910E9994
:10FD7000009301930497F9F741FABAF1000F05D007
:10FD80000E9A0AF1FF3A01320E9280E7FDF7CAF9A6
:10FD90000F98C6E0B9F1100F40F0C580B7F90870B0
:10FDA000FDF7C0F907FB05F0FDF744F914900028B2
:10FDB00000F0B980FDF7AEF982462046FDF7AAF9BA
:10FDC0000F9000F11804B0F908008000FDF732F937
:10FDD000814610B1FDF79EF90D90EB0008F1FF315F
:10FDE000159313910F9A022D128911920FFA82F82E
:10FDF0001ED0042D4AD0012D70D1376937B10E9B2A
:10FE00005F691FB1B9F1000F02D048E0A04601E0E0
:10FE1000A0464F46129938F8020B88470C9A904733
:10FE20000AF80700119901370BB2BB42F2D153E037
:10FE3000376953469FB10E9A576987B1B9F1000FE0
:10FE40000FD00D99204642462B46B84737690D988A
:10FE5000514642462B46B84704EB48043EE0A046D4
:10FE600001E0A0464F465946A3461C46129B38F86F
:10FE7000020B0A9198470C9A9047119B01371AB2CE
:10FE8000BA4224F8020B0A99F0D123E037695346AD
:10FE900057B10E994F693FB1B9F1000F06D0204616
:10FEA0000D9942460223D0E7A04601E0A0464F4606
:10FEB0005946A3461C46129A38F8020B0A919047FD
:10FEC0000C9B9847119B01371AB2BA4244F8040BB5
:10FED0000A99F0D15C468B4604EB47040F99012345
:10FEE000B1F908201599109802910021039105910C
:10FEF000594600930193CDF810A0F9F77FF9139AB2
:10FF000022B1013A0BF1010B13926BE7B9F1000F2B
:10FF100004D0FDF707F94846FDF790F9FDF702F91F
:10FF20001498FDF78BF9FDF7FDF81BB0BDE8F08FD5
:10FF30002DE9F04F91B016468A460D90FDF7EAF88C
:10FF40000368454D1B69B0F808B05B68B0F80A80DB
:10FF50000993FDF7E7F86B7C082105EB8303D86C68
:10FF60000FFA8BF4C3689B6A98476B7C172888BF8D
:10FF7000202005EB8305EB6C08901D690020696863
:10FF80002A680A910B9201F0E9FB002861D10FFA6F
:10FF900088F8A30008F1FF380C9381460D98F6F716
:10FFA00057FC09990FAB00EB0902009101935046F1
:10FFB0003146234601F02CFB0746002849D0274B49
:10FFC0000A9A9A422ED02146089A2B4601F0ACF9A3
:10FFD000002827D1D5F810C0BCF1000F05D0384655
:10FFE000394622460423E0471CE03B465246CA46B7
:10FFF000B9462F461D4633462646644628680B9967
:020000021000EC
:1000000007920693884701340FFA8BF1A14245F815
:10001000040B079A069BF1D134463D461E464F46D7
:10002000D1469246089A0123029200220392059239
:10003000504631462246009301930497F9F7DEF8C3
:100040000C9B9944B8F1000F03D0013608F1FF383A
:10005000A4E711B0BDE8F08FC05D0010CB34010003
:1000600073B50C461546064620B3FDF747F8124B0C
:1000700002899C4204BFB0F90440B0F90650A3B213
:10008000013AADF80030D3184289ADF80430013A96
:10009000ABB2ADF802306846D318ADF80630F2F7CF
:1000A000B5FF38B1304621462A46F7F773F9F2F723
:1000B000FBFEF6E77CBD00BF01F0FFFF01490A46E9
:1000C000CEE700BF01F0FFFF034610B533F9144B34
:1000D0000C1BB0F90210521A0169E01001FB023347
:1000E00004F00704802252FA04F41A5C42EA040481
:1000F0001C5410BD70B5B0F906500B68AA42848834
:1001000049DA24B2A342066947DA143006FB020238
:10011000DD10565D601E03F0070416FA04F4C5EB0B
:10012000E000E4B2521907E0002837D008335478D1
:10013000013823F007032A46551C002CF4D002E0B6
:100140006400E4B2013314F0800FF9D0FF2C08D022
:100150001A4602E06400E4B2013214F0400FF9D113
:1001600000E0DA1D02F00704072C0FD10CE015F8AF
:10017000014BFF2C04D1083206E06400E4B20132E6
:1001800014F0800FF9D101E00138F0D5C3F101007E
:100190000B60801870BD002070BD002070BDFDF7A1
:1001A0004DB8B0F90630026900215A43143003F00B
:1001B00038BEF8B5044634F9145B491BB0F9025057
:1001C00001F00707521B0569C81005FB02444D1ECC
:1001D000ED18EE43FF2106F0070651FA07F711FA72
:1001E00006F6D0EBE50504EB0002FFB2F6B2235CA5
:1001F00004D13E4046EA03032354F8BD47EA030313
:10020000013D2354541C002D04DD20462A4603F0F2
:1002100008FE641923781E432670F8BD2DE9F843C3
:1002200002F10F073F117F00044603FB07F0143073
:100230000D4616469846FCF77BFC814658B1FCF704
:100240005DFF064B04808360012345808680A0F813
:100250000680838107614846BDE8F883949F0100CA
:10026000034B10B50446586DFCF748FF446110BDC0
:10027000C05D001010B50446FCF740FF8389013BC8
:100280009BB2838123B92046BDE81040FCF7D6BF5E
:1002900010BD2DE9F843DDF8209004460D46984640
:1002A00000E03A46A36820465E6829464346571C4C
:1002B000B047B9F10109F4D1BDE8F88310B50C4697
:1002C00010B9054B586D30B1FCF718FFB0F90A3082
:1002D0009C42B8BF448110BDC05D001008B510B984
:1002E000064B586D40B1FCF709FF406920B1FCF79F
:1002F00005FF83689B68984708BD00BFC05D00107C
:100300000248012918BF0020704700BFAC9F0100C0
:100310000248162918BF0020704700BFB5F800003A
:10032000006808B5C3681B6A984708BD006808B52F
:10033000C3689B6A984708BD10B580680C46FCF7F7
:10034000DDFE8288018922805218013AC388A2808A
:10035000428963809B18013BE38010BD38B50A4B8E
:100360000446586D0D46FCF7C9FEB0F9062000F1B1
:100370001803AD1AC26802FB0535B0F90430E41A5F
:1003800005EB440038BD00BFC05D001008B508464D
:100390001146FFF7E3FF008808BD134B2DE9F0413C
:1003A0000546586D17460C46FCF7A8FE39464669C7
:1003B0002046FFF7D3FF2B6980469B689847B8F823
:1003C000003080EA0303A8F8003056B13046FCF74D
:1003D00095FE836830461D68FCF790FE21463A463C
:1003E000A847BDE8F08100BFC05D0010F8B51E460B
:1003F0000C4B0C46586D1546FCF780FE29464769A4
:100400002046FFF7ABFF068057B13846FCF776FE73
:10041000836838461E68FCF771FE21462A46B047BD
:10042000F8BD00BFC05D00102DE9F74F284D0190C9
:10043000686D8A4614469946FCF760FE4669804618
:1004400026B13046FCF75AFE074600E037465046D4
:100450002146FFF783FF1E4A0546137CD8F80CB0EF
:1004600013F0010F17D0019A13699B6898471FFA80
:1004700080FB2EB1BB6838461B6851462246984720
:100480002B8801348BEA03034C452B80D8F80C30C1
:100490001BDCED18EDE70F4B1B68D3F8008066B14D
:1004A000BB6822461B6838465146013498474C4584
:1004B000A5F800805D44F3DD07E0C4EB09040134D6
:1004C000013CA5F800805D44FAD1BDE8FE8F00BF75
:1004D000C05D00106C0100102DE9F04F1E46254B49
:1004E000DFF894901B6885B01B688046D9F85400EB
:1004F0000F4614460393FCF701FE21468346384617
:10050000FFF72CFF0546DBF81400C7F10103DBF809
:100510000CA09E1940B3FCF7F1FD0E9AC4F1010343
:100520009B180093394622463346FFF7B2FE1BE084
:1005300099F8103013F0010F0ED0D8F810309B68E6
:1005400098472A4680B233461188013B80EA010170
:1005500022F8021BF8D105E0039B284699B23246E7
:1005600000F0DBFC554401340E9A9442E0DD05B006
:10057000BDE8F08F6C010010C05D001007B500925F
:10058000FFF7AAFF0EBD2DE9F04F8B4C93B00E90F4
:10059000606D0D46904604931F9EDDF88490FCF735
:1005A000ADFD0746406908B1FCF7A8FD0446209858
:1005B000FF6845190B97079564B17F490B7C13F0D1
:1005C000030F07D11C9A2046009229464246049BFD
:1005D000FFF75FFE07984146FFF7C0FE1D9B0546EB
:1005E000102B1FD104984FF000094FEA400A15E084
:1005F00076B16DB128463146524603F00EFC3CB14F
:10060000A36820465F68079909EB0802049BB84776
:100610001E990B9A7618AD1809F101091C9B994592
:10062000E6DB4AE31D9817283BDD4FF0000934E074
:100630000E9910310891002E29D0002D27D009EBFA
:10064000080205922CB1A36820465F680799049BB5
:10065000B847049B079FAB46CA460393A946354655
:100660000898036855F8040B1B6898472BF8020B91
:100670002CB1A36820461B683946059A9847039910
:100680000139039101D00137EAE74D46D1461E9A60
:100690000B9BB618ED1809F101091C988145C7DBC1
:1006A0000BE31D99082974D14FF0000B4F466CE005
:1006B000002F33D0404A137C13F0030302D0022BE7
:1006C0005BD10BE0049B31462A4611F8010B013B3C
:1006D00037F8200022F8020BF7D14EE0049BDDF83A
:1006E0001CA0A946CDF814B00393AB46354615F8C7
:1006F000013B53B137F82330A9F800302CB1A3687F
:1007000020461B685146424698470398013803909B
:1007100030D00AF1010A09F10209E8E726490B7C09
:1007200013F0030302D0022B27D105E028463146FF
:10073000049A03F072FB20E0049ADDF81CA0A9469D
:10074000CDF814B00392AB46354615F8013B43B1E2
:10075000A9F800302CB1A36820461B6851464246D8
:100760009847039B013B039304D00AF1010A09F166
:100770000209EAE75D46DDF814B01E980B993618B9
:100780006D180BF1010B08F101081C9A93458FDBE2
:1007900093E20A4B2098B9F1000F08BF9946209BBD
:1007A00080005B00711C002210931190CDF80C802A
:1007B00008910D927CE200BFC05D0010E09F010037
:1007C0001D9B022B00F0DC80042B00F08481012BA8
:1007D00040F061820899A04A11F8013C2098D75C4A
:1007E000C0F1080B07419D48DDF81080037C03F041
:1007F0000303022B22D0032B67D0012B65D0314697
:100800002B46D84538BFC346CBEB08085A46184696
:1008100007F0010C39F82CC07F08013A20F802CB10
:10082000F6D103EB4B03B8F1000F00F0348211F85E
:10083000012F89484FF0080B875CE2E7B9F80410F4
:10084000DDF81CC033460696099166469A46AC46CA
:10085000D84538BFC346CBEB0808D4B11FB905EB68
:100860004B055E4424E017F0010F0BD0A368039AF8
:100870001B682046CDF808C031469847099ADDF834
:1008800008C02A8001360235BBF1010B10D07F0869
:10089000E4E717B905EB4B050AE017F0010F1CBFA1
:1008A000099B2B800235BBF1010B01D07F08F0E7DB
:1008B000B8F1000F00F0E6810698674910F8013F93
:1008C0004FF0080B0690CF5CC2E70E9AAA46136958
:1008D0009B68984780B20C90089B07980F950693E9
:1008E00009904546B4465D4538BFAB46CBEB0505A0
:1008F00014B95A46234625E0DDF82480CDF828B007
:10090000564617F0010F0ED0A368039A1B682046C5
:10091000CDF808C04146984733880C9ADDF808C0E6
:1009200082EA030333800A9B0236013B08F1010887
:100930000A9301D07F08E4E709980AEB4B0A584470
:10094000099010E017F0010F06D03AF803100C9848
:1009500080EA01012AF803100233013A01D07F082E
:10096000F0E70AEB4B0A002D00F08F8106993A4A16
:100970000B780699D75C013106914FF0080BB2E76E
:100980000898109910F8018C209B08FA01F8334A56
:10099000C3F10407137CFFB203F00303012B5FFADA
:1009A00088F871D0022B26D0002B40F07481049B74
:1009B000A2462A4634469F42C8BFDFB2DB1B3946F7
:1009C00010464FEA981C39F82CC001394FEA8808C4
:1009D000C9B220F802CB5FFA88F80029F1D1013FB3
:1009E000FFB2013702EB4702002B00F0508114F8F0
:1009F000018F0427DFE7079BDDF810A00A96099511
:100A000006930C95B4465745C8BF5FFA8AF7099E0E
:100A1000DDF818B0C7EB0A0A3D4618F0C00F0FD03A
:100A20004FEA981339F8233033804CB1A36820463D
:100A30001B685946CDF808C0039A9847DDF808C0EE
:100A4000013DEDB202360BF1010B4DB14FEA8808C2
:100A50005FFA88F8E1E700BF449C0100C05D001028
:100A6000013F09980699FFB2013700EB4700C91909
:100A700009900691BAF1000F00F00B810A9A042741
:100A800012F8018F0A92BEE7049BB4462A469F42A1
:100A9000C8BFDFB2DB1B3846002118F0C00F05D0FD
:100AA00032F801A08AF0FF0A22F801A00138C0B292
:100AB000023120B14FEA88085FFA88F8EDE7013F7C
:100AC000FFB2013702EB4702002B00F0E4801CF874
:100AD000018F0427DBE7089B119813F8017C784904
:100AE00087400B7CFFB203F00303012B00F09F80D3
:100AF000022B35D0002B40F0CE80209A5AB13F090E
:100B000039F827702B46049823F8027B421EDDF843
:100B10002080777802E0049A2B46B046012A17DD40
:100B20004FEA620C604602F0010219464FEA171ABA
:100B300007F00F0739F82AA039F82770A1F800A0AC
:100B40004F800431013818F8017FEFD103EB8C039B
:100B5000002A00F0A0803F0939F827701F809AE032
:100B60002099C1B117F0F00F0AD03F0939F827706A
:100B70002F802CB1A36820461B680799039A9847D9
:100B8000049B079A03F1FF3B05F1020802F1010AF9
:100B9000089B777805E0DDF810B0DDF81CA0A846CA
:100BA000334606934B46A9464546B0461E4624E0CA
:100BB00017F0F00F0AD03B0936F823302B802CB108
:100BC000A36820461B685146039A984717F00F0701
:100BD0000AD036F827706F8034B1A36820461B68AE
:100BE0000AF10101039A98470698043510F8017F2D
:100BF0000AF1020AABF1020B0690BBF1010FD7DC40
:100C000033464646A8464D469946BBF1000F42D0B2
:100C10003F0940D033F82770A8F80070002C3AD074
:100C2000A36820461B685146039A984733E02099F1
:100C3000049AC1F10203DBB2B04629469342C8BF11
:100C4000D3B2D21A9C46002017F0C00F05D031F85D
:100C500000A08AF0FF0A21F800A00CF1FF3C5FFA27
:100C60008CFC0230BCF1000F02D03F01FFB2EBE779
:100C7000013BDBB2013301EB430162B118F8017FA4
:100C80000223DBE76546564605E00F9D02E0544629
:100C900001E00C9D66460B9B1E9A0D980399ED187A
:100CA000089B013001319B18B6180D9003910893F1
:100CB0000D991C988142FFF683AD13B0BDE8F08F0B
:100CC000C05D001010B50B4C637C04EB8303D86C43
:100CD00038B1C3681B68042B01D00068F8E7FAF745
:100CE000F7FF00236365044B6361BDE81040F8F72C
:100CF00083BB00BFC05D0010C85D001010B500F0E0
:100D000005F8BDE81040F8F7C9BBFFFF73B5134CF9
:100D10000646637C0D4604EB8303D86C6946C368C2
:100D20001B6B9847BDF900309E4215DBBDF90430BE
:100D30009E4211DCBDF902309D420DDBBDF906304B
:100D40009D4209DC637C314604EB8304E06C2A4657
:100D5000C3685B69984700E000207CBDC05D00105F
:100D6000D4E700BF08B50020FAF778FF003818BFB5
:100D7000012008BDF7B5002401900E46254608E085
:100D8000FBF7C4FE2D180CB1B54208DC0A2F06D0C3
:100D9000013401A800F020FD07460028F0D12046CC
:100DA000FEBD2DE9F347002501900C469246A94669
:100DB0002E462F46A84601A800F00EFD002D08BFC4
:100DC000054678B10A281BD10CE0202D04BF3E4611
:100DD000203DFBF79BFE8044A045814600DD17B90E
:100DE0000137E8E73E46002E08BF3E46BAF1000F45
:100DF00003D0C9EB0803CAF800303046BDE8FC87D1
:100E00002028E2D13E46E4E7012A10B502D0022AAA
:100E100009D104E0074A14681A46A04710BD054BE3
:100E20005B68984710BD47F6FF71BDE81040FBF7BF
:100E30007FBD00BFEC0100100023E5E7F0B585B0F1
:100E400003AB15460C460190FFF7DEFF019F0646F7
:100E50003146384600F0D4FC3F1804A840F80C7D19
:100E600000F0BAFC0A2801D1013612E0012D10D1A0
:100E700020280ED1FBF74AFE054607E0EB1801A833
:100E8000039300F0A9FC0136202802D1039B9C4269
:100E9000F4DA304605B0F0BD10B50446FFF7CEFFDA
:100EA00001462046BDE8104000F0AABC10B50C4B2E
:100EB000002908BF1946002808BF184611F8012B61
:100EC00004780346944208D15B780130002BF5D1B9
:100ED0000878003818BF012010BD012010BD00BFE8
:100EE00097B4010010B50C4610B1FCF707F9FFE705
:100EF0002146BDE81040D9E710B5102100234FF07E
:100F000080429C1884429CBFA318C4EB00005B087D
:100F100092080139F5D1184610BD10F0020F70B5D6
:100F20001CBF20F8021B013A5408264604B30D04E6
:100F3000032C0D44034602DC1C46304614E00346F5
:100F40002646043E1D605D609D60DD601033032E0B
:100F5000F7DC043CA608731CB60000EB0313A61BC9
:100F6000EAE744F8045B01380028FAD103EB860075
:100F700012F0010F18BF018070BD03681A782AB102
:100F80000A2A05D101330360002070470120704711
:100F900000207047024BDB69DA7E187E50437047B1
:100FA000C05D0010082A70B506DD102A65DC00EB74
:100FB000410300EB81000AE0013A00EB8103072ABC
:100FC0005BD8DFE802F00B233C3C5A5A5A5333F803
:100FD000022D013940F8042DF9D170BDC1F108028C
:100FE0004C1E02F0070200EBE40001249440057857
:100FF00005EA04041441013243F8044D22F00704C9
:10100000A0EBE20022410139EFD170BDC1F1040231
:101010004C1E02F0030200EBA40054000325A5407F
:1010200006780132354055FA04F443F8044D22F0B5
:101030000304A0EBA20022410139EED170BD4C1E89
:1010400001F0010200EB640094000F25A540067832
:101050000132354055FA04F443F8044D22F00104FE
:10106000A0EB620022410139EED170BD401810F8AA
:10107000012D013943F8042DF9D170BD2DE9F04758
:101080000E1E044640F3A580082A5F6805DD102A7D
:1010900000F39F805D6955B90FE0013A072A00F21D
:1010A0009880DFE802F0173C96649696968C01468D
:1010B00032460223A847BDE8F08700EB460500EB67
:1010C000860435F8020DB847013E44F8040DF8D106
:1010D000BDE8F087751EEB1000EB850A802405F053
:1010E00007052C4100EB030810F8039008F1FF38C6
:1010F000E4B2C5F1070309EA04001841C0B2B847D9
:101100004AF8040925B918F801990124073502E0C5
:101110006400013DE4B2013EEBD1BDE8F087751EED
:10112000AB1000EB850A05F0030500EB030810F88F
:101130000390C0246B001C4108F1FF38E4B2680042
:1011400009EA0403C0F1060053FA00F0C0B2B84740
:101150004AF8040925B9032418F80199254602E044
:10116000A400013DE4B2013EE9D1BDE8F087751E5F
:101170006B1000EB850A05F0010500EB030810F881
:101180000390F024AB001C4108F1FF38E4B2A80042
:1011900009EA0403C0F1040053FA00F0C0B2B847F2
:1011A0004AF8040925B918F801990F24013502E01D
:1011B0002401E4B20025013EE9D1BDE8F08785199C
:1011C00000EB860415F8010DB847013E44F8040D04
:1011D000F8D1BDE8F08749B100284FEA6103B4BFF8
:1011E000C3EB0000181890FBF1F0704708467047F9
:1011F000082A10B504DD102A40F39480002010BDA9
:10120000022A03464CD0042A6CD0012A7DD106E084
:1012100053F8042B013920F8022BF9D173E0024670
:1012200050F8043BDB010139DBB277D050F8044BB6
:10123000013904F0010443EA84136FD050F8044BE1
:10124000013904F0010443EA441367D050F8044B19
:10125000013904F0010443EA04135FD050F8044B51
:10126000013904F0010443EAC40357D050F8044B99
:10127000013904F0010443EA84034FD050F8044BD1
:10128000013904F0010443EA440304D050F8044B4C
:1012900004F00104234302F8013B0029C0D132E0ED
:1012A000024650F8043B9B010139DBB238D050F8BC
:1012B000044B013904F0030443EA041330D050F81E
:1012C000044B013904F0030443EA840305D050F8C9
:1012D000044B013904F00304234302F8013B0029C5
:1012E000DFD110E0024650F8043B1B010139DBB2AC
:1012F00005D050F8044B013904F00F04234302F8E1
:10130000013B0029EFD1012010BD024652F8040B29
:10131000013903F8010BF9D1012010BD0021BAE712
:101320000021DAE7034673E7082A2DE9F041044675
:101330000D461F6805DD102A40F3AC800020BDE893
:10134000F081013A8046072A00F29D80DFE802F032
:1013500010549B779B9B9B8A21462A46022386E05A
:1013600054F8040BB847013D28F8020BF8D187E088
:10137000804654F8040BB847C001013DC6B200F0E6
:10138000858054F8040BB847013D46EA8016F6B252
:101390007CD054F8040BB847013D46EA4016F6B23B
:1013A00074D054F8040BB847013D46EA0016F6B273
:1013B0006CD054F8040BB847013D46EAC006F6B2BB
:1013C00064D054F8040BB847013D46EA8006F6B2F3
:1013D0005CD054F8040BB847013D46EA4006F6B22B
:1013E00005D054F8040BB8470643F6B2013D08F89F
:1013F000016B002DBDD143E0804654F8040BB84783
:101400008001013DC6B243D054F8040BB847013DFA
:1014100046EA0016F6B23BD054F8040BB847013D3B
:1014200046EA8006F6B205D054F8040BB8470643E6
:10143000F6B2013D08F8016B002DDED120E08046B8
:1014400054F8040BB8470001013DC6B205D054F86A
:10145000040BB8470643F6B2013D08F8016B002DB6
:10146000EED10DE01E6926B101462A460123B047A0
:1014700006E054F8040BB847013D08F8010BF8D119
:101480000120BDE8F0810120BDE8F0810025AEE734
:101490000025CFE71E698046002E7FF45DAF5FE731
:1014A0002DE9F0410C4615461E4600283BD001F0C0
:1014B00017FD06F00303012B80460DD0022BB4F973
:1014C00000700DD1B4F904300133DB1B1B1A03EBA0
:1014D000D37307EB630703E0B4F9047001373F1AD5
:1014E00006F00C06FBF7E8FA042E0DD00C2EB4F92A
:1014F00002300DD1B4F906200132D21A121A02EBD1
:10150000D27203EB620303E0B4F9063001331B1A15
:1015100008F1FF3801382F806B804744C318AF8033
:10152000EB80BDE8F0811046082202F076FCBDE8B1
:10153000F081FFFF10B5084C2068FBF720FD6068C4
:10154000FBF71DFDA068FBF71AFD0023A360636095
:101550002360E360236110BDB85700102DE9F84304
:10156000294F98463B6904460D4616463BB9013360
:101570003B61264B384640F8143FFAF789FDFB687B
:101580001BB9F7F7F9FA204BD860B8F1000F02D079
:10159000FB68C8F80030ACB13B68DFF86C9063B909
:1015A000D9F80C008000FBF7F7FCD0F10108C9F86E
:1015B000000038BF4FF0000801E04FF000083B6822
:1015C000236000E0A0466DB17B680F4C43B9E06832
:1015D0008000FBF7E1FC6060002808BF4FF00108C5
:1015E0007B682B606EB1BB68074C43B9E068800034
:1015F000FBF7D2FCA060002808BF4FF00108BB68D1
:1016000033604046BDE8F883B85700103515010037
:101610002DE9F04F91B009911B99002408900B928D
:101620001D460C600FA80EA922460DABFFF796FFD2
:101630000646002840F08880454C0D9B607C9D420A
:10164000A8BF1D4604EB8003DB6C07951A69049361
:101650000A92F7F751FA0590607CF7F770FA3D4B64
:101660008246984205D03C4BC31A18BF012303930E
:1016700000E003960024DDF81CB0264627460B9BAD
:101680001A9918598847020E814606924FD0002FAA
:1016900039D1089B2E49F518B1F90830079AAB42A9
:1016A000C4BFC5EB03071D46089B049902EB030C5E
:1016B00007EB06080F9B01914FEA880809994344FC
:1016C0000CF1FF32009328460B46CDF808C002F01B
:1016D00009FB059A0F98172ADDF808C006DC40447C
:1016E000C7EB0B010A9BFFF7C9FC0BE0039B4BB157
:1016F000C5EB0C0500EB08073868D047013D47F8FB
:10170000040BF9D1012706990F9BFF290E9D02D1E9
:101710001B592B5110E006994846CA43D2B21959B9
:10172000F7F74AFF1B9A01232851136004E00E9B30
:101730001B99185101230B600434BBF1010B01D03C
:1017400001369CE70E9800E0204611B0BDE8F08F0E
:10175000C05D0010CB340100C93401001FB508B1D1
:1017600001AA00E0024603A802A90023FFF7F6FE43
:1017700005B000BD00787047012070470120704718
:10178000017001207047024A024B1A60704700BF87
:1017900040B30100285E001008B5024B1B685B686F
:1017A000984708BD285E001008B5024B1B681B68EF
:1017B000984708BD285E001008B5024B1B68DB681F
:1017C000984708BD285E001008B5024B1B689B684F
:1017D000984708BD285E0010F8B5084E04683368C5
:1017E00005461B6820469847336807465B682046D5
:1017F0009847201828603846F8BD00BF285E0010C2
:1018000070B504460E46002507E0064B20461B68CF
:10181000013E5B68984724182D18002EF5D1284604
:1018200070BD00BF285E0010F8B5002504460F46C5
:101830002E4606E0054B60191B6801365B68984729
:101840002D18AF42F6DC3046F8BD00BF285E001010
:101850000B4B70B51E685D688E1B451B002EB8BF14
:101860007642002DB8BF6D427519022D044605DD84
:1018700058601960BDE8704000F00CB870BD00BF42
:10188000D4570010024B5A6802601B680B60704707
:10189000D45700100028074B06DB002904DB012287
:1018A0001A721860596001E000221A72014800F0B3
:1018B00017B800BFDC570010014B5872704700BFCB
:1018C000DC57001010B5054B044693E8070084E888
:1018D0000700187A003818BF012010BDE857001023
:1018E00070B5084D0C222946044603F0CDF840B1EE
:1018F00094E8070085E807002046BDE87040F9F746
:10190000D7BA70BDE85700102DE9F04F018A8489DD
:10191000C789458A426903680FFA84F80FFA87FC81
:101920000FFA81FB2EB2E2B9B3F902904E4562DBA9
:10193000B3F900A0D3455EDBB3F906A0D4455ADC69
:10194000B3F904A0D04556DCCC4508DAC7805B88E3
:101950000132013B43818480018142614BE00122DD
:1019600042614269012A18D1B3F90090C84512DAE0
:1019700084801988013901815988DB880CB2A4451B
:10198000B8BF0F4619B28E42C8BF1D460223C7809A
:10199000458143612FE0022242614269022A17D148
:1019A000B3F90420934511DD01819A8801328280C8
:1019B0005A88DB8811B28C45B8BF17461AB29642D6
:1019C000C8BF1D46C780458103230EE00322426144
:1019D0004269032A0ED1DB881AB2964208DD013330
:1019E000C38045818480018104234361012202E098
:1019F0000423436100221046BDE8F08F2DE9F04733
:101A00000C9E0D9CB6F90290DDF82880C1EB090709
:101A1000002F089DDDF82CC06060A160E2602361AA
:101A2000C4F8148027600DDDC7EB030ABAF1000F7C
:101A3000C4F810A07FDDC4F80890DDF8249007FBFF
:101A400009876761B6F90670FF437918C91800293C
:101A5000216004DD2369591A002921616EDDB6F980
:101A60000430C31A013B9B18002BC8BFC3EB020212
:101A70002360B6F90030C8BFE2609842C4F800C0E5
:101A800046DAE2681B1AD21A6244082D2360E2602B
:101A90002FD006DC022D16D0042D1FD0012D37D1FA
:101AA00006E0182D2CD0202D2AD0102D30D123E087
:101AB000626902EBE302626123F0070210186060C2
:101AC00003F0070323E0626902EBA302626123F0E3
:101AD00003021018606003F0030318E0626902EB70
:101AE0006302626123F001021018606003F00103D9
:101AF0000DE06269D21806E0626902EB430202E07F
:101B0000626902EB8302181862616060002323603F
:101B100022686368E168D318B6F904205918914225
:101B200002DD0132D31AE360E0680028CCBF002058
:101B30000120BDE8F0870120BDE8F0870120BDE865
:101B4000F08700207047006808B510B1C3681B6AB1
:101B5000984708BD00207047006808B510B1C368F9
:101B60009B6A984708BD006808B510B1C3681B6B35
:101B7000984708BD10B5FBF7CDFA0068FAF7C0F832
:101B8000BDE81040FBF7CEBA10B5B2F904400346E9
:101B9000A342D06912DBB2F9062091420EDB1B1B77
:101BA0000488A3420ADA8A1A41888A4208DA194666
:101BB00001F00DFA003818BF012010BD002010BD43
:101BC000002010BD2DE9F047074680680E461546F7
:101BD000FBF7A0FA0446B0F80890B0F80480294654
:101BE000304622463F68FFF7CFFFD0B1B4F904304A
:101BF0000FFA89F9F61AB4F9063009F10109ED1A5C
:101C00003B690FFA88F89B689847C8EB090808FBFE
